{
  "contractName": "AirDrop",
  "abi": [
    {
      "anonymous": false,
      "inputs": [
        {
          "indexed": false,
          "internalType": "address",
          "name": "vip",
          "type": "address"
        },
        {
          "indexed": false,
          "internalType": "uint256",
          "name": "before",
          "type": "uint256"
        },
        {
          "indexed": false,
          "internalType": "uint256",
          "name": "now",
          "type": "uint256"
        }
      ],
      "name": "ChangeVIP",
      "type": "event"
    },
    {
      "anonymous": false,
      "inputs": [
        {
          "indexed": false,
          "internalType": "enum AirDrop.Role",
          "name": "role",
          "type": "uint8"
        },
        {
          "indexed": false,
          "internalType": "uint256",
          "name": "claimedAmount",
          "type": "uint256"
        },
        {
          "indexed": false,
          "internalType": "enum AirDrop.ClaimStage",
          "name": "stage",
          "type": "uint8"
        },
        {
          "indexed": false,
          "internalType": "uint256",
          "name": "sinceMonth",
          "type": "uint256"
        },
        {
          "indexed": false,
          "internalType": "uint256",
          "name": "toMonth",
          "type": "uint256"
        }
      ],
      "name": "Claimed",
      "type": "event"
    },
    {
      "anonymous": false,
      "inputs": [
        {
          "indexed": false,
          "internalType": "address",
          "name": "foundation",
          "type": "address"
        },
        {
          "indexed": false,
          "internalType": "enum AirDrop.ClaimStage",
          "name": "stage",
          "type": "uint8"
        },
        {
          "indexed": false,
          "internalType": "uint256",
          "name": "amount",
          "type": "uint256"
        }
      ],
      "name": "FoundationClaimed",
      "type": "event"
    },
    {
      "anonymous": false,
      "inputs": [
        {
          "indexed": false,
          "internalType": "address",
          "name": "account",
          "type": "address"
        },
        {
          "indexed": false,
          "internalType": "uint256",
          "name": "amount",
          "type": "uint256"
        }
      ],
      "name": "FoundationClaimedVIPs",
      "type": "event"
    },
    {
      "anonymous": false,
      "inputs": [
        {
          "indexed": false,
          "internalType": "uint8",
          "name": "version",
          "type": "uint8"
        }
      ],
      "name": "Initialized",
      "type": "event"
    },
    {
      "anonymous": false,
      "inputs": [
        {
          "indexed": true,
          "internalType": "address",
          "name": "previousOwner",
          "type": "address"
        },
        {
          "indexed": true,
          "internalType": "address",
          "name": "newOwner",
          "type": "address"
        }
      ],
      "name": "OwnershipTransferred",
      "type": "event"
    },
    {
      "anonymous": false,
      "inputs": [
        {
          "indexed": false,
          "internalType": "uint256",
          "name": "proposalId",
          "type": "uint256"
        },
        {
          "indexed": false,
          "internalType": "enum AirDrop.ProposalPurpose",
          "name": "purpose",
          "type": "uint8"
        }
      ],
      "name": "ProposalExecuted",
      "type": "event"
    },
    {
      "anonymous": false,
      "inputs": [
        {
          "indexed": false,
          "internalType": "uint256",
          "name": "proposalId",
          "type": "uint256"
        },
        {
          "indexed": false,
          "internalType": "address",
          "name": "signer",
          "type": "address"
        }
      ],
      "name": "ProposalSigned",
      "type": "event"
    },
    {
      "anonymous": false,
      "inputs": [
        {
          "indexed": false,
          "internalType": "uint256",
          "name": "proposalId",
          "type": "uint256"
        },
        {
          "indexed": false,
          "internalType": "uint256",
          "name": "executeTime",
          "type": "uint256"
        }
      ],
      "name": "ProposalSucc",
      "type": "event"
    },
    {
      "anonymous": false,
      "inputs": [
        {
          "indexed": false,
          "internalType": "address",
          "name": "from",
          "type": "address"
        },
        {
          "indexed": false,
          "internalType": "uint256",
          "name": "currentMonth",
          "type": "uint256"
        },
        {
          "indexed": false,
          "internalType": "uint256",
          "name": "amount",
          "type": "uint256"
        },
        {
          "indexed": false,
          "internalType": "uint256",
          "name": "remainedToVips",
          "type": "uint256"
        }
      ],
      "name": "ReceivedInterFund",
      "type": "event"
    },
    {
      "anonymous": false,
      "inputs": [
        {
          "indexed": false,
          "internalType": "uint256",
          "name": "proposalId",
          "type": "uint256"
        },
        {
          "indexed": false,
          "internalType": "address",
          "name": "proposer",
          "type": "address"
        },
        {
          "indexed": false,
          "internalType": "enum AirDrop.ProposalPurpose",
          "name": "purpose",
          "type": "uint8"
        },
        {
          "indexed": false,
          "internalType": "address[]",
          "name": "vips",
          "type": "address[]"
        },
        {
          "indexed": false,
          "internalType": "uint256[]",
          "name": "ratios",
          "type": "uint256[]"
        }
      ],
      "name": "SendProposal",
      "type": "event"
    },
    {
      "anonymous": false,
      "inputs": [
        {
          "indexed": false,
          "internalType": "address",
          "name": "vip",
          "type": "address"
        },
        {
          "indexed": false,
          "internalType": "uint256",
          "name": "sinceMonth",
          "type": "uint256"
        },
        {
          "indexed": false,
          "internalType": "uint256",
          "name": "toMonth",
          "type": "uint256"
        },
        {
          "indexed": false,
          "internalType": "uint256",
          "name": "amount",
          "type": "uint256"
        }
      ],
      "name": "VIPClaimed",
      "type": "event"
    },
    {
      "inputs": [],
      "name": "owner",
      "outputs": [
        {
          "internalType": "address",
          "name": "",
          "type": "address"
        }
      ],
      "stateMutability": "view",
      "type": "function"
    },
    {
      "inputs": [],
      "name": "renounceOwnership",
      "outputs": [],
      "stateMutability": "nonpayable",
      "type": "function"
    },
    {
      "inputs": [
        {
          "internalType": "address",
          "name": "newOwner",
          "type": "address"
        }
      ],
      "name": "transferOwnership",
      "outputs": [],
      "stateMutability": "nonpayable",
      "type": "function"
    },
    {
      "stateMutability": "payable",
      "type": "receive"
    },
    {
      "inputs": [
        {
          "internalType": "address[]",
          "name": "vips",
          "type": "address[]"
        },
        {
          "internalType": "uint256[]",
          "name": "ratios",
          "type": "uint256[]"
        },
        {
          "internalType": "address[]",
          "name": "foundationManagers",
          "type": "address[]"
        },
        {
          "internalType": "address[]",
          "name": "boardDirectors",
          "type": "address[]"
        }
      ],
      "name": "initialize",
      "outputs": [],
      "stateMutability": "nonpayable",
      "type": "function"
    },
    {
      "inputs": [],
      "name": "deployedAt",
      "outputs": [
        {
          "internalType": "uint256",
          "name": "",
          "type": "uint256"
        }
      ],
      "stateMutability": "view",
      "type": "function"
    },
    {
      "inputs": [
        {
          "internalType": "address",
          "name": "account",
          "type": "address"
        }
      ],
      "name": "getRole",
      "outputs": [
        {
          "internalType": "enum AirDrop.Role",
          "name": "",
          "type": "uint8"
        }
      ],
      "stateMutability": "view",
      "type": "function"
    },
    {
      "inputs": [],
      "name": "getVIPs",
      "outputs": [
        {
          "internalType": "address[]",
          "name": "",
          "type": "address[]"
        },
        {
          "internalType": "uint256[]",
          "name": "",
          "type": "uint256[]"
        }
      ],
      "stateMutability": "view",
      "type": "function"
    },
    {
      "inputs": [
        {
          "internalType": "address",
          "name": "vip",
          "type": "address"
        }
      ],
      "name": "getVIPInfo",
      "outputs": [
        {
          "internalType": "uint256",
          "name": "",
          "type": "uint256"
        },
        {
          "internalType": "uint256",
          "name": "",
          "type": "uint256"
        },
        {
          "internalType": "uint256",
          "name": "",
          "type": "uint256"
        },
        {
          "internalType": "uint256",
          "name": "",
          "type": "uint256"
        }
      ],
      "stateMutability": "view",
      "type": "function"
    },
    {
      "inputs": [],
      "name": "remainedToVIPs",
      "outputs": [
        {
          "internalType": "uint256",
          "name": "",
          "type": "uint256"
        }
      ],
      "stateMutability": "view",
      "type": "function"
    },
    {
      "inputs": [],
      "name": "claimable",
      "outputs": [
        {
          "internalType": "enum AirDrop.Role",
          "name": "",
          "type": "uint8"
        },
        {
          "internalType": "uint256",
          "name": "",
          "type": "uint256"
        },
        {
          "internalType": "enum AirDrop.ClaimStage",
          "name": "",
          "type": "uint8"
        },
        {
          "internalType": "uint256",
          "name": "",
          "type": "uint256"
        },
        {
          "internalType": "uint256",
          "name": "",
          "type": "uint256"
        }
      ],
      "stateMutability": "view",
      "type": "function"
    },
    {
      "inputs": [],
      "name": "claim",
      "outputs": [],
      "stateMutability": "nonpayable",
      "type": "function"
    },
    {
      "inputs": [],
      "name": "foundationWithdrawed",
      "outputs": [
        {
          "internalType": "uint256",
          "name": "",
          "type": "uint256"
        }
      ],
      "stateMutability": "view",
      "type": "function"
    },
    {
      "inputs": [],
      "name": "receiveIntermidiateFund",
      "outputs": [],
      "stateMutability": "payable",
      "type": "function"
    },
    {
      "inputs": [],
      "name": "foundationClaimVIPs",
      "outputs": [],
      "stateMutability": "nonpayable",
      "type": "function"
    },
    {
      "inputs": [
        {
          "internalType": "enum AirDrop.ProposalPurpose",
          "name": "purpose",
          "type": "uint8"
        },
        {
          "internalType": "address[]",
          "name": "vips",
          "type": "address[]"
        },
        {
          "internalType": "uint256[]",
          "name": "ratios",
          "type": "uint256[]"
        }
      ],
      "name": "propose",
      "outputs": [
        {
          "internalType": "uint256",
          "name": "",
          "type": "uint256"
        }
      ],
      "stateMutability": "nonpayable",
      "type": "function"
    },
    {
      "inputs": [],
      "name": "threshold",
      "outputs": [
        {
          "internalType": "uint256",
          "name": "",
          "type": "uint256"
        }
      ],
      "stateMutability": "pure",
      "type": "function"
    },
    {
      "inputs": [
        {
          "internalType": "uint256",
          "name": "_proposalId",
          "type": "uint256"
        }
      ],
      "name": "signTransaction",
      "outputs": [
        {
          "internalType": "bool",
          "name": "",
          "type": "bool"
        }
      ],
      "stateMutability": "nonpayable",
      "type": "function"
    },
    {
      "inputs": [
        {
          "internalType": "uint256",
          "name": "_proposalId",
          "type": "uint256"
        }
      ],
      "name": "executeProposal",
      "outputs": [],
      "stateMutability": "nonpayable",
      "type": "function"
    }
  ],
  "bytecode": "0x608060405234801561001057600080fd5b50612b96806100206000396000f3fe60806040526004361061010d5760003560e01c8063863f074911610095578063d69df8d611610064578063d69df8d6146102bc578063d8330c7e146102d1578063e83c4148146102f4578063eae4c19f14610334578063f2fde38b1461034957600080fd5b8063863f0749146102225780638da5cb5b1461024e578063a15842dc14610276578063af38d7571461029657600080fd5b80634e71d92d116100dc5780634e71d92d146101a05780635ca0e219146101b55780635d9ec210146101d55780635f57bfe314610205578063715018a61461020d57600080fd5b80630d61b5191461011957806342cde4e81461013b578063432f0fad1461015e578063442767331461017357600080fd5b3661011457005b600080fd5b34801561012557600080fd5b5061013961013436600461259d565b610369565b005b34801561014757600080fd5b5060035b6040519081526020015b60405180910390f35b34801561016a57600080fd5b5060695461014b565b34801561017f57600080fd5b5061019361018e3660046125d2565b610866565b6040516101559190612613565b3480156101ac57600080fd5b506101396108b5565b3480156101c157600080fd5b506101396101d036600461275e565b610969565b3480156101e157600080fd5b506101f56101f036600461259d565b611238565b6040519015158152602001610155565b61013961145d565b34801561021957600080fd5b50610139611590565b34801561022e57600080fd5b5060016000526067602052600080516020612b418339815191525461014b565b34801561025a57600080fd5b506033546040516001600160a01b039091168152602001610155565b34801561028257600080fd5b5061014b61029136600461280b565b6115a4565b3480156102a257600080fd5b506102ab61189b565b604051610155959493929190612885565b3480156102c857600080fd5b50610139611908565b3480156102dd57600080fd5b506102e6611ace565b604051610155929190612934565b34801561030057600080fd5b5061031461030f3660046125d2565b611cae565b604080519485526020850193909352918301526060820152608001610155565b34801561034057600080fd5b5060725461014b565b34801561035557600080fd5b506101396103643660046125d2565b611ced565b60008181526074602052604090205460ff16156103cd5760405162461bcd60e51b815260206004820152601a60248201527f70726f706f73616c20686173206265656e20657865637574656400000000000060448201526064015b60405180910390fd5b600081815260736020526040902080546001600160a01b03166104465760405162461bcd60e51b815260206004820152602b60248201527f70726f70736f616c207769746820746869732070726f706f73616c4964206d6160448201526a1e481b9bdd08195e1a5cdd60aa1b60648201526084016103c4565b60038082015460ff16101561049d5760405162461bcd60e51b815260206004820152601b60248201527f70726f706f73616c206e6f74206d656574207468726573686f6c64000000000060448201526064016103c4565b60008154600160a01b900460ff1680156104b9576104b96125ed565b141561080357606f5460005b60018301548110156107aa576000606b60008560010184815481106104ec576104ec612962565b60009182526020808320909101546001600160a01b03168352820192909252604001902054600285018054919250908390811061052b5761052b612962565b9060005260206000200154606b600086600101858154811061054f5761054f612962565b60009182526020808320909101546001600160a01b03168352820192909252604001902055806105cc57606e84600101838154811061059057610590612962565b60009182526020808320909101548354600181018555938352912090910180546001600160a01b0319166001600160a01b039092169190911790555b8360020182815481106105e1576105e1612962565b9060005260206000200154606c600086600101858154811061060557610605612962565b60009182526020808320909101546001600160a01b03168352820192909252604001812090610632611d66565b61063d90600161298e565b8152602001908152602001600020819055506001606d600086600101858154811061066a5761066a612962565b60009182526020808320909101546001600160a01b03168352820192909252604001812090610697611d66565b6106a290600161298e565b81526020810191909152604001600020805460ff1916911515919091179055600284018054839081106106d7576106d7612962565b906000526020600020015481846106ee91906129a6565b6106f8919061298e565b92507f61510c33cf0dc9f0442419b6ecbdd956446ba54f31957d0b201d49275f5cbbda84600101838154811061073057610730612962565b9060005260206000200160009054906101000a90046001600160a01b03168286600201858154811061076457610764612962565b60009182526020918290200154604080516001600160a01b0390951685529184019290925282015260600160405180910390a150806107a2816129bd565b9150506104c5565b506305f5e1008111156107ff5760405162461bcd60e51b815260206004820152601e60248201527f746f74616c20726174696f73206d757374203c3d20313030202a20316536000060448201526064016103c4565b606f555b60008281526074602052604090819020805460ff19166001179055815490517f5b9614f21773d68c0b149bda804ff3d491c8bc8795f7ed236cc97804cd0053899161085a918591600160a01b900460ff16906129ec565b60405180910390a15050565b6068546000906001600160a01b038381169116141561088757506001919050565b6001600160a01b0382166000908152606b6020526040902054156108ad57506002919050565b506000919050565b6068546001600160a01b0316331415610910576000806108d3611d88565b915091507f1f97657363cfbbbb42ebc61fc28402c55e4c05aa257c8dabc8768546e581f7886001838360008060405161085a959493929190612885565b600080600061091d611f0c565b9250925092507f1f97657363cfbbbb42ebc61fc28402c55e4c05aa257c8dabc8768546e581f7886002846001858560405161095c959493929190612885565b60405180910390a1505050565b600054610100900460ff16158080156109895750600054600160ff909116105b806109a35750303b1580156109a3575060005460ff166001145b610a065760405162461bcd60e51b815260206004820152602e60248201527f496e697469616c697a61626c653a20636f6e747261637420697320616c72656160448201526d191e481a5b9a5d1a585b1a5e995960921b60648201526084016103c4565b6000805460ff191660011790558015610a29576000805461ff0019166101001790555b610a31612038565b600283511015610a8f5760405162461bcd60e51b815260206004820152602360248201527f6d7573742070726f76696465203e3220666f756e646174696f6e206d616e616760448201526265727360e81b60648201526084016103c4565b600382511015610aeb5760405162461bcd60e51b815260206004820152602160248201527f6d7573742070726f76696465203e203320626f617264206469726563746f72796044820152607360f81b60648201526084016103c4565b8451610b2e5760405162461bcd60e51b81526020600482015260126024820152717a65726f2076697073206163636f756e747360701b60448201526064016103c4565b8351855114610b8f5760405162461bcd60e51b815260206004820152602760248201527f766970732e6c656e677468206d75737420657175616c20746f20726174696f7360448201526605cd8cadccee8d60cb1b60648201526084016103c4565b606760205267d02ab486cedc0000600080516020612b4183398151915281905560026000527f34a128ff2438bccb68124de780ea45be60aca78c6fb6ce114324ee2dd88c546d5542607255680340aad21b3b70000060695560015b600c8111610c2257600c606954610c019190612a00565b6000828152606a602052604090205580610c1a816129bd565b915050610bea565b5082600081518110610c3657610c36612962565b6020026020010151606860006101000a8154816001600160a01b0302191690836001600160a01b0316021790555060005b8351811015610d445760006001600160a01b0316848281518110610c8d57610c8d612962565b60200260200101516001600160a01b03161415610ce35760405162461bcd60e51b81526020600482015260146024820152731a185cc8195b5c1d1e48199b481858d8dbdd5b9d60621b60448201526064016103c4565b6065848281518110610cf757610cf7612962565b60209081029190910181015182546001810184556000938452919092200180546001600160a01b0319166001600160a01b0390921691909117905580610d3c816129bd565b915050610c67565b5060005b8251811015610e2e5760006001600160a01b0316838281518110610d6e57610d6e612962565b60200260200101516001600160a01b03161415610dcd5760405162461bcd60e51b815260206004820181905260248201527f68617320656d70747920626f617264206469726563746f72206163636f756e7460448201526064016103c4565b6066838281518110610de157610de1612962565b60209081029190910181015182546001810184556000938452919092200180546001600160a01b0319166001600160a01b0390921691909117905580610e26816129bd565b915050610d48565b506000805b865181101561118e5760006001600160a01b0316878281518110610e5957610e59612962565b60200260200101516001600160a01b03161415610eb05760405162461bcd60e51b81526020600482015260156024820152741a185cc8195b5c1d1e481d9a5c081858d8dbdd5b9d605a1b60448201526064016103c4565b60685487516001600160a01b0390911690889083908110610ed357610ed3612962565b60200260200101516001600160a01b03161415610f435760405162461bcd60e51b815260206004820152602860248201527f7669702063616e277420626520666f756e646174696f6e206174207468652073604482015267616d652074696d6560c01b60648201526084016103c4565b606b6000888381518110610f5957610f59612962565b60200260200101516001600160a01b03166001600160a01b0316815260200190815260200160002054600014610fd15760405162461bcd60e51b815260206004820152601b60248201527f666f756e64206475706c696361746520766970206163636f756e74000000000060448201526064016103c4565b858181518110610fe357610fe3612962565b6020026020010151606b600089848151811061100157611001612962565b60200260200101516001600160a01b03166001600160a01b031681526020019081526020016000208190555085818151811061103f5761103f612962565b6020026020010151606c600089848151811061105d5761105d612962565b60200260200101516001600160a01b03166001600160a01b03168152602001908152602001600020600060018152602001908152602001600020819055506001606d60008984815181106110b3576110b3612962565b60200260200101516001600160a01b03166001600160a01b0316815260200190815260200160002060006001815260200190815260200160002060006101000a81548160ff021916908315150217905550606e87828151811061111857611118612962565b60209081029190910181015182546001810184556000938452919092200180546001600160a01b0319166001600160a01b03909216919091179055855186908290811061116757611167612962565b60200260200101518261117a919061298e565b915080611186816129bd565b915050610e33565b506305f5e1008111156111e35760405162461bcd60e51b815260206004820152601e60248201527f746f74616c20726174696f73206d757374203c3d20313030202a20316536000060448201526064016103c4565b606f55603c6076558015611231576000805461ff0019169055604051600181527f7f26b83ff96e1f2b6a682f133852f6798a09c465da95921460cefb38474024989060200160405180910390a15b5050505050565b60008061124433612067565b9050806112ac5760405162461bcd60e51b815260206004820152603060248201527f6f6e6c7920466f756e646174696f6e4d616e61676572206f7220426f6172644460448201526f34b932b1ba37b91031b0b71039b4b3b760811b60648201526084016103c4565b6000838152607360209081526040808320338452600581019092529091205460ff166001141561130f5760405162461bcd60e51b815260206004820152600e60248201526d185b1c9958591e481cda59db995960921b60448201526064016103c4565b3360009081526005820160205260409020805460ff19166001179055611333600390565b600382015460ff16106113885760405162461bcd60e51b815260206004820152601f60248201527f70726f706f73616c20616c7265616479206d656574207468726573686f6c640060448201526064016103c4565b60038101805460ff1690600061139d83612a22565b91906101000a81548160ff021916908360ff160217905550506113be600390565b600382015460ff16141561141b576076546113d9904261298e565b600482018190556040805186815260208101929092527fc1c62f7a4ab2392fbcddb6593f8ef5c9fb946ef6cf0617c1ba61f5ee17b3f4a4910160405180910390a15b604080518581523360208201527fc47a1536197401b36a117101725a5dfa1495e2643f664e4a10289c7bba944447910160405180910390a15060019392505050565b600034116114995760405162461bcd60e51b81526020600482015260096024820152681e995c9bc81553925560ba1b60448201526064016103c4565b60006114a3611d66565b9050600c81106114b05750565b60006114ba611d66565b6114c590600c6129a6565b905060006114d483600161298e565b90505b600c8111611523576114e98234612a00565b6000828152606a6020526040902054611502919061298e565b6000828152606a60205260409020558061151b816129bd565b9150506114d7565b5034606954611532919061298e565b6069557f524512d8e0eac00cf25cb79ab409472e59859b1df1fc006839e08ef47af3e1563361155f611d66565b606954604080516001600160a01b03909416845260208401929092523491830191909152606082015260800161085a565b611598612132565b6115a2600061218c565b565b600081518351146116055760405162461bcd60e51b815260206004820152602560248201527f7669707320616e6420726174696f73206d75737420686176652073616d65206c6044820152640cadccee8d60db1b60648201526084016103c4565b606f5460005b845181101561177d5760006001600160a01b031685828151811061163157611631612962565b60200260200101516001600160a01b031614156116875760405162461bcd60e51b8152602060048201526014602482015273686173207a65726f20766970206164647265737360601b60448201526064016103c4565b6305f5e10084828151811061169e5761169e612962565b602002602001015111156116f45760405162461bcd60e51b815260206004820152601760248201527f726174696f206d757374203c3d20313030202a2031653600000000000000000060448201526064016103c4565b6000606b600087848151811061170c5761170c612962565b60200260200101516001600160a01b03166001600160a01b0316815260200190815260200160002054905084828151811061174957611749612962565b6020026020010151818461175d91906129a6565b611767919061298e565b9250508080611775906129bd565b91505061160b565b506305f5e1008111156117d25760405162461bcd60e51b815260206004820152601c60248201527f746f74616c20726174696f206d757374203c3d313030202a203165360000000060448201526064016103c4565b60006117dc6121de565b60008181526073602052604090208054919250908790829060ff60a01b1916600160a01b83801561180f5761180f6125ed565b021790555080546001600160a01b03191633178155855161183990600183019060208901906124e8565b50845161184f906002830190602088019061254d565b507f43ec38558c1ddced65f8b46eb4cc9da552e6460d21d136f1913e41e6bca34c818233898989604051611887959493929190612a42565b60405180910390a1509150505b9392505050565b606854600090819081908190819033906001600160a01b03168114156118df576000806118c66121fc565b6001995090975095506000945084935061190192505050565b60008060006118ed84612310565b60029b509199506001985096509450505050505b9091929394565b6068546001600160a01b0316331461196d5760405162461bcd60e51b815260206004820152602260248201527f6f6e6c7920466f756e646174696f6e206163636f756e7420697320616c6c6f77604482015261195960f21b60648201526084016103c4565b600c611977611d66565b116119dd5760405162461bcd60e51b815260206004820152603060248201527f6f6e6c79206578636365656465732074686520746f74616c20706572696f647360448201526f2831796561722f31326d6f6e7468732960801b60648201526084016103c4565b600060695411611a405760405162461bcd60e51b815260206004820152602860248201527f616c6c20636c61696d65642062792056495073287a65726f2072656d61696e6560448201526764546f566970732960c01b60648201526084016103c4565b6068546069546040516001600160a01b039092169181156108fc0291906000818181858888f19350505050158015611a7c573d6000803e3d6000fd5b50606854606954604080516001600160a01b03909316835260208301919091527fca14fce09669ec5f8f5c6babd51becf89f79d8247452c0796bd567dc334edc1c910160405180910390a16000606955565b6060806000805b606554811015611b3257336001600160a01b031660658281548110611afc57611afc612962565b6000918252602090912001546001600160a01b03161415611b205760019150611b32565b80611b2a816129bd565b915050611ad5565b5080611b805760405162461bcd60e51b815260206004820152601e60248201527f6f6e6c7920466f756e646174696f6e4d616e6167657220616c6c6f776564000060448201526064016103c4565b606e5460009067ffffffffffffffff811115611b9e57611b9e612626565b604051908082528060200260200182016040528015611bc7578160200160208202803683370190505b50905060005b606e54811015611c4457606b6000606e8381548110611bee57611bee612962565b60009182526020808320909101546001600160a01b031683528201929092526040019020548251839083908110611c2757611c27612962565b602090810291909101015280611c3c816129bd565b915050611bcd565b50606e8181805480602002602001604051908101604052809291908181526020018280548015611c9d57602002820191906000526020600020905b81546001600160a01b03168152600190910190602001808311611c7f575b505050505091509350935050509091565b6000806000806000806000611cc288612310565b6001600160a01b039a909a166000908152607160205260409020549a91999098509650945050505050565b611cf5612132565b6001600160a01b038116611d5a5760405162461bcd60e51b815260206004820152602660248201527f4f776e61626c653a206e6577206f776e657220697320746865207a65726f206160448201526564647265737360d01b60648201526084016103c4565b611d638161218c565b50565b600061012c60725442611d7991906129a6565b611d839190612a00565b905090565b600080600080611d966121fc565b9150915060008211611dea5760405162461bcd60e51b815260206004820152601960248201527f666f756e646174696f6e20697320756e636c61696d61626c650000000000000060448201526064016103c4565b600060676000836002811115611e0257611e026125ed565b6002811115611e1357611e136125ed565b81526020810191909152604001600020556002816002811115611e3857611e386125ed565b148015611e5d575060016000526067602052600080516020612b418339815191525415155b15611e7f57600160009081526067602052600080516020612b41833981519152555b6068546040516001600160a01b039091169083156108fc029084906000818181858888f19350505050158015611eb9573d6000803e3d6000fd5b506068546040517fb583b574cf4deea055365ab631473dde147178d55e2256615042adef14b5352191611efb916001600160a01b039091169084908690612a95565b60405180910390a190939092509050565b600080600080600080611f1e33612310565b92509250925060008311611f745760405162461bcd60e51b815260206004820152601760248201527f746869732076697020697320756e636c61696d61626c6500000000000000000060448201526064016103c4565b82606954611f8291906129a6565b606955336000908152607060209081526040808320849055607190915281208054859290611fb190849061298e565b9091555050604051339084156108fc029085906000818181858888f19350505050158015611fe3573d6000803e3d6000fd5b506040805133815260208101849052908101829052606081018490527f492260c962814e00979c28ab1a8e017c2c322cc5ed8636cc0863ded4ac5e3d589060800160405180910390a191959094509092509050565b600054610100900460ff1661205f5760405162461bcd60e51b81526004016103c490612abf565b6115a26124b8565b6000805b6065548110156120c857826001600160a01b03166065828154811061209257612092612962565b6000918252602090912001546001600160a01b031614156120b65750600192915050565b806120c0816129bd565b91505061206b565b5060005b60665481101561212957826001600160a01b0316606682815481106120f3576120f3612962565b6000918252602090912001546001600160a01b031614156121175750600292915050565b80612121816129bd565b9150506120cc565b50600092915050565b6033546001600160a01b031633146115a25760405162461bcd60e51b815260206004820181905260248201527f4f776e61626c653a2063616c6c6572206973206e6f7420746865206f776e657260448201526064016103c4565b603380546001600160a01b038381166001600160a01b0319831681179093556040519116919082907f8be0079c531659141344cd1fd0a4f28419497f9722a3daafe3b4186f6b6457e090600090a35050565b60758054600091826121ef836129bd565b9190505550607554905090565b600080600060019050610384607254612215919061298e565b421115612220575060025b60008060676000846002811115612239576122396125ed565b600281111561224a5761224a6125ed565b81526020019081526020016000205411156122a35760676000836002811115612275576122756125ed565b6002811115612286576122866125ed565b815260200190815260200160002054816122a0919061298e565b90505b60028260028111156122b7576122b76125ed565b1480156122dc575060016000526067602052600080516020612b418339815191525415155b156123085760016000526067602052600080516020612b4183398151915254612305908261298e565b90505b939092509050565b60008060006069546000141561232e575060009150819050806124b1565b6000612338611d66565b9050600c8111156123475750600c5b6001600160a01b0385166000908152607060205260409020548181141561237a57600080600094509450945050506124b1565b60008061238883600161298e565b90505b838111612499576000815b8015612405576001600160a01b038a166000908152606d6020908152604080832084845290915290205460ff16156123f3576001600160a01b038a166000908152606c602090815260408083208484529091529020549150612405565b806123fd81612b0a565b915050612396565b506000826001141561243f576000838152606a602052604090205460649061242e908490612b21565b6124389190612a00565b9050612478565b6000838152606a6020526040902054620f424090606490612461908590612b21565b61246b9190612a00565b6124759190612a00565b90505b612482818561298e565b935050508080612491906129bd565b91505061238b565b50806124a683600161298e565b849550955095505050505b9193909250565b600054610100900460ff166124df5760405162461bcd60e51b81526004016103c490612abf565b6115a23361218c565b82805482825590600052602060002090810192821561253d579160200282015b8281111561253d57825182546001600160a01b0319166001600160a01b03909116178255602090920191600190910190612508565b50612549929150612588565b5090565b82805482825590600052602060002090810192821561253d579160200282015b8281111561253d57825182559160200191906001019061256d565b5b808211156125495760008155600101612589565b6000602082840312156125af57600080fd5b5035919050565b80356001600160a01b03811681146125cd57600080fd5b919050565b6000602082840312156125e457600080fd5b611894826125b6565b634e487b7160e01b600052602160045260246000fd5b60038110611d6357611d636125ed565b6020810161262083612603565b91905290565b634e487b7160e01b600052604160045260246000fd5b604051601f8201601f1916810167ffffffffffffffff8111828210171561266557612665612626565b604052919050565b600067ffffffffffffffff82111561268757612687612626565b5060051b60200190565b600082601f8301126126a257600080fd5b813560206126b76126b28361266d565b61263c565b82815260059290921b840181019181810190868411156126d657600080fd5b8286015b848110156126f8576126eb816125b6565b83529183019183016126da565b509695505050505050565b600082601f83011261271457600080fd5b813560206127246126b28361266d565b82815260059290921b8401810191818101908684111561274357600080fd5b8286015b848110156126f85780358352918301918301612747565b6000806000806080858703121561277457600080fd5b843567ffffffffffffffff8082111561278c57600080fd5b61279888838901612691565b955060208701359150808211156127ae57600080fd5b6127ba88838901612703565b945060408701359150808211156127d057600080fd5b6127dc88838901612691565b935060608701359150808211156127f257600080fd5b506127ff87828801612691565b91505092959194509250565b60008060006060848603121561282057600080fd5b83356001811061282f57600080fd5b9250602084013567ffffffffffffffff8082111561284c57600080fd5b61285887838801612691565b9350604086013591508082111561286e57600080fd5b5061287b86828701612703565b9150509250925092565b60a0810161289287612603565b8682528560208301526128a485612603565b8460408301528360608301528260808301529695505050505050565b600081518084526020808501945080840160005b838110156128f95781516001600160a01b0316875295820195908201906001016128d4565b509495945050505050565b600081518084526020808501945080840160005b838110156128f957815187529582019590820190600101612918565b60408152600061294760408301856128c0565b82810360208401526129598185612904565b95945050505050565b634e487b7160e01b600052603260045260246000fd5b634e487b7160e01b600052601160045260246000fd5b600082198211156129a1576129a1612978565b500190565b6000828210156129b8576129b8612978565b500390565b60006000198214156129d1576129d1612978565b5060010190565b600181106129e8576129e86125ed565b9052565b8281526040810161189460208301846129d8565b600082612a1d57634e487b7160e01b600052601260045260246000fd5b500490565b600060ff821660ff811415612a3957612a39612978565b60010192915050565b8581526001600160a01b0385166020820152612a6160408201856129d8565b60a060608201526000612a7760a08301856128c0565b8281036080840152612a898185612904565b98975050505050505050565b6001600160a01b038416815260608101612aae84612603565b602082019390935260400152919050565b6020808252602b908201527f496e697469616c697a61626c653a20636f6e7472616374206973206e6f74206960408201526a6e697469616c697a696e6760a81b606082015260800190565b600081612b1957612b19612978565b506000190190565b6000816000190483118215151615612b3b57612b3b612978565b50029056fe6bee784efeb983674392298ab585b22866bedf00ebb0eea949d1e66f3f50e71da2646970667358221220a1bdccc5f76a121be7833f0c2c975143ba5ad9241a1753d7364eb9738f66d07864736f6c634300080a0033",
  "immutableReferences": {},
  "source": "// SPDX-License-Identifier: MIT\r\npragma solidity ^0.8.4;\r\n\r\nimport \"@openzeppelin/contracts-upgradeable/proxy/utils/Initializable.sol\";\r\nimport \"@openzeppelin/contracts-upgradeable/access/OwnableUpgradeable.sol\";\r\n\r\ncontract AirDrop is Initializable, OwnableUpgradeable {\r\n    // FoundationManager\r\n    address[] private _fms;\r\n    // BoardDirector\r\n    address[] private _boardDirectors;\r\n\r\n    // Two types of users: Foundation and VIP users\r\n    enum Role {\r\n        Unknown,\r\n        FOUNDATION,\r\n        VIP\r\n    }\r\n\r\n    // Foundation withdrawal stage\r\n    enum ClaimStage {\r\n        StageUnknown,\r\n        Stage1,\r\n        Stage2\r\n    }\r\n\r\n    /*uint256 private constant STAGE_TIMELOCK = 90 days;*/\r\n    /* for test 15mins */\r\n    uint256 private constant STAGE_TIMELOCK = 15 minutes;\r\n    /*uint256 private constant AirDrop_TIMELOCK = 30 days;*/\r\n    /* for test 10mins */\r\n    uint256 private constant AirDrop_TIMELOCK = 5 minutes;\r\n    uint256 private constant RELEASE_PERIODS = 12;\r\n\r\n    // UNIT granted to the foundation at different stages\r\n    mapping(ClaimStage => uint256) private _toFoundation;\r\n    // Foundation payable account\r\n    address private _foundation;\r\n\r\n    // Initial total amount granted to VIPs\r\n    uint256 private _remainedToVips;\r\n    // Monthly airdrop total amount (granted to VIPs)\r\n    mapping(uint256 => uint256) private _totalPerMonth;\r\n\r\n    // VIP account => Claim ratio\r\n    mapping(address => uint256) private _vips;\r\n\r\n    // vip => month => ratio\r\n    // Record the historical claim ratio of monthly earnings for VIPs\r\n    mapping(address => mapping(uint256 => uint256)) private _vipHistoryRatios;\r\n    // Record whether the historical claim ratio of monthly earnings for VIPs has change\r\n    mapping(address => mapping(uint256 => bool)) private _vipChangedAtMonth;\r\n\r\n    address[] private _vipAccs;\r\n\r\n    uint256 private _totalRatios;\r\n    // Record the current month of withdrawal for the VIP account, starting at 0, meaning never withdrawn\r\n    mapping(address => uint256) private _vipClaimedMonth;\r\n    // Total amount already withdrawn by VIPs\r\n    mapping(address => uint256) private _vipClaimedAmount;\r\n    // Start time for VIP withdrawals\r\n    uint256 private _startAt;\r\n\r\n    // Proposal with MulSig\r\n    mapping(uint256 => Proposal) private proposals;\r\n    mapping(uint256 => bool) private proposalExecuted;\r\n    uint256 private currProposalId;\r\n\r\n    uint256 private PROPOSAL_TIME_LOCK;\r\n\r\n    receive() external payable {}\r\n\r\n    function initialize(\r\n        address[] memory vips,\r\n        uint256[] memory ratios,\r\n        address[] memory foundationManagers,\r\n        address[] memory boardDirectors\r\n    ) public initializer {\r\n        __Ownable_init();\r\n        require(foundationManagers.length >= 2, \"must provide >2 foundation managers\");\r\n        require(boardDirectors.length >= 3, \"must provide > 3 board directorys\");\r\n        require(vips.length != 0, \"zero vips accounts\");\r\n        require(vips.length == ratios.length, \"vips.length must equal to ratios.length\");\r\n\r\n        // The foundation has 30 million, with 15 million granted directly in the first stage\r\n        /*_toFoundation[ClaimStage.Stage1] = 15000000 * 1e18;*/\r\n        /* for test 15*/\r\n        _toFoundation[ClaimStage.Stage1] = 15 * 1e18;\r\n        // _timeline[ClaimStage.Stage1] = block.timestamp;\r\n        // The second stage occurs 3 months after the first stage, unlocking an additional 15 million\r\n        /*_toFoundation[ClaimStage.Stage2] = 15000000 * 1e18;*/\r\n        /* for test 15 */\r\n        _toFoundation[ClaimStage.Stage2] = 15 * 1e18;\r\n        // _timeline[ClaimStage.Stage2] = block.timestamp + 90 days;\r\n\r\n        // The airdrop starts at the current contract initialization time\r\n        _startAt = block.timestamp;\r\n\r\n        // Grant 60 million to VIP customers\r\n        /* _remainedToVips = 60000000 * 1e18;*/\r\n        /* for test 60 */\r\n        _remainedToVips = 60 * 1e18;\r\n        for (uint256 i = 1; i <= RELEASE_PERIODS; i++) {\r\n            _totalPerMonth[i] = _remainedToVips / RELEASE_PERIODS;\r\n        }\r\n\r\n        // NOTE: always use 1st FM as the payable\r\n        _foundation = foundationManagers[0];\r\n        for (uint256 i = 0; i < foundationManagers.length; i++) {\r\n            require(foundationManagers[i] != address(0), \"has empty fm account\");\r\n            _fms.push(foundationManagers[i]);\r\n        }\r\n        for (uint256 i = 0; i < boardDirectors.length; i++) {\r\n            require(boardDirectors[i] != address(0), \"has empty board director account\");\r\n            _boardDirectors.push(boardDirectors[i]);\r\n        }\r\n\r\n        uint256 totalRatios;\r\n        for (uint256 i = 0; i < vips.length; i++) {\r\n            require(vips[i] != address(0), \"has empty vip account\");\r\n            require(vips[i] != _foundation, \"vip can't be foundation at the same time\");\r\n            require(_vips[vips[i]] == 0, \"found duplicate vip account\");\r\n\r\n            _vips[vips[i]] = ratios[i];\r\n\r\n            // First-month claim ratio\r\n            _vipHistoryRatios[vips[i]][1] = ratios[i];\r\n            _vipChangedAtMonth[vips[i]][1] = true;\r\n\r\n            _vipAccs.push(vips[i]);\r\n\r\n            totalRatios = totalRatios + ratios[i];\r\n        }\r\n        /*require(totalRatios <= 100, \"total ratios must <= 100\");*/\r\n        require(totalRatios <= 100 * 1e6, \"total ratios must <= 100 * 1e6\");\r\n        _totalRatios = totalRatios;\r\n\r\n        /*PROPOSAL_TIME_LOCK = 48 hours;*/\r\n        /* for test 1mins */\r\n        PROPOSAL_TIME_LOCK = 1 minutes;\r\n    }\r\n\r\n    modifier onlyFoundation() {\r\n        require(msg.sender == _foundation, \"only Foundation account is allowed\");\r\n        _;\r\n    }\r\n\r\n    modifier onlyFM() {\r\n        bool found;\r\n        for (uint256 i = 0; i < _fms.length; i++) {\r\n            if (_fms[i] == msg.sender) {\r\n                found = true;\r\n                break;\r\n            }\r\n        }\r\n        require(found, \"only FoundationManager allowed\");\r\n        _;\r\n    }\r\n\r\n    function deployedAt() public view returns (uint256) {\r\n        return _startAt;\r\n    }\r\n\r\n    function getRole(address account) public view returns (Role) {\r\n        if (account == _foundation) {\r\n            return Role.FOUNDATION;\r\n        }\r\n        if (_vips[account] != 0) {\r\n            return Role.VIP;\r\n        }\r\n        return Role.Unknown;\r\n    }\r\n\r\n    function getVIPs() public view onlyFM returns (address[] memory, uint256[] memory) {\r\n        uint256[] memory ratios = new uint256[](_vipAccs.length);\r\n        for (uint256 i = 0; i < _vipAccs.length; i++) {\r\n            ratios[i] = _vips[_vipAccs[i]];\r\n        }\r\n        return (_vipAccs, ratios);\r\n    }\r\n\r\n    function getVIPInfo(address vip)\r\n    public\r\n    view\r\n    returns (\r\n        uint256,\r\n        uint256,\r\n        uint256,\r\n        uint256\r\n    )\r\n    {\r\n        (uint256 totalClaimable, uint256 sinceMonth, uint256 toMonth) = _vipClaimable(vip);\r\n        return (_vipClaimedAmount[vip], totalClaimable, sinceMonth, toMonth);\r\n    }\r\n\r\n    function remainedToVIPs() public view returns (uint256) {\r\n        return _remainedToVips;\r\n    }\r\n\r\n    function claimable()\r\n    public\r\n    view\r\n    returns (\r\n        Role,\r\n        uint256,\r\n        ClaimStage,\r\n        uint256,\r\n        uint256\r\n    )\r\n    {\r\n        address sender = msg.sender;\r\n        // Foundation\r\n        if (sender == _foundation) {\r\n            (uint256 unaclaimedCmount, ClaimStage stage) = _foundationClaimable();\r\n            return (Role.FOUNDATION, unaclaimedCmount, stage, 0, 0);\r\n        }\r\n\r\n        // VIP\r\n        (uint256 amount, uint256 sinceMonth, uint256 toMonth) = _vipClaimable(sender);\r\n\r\n        return (Role.VIP, amount, ClaimStage.Stage1, sinceMonth, toMonth);\r\n    }\r\n\r\n    function _foundationClaimable() internal view returns (uint256, ClaimStage) {\r\n        ClaimStage currentStage = ClaimStage.Stage1;\r\n        if (block.timestamp > _startAt + STAGE_TIMELOCK) {\r\n            currentStage = ClaimStage.Stage2;\r\n        }\r\n        uint256 amount;\r\n        // Determine whether the current stage has been withdrawn\r\n        if (_toFoundation[currentStage] > 0) {\r\n            amount += _toFoundation[currentStage];\r\n        }\r\n        // Determine whether stage 1 has been withdrawn\r\n        if (currentStage == ClaimStage.Stage2 && _toFoundation[ClaimStage.Stage1] > 0) {\r\n            amount += _toFoundation[ClaimStage.Stage1];\r\n        }\r\n        return (amount, currentStage);\r\n    }\r\n\r\n    function _vipClaimable(address vip) internal view returns (uint256, uint256, uint256) {\r\n        // Determine if the withdrawal has been completed\r\n        if (_remainedToVips == 0) {\r\n            return (0, 0, 0);\r\n        }\r\n\r\n        // Calculate the total amount that can be withdrawn from the last withdrawal month to the current month\r\n        uint256 current = _currentMonth();\r\n\r\n        // The maximum month is 12\r\n        if (current > RELEASE_PERIODS) {\r\n            current = RELEASE_PERIODS;\r\n        }\r\n\r\n        uint256 claimedMonth = _vipClaimedMonth[vip];\r\n        // Determine if the withdrawal has reached the current month\r\n        if (claimedMonth == current) {\r\n            return (0, 0, 0);\r\n        }\r\n\r\n        // Calculate between the current unwithdrawn month and the current withdrawable month\r\n        uint256 totalClaimable;\r\n        for (uint256 i = claimedMonth + 1; i <= current; i++) {\r\n            //Calculate the amount withdrawable for that month (total amount withdrawable for that month * withdrawal ratio)\r\n            uint256 actualRatio;\r\n            for (uint256 j = i; j > 0; j--) {\r\n                // Find the most recent update as the actual ratio for the current month\r\n                if (_vipChangedAtMonth[vip][j]) {\r\n                    actualRatio = _vipHistoryRatios[vip][j];\r\n                    break;\r\n                }\r\n            }\r\n\r\n            uint256 amount = 0;\r\n            /*amount = (_totalPerMonth[i] * actualRatio) / 100;*/\r\n            if (i == 1) {\r\n                amount = (_totalPerMonth[i] * actualRatio) / 100;\r\n            }\r\n            else {\r\n                amount = _totalPerMonth[i] * actualRatio / 100 / 1e6;\r\n                //1e6 actualRatio  \r\n            }\r\n            totalClaimable = totalClaimable + amount;\r\n        }\r\n        return (totalClaimable, claimedMonth + 1, current);\r\n    }\r\n\r\n    event Claimed(\r\n        Role role,\r\n        uint256 claimedAmount,\r\n        ClaimStage stage,\r\n        uint256 sinceMonth,\r\n        uint256 toMonth\r\n    );\r\n\r\n    function claim() public {\r\n        if (msg.sender == _foundation) {\r\n            (uint256 amount, ClaimStage stage) = _foundationClaim();\r\n            emit Claimed(Role.FOUNDATION, amount, stage, 0, 0);\r\n            return;\r\n        }\r\n\r\n        (uint256 vipAmount, uint256 sinceMonth, uint256 toMonth) = _vipClaim();\r\n        emit Claimed(Role.VIP, vipAmount, ClaimStage.Stage1, sinceMonth, toMonth);\r\n\r\n        return;\r\n    }\r\n\r\n    function foundationWithdrawed() public view returns (uint256) {\r\n        return _toFoundation[ClaimStage.Stage1];\r\n    }\r\n\r\n    // foundationClaimis used for foundation withdrawals\r\n    event FoundationClaimed(address foundation, ClaimStage stage, uint256 amount);\r\n\r\n    function _foundationClaim() internal returns (uint256, ClaimStage) {\r\n        (uint256 amount, ClaimStage currentStage) = _foundationClaimable();\r\n\r\n        require(amount > 0, \"foundation is unclaimable\");\r\n\r\n        _toFoundation[currentStage] = 0;\r\n\r\n        if (currentStage == ClaimStage.Stage2 && _toFoundation[ClaimStage.Stage1] > 0) {\r\n            _toFoundation[ClaimStage.Stage1] = 0;\r\n        }\r\n\r\n        payable(_foundation).transfer(amount);\r\n        emit FoundationClaimed(_foundation, currentStage, amount);\r\n\r\n        return (amount, currentStage);\r\n    }\r\n\r\n    event VIPClaimed(address vip, uint256 sinceMonth, uint256 toMonth, uint256 amount);\r\n\r\n    function _vipClaim()\r\n    internal\r\n    returns (\r\n        uint256,\r\n        uint256,\r\n        uint256\r\n    )\r\n    {\r\n        // Calculate the current withdrawable amount\r\n        (uint256 amount, uint256 sinceMonth, uint256 toMonth) = _vipClaimable(msg.sender);\r\n\r\n        require(amount > 0, \"this vip is unclaimable\");\r\n\r\n        // Update the current unwithdrawn amount\r\n        _remainedToVips = _remainedToVips - amount;\r\n\r\n        // Update the withdrawal records for VIPs\r\n        _vipClaimedMonth[msg.sender] = toMonth;\r\n        _vipClaimedAmount[msg.sender] += amount;\r\n\r\n        payable(msg.sender).transfer(amount);\r\n\r\n        emit VIPClaimed(msg.sender, sinceMonth, toMonth, amount);\r\n\r\n        return (amount, sinceMonth, toMonth);\r\n    }\r\n\r\n    // eceiveIntermidiateFund UNIT to `toVIPs`\r\n    event ReceivedInterFund(\r\n        address from,\r\n        uint256 currentMonth,\r\n        uint256 amount,\r\n        uint256 remainedToVips\r\n    );\r\n\r\n    function receiveIntermidiateFund() public payable {\r\n        require(msg.value > 0, \"zero UNIT\");\r\n        uint256 month = _currentMonth();\r\n        // If the current month is the 12th month or after the 12th month, it indicates that the airdrop has ended\r\n        if (month >= RELEASE_PERIODS) {\r\n            return;\r\n        }\r\n        // Recalculate the monthly withdrawable amount\r\n        uint256 remainedMonths = RELEASE_PERIODS - _currentMonth();\r\n        for (uint256 i = month + 1; i <= RELEASE_PERIODS; i++) {\r\n            _totalPerMonth[i] = _totalPerMonth[i] + msg.value / remainedMonths;\r\n        }\r\n        _remainedToVips = _remainedToVips + msg.value;\r\n        emit ReceivedInterFund(msg.sender, _currentMonth(), msg.value, _remainedToVips);\r\n    }\r\n\r\n    event FoundationClaimedVIPs(address account, uint256 amount);\r\n    // After 1 year, the foundation can withdraw all the airdrop funds allocated for VIPs\r\n    function foundationClaimVIPs() public onlyFoundation {\r\n        require(\r\n            _currentMonth() > RELEASE_PERIODS,\r\n            \"only excceedes the total periods(1year/12months)\"\r\n        );\r\n        require(_remainedToVips > 0, \"all claimed by VIPs(zero remainedToVips)\");\r\n\r\n        payable(_foundation).transfer(_remainedToVips);\r\n\r\n        emit FoundationClaimedVIPs(_foundation, _remainedToVips);\r\n\r\n        _remainedToVips = 0;\r\n\r\n\r\n    }\r\n\r\n    // The current withdrawable month (3.1 == 3)\r\n    function _currentMonth() internal view returns (uint256) {\r\n        return (block.timestamp - _startAt) / AirDrop_TIMELOCK;\r\n    }\r\n\r\n    /* Integrate with MulSig */\r\n\r\n    // Modify user whitelist and user ratio(MulSig)\r\n    enum ProposalPurpose {\r\n        ChangeVIP\r\n    }\r\n    struct Proposal {\r\n        address proposer;\r\n        ProposalPurpose purpose;\r\n        address[] vips;\r\n        uint256[] ratios;\r\n        // Number of signatures\r\n        uint8 sigCount;\r\n        // Execution time\r\n        uint256 excuteTime;\r\n        mapping(address => uint8) signatures;\r\n    }\r\n\r\n    //\r\n    function _nextProposalId() internal returns (uint256) {\r\n        currProposalId++;\r\n        return currProposalId;\r\n    }\r\n\r\n    // \r\n    event SendProposal(\r\n        uint256 proposalId,\r\n        address proposer,\r\n        ProposalPurpose purpose,\r\n        address[] vips,\r\n        uint256[] ratios\r\n    );\r\n\r\n    //\r\n    function propose(\r\n        ProposalPurpose purpose,\r\n        address[] memory vips,\r\n        uint256[] memory ratios\r\n    ) public returns (uint256) {\r\n        require(vips.length == ratios.length, \"vips and ratios must have same length\");\r\n        //\r\n        uint256 tempTotal = _totalRatios;\r\n        for (uint256 i = 0; i < vips.length; i++) {\r\n            require(vips[i] != address(0), \"has zero vip address\");\r\n            /*require(ratios[i] <= 100, \"ratio must <= 100\");*/\r\n            require(ratios[i] <= 100 * 1e6, \"ratio must <= 100 * 1e6\");\r\n            //\r\n            uint256 currRatio = _vips[vips[i]];\r\n            tempTotal = tempTotal - currRatio + ratios[i];\r\n        }\r\n        /*require(tempTotal <= 100, \"total ratio must <=100\");*/\r\n        require(tempTotal <= 100 * 1e6, \"total ratio must <=100 * 1e6\");\r\n\r\n        uint256 proposalId = _nextProposalId();\r\n\r\n        Proposal storage proposal = proposals[proposalId];\r\n        proposal.purpose = purpose;\r\n        proposal.proposer = msg.sender;\r\n        proposal.vips = vips;\r\n        proposal.ratios = ratios;\r\n\r\n        emit SendProposal(proposalId, msg.sender, purpose, vips, ratios);\r\n\r\n        return proposalId;\r\n    }\r\n\r\n    // 0: UnKnown 1: FoundationManager 2:BoardDirector\r\n    function _fmOrBd(address account) internal view returns (uint256) {\r\n        for (uint256 i = 0; i < _fms.length; i++) {\r\n            if (_fms[i] == account) {\r\n                return 1;\r\n            }\r\n        }\r\n\r\n        for (uint256 i = 0; i < _boardDirectors.length; i++) {\r\n            if (_boardDirectors[i] == account) {\r\n                return 2;\r\n            }\r\n        }\r\n\r\n        return 0;\r\n    }\r\n\r\n    function threshold() public pure returns (uint256) {\r\n        return 3;\r\n    }\r\n\r\n    event ProposalSucc(uint256 proposalId, uint256 executeTime);\r\n    event ProposalSigned(uint256 proposalId, address signer);\r\n\r\n    /// @dev Issued by FoundationManager, agree to a certain proposal\r\n    /// @param _proposalId ID corresponding to the proposal\r\n    /// @return bool Was the request successful?\r\n    function signTransaction(uint256 _proposalId) public returns (bool) {\r\n        uint256 role = _fmOrBd(msg.sender);\r\n        require(role != 0, \"only FoundationManager or BoardDirector can sign\");\r\n        Proposal storage pro = proposals[_proposalId];\r\n        require(pro.signatures[msg.sender] != 1, \"already signed\");\r\n\r\n        pro.signatures[msg.sender] = 1;\r\n\r\n        require(pro.sigCount < threshold(), \"proposal already meet threshold\");\r\n        pro.sigCount++;\r\n\r\n        // Meet the threshold and set the execution time (effective time)\r\n        if (pro.sigCount == threshold()) {\r\n            pro.excuteTime = block.timestamp + PROPOSAL_TIME_LOCK;\r\n            emit ProposalSucc(_proposalId, pro.excuteTime);\r\n        }\r\n        emit ProposalSigned(_proposalId, msg.sender);\r\n\r\n        return true;\r\n    }\r\n\r\n    event ProposalExecuted(uint256 proposalId, ProposalPurpose purpose);\r\n    event ChangeVIP(address vip, uint256 before, uint256 now);\r\n\r\n    function executeProposal(uint256 _proposalId) public {\r\n        require(!proposalExecuted[_proposalId], \"proposal has been executed\");\r\n\r\n        Proposal storage pro = proposals[_proposalId];\r\n        require(pro.proposer != address(0), \"propsoal with this proposalId may not exist\");\r\n        /*require(pro.excuteTime > 0 && pro.excuteTime <= block.timestamp, \"executeTime not meet\");*/\r\n        require(pro.sigCount >= threshold(), \"proposal not meet threshold\");\r\n\r\n        if (pro.purpose == ProposalPurpose.ChangeVIP) {\r\n            uint256 tempTotal = _totalRatios;\r\n            for (uint256 i = 0; i < pro.vips.length; i++) {\r\n                uint256 currRatio = _vips[pro.vips[i]];\r\n                _vips[pro.vips[i]] = pro.ratios[i];\r\n                if (currRatio == 0) {\r\n                    _vipAccs.push(pro.vips[i]);\r\n                }\r\n                // Record historical ratio\r\n                // Affects the profit ratio of the second stage\r\n                // |  currMonth() | curr | next  |\r\n                _vipHistoryRatios[pro.vips[i]][_currentMonth() + 1] = pro.ratios[i];\r\n                _vipChangedAtMonth[pro.vips[i]][_currentMonth() + 1] = true;\r\n                tempTotal = tempTotal - currRatio + pro.ratios[i];\r\n                emit ChangeVIP(pro.vips[i], currRatio, pro.ratios[i]);\r\n            }\r\n            /*require(tempTotal <= 100, \"total ratios must <= 100\");*/\r\n            require(tempTotal <= 100 * 1e6, \"total ratios must <= 100 * 1e6\");\r\n            _totalRatios = tempTotal;\r\n        }\r\n\r\n        proposalExecuted[_proposalId] = true;\r\n\r\n        emit ProposalExecuted(_proposalId, pro.purpose);\r\n    }\r\n}\r\n",
  "sourcePath": "D:\\work\\Treasurenet-contracts\\fork\\treasurenet-contracts\\contracts\\Airdrop\\Airdrop.sol",
  "compiler": {
    "name": "solc",
    "version": "0.8.10+commit.fc410830.Emscripten.clang"
  },
  "schemaVersion": "3.4.16",
  "updatedAt": "2024-04-29T07:29:52.883Z",
  "devdoc": {
    "kind": "dev",
    "methods": {
      "owner()": {
        "details": "Returns the address of the current owner."
      },
      "renounceOwnership()": {
        "details": "Leaves the contract without owner. It will not be possible to call `onlyOwner` functions anymore. Can only be called by the current owner. NOTE: Renouncing ownership will leave the contract without an owner, thereby removing any functionality that is only available to the owner."
      },
      "signTransaction(uint256)": {
        "details": "Issued by FoundationManager, agree to a certain proposal",
        "params": {
          "_proposalId": "ID corresponding to the proposal"
        },
        "returns": {
          "_0": "bool Was the request successful?"
        }
      },
      "transferOwnership(address)": {
        "details": "Transfers ownership of the contract to a new account (`newOwner`). Can only be called by the current owner."
      }
    },
    "version": 1
  },
  "userdoc": {
    "kind": "user",
    "methods": {},
    "version": 1
  }
}