{
  "contractName": "Bid",
  "abi": [
    {
      "anonymous": false,
      "inputs": [
        {
          "indexed": false,
          "internalType": "address",
          "name": "account",
          "type": "address"
        },
        {
          "indexed": false,
          "internalType": "uint256",
          "name": "amount",
          "type": "uint256"
        }
      ],
      "name": "BidRecord",
      "type": "event"
    },
    {
      "anonymous": false,
      "inputs": [
        {
          "indexed": false,
          "internalType": "uint256",
          "name": "height",
          "type": "uint256"
        }
      ],
      "name": "BidStart",
      "type": "event"
    },
    {
      "anonymous": false,
      "inputs": [
        {
          "indexed": false,
          "internalType": "uint8",
          "name": "version",
          "type": "uint8"
        }
      ],
      "name": "Initialized",
      "type": "event"
    },
    {
      "anonymous": false,
      "inputs": [
        {
          "indexed": true,
          "internalType": "address",
          "name": "previousOwner",
          "type": "address"
        },
        {
          "indexed": true,
          "internalType": "address",
          "name": "newOwner",
          "type": "address"
        }
      ],
      "name": "OwnershipTransferred",
      "type": "event"
    },
    {
      "inputs": [
        {
          "internalType": "uint256",
          "name": "",
          "type": "uint256"
        }
      ],
      "name": "TATBiders",
      "outputs": [
        {
          "internalType": "address",
          "name": "",
          "type": "address"
        }
      ],
      "stateMutability": "view",
      "type": "function"
    },
    {
      "inputs": [],
      "name": "owner",
      "outputs": [
        {
          "internalType": "address",
          "name": "",
          "type": "address"
        }
      ],
      "stateMutability": "view",
      "type": "function"
    },
    {
      "inputs": [],
      "name": "renounceOwnership",
      "outputs": [],
      "stateMutability": "nonpayable",
      "type": "function"
    },
    {
      "inputs": [
        {
          "internalType": "address",
          "name": "newOwner",
          "type": "address"
        }
      ],
      "name": "transferOwnership",
      "outputs": [],
      "stateMutability": "nonpayable",
      "type": "function"
    },
    {
      "stateMutability": "payable",
      "type": "receive"
    },
    {
      "inputs": [
        {
          "internalType": "address",
          "name": "_tatAddress",
          "type": "address"
        }
      ],
      "name": "initialize",
      "outputs": [],
      "stateMutability": "nonpayable",
      "type": "function"
    },
    {
      "inputs": [
        {
          "internalType": "address",
          "name": "account",
          "type": "address"
        }
      ],
      "name": "isTATBider",
      "outputs": [
        {
          "internalType": "bool",
          "name": "",
          "type": "bool"
        }
      ],
      "stateMutability": "view",
      "type": "function"
    },
    {
      "inputs": [],
      "name": "mybidAmount",
      "outputs": [
        {
          "internalType": "uint256",
          "name": "",
          "type": "uint256"
        }
      ],
      "stateMutability": "view",
      "type": "function"
    },
    {
      "inputs": [],
      "name": "roundStartBlock",
      "outputs": [
        {
          "internalType": "uint256",
          "name": "",
          "type": "uint256"
        }
      ],
      "stateMutability": "view",
      "type": "function"
    },
    {
      "inputs": [
        {
          "internalType": "uint256",
          "name": "amount",
          "type": "uint256"
        }
      ],
      "name": "bidTAT",
      "outputs": [
        {
          "internalType": "bool",
          "name": "",
          "type": "bool"
        }
      ],
      "stateMutability": "nonpayable",
      "type": "function"
    },
    {
      "inputs": [],
      "name": "bidderList",
      "outputs": [
        {
          "components": [
            {
              "internalType": "address",
              "name": "bider",
              "type": "address"
            },
            {
              "internalType": "uint256",
              "name": "amount",
              "type": "uint256"
            },
            {
              "internalType": "uint256",
              "name": "block",
              "type": "uint256"
            }
          ],
          "internalType": "struct Bid.BiderList[]",
          "name": "",
          "type": "tuple[]"
        },
        {
          "internalType": "uint256",
          "name": "",
          "type": "uint256"
        },
        {
          "internalType": "uint256",
          "name": "",
          "type": "uint256"
        }
      ],
      "stateMutability": "view",
      "type": "function"
    }
  ],
  "bytecode": "0x608060405234801561001057600080fd5b50610e01806100206000396000f3fe6080604052600436106100955760003560e01c8063715018a611610059578063715018a61461016a5780638da5cb5b14610181578063bd2ea1f31461019f578063c4d66de8146101bf578063f2fde38b146101df57600080fd5b80630be19a04146100a15780632b231df3146100c95780632c63b824146100f95780634b954a1d1461010e578063704416b41461014657600080fd5b3661009c57005b600080fd5b3480156100ad57600080fd5b506100b66101ff565b6040519081526020015b60405180910390f35b3480156100d557600080fd5b506100e96100e4366004610bfe565b6102a6565b60405190151581526020016100c0565b34801561010557600080fd5b506100b6610591565b34801561011a57600080fd5b5061012e610129366004610bfe565b6105db565b6040516001600160a01b0390911681526020016100c0565b34801561015257600080fd5b5061015b610605565b6040516100c093929190610c17565b34801561017657600080fd5b5061017f61088f565b005b34801561018d57600080fd5b506033546001600160a01b031661012e565b3480156101ab57600080fd5b506100e96101ba366004610c83565b6108a3565b3480156101cb57600080fd5b5061017f6101da366004610c83565b6108e2565b3480156101eb57600080fd5b5061017f6101fa366004610c83565b610a4d565b600080606c54116102575760405162461bcd60e51b815260206004820152601f60248201527f626f6e7573207374616b6520686173206e6f742073746172746564207965740060448201526064015b60405180910390fd5b606c54610265603c82610cc9565b4311156102a157603c80606c544361027d9190610ce1565b6102879190610cf8565b6102919190610d1a565b606c5461029e9190610cc9565b90505b919050565b6000670de0b6b3a76400008210156102f85760405162461bcd60e51b8152602060048201526015602482015274151055081b9bdd08195b9bdd59da081d1bc8189a59605a1b604482015260640161024e565b603c606c546103079190610cc9565b43111561043557603c80606c544361031f9190610ce1565b6103299190610cf8565b6103339190610d1a565b606c546103409190610cc9565b606c55600060698190555b60655481101561042857606660006065838154811061036c5761036c610d39565b60009182526020808320909101546001600160a01b031683528201929092526040018120805460ff19169055606580546067929190849081106103b1576103b1610d39565b60009182526020808320909101546001600160a01b031683528201929092526040018120819055606580546068929190849081106103f1576103f1610d39565b60009182526020808320909101546001600160a01b031683528201929092526040018120558061042081610d4f565b91505061034b565b5061043560656000610bcc565b606b546040516356e4bb9760e11b8152336004820152602481018490526001600160a01b039091169063adc9772e90604401600060405180830381600087803b15801561048157600080fd5b505af1158015610495573d6000803e3d6000fd5b505050506104a2336108a3565b61050357336000818152606660205260408120805460ff191660019081179091556065805491820181559091527f8ff97419363ffd7000167f130ef7168fbea05faf9251824ca5043f113cc6a7c70180546001600160a01b03191690911790555b3360009081526067602052604081208054849290610522908490610cc9565b90915550503360009081526068602052604081204390556069805484929061054b908490610cc9565b909155505060408051338152602081018490527f76de802f12cc4b4f411dd2288c3a054af917c4c026a01f3130ae5d3c9d0c59ba910160405180910390a1506001919050565b336000908152606760205260408120546105ab5750600090565b603c606c546105ba9190610cc9565b4311156105c75750600090565b503360009081526067602052604090205490565b606581815481106105eb57600080fd5b6000918252602090912001546001600160a01b0316905081565b606c54606090600090819061061b603c82610cc9565b4311156106bb576040805160008082526020820190925281610678565b610665604051806060016040528060006001600160a01b0316815260200160008152602001600081525090565b8152602001906001900390816106385790505b509050603c80606c544361068c9190610ce1565b6106969190610cf8565b6106a09190610d1a565b606c546106ad9190610cc9565b909560009550909350915050565b60655460009067ffffffffffffffff8111156106d9576106d9610d6a565b60405190808252806020026020018201604052801561073757816020015b610724604051806060016040528060006001600160a01b0316815260200160008152602001600081525090565b8152602001906001900390816106f75790505b50905060005b60655481101561087f576065818154811061075a5761075a610d39565b9060005260206000200160009054906101000a90046001600160a01b031682828151811061078a5761078a610d39565b6020026020010151600001906001600160a01b031690816001600160a01b03168152505060676000606583815481106107c5576107c5610d39565b60009182526020808320909101546001600160a01b0316835282019290925260400190205482518390839081106107fe576107fe610d39565b60200260200101516020018181525050606860006065838154811061082557610825610d39565b60009182526020808320909101546001600160a01b03168352820192909252604001902054825183908390811061085e5761085e610d39565b6020908102919091010151604001528061087781610d4f565b91505061073d565b5060695490959094509092509050565b610897610ac6565b6108a16000610b20565b565b6000603c606c546108b49190610cc9565b4311156108c357506000919050565b506001600160a01b031660009081526066602052604090205460ff1690565b600054610100900460ff16158080156109025750600054600160ff909116105b8061091c5750303b15801561091c575060005460ff166001145b61097f5760405162461bcd60e51b815260206004820152602e60248201527f496e697469616c697a61626c653a20636f6e747261637420697320616c72656160448201526d191e481a5b9a5d1a585b1a5e995960921b606482015260840161024e565b6000805460ff1916600117905580156109a2576000805461ff0019166101001790555b6109aa610b72565b606b80546001600160a01b0319166001600160a01b03841617905543606c81905560006069556040519081527f51fe6b55de8012ece012a5079ce14024411f6fa0692b05a177b94591c6ba3df09060200160405180910390a18015610a49576000805461ff0019169055604051600181527f7f26b83ff96e1f2b6a682f133852f6798a09c465da95921460cefb38474024989060200160405180910390a15b5050565b610a55610ac6565b6001600160a01b038116610aba5760405162461bcd60e51b815260206004820152602660248201527f4f776e61626c653a206e6577206f776e657220697320746865207a65726f206160448201526564647265737360d01b606482015260840161024e565b610ac381610b20565b50565b6033546001600160a01b031633146108a15760405162461bcd60e51b815260206004820181905260248201527f4f776e61626c653a2063616c6c6572206973206e6f7420746865206f776e6572604482015260640161024e565b603380546001600160a01b038381166001600160a01b0319831681179093556040519116919082907f8be0079c531659141344cd1fd0a4f28419497f9722a3daafe3b4186f6b6457e090600090a35050565b600054610100900460ff16610b995760405162461bcd60e51b815260040161024e90610d80565b6108a1600054610100900460ff16610bc35760405162461bcd60e51b815260040161024e90610d80565b6108a133610b20565b5080546000825590600052602060002090810190610ac391905b80821115610bfa5760008155600101610be6565b5090565b600060208284031215610c1057600080fd5b5035919050565b60608082528451828201819052600091906020906080850190828901855b82811015610c6e57815180516001600160a01b031685528581015186860152604090810151908501529285019290840190600101610c35565b50505090840195909552505060400152919050565b600060208284031215610c9557600080fd5b81356001600160a01b0381168114610cac57600080fd5b9392505050565b634e487b7160e01b600052601160045260246000fd5b60008219821115610cdc57610cdc610cb3565b500190565b600082821015610cf357610cf3610cb3565b500390565b600082610d1557634e487b7160e01b600052601260045260246000fd5b500490565b6000816000190483118215151615610d3457610d34610cb3565b500290565b634e487b7160e01b600052603260045260246000fd5b6000600019821415610d6357610d63610cb3565b5060010190565b634e487b7160e01b600052604160045260246000fd5b6020808252602b908201527f496e697469616c697a61626c653a20636f6e7472616374206973206e6f74206960408201526a6e697469616c697a696e6760a81b60608201526080019056fea26469706673582212208e70d4d0c0a8a87b436ea4bf84fe5ae2bb76fe164899cb7065e9bb695bab41bd64736f6c634300080a0033",
  "immutableReferences": {},
  "source": "// SPDX-License-Identifier: MIT\r\npragma solidity ^0.8.4;\r\n\r\nimport \"../TAT/ITAT.sol\";\r\nimport \"@openzeppelin/contracts-upgradeable/proxy/utils/Initializable.sol\";\r\nimport \"@openzeppelin/contracts-upgradeable/access/OwnableUpgradeable.sol\";\r\n\r\ncontract Bid is Initializable, OwnableUpgradeable {\r\n\r\n    event BidRecord(address account, uint256 amount);\r\n    event BidStart(uint256 height);\r\n\r\n    struct BiderList {\r\n        address bider;\r\n        uint256 amount;\r\n        uint256 block;\r\n    }\r\n\r\n    address[] public TATBiders;\r\n    mapping(address => bool) isTATBid;\r\n    mapping(address => uint256) bidAmount;\r\n    mapping(address => uint256) bidBlock;\r\n\r\n    /* At least 1 TAT */\r\n    uint256 constant TAT_THRESHOLD = 1 * 1e18;\r\n    uint256 _totalBid;\r\n\r\n    address private governance;\r\n    ITAT private _tat;\r\n\r\n    // stakeboosting start block\r\n    uint256 private _startBlock;\r\n    uint256 private constant ROUND_BLOCK = 60;\r\n\r\n    function initialize(address _tatAddress) public initializer {\r\n        __Ownable_init();\r\n        _tat = ITAT(_tatAddress);\r\n        _startBlock = block.number;\r\n        _totalBid = 0;\r\n        emit BidStart(_startBlock);\r\n    }\r\n\r\n    receive() external payable {}\r\n\r\n    /* bonus stake */\r\n    function isTATBider(address account) public view returns (bool){\r\n        /*  */\r\n        if (block.number > _startBlock + ROUND_BLOCK) {\r\n            return false;\r\n        }\r\n        return isTATBid[account];\r\n    }\r\n\r\n    /* Check how much TAT you have invested */\r\n    function mybidAmount() public view returns (uint256){\r\n        /*  */\r\n        if (bidAmount[msg.sender] == 0) {\r\n            return 0;\r\n        }\r\n        /*  */\r\n        if (block.number > _startBlock + ROUND_BLOCK) {\r\n            return 0;\r\n        }\r\n        return bidAmount[msg.sender];\r\n    }\r\n\r\n    /* query start block number  */\r\n    function roundStartBlock() public view returns (uint256){\r\n        require(_startBlock > 0, \"bonus stake has not started yet\");\r\n        uint256 _block = _startBlock;\r\n        if (block.number > _startBlock + ROUND_BLOCK) {\r\n            _block = _startBlock + (block.number - _startBlock) / ROUND_BLOCK * ROUND_BLOCK;\r\n        }\r\n        return _block;\r\n    }\r\n\r\n    /* Bonus Stake main process */\r\n    function bidTAT(uint256 amount) public returns (bool){\r\n        require(amount >= TAT_THRESHOLD, \"TAT not enough to bid\");\r\n        if (block.number > _startBlock + ROUND_BLOCK) {\r\n            _startBlock = _startBlock + (block.number - _startBlock) / ROUND_BLOCK * ROUND_BLOCK;\r\n            _totalBid = 0;\r\n            for (uint256 i = 0; i < TATBiders.length; i++) {\r\n                delete isTATBid[TATBiders[i]];\r\n                delete bidAmount[TATBiders[i]];\r\n                delete bidBlock[TATBiders[i]];\r\n            }\r\n            delete TATBiders;\r\n            //emit BidStart(_startBlock);\r\n        }\r\n\r\n        _tat.stake(msg.sender, amount);\r\n\r\n        if (!isTATBider(msg.sender)) {\r\n            isTATBid[msg.sender] = true;\r\n            TATBiders.push(msg.sender);\r\n        }\r\n        bidAmount[msg.sender] += amount;\r\n        bidBlock[msg.sender] = block.number;\r\n\r\n        _totalBid += amount;\r\n\r\n        emit BidRecord(msg.sender, amount);\r\n\r\n        return true;\r\n\r\n    }\r\n\r\n    /* Query List */\r\n    function bidderList() public view returns (BiderList[] memory, uint256, uint256){\r\n        uint256 _block = _startBlock;\r\n        /*  */\r\n        if (block.number > _startBlock + ROUND_BLOCK) {\r\n            BiderList[] memory _empty = new BiderList[](0);\r\n            _block = _startBlock + (block.number - _startBlock) / ROUND_BLOCK * ROUND_BLOCK;\r\n            return (_empty, 0, _block);\r\n        }\r\n        BiderList[] memory list = new BiderList[](TATBiders.length);\r\n        for (uint256 i = 0; i < TATBiders.length; i++) {\r\n            list[i].bider = TATBiders[i];\r\n            list[i].amount = bidAmount[TATBiders[i]];\r\n            list[i].block = bidBlock[TATBiders[i]];\r\n        }\r\n        return (list, _totalBid, _block);\r\n    }\r\n\r\n}\r\n",
  "sourcePath": "D:\\work\\Treasurenet-contracts\\fork\\treasurenet-contracts\\contracts\\Bid\\Bid.sol",
  "compiler": {
    "name": "solc",
    "version": "0.8.10+commit.fc410830.Emscripten.clang"
  },
  "schemaVersion": "3.4.16",
  "updatedAt": "2024-04-29T07:29:52.900Z",
  "devdoc": {
    "kind": "dev",
    "methods": {
      "owner()": {
        "details": "Returns the address of the current owner."
      },
      "renounceOwnership()": {
        "details": "Leaves the contract without owner. It will not be possible to call `onlyOwner` functions anymore. Can only be called by the current owner. NOTE: Renouncing ownership will leave the contract without an owner, thereby removing any functionality that is only available to the owner."
      },
      "transferOwnership(address)": {
        "details": "Transfers ownership of the contract to a new account (`newOwner`). Can only be called by the current owner."
      }
    },
    "version": 1
  },
  "userdoc": {
    "kind": "user",
    "methods": {},
    "version": 1
  }
}