{
  "contractName": "BtcData",
  "abi": [
    {
      "anonymous": false,
      "inputs": [
        {
          "indexed": false,
          "internalType": "string",
          "name": "kind",
          "type": "string"
        },
        {
          "indexed": false,
          "internalType": "bytes32",
          "name": "requestId",
          "type": "bytes32"
        }
      ],
      "name": "CancleAssetValueRequest",
      "type": "event"
    },
    {
      "anonymous": false,
      "inputs": [
        {
          "indexed": false,
          "internalType": "string",
          "name": "kind",
          "type": "string"
        },
        {
          "indexed": false,
          "internalType": "bytes32",
          "name": "uniqueId",
          "type": "bytes32"
        },
        {
          "indexed": false,
          "internalType": "bytes32",
          "name": "requestId",
          "type": "bytes32"
        }
      ],
      "name": "CancleTrustedDataRequest",
      "type": "event"
    },
    {
      "anonymous": false,
      "inputs": [
        {
          "indexed": false,
          "internalType": "string",
          "name": "treasureKind",
          "type": "string"
        },
        {
          "indexed": false,
          "internalType": "bytes32",
          "name": "_uniqueId",
          "type": "bytes32"
        },
        {
          "indexed": false,
          "internalType": "uint256",
          "name": "_month",
          "type": "uint256"
        },
        {
          "indexed": false,
          "internalType": "uint256",
          "name": "penaltyAmount",
          "type": "uint256"
        },
        {
          "indexed": false,
          "internalType": "uint256",
          "name": "percent",
          "type": "uint256"
        }
      ],
      "name": "ClearingPenalty",
      "type": "event"
    },
    {
      "anonymous": false,
      "inputs": [
        {
          "indexed": false,
          "internalType": "string",
          "name": "treasureKind",
          "type": "string"
        },
        {
          "indexed": false,
          "internalType": "bytes32",
          "name": "_uniqueId",
          "type": "bytes32"
        },
        {
          "indexed": false,
          "internalType": "uint256",
          "name": "_month",
          "type": "uint256"
        },
        {
          "indexed": false,
          "internalType": "uint256",
          "name": "rewardAmount",
          "type": "uint256"
        }
      ],
      "name": "ClearingReward",
      "type": "event"
    },
    {
      "anonymous": false,
      "inputs": [
        {
          "indexed": false,
          "internalType": "uint256",
          "name": "time",
          "type": "uint256"
        },
        {
          "indexed": false,
          "internalType": "address",
          "name": "operator",
          "type": "address"
        },
        {
          "indexed": false,
          "internalType": "enum Expense.Action",
          "name": "_type",
          "type": "uint8"
        },
        {
          "indexed": false,
          "internalType": "string",
          "name": "content",
          "type": "string"
        },
        {
          "indexed": false,
          "internalType": "uint256",
          "name": "tokens",
          "type": "uint256"
        }
      ],
      "name": "ExpenseHistory",
      "type": "event"
    },
    {
      "anonymous": false,
      "inputs": [
        {
          "indexed": false,
          "internalType": "uint8",
          "name": "version",
          "type": "uint8"
        }
      ],
      "name": "Initialized",
      "type": "event"
    },
    {
      "anonymous": false,
      "inputs": [
        {
          "indexed": false,
          "internalType": "string",
          "name": "treasureKind",
          "type": "string"
        },
        {
          "indexed": false,
          "internalType": "bytes32",
          "name": "uniqueId",
          "type": "bytes32"
        },
        {
          "indexed": false,
          "internalType": "uint256",
          "name": "month",
          "type": "uint256"
        },
        {
          "indexed": false,
          "internalType": "uint256",
          "name": "date",
          "type": "uint256"
        },
        {
          "indexed": false,
          "internalType": "uint256",
          "name": "amount",
          "type": "uint256"
        },
        {
          "indexed": false,
          "internalType": "uint256",
          "name": "price",
          "type": "uint256"
        }
      ],
      "name": "ProducerProductionData",
      "type": "event"
    },
    {
      "anonymous": false,
      "inputs": [
        {
          "indexed": false,
          "internalType": "string",
          "name": "treasureKind",
          "type": "string"
        },
        {
          "indexed": false,
          "internalType": "uint256",
          "name": "date",
          "type": "uint256"
        },
        {
          "indexed": false,
          "internalType": "uint256",
          "name": "value",
          "type": "uint256"
        }
      ],
      "name": "ReceiveAssetValue",
      "type": "event"
    },
    {
      "anonymous": false,
      "inputs": [
        {
          "indexed": false,
          "internalType": "string",
          "name": "kind",
          "type": "string"
        },
        {
          "indexed": false,
          "internalType": "bytes32",
          "name": "requestid",
          "type": "bytes32"
        }
      ],
      "name": "RegisterAssetValueRequest",
      "type": "event"
    },
    {
      "anonymous": false,
      "inputs": [
        {
          "indexed": false,
          "internalType": "string",
          "name": "kind",
          "type": "string"
        },
        {
          "indexed": false,
          "internalType": "bytes32",
          "name": "uniqueId",
          "type": "bytes32"
        },
        {
          "indexed": false,
          "internalType": "bytes32",
          "name": "requestid",
          "type": "bytes32"
        }
      ],
      "name": "RegisterTrustedDataRequest",
      "type": "event"
    },
    {
      "anonymous": false,
      "inputs": [
        {
          "indexed": false,
          "internalType": "bytes32",
          "name": "requestid",
          "type": "bytes32"
        },
        {
          "indexed": false,
          "internalType": "address",
          "name": "callbackAddress",
          "type": "address"
        },
        {
          "indexed": false,
          "internalType": "bytes4",
          "name": "callbackFunctionId",
          "type": "bytes4"
        },
        {
          "indexed": false,
          "internalType": "uint256",
          "name": "nonce",
          "type": "uint256"
        }
      ],
      "name": "Request",
      "type": "event"
    },
    {
      "anonymous": false,
      "inputs": [
        {
          "indexed": false,
          "internalType": "string",
          "name": "treasureKind",
          "type": "string"
        },
        {
          "indexed": false,
          "internalType": "bytes32",
          "name": "uniqueId",
          "type": "bytes32"
        },
        {
          "indexed": false,
          "internalType": "uint256",
          "name": "blockNumber",
          "type": "uint256"
        },
        {
          "indexed": false,
          "internalType": "uint256",
          "name": "blockReward",
          "type": "uint256"
        },
        {
          "indexed": false,
          "internalType": "uint256",
          "name": "price",
          "type": "uint256"
        },
        {
          "indexed": false,
          "internalType": "uint256",
          "name": "amount",
          "type": "uint256"
        },
        {
          "indexed": false,
          "internalType": "string",
          "name": "miner",
          "type": "string"
        }
      ],
      "name": "TrustedDigitalProductionData",
      "type": "event"
    },
    {
      "anonymous": false,
      "inputs": [
        {
          "indexed": false,
          "internalType": "string",
          "name": "treasureKind",
          "type": "string"
        },
        {
          "indexed": false,
          "internalType": "bytes32",
          "name": "uniqueId",
          "type": "bytes32"
        },
        {
          "indexed": false,
          "internalType": "uint256",
          "name": "month",
          "type": "uint256"
        },
        {
          "indexed": false,
          "internalType": "uint256",
          "name": "amount",
          "type": "uint256"
        }
      ],
      "name": "TrustedProductionData",
      "type": "event"
    },
    {
      "anonymous": false,
      "inputs": [
        {
          "indexed": false,
          "internalType": "bytes32",
          "name": "_uniqueId",
          "type": "bytes32"
        },
        {
          "indexed": false,
          "internalType": "uint256",
          "name": "month",
          "type": "uint256"
        },
        {
          "indexed": false,
          "internalType": "uint256",
          "name": "amount",
          "type": "uint256"
        }
      ],
      "name": "VerifiedProduction",
      "type": "event"
    },
    {
      "inputs": [],
      "name": "FEEDER",
      "outputs": [
        {
          "internalType": "bytes32",
          "name": "",
          "type": "bytes32"
        }
      ],
      "stateMutability": "view",
      "type": "function"
    },
    {
      "inputs": [],
      "name": "FOUNDATION_MANAGER",
      "outputs": [
        {
          "internalType": "bytes32",
          "name": "",
          "type": "bytes32"
        }
      ],
      "stateMutability": "view",
      "type": "function"
    },
    {
      "inputs": [],
      "name": "cancelAssetValueRequest",
      "outputs": [
        {
          "internalType": "bool",
          "name": "",
          "type": "bool"
        }
      ],
      "stateMutability": "nonpayable",
      "type": "function"
    },
    {
      "inputs": [
        {
          "internalType": "bytes32",
          "name": "_uniqueId",
          "type": "bytes32"
        }
      ],
      "name": "cancelTrustedDataRequest",
      "outputs": [
        {
          "internalType": "bool",
          "name": "",
          "type": "bool"
        }
      ],
      "stateMutability": "nonpayable",
      "type": "function"
    },
    {
      "inputs": [
        {
          "internalType": "bytes32",
          "name": "_uniqueId",
          "type": "bytes32"
        },
        {
          "internalType": "uint256",
          "name": "_month",
          "type": "uint256"
        }
      ],
      "name": "clearing",
      "outputs": [],
      "stateMutability": "nonpayable",
      "type": "function"
    },
    {
      "inputs": [
        {
          "internalType": "uint256",
          "name": "_date",
          "type": "uint256"
        }
      ],
      "name": "getAssetValue",
      "outputs": [
        {
          "internalType": "uint256",
          "name": "",
          "type": "uint256"
        }
      ],
      "stateMutability": "nonpayable",
      "type": "function"
    },
    {
      "inputs": [],
      "name": "getAssetValueRequestID",
      "outputs": [
        {
          "internalType": "bytes32",
          "name": "",
          "type": "bytes32"
        }
      ],
      "stateMutability": "view",
      "type": "function"
    },
    {
      "inputs": [
        {
          "internalType": "bytes32",
          "name": "_uniqueId",
          "type": "bytes32"
        },
        {
          "internalType": "uint256",
          "name": "month",
          "type": "uint256"
        }
      ],
      "name": "getProductionData",
      "outputs": [
        {
          "components": [
            {
              "internalType": "bytes32",
              "name": "uniqueId",
              "type": "bytes32"
            },
            {
              "internalType": "uint256",
              "name": "counterId",
              "type": "uint256"
            },
            {
              "internalType": "address",
              "name": "account",
              "type": "address"
            },
            {
              "internalType": "uint256",
              "name": "amount",
              "type": "uint256"
            },
            {
              "internalType": "uint256",
              "name": "price",
              "type": "uint256"
            },
            {
              "internalType": "uint256",
              "name": "date",
              "type": "uint256"
            },
            {
              "internalType": "uint256",
              "name": "month",
              "type": "uint256"
            },
            {
              "internalType": "string",
              "name": "miner",
              "type": "string"
            },
            {
              "internalType": "uint256",
              "name": "blockNumber",
              "type": "uint256"
            },
            {
              "internalType": "uint256",
              "name": "blockReward",
              "type": "uint256"
            },
            {
              "internalType": "enum IProductionData.ProduceDataStatus",
              "name": "status",
              "type": "uint8"
            }
          ],
          "internalType": "struct IProductionData.ProduceData",
          "name": "",
          "type": "tuple"
        }
      ],
      "stateMutability": "nonpayable",
      "type": "function"
    },
    {
      "inputs": [
        {
          "internalType": "bytes32",
          "name": "_uniqueId",
          "type": "bytes32"
        }
      ],
      "name": "getTDRequestID",
      "outputs": [
        {
          "internalType": "bytes32",
          "name": "",
          "type": "bytes32"
        }
      ],
      "stateMutability": "view",
      "type": "function"
    },
    {
      "inputs": [
        {
          "internalType": "address",
          "name": "_account",
          "type": "address"
        }
      ],
      "name": "marginOf",
      "outputs": [
        {
          "internalType": "uint256",
          "name": "",
          "type": "uint256"
        },
        {
          "internalType": "enum Expense.Status",
          "name": "",
          "type": "uint8"
        }
      ],
      "stateMutability": "view",
      "type": "function"
    },
    {
      "inputs": [],
      "name": "prepay",
      "outputs": [
        {
          "internalType": "bool",
          "name": "",
          "type": "bool"
        }
      ],
      "stateMutability": "payable",
      "type": "function"
    },
    {
      "inputs": [
        {
          "internalType": "bytes32",
          "name": "_requestId",
          "type": "bytes32"
        },
        {
          "internalType": "uint256",
          "name": "_date",
          "type": "uint256"
        },
        {
          "internalType": "uint256",
          "name": "_value",
          "type": "uint256"
        }
      ],
      "name": "receiveAssetValue",
      "outputs": [
        {
          "internalType": "uint256",
          "name": "",
          "type": "uint256"
        }
      ],
      "stateMutability": "nonpayable",
      "type": "function"
    },
    {
      "inputs": [],
      "name": "registerAssetValueRequest",
      "outputs": [
        {
          "internalType": "bytes32",
          "name": "",
          "type": "bytes32"
        }
      ],
      "stateMutability": "nonpayable",
      "type": "function"
    },
    {
      "inputs": [
        {
          "internalType": "bytes32",
          "name": "_uniqueId",
          "type": "bytes32"
        }
      ],
      "name": "registerTrustedDataRequest",
      "outputs": [
        {
          "internalType": "bytes32",
          "name": "",
          "type": "bytes32"
        }
      ],
      "stateMutability": "nonpayable",
      "type": "function"
    },
    {
      "inputs": [
        {
          "internalType": "bytes32",
          "name": "_uniqueId",
          "type": "bytes32"
        },
        {
          "components": [
            {
              "internalType": "bytes32",
              "name": "uniqueId",
              "type": "bytes32"
            },
            {
              "internalType": "uint256",
              "name": "counterId",
              "type": "uint256"
            },
            {
              "internalType": "address",
              "name": "account",
              "type": "address"
            },
            {
              "internalType": "uint256",
              "name": "amount",
              "type": "uint256"
            },
            {
              "internalType": "uint256",
              "name": "price",
              "type": "uint256"
            },
            {
              "internalType": "uint256",
              "name": "date",
              "type": "uint256"
            },
            {
              "internalType": "uint256",
              "name": "month",
              "type": "uint256"
            },
            {
              "internalType": "string",
              "name": "miner",
              "type": "string"
            },
            {
              "internalType": "uint256",
              "name": "blockNumber",
              "type": "uint256"
            },
            {
              "internalType": "uint256",
              "name": "blockReward",
              "type": "uint256"
            },
            {
              "internalType": "enum IProductionData.ProduceDataStatus",
              "name": "status",
              "type": "uint8"
            }
          ],
          "internalType": "struct IProductionData.ProduceData",
          "name": "_produceData",
          "type": "tuple"
        }
      ],
      "name": "setProductionData",
      "outputs": [],
      "stateMutability": "nonpayable",
      "type": "function"
    },
    {
      "inputs": [
        {
          "internalType": "uint256",
          "name": "amount",
          "type": "uint256"
        }
      ],
      "name": "withdraw",
      "outputs": [
        {
          "internalType": "bool",
          "name": "",
          "type": "bool"
        }
      ],
      "stateMutability": "payable",
      "type": "function"
    },
    {
      "stateMutability": "payable",
      "type": "receive"
    },
    {
      "inputs": [
        {
          "internalType": "string",
          "name": "_treasureKind",
          "type": "string"
        },
        {
          "internalType": "address",
          "name": "_oracleContract",
          "type": "address"
        },
        {
          "internalType": "address",
          "name": "_rolesContract",
          "type": "address"
        },
        {
          "internalType": "address",
          "name": "_parameterInfoContract",
          "type": "address"
        },
        {
          "internalType": "address",
          "name": "_producerContract",
          "type": "address"
        },
        {
          "internalType": "address",
          "name": "_tatContract",
          "type": "address"
        }
      ],
      "name": "initialize",
      "outputs": [],
      "stateMutability": "nonpayable",
      "type": "function"
    },
    {
      "inputs": [
        {
          "internalType": "bytes32",
          "name": "_requestId",
          "type": "bytes32"
        },
        {
          "internalType": "bytes32",
          "name": "_uniqueId",
          "type": "bytes32"
        },
        {
          "components": [
            {
              "internalType": "bytes32",
              "name": "uniqueId",
              "type": "bytes32"
            },
            {
              "internalType": "uint256",
              "name": "counterId",
              "type": "uint256"
            },
            {
              "internalType": "address",
              "name": "account",
              "type": "address"
            },
            {
              "internalType": "uint256",
              "name": "amount",
              "type": "uint256"
            },
            {
              "internalType": "uint256",
              "name": "price",
              "type": "uint256"
            },
            {
              "internalType": "uint256",
              "name": "date",
              "type": "uint256"
            },
            {
              "internalType": "uint256",
              "name": "month",
              "type": "uint256"
            },
            {
              "internalType": "string",
              "name": "miner",
              "type": "string"
            },
            {
              "internalType": "uint256",
              "name": "blockNumber",
              "type": "uint256"
            },
            {
              "internalType": "uint256",
              "name": "blockReward",
              "type": "uint256"
            },
            {
              "internalType": "enum IProductionData.ProduceDataStatus",
              "name": "status",
              "type": "uint8"
            }
          ],
          "internalType": "struct IProductionData.ProduceData",
          "name": "_produceData",
          "type": "tuple"
        }
      ],
      "name": "receiveTrustedProductionData",
      "outputs": [],
      "stateMutability": "nonpayable",
      "type": "function"
    }
  ],
  "bytecode": "0x608060405234801561001057600080fd5b50612e50806100206000396000f3fe60806040526004361061010d5760003560e01c80636d8bc0a911610095578063a31bffb811610064578063a31bffb814610310578063ac398a7414610330578063bd8742cd14610350578063dd19288a1461037d578063f31c336d1461039257600080fd5b80636d8bc0a9146102445780637928c018146102785780638182e70714610298578063a23270b2146102b857600080fd5b806334fe1d1e116100dc57806334fe1d1e146101a65780636447189a146101ae578063664e504c146101e257806366a88c3d1461020f57806366c0e6991461022457600080fd5b806305c12a46146101195780630fb029641461014c57806323d7c9c1146101615780632e1a7d4d1461018357600080fd5b3661011457005b600080fd5b34801561012557600080fd5b50610139610134366004612270565b6103b2565b6040519081526020015b60405180910390f35b34801561015857600080fd5b506101396103c3565b34801561016d57600080fd5b5061018161017c366004612289565b610474565b005b610196610191366004612270565b61052d565b6040519015158152602001610143565b6101966106b5565b3480156101ba57600080fd5b506101397f0a59a035ae0a00eac2a600a582577e6f107971288ab786d897919ae27385652481565b3480156101ee57600080fd5b506102026101fd366004612289565b610a7f565b6040516101439190612339565b34801561021b57600080fd5b50610196610a87565b34801561023057600080fd5b5061018161023f3660046125f0565b610ae4565b34801561025057600080fd5b506101397fd8e00efd67a9b34b6da7b941bb2d92f1c529ce28e67d637c0b137058422e066981565b34801561028457600080fd5b50610196610293366004612270565b610fc0565b3480156102a457600080fd5b506101816102b3366004612640565b611089565b3480156102c457600080fd5b506103026102d33660046126db565b6001600160a01b0316600090815260036020526040902080546001909101549091600160a01b90910460ff1690565b6040516101439291906126f8565b34801561031c57600080fd5b5061018161032b366004612715565b6111a6565b34801561033c57600080fd5b5061013961034b36600461275c565b611244565b34801561035c57600080fd5b5061013961036b366004612270565b6000908152600c602052604090205490565b34801561038957600080fd5b50600b54610139565b34801561039e57600080fd5b506101396103ad366004612270565b61144c565b60006103bd82611589565b92915050565b600080600b541461040f5760405162461bcd60e51b8152602060048201526011602482015270185b1c9958591e481c9959da5cdd195c99607a1b60448201526064015b60405180910390fd5b60006104196116d5565b905061042d30632b0e629d60e21b836116f0565b600b8190556040517fa4f2b75fa48d1260c0196fd83a5dbe1616b5aad1f700d725b5d4681ab1a69c0d91610464916005919061285d565b60405180910390a15050600b5490565b81600160085460405163dc8b577f60e01b8152600481018490526001600160a01b039091169063dc8b577f90602401602060405180830381865afa1580156104c0573d6000803e3d6000fd5b505050506040513d601f19601f820116820180604052508101906104e4919061287f565b60028111156104f5576104f5612303565b146105125760405162461bcd60e51b81526004016104069061289c565b61051b8361181a565b506105268383611891565b505b505050565b60003360016001600160a01b038216600090815260036020526040902060010154600160a01b900460ff16600281111561056957610569612303565b146105c25760405162461bcd60e51b8152602060048201526024808201527f6d757374206265206465706f7369746f7220616e64206d757374206265204e6f6044820152631c9b585b60e21b6064820152608401610406565b33600090815260036020526040902080548411156106195760405162461bcd60e51b81526020600482015260146024820152730dac2e4ced2dc40d2e640dcdee840cadcdeeaced60631b6044820152606401610406565b33600090815260036020526040812080548692906106389084906128f6565b9091555050604051339085156108fc029086906000818181858888f1935050505015801561066a573d6000803e3d6000fd5b507f28671cdd0231ca4027ae5f2f7cb3942f7b71850e856473a9878c5ffe8a7b2feb42336002876040516106a1949392919061291d565b60405180910390a160019250505b50919050565b60008034116107065760405162461bcd60e51b815260206004820152601d60248201527f7061796d656e74206d75737420626967676572207468616e207a65726f0000006044820152606401610406565b336000908152600360205260408120906001820154600160a01b900460ff16600281111561073657610736612303565b14156107ca573480825560018083018054600160a01b60ff60a01b1990911681178255336000908152600360205260409020938455815492840180546001600160a01b039094166001600160a01b031985168117825592548695949083900460ff169391926001600160a81b0319909116909117908360028111156107bd576107bd612303565b0217905550905050610a39565b600180820154600160a01b900460ff1660028111156107eb576107eb612303565b14156108755734816000016000828254610805919061296e565b9091555050336000908152600360205260409020815481556001808301805491830180546001600160a01b031981166001600160a01b03949094169384178255915485949360ff600160a01b9283900416936001600160a81b03191617908360028111156107bd576107bd612303565b60026001820154600160a01b900460ff16600281111561089757610897612303565b1415610a3957805434811161096f576108b081346128f6565b80835560018084018054600160a01b6001600160a81b031991821681178355336000908152600360205260409020948555825493850180546001600160a01b039095166001600160a01b031986168117825593548896959083900460ff1694919316179083600281111561092657610926612303565b0217905550505060018201546040516001600160a01b039091169082156108fc029083906000818181858888f19350505050158015610969573d6000803e3d6000fd5b50610a37565b3482600001600082825461098391906128f6565b9091555050336000908152600360205260409020825481556001808401805491830180546001600160a01b031981166001600160a01b03949094169384178255915486949360ff600160a01b9283900416936001600160a81b03191617908360028111156109f3576109f3612303565b0217905550505060018201546040516001600160a01b03909116903480156108fc02916000818181858888f19350505050158015610a35573d6000803e3d6000fd5b505b505b7f28671cdd0231ca4027ae5f2f7cb3942f7b71850e856473a9878c5ffe8a7b2feb4233600134604051610a6f9493929190612986565b60405180910390a1600191505090565b6103bd6120ae565b6000610a9d600b54306366c0e69960e01b611b01565b6000600b8190556040517f8671e9ffb14cf0f79bf6f9c276f3f060f8041d92e6148936c09f3e37298ab64791610ad6916005919061285d565b60405180910390a150600190565b600a546001600160a01b03166391d148547f0a59a035ae0a00eac2a600a582577e6f107971288ab786d897919ae273856524336040516001600160e01b031960e085901b16815260048101929092526001600160a01b03166024820152604401602060405180830381865afa158015610b61573d6000803e3d6000fd5b505050506040513d601f19601f82011682018060405250810190610b8591906129d7565b610bcd5760405162461bcd60e51b81526020600482015260196024820152784f6e6c79204665656465722063616e2070757368206461746160381b6044820152606401610406565b81600160085460405163dc8b577f60e01b8152600481018490526001600160a01b039091169063dc8b577f90602401602060405180830381865afa158015610c19573d6000803e3d6000fd5b505050506040513d601f19601f82011682018060405250810190610c3d919061287f565b6002811115610c4e57610c4e612303565b14610c6b5760405162461bcd60e51b81526004016104069061289c565b6000838152600c60205260409020548414610ce25760405162461bcd60e51b815260206004820152603160248201527f696e76616c6964206f7261636c6520726571756573742069642c6e6f7420666f604482015270722070726f64756374696f6e206461746160781b6064820152608401610406565b610100820151610d405760405162461bcd60e51b8152602060048201526024808201527f70726f64756374696f6e20626c6f636b206e756d6265722063616e74206265206044820152637a65726f60e01b6064820152608401610406565b610120820151610d9e5760405162461bcd60e51b8152602060048201526024808201527f70726f64756374696f6e20626c6f636b207265776172642063616e74206265206044820152637a65726f60e01b6064820152608401610406565b6000610da984611b8f565b610100840151600090815260106020908152604080832088845282529182902086518155818701516001820155918601516002830180546001600160a01b0319166001600160a01b03909216919091179055606086015160038301556080860151600483015560a0860151600583015560c0860151600683015560e086015180519394508693610e3f9260078501920190612124565b5061010082015160088201556101208201516009820155610140820151600a8201805460ff19166001836002811115610e7a57610e7a612303565b021790555050506080810151604051610e9691906020016129f9565b604051602081830303815290604052805190602001208360e00151604051602001610ec191906129f9565b6040516020818303038152906040528051906020012014610f365760405162461bcd60e51b815260206004820152602960248201527f6d696e6572206973206e6f74207468652073616d65206f662070726f647563656044820152681c881858d8dbdd5b9d60ba1b6064820152608401610406565b6060830180516101008501805160009081526010602090815260408083208a84529091529081902060030192909255516101208601516080870151935160e088015193517f0691147a0b8ecfd0bb35fb85d77ea78ccefa142a5249dd62440353c8e352367f95610fb1956005958c9590949093909190612a15565b60405180910390a15050505050565b6008546000906001600160a01b0316331461101d5760405162461bcd60e51b815260206004820152601e60248201527f6f6e6c792070726f647563657220636f6e747261637420616c6c6f77656400006044820152606401610406565b6000828152600c60205260408120805491905561104281306366c0e69960e01b611b01565b7fcf2aeb56f97d9bef25e0a4ebe043f0caaaf5424f3d5a2d9a7f6458e93b7cab2a6005848360405161107693929190612a66565b60405180910390a160019150505b919050565b600054610100900460ff16158080156110a95750600054600160ff909116105b806110c35750303b1580156110c3575060005460ff166001145b6111265760405162461bcd60e51b815260206004820152602e60248201527f496e697469616c697a61626c653a20636f6e747261637420697320616c72656160448201526d191e481a5b9a5d1a585b1a5e995960921b6064820152608401610406565b6000805460ff191660011790558015611149576000805461ff0019166101001790555b611157878787878787611c8a565b801561119d576000805461ff0019169055604051600181527f7f26b83ff96e1f2b6a682f133852f6798a09c465da95921460cefb38474024989060200160405180910390a15b50505050505050565b81600160085460405163dc8b577f60e01b8152600481018490526001600160a01b039091169063dc8b577f90602401602060405180830381865afa1580156111f2573d6000803e3d6000fd5b505050506040513d601f19601f82011682018060405250810190611216919061287f565b600281111561122757611227612303565b146105285760405162461bcd60e51b81526004016104069061289c565b600a546000906001600160a01b03166391d148547f0a59a035ae0a00eac2a600a582577e6f107971288ab786d897919ae273856524336040516001600160e01b031960e085901b16815260048101929092526001600160a01b03166024820152604401602060405180830381865afa1580156112c4573d6000803e3d6000fd5b505050506040513d601f19601f820116820180604052508101906112e891906129d7565b6113305760405162461bcd60e51b81526020600482015260196024820152784f6e6c79204665656465722063616e2070757368206461746160381b6044820152606401610406565b600b5484146113815760405162461bcd60e51b815260206004820152601960248201527f696e76616c6964206f7261636c652072657175657374206964000000000000006044820152606401610406565b620f424083106113d35760405162461bcd60e51b815260206004820152601960248201527f4461746520666f726d6174206973206e6f742059594d4d4444000000000000006044820152606401610406565b6000826113ee576113e384611589565b9250600190506113fc565b6113fc600f80546001019055565b611407848483611d29565b7f3bb3c1b8511f81c6b36916aa374276f49b7bc9dfe44b6420661f162590d7bf856005858560405161143b93929190612a66565b60405180910390a150909392505050565b6008546000906001600160a01b031633146114a95760405162461bcd60e51b815260206004820152601e60248201527f6f6e6c792070726f647563657220636f6e747261637420616c6c6f77656400006044820152606401610406565b6000828152600c6020526040902054156115115760405162461bcd60e51b815260206004820152602360248201527f70726f64756374206f7261636c65207265717565737420616c72656164792073604482015262195b9d60ea1b6064820152608401610406565b600061151b6116d5565b90506000611531306366c0e69960e01b846116f0565b6000858152600c602052604090819020829055519091507f196f892e92466d317a7a16174d708f337dcd6b188b75297ff99c041a2fff6c7f9061157a9060059087908590612a66565b60405180910390a19392505050565b600080611595600f5490565b9050806115a55750600092915050565b6000838152600d602090815260409182902082516060810184528154815260018201549281018390526002909101549281019290925280156115e957949350505050565b600a831061166e576000805b600a81101561165a57600e61160b6001876128f6565b8154811061161b5761161b612a8b565b90600052602060002090600302016001015482611638919061296e565b91508461164481612aa1565b955050808061165290612ab8565b9150506115f5565b50611666600a82612ad3565b9150506116cd565b6000805b848110156116be57600e818154811061168d5761168d612a8b565b906000526020600020906003020160010154826116aa919061296e565b9150806116b681612ab8565b915050611672565b506116c98482612ad3565b9150505b949350505050565b6002546000906116e6906001611e1b565b6002819055919050565b6040516bffffffffffffffffffffffff193060601b16602082015260348101829052600090819060540160408051808303601f190181529082905280516020909101206000546316f54b9960e11b83526001600160a01b0388811660048501526001600160e01b031988166024850152604484018790529193506201000090041690632dea9732906064016020604051808303816000875af115801561179a573d6000803e3d6000fd5b505050506040513d601f19601f820116820180604052508101906117be9190612af5565b81146116cd5760405162461bcd60e51b815260206004820152602560248201527f726571756573746964206d69736d617463682c636865636b206f7261636c65206044820152646c6f67696360d81b6064820152608401610406565b6118226121a8565b600061182d83611b8f565b905080602001516001600160a01b03166118443390565b6001600160a01b0316146103bd5760405162461bcd60e51b815260206004820152601460248201527336bab9ba103132903a343290383937b23ab1b2b960611b6044820152606401610406565b6000818152601060209081526040808320858452909152812081600a82015460ff1660028111156118c4576118c4612303565b146119115760405162461bcd60e51b815260206004820152601c60248201527f74727573746564206461746120616c72656164792061756469746564000000006044820152606401610406565b6003810154604080518681526020810186905280820192909252517f9632275fcee040eba07c6f31fad4870e760756c12c9a5f3177f3f4233a3b4ceb9181900360600190a160038101546119658582611e27565b146119c45760405162461bcd60e51b815260206004820152602960248201527f746f74616c206d696e746564206d75737420657175616c20746f20747275737460448201526819590b985b5bdd5b9d60ba1b6064820152608401610406565b7f7fa5dad38255129907a9d121ff93b93692a257afe524cbc721d8eba1df76a2686005858584600301546040516119fe9493929190612b0e565b60405180910390a1600a810180546001919060ff19168280021790555060008381526010602090815260408083208784529091529020815481556001808301549082015560028083015490820180546001600160a01b0319166001600160a01b03909216919091179055600380830154908201556004808301549082015560058083015490820155600680830154908201556007808301805484939283019190611aa790612788565b611ab29291906121e0565b506008828101549082015560098083015490820155600a80830154908201805460ff9092169160ff19166001836002811115611af057611af0612303565b021790555060019695505050505050565b600054604051630938203b60e11b8152600481018590526001600160a01b0384811660248301526001600160e01b03198416604483015262010000909204909116906312704076906064016020604051808303816000875af1158015611b6b573d6000803e3d6000fd5b505050506040513d601f19601f820116820180604052508101906105269190612af5565b611b976121a8565b600854604051631f32f15f60e31b81526004810184905260009182916001600160a01b039091169063f9978af890602401600060405180830381865afa158015611be5573d6000803e3d6000fd5b505050506040513d6000823e601f3d908101601f19168201604052611c0d9190810190612b82565b90925090506000826002811115611c2657611c26612303565b1415611c835760405162461bcd60e51b815260206004820152602660248201527f70726f64756365722077697468207468697320756e69717565206964206e6f7460448201526508199bdd5b9960d21b6064820152608401610406565b9392505050565b600054610100900460ff16611cb15760405162461bcd60e51b815260040161040690612c52565b611cba83611ebe565b611cc385611f07565b8551611cd6906005906020890190612124565b50600a80546001600160a01b039586166001600160a01b03199182161790915560068054948616948216949094179093556008805492851692841692909217909155600980549190931691161790555050565b611d4d60405180606001604052806000815260200160008152602001600081525090565b83815260208082018481524260408085019182526000888152600d909452909220835181559051600182015590516002909101558161052657600e805460018101825560009190915281517fbb7b4a454dc3493923482f07822329ed19e8244eff582cc204f8554c3620c3fd60039092029182015560208201517fbb7b4a454dc3493923482f07822329ed19e8244eff582cc204f8554c3620c3fe8201556040909101517fbb7b4a454dc3493923482f07822329ed19e8244eff582cc204f8554c3620c3ff90910155505050565b6000611c83828461296e565b6008546040516339b8a2af60e01b81526004810184905260248101839052600091829182916001600160a01b0316906339b8a2af906044016000604051808303816000875af1158015611e7e573d6000803e3d6000fd5b505050506040513d6000823e601f3d908101601f19168201604052611ea69190810190612d27565b91509150611eb5858383611f58565b95945050505050565b600054610100900460ff16611ee55760405162461bcd60e51b815260040161040690612c52565b600480546001600160a01b0319166001600160a01b0392909216919091179055565b600054610100900460ff16611f2e5760405162461bcd60e51b815260040161040690612c52565b600080546001600160a01b03909216620100000262010000600160b01b0319909216919091179055565b6000808251845114611fbf5760405162461bcd60e51b815260206004820152602a60248201527f6163636f756e747320616e6420616d6f756e7473206d757374206861766520736044820152690c2daca40d8cadccee8d60b31b6064820152608401610406565b60005b84518110156120a55760095485516001600160a01b0390911690631c2e469e906005908990899086908110611ff957611ff9612a8b565b602002602001015188868151811061201357612013612a8b565b60200260200101516040518563ffffffff1660e01b815260040161203a9493929190612de2565b600060405180830381600087803b15801561205457600080fd5b505af1158015612068573d6000803e3d6000fd5b5050505083818151811061207e5761207e612a8b565b602002602001015182612091919061296e565b91508061209d81612ab8565b915050611fc2565b50949350505050565b604051806101600160405280600080191681526020016000815260200160006001600160a01b03168152602001600081526020016000815260200160008152602001600081526020016060815260200160008152602001600081526020016000600281111561211f5761211f612303565b905290565b82805461213090612788565b90600052602060002090601f0160209004810192826121525760008555612198565b82601f1061216b57805160ff1916838001178555612198565b82800160010185558215612198579182015b8281111561219857825182559160200191906001019061217d565b506121a492915061225b565b5090565b6040518060a001604052806060815260200160006001600160a01b031681526020016000815260200160008152602001606081525090565b8280546121ec90612788565b90600052602060002090601f01602090048101928261220e5760008555612198565b82601f1061221f5780548555612198565b8280016001018555821561219857600052602060002091601f016020900482015b82811115612198578254825591600101919060010190612240565b5b808211156121a4576000815560010161225c565b60006020828403121561228257600080fd5b5035919050565b6000806040838503121561229c57600080fd5b50508035926020909101359150565b60005b838110156122c65781810151838201526020016122ae565b838111156105265750506000910152565b600081518084526122ef8160208601602086016122ab565b601f01601f19169290920160200192915050565b634e487b7160e01b600052602160045260246000fd5b6003811061232957612329612303565b50565b61233581612319565b9052565b6020815281516020820152602082015160408201526000604083015161236a60608401826001600160a01b03169052565b5060608301516080830152608083015160a083015260a083015160c083015260c083015160e083015260e083015161016061010081818601526123b16101808601846122d7565b9086015161012086810191909152860151610140808701919091528601519092506123de8286018261232c565b5090949350505050565b634e487b7160e01b600052604160045260246000fd5b604051610160810167ffffffffffffffff81118282101715612422576124226123e8565b60405290565b60405160a0810167ffffffffffffffff81118282101715612422576124226123e8565b604051601f8201601f1916810167ffffffffffffffff81118282101715612474576124746123e8565b604052919050565b6001600160a01b038116811461232957600080fd5b80356110848161247c565b600067ffffffffffffffff8211156124b6576124b66123e8565b50601f01601f191660200190565b600082601f8301126124d557600080fd5b81356124e86124e38261249c565b61244b565b8181528460208386010111156124fd57600080fd5b816020850160208301376000918101602001919091529392505050565b6003811061232957600080fd5b80356110848161251a565b6000610160828403121561254557600080fd5b61254d6123fe565b9050813581526020820135602082015261256960408301612491565b6040820152606082013560608201526080820135608082015260a082013560a082015260c082013560c082015260e082013567ffffffffffffffff8111156125b057600080fd5b6125bc848285016124c4565b60e083015250610100828101359082015261012080830135908201526101406125e6818401612527565b9082015292915050565b60008060006060848603121561260557600080fd5b8335925060208401359150604084013567ffffffffffffffff81111561262a57600080fd5b61263686828701612532565b9150509250925092565b60008060008060008060c0878903121561265957600080fd5b863567ffffffffffffffff81111561267057600080fd5b61267c89828a016124c4565b965050602087013561268d8161247c565b9450604087013561269d8161247c565b935060608701356126ad8161247c565b925060808701356126bd8161247c565b915060a08701356126cd8161247c565b809150509295509295509295565b6000602082840312156126ed57600080fd5b8135611c838161247c565b8281526040810161270883612319565b8260208301529392505050565b6000806040838503121561272857600080fd5b82359150602083013567ffffffffffffffff81111561274657600080fd5b61275285828601612532565b9150509250929050565b60008060006060848603121561277157600080fd5b505081359360208301359350604090920135919050565b600181811c9082168061279c57607f821691505b602082108114156106af57634e487b7160e01b600052602260045260246000fd5b8054600090600181811c90808316806127d757607f831692505b60208084108214156127f957634e487b7160e01b600052602260045260246000fd5b83885260208801828015612814576001811461282557612850565b60ff19871682528282019750612850565b60008981526020902060005b8781101561284a57815484820152908601908401612831565b83019850505b5050505050505092915050565b60408152600061287060408301856127bd565b90508260208301529392505050565b60006020828403121561289157600080fd5b8151611c838161251a565b60208082526024908201527f70726f6475636572206e6f7420616374697665206f6e207468697320756e69716040820152631d59525960e21b606082015260800190565b634e487b7160e01b600052601160045260246000fd5b600082821015612908576129086128e0565b500390565b6004811061233557612335612303565b8481526001600160a01b038416602082015261293c604082018461290d565b60a06060820181905260089082015267776974686472617760c01b60c0820152608081019190915260e0019392505050565b60008219821115612981576129816128e0565b500190565b8481526001600160a01b03841660208201526129a5604082018461290d565b60a060608201819052600890820152676465706f7369746560c01b60c0820152608081019190915260e0019392505050565b6000602082840312156129e957600080fd5b81518015158114611c8357600080fd5b60008251612a0b8184602087016122ab565b9190910192915050565b60e081526000612a2860e083018a6127bd565b8860208401528760408401528660608401528560808401528460a084015282810360c0840152612a5881856122d7565b9a9950505050505050505050565b606081526000612a7960608301866127bd565b60208301949094525060400152919050565b634e487b7160e01b600052603260045260246000fd5b600081612ab057612ab06128e0565b506000190190565b6000600019821415612acc57612acc6128e0565b5060010190565b600082612af057634e487b7160e01b600052601260045260246000fd5b500490565b600060208284031215612b0757600080fd5b5051919050565b608081526000612b2160808301876127bd565b6020830195909552506040810192909252606090910152919050565b600082601f830112612b4e57600080fd5b8151612b5c6124e38261249c565b818152846020838601011115612b7157600080fd5b6116cd8260208301602087016122ab565b60008060408385031215612b9557600080fd5b8251612ba08161251a565b602084015190925067ffffffffffffffff80821115612bbe57600080fd5b9084019060a08287031215612bd257600080fd5b612bda612428565b825182811115612be957600080fd5b612bf588828601612b3d565b8252506020830151612c068161247c565b806020830152506040830151604082015260608301516060820152608083015182811115612c3357600080fd5b612c3f88828601612b3d565b6080830152508093505050509250929050565b6020808252602b908201527f496e697469616c697a61626c653a20636f6e7472616374206973206e6f74206960408201526a6e697469616c697a696e6760a81b606082015260800190565b600067ffffffffffffffff821115612cb757612cb76123e8565b5060051b60200190565b600082601f830112612cd257600080fd5b81516020612ce26124e383612c9d565b82815260059290921b84018101918181019086841115612d0157600080fd5b8286015b84811015612d1c5780518352918301918301612d05565b509695505050505050565b60008060408385031215612d3a57600080fd5b825167ffffffffffffffff80821115612d5257600080fd5b818501915085601f830112612d6657600080fd5b81516020612d766124e383612c9d565b82815260059290921b84018101918181019089841115612d9557600080fd5b948201945b83861015612dbc578551612dad8161247c565b82529482019490820190612d9a565b91880151919650909350505080821115612dd557600080fd5b5061275285828601612cc1565b608081526000612df560808301876127bd565b6020830195909552506001600160a01b0392909216604083015260609091015291905056fea2646970667358221220e1d8e430d0a250117c39345115a86007f2995dcbd5e59b80256384ba3c06206764736f6c634300080a0033",
  "immutableReferences": {},
  "source": "// SPDX-License-Identifier: GPL-3.0\r\npragma solidity ^0.8.0;\r\n\r\nimport \"../interfaces/IProducer.sol\";\r\nimport \"../ProductionData.sol\";\r\nimport \"@openzeppelin/contracts/utils/Counters.sol\";\r\n\r\ncontract BtcData is ProductionData {\r\n    using Counters for Counters.Counter;\r\n\r\n    event TrustedDigitalProductionData(\r\n        string treasureKind,\r\n        bytes32 uniqueId,\r\n        uint256 blockNumber,\r\n        uint256 blockReward,\r\n        uint256 price,\r\n        uint256 amount,\r\n        string miner\r\n    );\r\n\r\n    function initialize(\r\n        string memory _treasureKind,\r\n        address _oracleContract,\r\n        address _rolesContract,\r\n        address _parameterInfoContract,\r\n        address _producerContract,\r\n        address _tatContract\r\n    ) public initializer {\r\n        __ProductionDataInitialize(\r\n            _treasureKind,\r\n            _oracleContract,\r\n            _rolesContract,\r\n            _parameterInfoContract,\r\n            _producerContract,\r\n            _tatContract\r\n        );\r\n    }\r\n\r\n    function receiveTrustedProductionData(\r\n        bytes32 _requestId,\r\n        bytes32 _uniqueId,\r\n        ProduceData memory _produceData\r\n    ) external override onlyFeeder onlyWhenActive(_uniqueId) {\r\n        require(\r\n            _requestId == _requestIdsToPullTrustedData[_uniqueId],\r\n            \"invalid oracle request id,not for production data\"\r\n        );\r\n        require(\r\n            _produceData.blockNumber != 0,\r\n            \"production block number cant be zero\"\r\n        );\r\n        require(\r\n            _produceData.blockReward != 0,\r\n            \"production block reward cant be zero\"\r\n        );\r\n        /*require(_produceData.miner != address(0), \"production miner cant be zero\");*/\r\n\r\n        IProducer.ProducerCore memory thisProducer = _getProducer(_uniqueId);\r\n\r\n        // set produce data with block number\r\n        _trustedProduceData[_produceData.blockNumber][_uniqueId] = _produceData;\r\n\r\n        require(\r\n            keccak256(abi.encodePacked(_produceData.miner)) ==\r\n                keccak256(abi.encodePacked(thisProducer.account)),\r\n            \"miner is not the same of producer account\"\r\n        );\r\n\r\n        _trustedProduceData[_produceData.blockNumber][_uniqueId]\r\n            .amount = _produceData.amount;\r\n\r\n        emit TrustedDigitalProductionData(\r\n            TREASURE_KIND,\r\n            _uniqueId,\r\n            _produceData.blockNumber,\r\n            _produceData.blockReward,\r\n            _produceData.price,\r\n            _produceData.amount,\r\n            _produceData.miner\r\n        );\r\n    }\r\n\r\n    // _month is block number\r\n    function _clearing(\r\n        bytes32 _uniqueId,\r\n        uint256 blockNumber\r\n    ) internal override returns (bool) {\r\n        ProduceData storage trusted = _trustedProduceData[blockNumber][\r\n            _uniqueId\r\n        ];\r\n        /*require(\r\n            trusted.account != address(0),\r\n            \"cleared or product data not found at this blockNumber\"\r\n        );*/\r\n        require(\r\n            trusted.status == ProduceDataStatus.UNAUDITED,\r\n            \"trusted data already audited\"\r\n        );\r\n\r\n        emit VerifiedProduction(_uniqueId, blockNumber, trusted.amount);\r\n\r\n        require(\r\n            _rewardByShare(_uniqueId, trusted.amount) == trusted.amount,\r\n            \"total minted must equal to trusted.amount\"\r\n        );\r\n        emit ClearingReward(\r\n            TREASURE_KIND,\r\n            _uniqueId,\r\n            blockNumber,\r\n            trusted.amount\r\n        );\r\n\r\n        trusted.status = ProduceDataStatus.FINISHED;\r\n        _trustedProduceData[blockNumber][_uniqueId] = trusted;\r\n\r\n        return true;\r\n    }\r\n\r\n    function _afterClearing(\r\n        bytes32 _uniqueId,\r\n        uint256 blockNumber\r\n    ) internal override {}\r\n\r\n    function _rewardByShare(\r\n        bytes32 uniqueId,\r\n        uint256 total\r\n    ) internal returns (uint256) {\r\n        (address[] memory accounts, uint256[] memory amounts) = _producer\r\n            .calculateRewards(uniqueId, total);\r\n        return _reward(uniqueId, accounts, amounts);\r\n    }\r\n}\r\n",
  "sourcePath": "D:\\work\\Treasurenet-contracts\\fork\\treasurenet-contracts\\contracts\\Treasure\\BTC\\BtcData.sol",
  "compiler": {
    "name": "solc",
    "version": "0.8.10+commit.fc410830.Emscripten.clang"
  },
  "schemaVersion": "3.4.16",
  "updatedAt": "2024-04-29T07:29:53.002Z",
  "devdoc": {
    "kind": "dev",
    "methods": {
      "cancelAssetValueRequest()": {
        "details": "(Oracle)",
        "returns": {
          "_0": "bool "
        }
      },
      "cancelTrustedDataRequest(bytes32)": {
        "details": "(Oracle)",
        "params": {
          "_uniqueId": "ID"
        },
        "returns": {
          "_0": "bool "
        }
      },
      "clearing(bytes32,uint256)": {
        "details": "Mint TAT",
        "params": {
          "_month": "",
          "_uniqueId": "ID"
        }
      },
      "getAssetValue(uint256)": {
        "details": "Asset Value",
        "params": {
          "_date": "value"
        },
        "returns": {
          "_0": "uint256 value"
        }
      },
      "receiveAssetValue(bytes32,uint256,uint256)": {
        "details": "AssetValue(FEEDER)",
        "params": {
          "_date": "value",
          "_requestId": "id",
          "_value": "value"
        }
      },
      "receiveTrustedProductionData(bytes32,bytes32,(bytes32,uint256,address,uint256,uint256,uint256,uint256,string,uint256,uint256,uint8))": {
        "details": "",
        "params": {
          "_requestId": "ID",
          "_uniqueId": "ID"
        }
      },
      "registerAssetValueRequest()": {
        "details": "AssetValue(Oracle)",
        "returns": {
          "_0": "bytes32 request id"
        }
      },
      "registerTrustedDataRequest(bytes32)": {
        "details": "(Oracle)",
        "params": {
          "_uniqueId": "ID"
        },
        "returns": {
          "_0": "bytes32 Oraclerequest id"
        }
      },
      "setProductionData(bytes32,(bytes32,uint256,address,uint256,uint256,uint256,uint256,string,uint256,uint256,uint8))": {
        "details": "",
        "params": {
          "_produceData": "",
          "_uniqueId": "ID"
        }
      }
    },
    "version": 1
  },
  "userdoc": {
    "events": {
      "RegisterTrustedDataRequest(string,bytes32,bytes32)": {
        "notice": "Resource Trusted data management"
      }
    },
    "kind": "user",
    "methods": {},
    "version": 1
  }
}