{
  "contractName": "DAO",
  "abi": [
    {
      "inputs": [],
      "name": "Empty",
      "type": "error"
    },
    {
      "anonymous": false,
      "inputs": [
        {
          "indexed": false,
          "internalType": "uint8",
          "name": "version",
          "type": "uint8"
        }
      ],
      "name": "Initialized",
      "type": "event"
    },
    {
      "anonymous": false,
      "inputs": [
        {
          "indexed": false,
          "internalType": "uint256",
          "name": "oldDuration",
          "type": "uint256"
        },
        {
          "indexed": false,
          "internalType": "uint256",
          "name": "newDuration",
          "type": "uint256"
        }
      ],
      "name": "MinDelayChange",
      "type": "event"
    },
    {
      "anonymous": false,
      "inputs": [
        {
          "indexed": true,
          "internalType": "address",
          "name": "previousOwner",
          "type": "address"
        },
        {
          "indexed": true,
          "internalType": "address",
          "name": "newOwner",
          "type": "address"
        }
      ],
      "name": "OwnershipTransferred",
      "type": "event"
    },
    {
      "anonymous": false,
      "inputs": [
        {
          "indexed": false,
          "internalType": "uint256",
          "name": "proposalId",
          "type": "uint256"
        }
      ],
      "name": "ProposalCanceled",
      "type": "event"
    },
    {
      "anonymous": false,
      "inputs": [
        {
          "indexed": false,
          "internalType": "uint256",
          "name": "proposalId",
          "type": "uint256"
        },
        {
          "indexed": false,
          "internalType": "address",
          "name": "proposer",
          "type": "address"
        },
        {
          "indexed": false,
          "internalType": "address[]",
          "name": "targets",
          "type": "address[]"
        },
        {
          "indexed": false,
          "internalType": "bytes[]",
          "name": "calldatas",
          "type": "bytes[]"
        },
        {
          "indexed": false,
          "internalType": "uint256",
          "name": "startBlock",
          "type": "uint256"
        },
        {
          "indexed": false,
          "internalType": "uint256",
          "name": "endBlock",
          "type": "uint256"
        },
        {
          "indexed": false,
          "internalType": "string",
          "name": "description",
          "type": "string"
        }
      ],
      "name": "ProposalCreated",
      "type": "event"
    },
    {
      "anonymous": false,
      "inputs": [
        {
          "indexed": false,
          "internalType": "uint256",
          "name": "proposalId",
          "type": "uint256"
        }
      ],
      "name": "ProposalExecuted",
      "type": "event"
    },
    {
      "anonymous": false,
      "inputs": [
        {
          "indexed": false,
          "internalType": "uint256",
          "name": "proposalId",
          "type": "uint256"
        }
      ],
      "name": "ProposalManualExecuted",
      "type": "event"
    },
    {
      "anonymous": false,
      "inputs": [
        {
          "indexed": false,
          "internalType": "uint256",
          "name": "proposalId",
          "type": "uint256"
        },
        {
          "indexed": false,
          "internalType": "uint256",
          "name": "eta",
          "type": "uint256"
        }
      ],
      "name": "ProposalQueued",
      "type": "event"
    },
    {
      "anonymous": false,
      "inputs": [
        {
          "indexed": false,
          "internalType": "uint256",
          "name": "oldProposalThreshold",
          "type": "uint256"
        },
        {
          "indexed": false,
          "internalType": "uint256",
          "name": "newProposalThreshold",
          "type": "uint256"
        }
      ],
      "name": "ProposalThresholdSet",
      "type": "event"
    },
    {
      "anonymous": false,
      "inputs": [
        {
          "indexed": true,
          "internalType": "address",
          "name": "voter",
          "type": "address"
        },
        {
          "indexed": false,
          "internalType": "uint256",
          "name": "proposalId",
          "type": "uint256"
        },
        {
          "indexed": false,
          "internalType": "uint8",
          "name": "support",
          "type": "uint8"
        },
        {
          "indexed": false,
          "internalType": "uint256",
          "name": "weight",
          "type": "uint256"
        }
      ],
      "name": "VoteCast",
      "type": "event"
    },
    {
      "anonymous": false,
      "inputs": [
        {
          "indexed": false,
          "internalType": "uint256",
          "name": "proposalId",
          "type": "uint256"
        },
        {
          "indexed": false,
          "internalType": "address",
          "name": "voter",
          "type": "address"
        },
        {
          "indexed": false,
          "internalType": "uint256",
          "name": "amount",
          "type": "uint256"
        }
      ],
      "name": "Withdrawed",
      "type": "event"
    },
    {
      "stateMutability": "payable",
      "type": "fallback"
    },
    {
      "inputs": [],
      "name": "BALLOT_TYPEHASH",
      "outputs": [
        {
          "internalType": "bytes32",
          "name": "",
          "type": "bytes32"
        }
      ],
      "stateMutability": "view",
      "type": "function"
    },
    {
      "inputs": [],
      "name": "EXTENDED_BALLOT_TYPEHASH",
      "outputs": [
        {
          "internalType": "bytes32",
          "name": "",
          "type": "bytes32"
        }
      ],
      "stateMutability": "view",
      "type": "function"
    },
    {
      "inputs": [
        {
          "internalType": "uint256",
          "name": "newDelay",
          "type": "uint256"
        }
      ],
      "name": "_updateDelay",
      "outputs": [],
      "stateMutability": "nonpayable",
      "type": "function"
    },
    {
      "inputs": [
        {
          "internalType": "uint256",
          "name": "proposalId",
          "type": "uint256"
        },
        {
          "internalType": "uint8",
          "name": "support",
          "type": "uint8"
        }
      ],
      "name": "castVote",
      "outputs": [
        {
          "internalType": "uint256",
          "name": "",
          "type": "uint256"
        }
      ],
      "stateMutability": "payable",
      "type": "function"
    },
    {
      "inputs": [
        {
          "internalType": "address[]",
          "name": "targets",
          "type": "address[]"
        },
        {
          "internalType": "bytes[]",
          "name": "calldatas",
          "type": "bytes[]"
        },
        {
          "internalType": "bytes32",
          "name": "descriptionHash",
          "type": "bytes32"
        }
      ],
      "name": "execute",
      "outputs": [
        {
          "internalType": "uint256",
          "name": "",
          "type": "uint256"
        }
      ],
      "stateMutability": "payable",
      "type": "function"
    },
    {
      "inputs": [
        {
          "internalType": "address[]",
          "name": "targets",
          "type": "address[]"
        },
        {
          "internalType": "bytes[]",
          "name": "calldatas",
          "type": "bytes[]"
        },
        {
          "internalType": "bytes32",
          "name": "descriptionHash",
          "type": "bytes32"
        }
      ],
      "name": "hashProposal",
      "outputs": [
        {
          "internalType": "uint256",
          "name": "",
          "type": "uint256"
        }
      ],
      "stateMutability": "pure",
      "type": "function"
    },
    {
      "inputs": [
        {
          "internalType": "uint256",
          "name": "proposalId",
          "type": "uint256"
        }
      ],
      "name": "manualExecuted",
      "outputs": [
        {
          "internalType": "uint256",
          "name": "",
          "type": "uint256"
        }
      ],
      "stateMutability": "nonpayable",
      "type": "function"
    },
    {
      "inputs": [],
      "name": "name",
      "outputs": [
        {
          "internalType": "string",
          "name": "",
          "type": "string"
        }
      ],
      "stateMutability": "view",
      "type": "function"
    },
    {
      "inputs": [],
      "name": "owner",
      "outputs": [
        {
          "internalType": "address",
          "name": "",
          "type": "address"
        }
      ],
      "stateMutability": "view",
      "type": "function"
    },
    {
      "inputs": [
        {
          "internalType": "uint256",
          "name": "proposalId",
          "type": "uint256"
        }
      ],
      "name": "proposalDeadline",
      "outputs": [
        {
          "internalType": "uint256",
          "name": "",
          "type": "uint256"
        }
      ],
      "stateMutability": "view",
      "type": "function"
    },
    {
      "inputs": [
        {
          "internalType": "uint256",
          "name": "proposalId",
          "type": "uint256"
        }
      ],
      "name": "proposalSnapshot",
      "outputs": [
        {
          "internalType": "uint256",
          "name": "",
          "type": "uint256"
        }
      ],
      "stateMutability": "view",
      "type": "function"
    },
    {
      "inputs": [],
      "name": "proposalThreshold",
      "outputs": [
        {
          "internalType": "uint256",
          "name": "",
          "type": "uint256"
        }
      ],
      "stateMutability": "view",
      "type": "function"
    },
    {
      "inputs": [
        {
          "internalType": "address[]",
          "name": "targets",
          "type": "address[]"
        },
        {
          "internalType": "bytes[]",
          "name": "calldatas",
          "type": "bytes[]"
        },
        {
          "internalType": "string",
          "name": "description",
          "type": "string"
        }
      ],
      "name": "propose",
      "outputs": [
        {
          "internalType": "uint256",
          "name": "",
          "type": "uint256"
        }
      ],
      "stateMutability": "payable",
      "type": "function"
    },
    {
      "inputs": [
        {
          "internalType": "address[]",
          "name": "targets",
          "type": "address[]"
        },
        {
          "internalType": "bytes[]",
          "name": "calldatas",
          "type": "bytes[]"
        },
        {
          "internalType": "bytes32",
          "name": "descriptionHash",
          "type": "bytes32"
        }
      ],
      "name": "queue",
      "outputs": [
        {
          "internalType": "uint256",
          "name": "",
          "type": "uint256"
        }
      ],
      "stateMutability": "nonpayable",
      "type": "function"
    },
    {
      "inputs": [
        {
          "internalType": "address",
          "name": "target",
          "type": "address"
        },
        {
          "internalType": "uint256",
          "name": "value",
          "type": "uint256"
        },
        {
          "internalType": "bytes",
          "name": "data",
          "type": "bytes"
        }
      ],
      "name": "relay",
      "outputs": [],
      "stateMutability": "nonpayable",
      "type": "function"
    },
    {
      "inputs": [],
      "name": "renounceOwnership",
      "outputs": [],
      "stateMutability": "nonpayable",
      "type": "function"
    },
    {
      "inputs": [
        {
          "internalType": "uint256",
          "name": "proposalId",
          "type": "uint256"
        }
      ],
      "name": "state",
      "outputs": [
        {
          "internalType": "enum IGovernorUpgradeable.ProposalState",
          "name": "",
          "type": "uint8"
        }
      ],
      "stateMutability": "view",
      "type": "function"
    },
    {
      "inputs": [
        {
          "internalType": "bytes4",
          "name": "interfaceId",
          "type": "bytes4"
        }
      ],
      "name": "supportsInterface",
      "outputs": [
        {
          "internalType": "bool",
          "name": "",
          "type": "bool"
        }
      ],
      "stateMutability": "view",
      "type": "function"
    },
    {
      "inputs": [
        {
          "internalType": "address",
          "name": "newOwner",
          "type": "address"
        }
      ],
      "name": "transferOwnership",
      "outputs": [],
      "stateMutability": "nonpayable",
      "type": "function"
    },
    {
      "inputs": [],
      "name": "version",
      "outputs": [
        {
          "internalType": "string",
          "name": "",
          "type": "string"
        }
      ],
      "stateMutability": "view",
      "type": "function"
    },
    {
      "inputs": [
        {
          "internalType": "uint256",
          "name": "proposalId",
          "type": "uint256"
        }
      ],
      "name": "withdraw",
      "outputs": [
        {
          "internalType": "uint256",
          "name": "",
          "type": "uint256"
        }
      ],
      "stateMutability": "payable",
      "type": "function"
    },
    {
      "stateMutability": "payable",
      "type": "receive"
    },
    {
      "inputs": [
        {
          "internalType": "string",
          "name": "_name",
          "type": "string"
        },
        {
          "internalType": "uint256",
          "name": "_minTimeDelay",
          "type": "uint256"
        },
        {
          "internalType": "uint256",
          "name": "__votingPeriod",
          "type": "uint256"
        }
      ],
      "name": "initialize",
      "outputs": [],
      "stateMutability": "nonpayable",
      "type": "function"
    },
    {
      "inputs": [],
      "name": "COUNTING_MODE",
      "outputs": [
        {
          "internalType": "string",
          "name": "",
          "type": "string"
        }
      ],
      "stateMutability": "pure",
      "type": "function"
    },
    {
      "inputs": [
        {
          "internalType": "uint256",
          "name": "proposalId",
          "type": "uint256"
        },
        {
          "internalType": "address",
          "name": "account",
          "type": "address"
        }
      ],
      "name": "hasVoted",
      "outputs": [
        {
          "internalType": "bool",
          "name": "",
          "type": "bool"
        }
      ],
      "stateMutability": "view",
      "type": "function"
    },
    {
      "inputs": [
        {
          "internalType": "uint256",
          "name": "proposalId",
          "type": "uint256"
        }
      ],
      "name": "proposalVotes",
      "outputs": [
        {
          "internalType": "uint256",
          "name": "",
          "type": "uint256"
        },
        {
          "internalType": "uint256",
          "name": "",
          "type": "uint256"
        },
        {
          "internalType": "uint256",
          "name": "",
          "type": "uint256"
        }
      ],
      "stateMutability": "view",
      "type": "function"
    },
    {
      "inputs": [
        {
          "internalType": "uint256",
          "name": "newDelay",
          "type": "uint256"
        }
      ],
      "name": "updateDelay",
      "outputs": [],
      "stateMutability": "nonpayable",
      "type": "function"
    },
    {
      "inputs": [],
      "name": "votingDelay",
      "outputs": [
        {
          "internalType": "uint256",
          "name": "",
          "type": "uint256"
        }
      ],
      "stateMutability": "view",
      "type": "function"
    },
    {
      "inputs": [
        {
          "internalType": "uint256",
          "name": "newVotingPeriod",
          "type": "uint256"
        }
      ],
      "name": "updateVotingPeriod",
      "outputs": [],
      "stateMutability": "nonpayable",
      "type": "function"
    },
    {
      "inputs": [],
      "name": "votingPeriod",
      "outputs": [
        {
          "internalType": "uint256",
          "name": "",
          "type": "uint256"
        }
      ],
      "stateMutability": "view",
      "type": "function"
    },
    {
      "inputs": [
        {
          "internalType": "uint256",
          "name": "newBlockReward",
          "type": "uint256"
        }
      ],
      "name": "setBlockReward",
      "outputs": [],
      "stateMutability": "nonpayable",
      "type": "function"
    },
    {
      "inputs": [
        {
          "internalType": "uint256",
          "name": "newBlockRatio",
          "type": "uint256"
        }
      ],
      "name": "setBlockRatio",
      "outputs": [],
      "stateMutability": "nonpayable",
      "type": "function"
    },
    {
      "inputs": [],
      "name": "blockReward",
      "outputs": [
        {
          "internalType": "uint256",
          "name": "",
          "type": "uint256"
        }
      ],
      "stateMutability": "view",
      "type": "function"
    },
    {
      "inputs": [],
      "name": "blockRatio",
      "outputs": [
        {
          "internalType": "uint256",
          "name": "",
          "type": "uint256"
        }
      ],
      "stateMutability": "view",
      "type": "function"
    },
    {
      "inputs": [
        {
          "internalType": "uint256",
          "name": "blockNumber",
          "type": "uint256"
        }
      ],
      "name": "quorum",
      "outputs": [
        {
          "internalType": "uint256",
          "name": "",
          "type": "uint256"
        }
      ],
      "stateMutability": "view",
      "type": "function"
    }
  ],
  "bytecode": "0x608060405234801561001057600080fd5b506127e6806100206000396000f3fe6080604052600436106101e55760003560e01c806364d6235311610101578063c28bc2fa1161009a578063e633c78b1161006c578063e633c78b14610616578063ef00ef4314610636578063f2fde38b14610656578063f8ce560a14610676578063fe6b93901461069657005b8063c28bc2fa1461055c578063cd41c07f1461057c578063dd4e2ba51461059c578063deaaa7cc146105e257005b80639dc104b4116100d35780639dc104b4146104e8578063b50f1f8f14610508578063b58131b014610528578063c01f9e371461053c57005b806364d623531461046b578063715018a61461048b5780638da5cb5b146104a0578063977d08c0146104c857005b80632e1a7d4d1161017e5780634385963211610150578063438596321461036d5780634c2f2019146103b8578063544ffc9c146103d857806354fd4d501461042e578063567813881461045857005b80632e1a7d4d146102e45780632fe3e261146102f75780633932abb11461032b5780633e4f49e61461034057005b8063159bf8cf116101b7578063159bf8cf1461027b578063173ecf641461028e5780631a18e707146102a45780632d63f693146102c457005b806301ffc9a7146101ee57806302a251a31461022357806306fdde03146102435780630ac168a11461026557005b366101ec57005b005b3480156101fa57600080fd5b5061020e610209366004611edf565b6106a9565b60405190151581526020015b60405180910390f35b34801561022f57600080fd5b50610135545b60405190815260200161021a565b34801561024f57600080fd5b506102586106c6565b60405161021a9190611f61565b34801561027157600080fd5b5061013354610235565b610235610289366004612176565b610758565b34801561029a57600080fd5b5061013454610235565b3480156102b057600080fd5b506101ec6102bf3660046121fd565b610a19565b3480156102d057600080fd5b506102356102df3660046121fd565b610a3e565b6102356102f23660046121fd565b610a75565b34801561030357600080fd5b506102357fb3b3f3b703cd84ce352197dcff232b1b5d3cfb2025ce47cf04742d0651f1af8881565b34801561033757600080fd5b50610235610c85565b34801561034c57600080fd5b5061036061035b3660046121fd565b610c95565b60405161021a919061222c565b34801561037957600080fd5b5061020e610388366004612254565b6000828152610136602090815260408083206001600160a01b038516845260030190915290205460ff1692915050565b3480156103c457600080fd5b506101ec6103d33660046121fd565b610e16565b3480156103e457600080fd5b506104136103f33660046121fd565b600090815261013660205260409020805460018201546002909201549092565b6040805193845260208401929092529082015260600161021a565b34801561043a57600080fd5b506040805180820190915260018152603160f81b6020820152610258565b610235610466366004612280565b610e3b565b34801561047757600080fd5b506101ec6104863660046121fd565b610f0c565b34801561049757600080fd5b506101ec610f37565b3480156104ac57600080fd5b506033546040516001600160a01b03909116815260200161021a565b3480156104d457600080fd5b506101ec6104e33660046122b6565b610f4b565b3480156104f457600080fd5b506102356105033660046121fd565b611088565b34801561051457600080fd5b50610235610523366004612303565b6111a6565b34801561053457600080fd5b506000610235565b34801561054857600080fd5b506102356105573660046121fd565b6111dd565b34801561056857600080fd5b506101ec61057736600461236f565b61120c565b34801561058857600080fd5b506101ec6105973660046121fd565b6112bc565b3480156105a857600080fd5b506040805180820190915260208082527f737570706f72743d627261766f2671756f72756d3d666f722c6162737461696e90820152610258565b3480156105ee57600080fd5b506102357f150214d74d59b7d1e90c73fc22ef3d991dd0a76b046543d4d80ab92d2a50328f81565b34801561062257600080fd5b50610235610631366004612303565b611327565b34801561064257600080fd5b506101ec6106513660046121fd565b61143d565b34801561066257600080fd5b506101ec6106713660046123f5565b611462565b34801561068257600080fd5b506102356106913660046121fd565b6114d8565b6102356106a4366004612303565b611530565b60006301ffc9a760e01b6001600160e01b03198316145b92915050565b606060fd80546106d590612410565b80601f016020809104026020016040519081016040528092919081815260200182805461070190612410565b801561074e5780601f106107235761010080835404028352916020019161074e565b820191906000526020600020905b81548152906001019060200180831161073157829003601f168201915b5050505050905090565b60008061076d858585805190602001206111a6565b905083518551146107cf5760405162461bcd60e51b815260206004820152602160248201527f476f7665726e6f723a20696e76616c69642070726f706f73616c206c656e67746044820152600d60fb1b60648201526084015b60405180910390fd5b845161081d57670de0b6b3a764000034101561081d5760405162461bcd60e51b815260206004820152600d60248201526c135a5b9a5b5d5b480c55539255609a1b60448201526064016107c6565b600081815260fe6020908152604091829020825191820190925281546001600160401b0316908190521561089d5760405162461bcd60e51b815260206004820152602160248201527f476f7665726e6f723a2070726f706f73616c20616c72656164792065786973746044820152607360f81b60648201526084016107c6565b60008651600014156108c55760016108b443611667565b6108be9190612461565b90506108eb565b6108d56108d0610c85565b611667565b6108de43611667565b6108e89190612489565b90505b60006108fa6108d06101355490565b6109049083612489565b835467ffffffffffffffff19166001600160401b038416178455905060018301805467ffffffffffffffff19166001600160401b03831617905587516109c857604080516060810182526000818301818152338084523460208086018281528b8652610101825287862084875290915295909320845181546001600160a01b0319166001600160a01b0391909116178155945160018087019190915591516002909501805460ff1916951515959095179094556109c491889185916116d3565b5050505b7f60ea8a6b1d49491f62ad081cee205429687fcb6d0282747a9bcb3ae9950536a384338a8a86868c604051610a03979695949392919061254a565b60405180910390a15091925050505b9392505050565b333014610a385760405162461bcd60e51b81526004016107c6906125bf565b61013355565b600081815260fe602090815260408083208151928301909152546001600160401b0316908190525b6001600160401b031692915050565b60006002610a8283610c95565b6008811115610a9357610a93612216565b1480610ab857506003610aa583610c95565b6008811115610ab657610ab6612216565b145b80610adc57506006610ac983610c95565b6008811115610ada57610ada612216565b145b80610b0057506007610aed83610c95565b6008811115610afe57610afe612216565b145b80610b2457506008610b1183610c95565b6008811115610b2257610b22612216565b145b610b875760405162461bcd60e51b815260206004820152602e60248201527f63616e206e6f742077697468647261772064756520746f2063757272656e742060448201526d70726f706f73616c20737461746560901b60648201526084016107c6565b6000828152610101602090815260408083203384529091529020600281015460ff1615610bf65760405162461bcd60e51b815260206004820152601960248201527f616c72656164792077697468647261776564206265666f72650000000000000060448201526064016107c6565b60028101805460ff19166001908117909155810154604051339180156108fc02916000818181858888f19350505050158015610c36573d6000803e3d6000fd5b5060018101546040805185815233602082015280820192909252517f7fd902d6e186354d1617b957fc4cb4a144f44a19cc5c4525cfb772d707c405c29181900360600190a16001015492915050565b6000610c9060ff5490565b905090565b600081815260fe60205260408120600281015460ff1615610cf4576000838152610100602052604090205415801590610cdd5750600083815261010060205260409020544211155b15610ceb5750600692915050565b50600592915050565b6002810154610100900460ff1615610d0f5750600792915050565b600281015462010000900460ff1615610d2b5750600292915050565b60028101546301000000900460ff1615610d485750600892915050565b6000610d5384610a3e565b905080610da25760405162461bcd60e51b815260206004820152601d60248201527f476f7665726e6f723a20756e6b6e6f776e2070726f706f73616c20696400000060448201526064016107c6565b438110610db3575060009392505050565b6000610dbe856111dd565b9050438110610dd257506001949350505050565b610ddb856117ac565b8015610dfb57506000858152610136602052604090208054600190910154115b15610e0b57506004949350505050565b506003949350505050565b333014610e355760405162461bcd60e51b81526004016107c6906125bf565b61013455565b6000670de0b6b3a7640000341015610e855760405162461bcd60e51b815260206004820152600d60248201526c135a5b9a5b5d5b480c55539255609a1b60448201526064016107c6565b604080516060810182526000818301818152338084523460208086018281528a8652610101825287862084875290915295909320845181546001600160a01b0319166001600160a01b03919091161781559451600186015590516002909401805460ff191694151594909417909355610f03908690849087906116d3565b95945050505050565b333014610f2b5760405162461bcd60e51b81526004016107c6906125bf565b610f34816112bc565b50565b610f3f6117e4565b610f49600061183e565b565b600054610100900460ff1615808015610f6b5750600054600160ff909116105b80610f855750303b158015610f85575060005460ff166001145b610fe85760405162461bcd60e51b815260206004820152602e60248201527f496e697469616c697a61626c653a20636f6e747261637420697320616c72656160448201526d191e481a5b9a5d1a585b1a5e995960921b60648201526084016107c6565b6000805460ff19166001179055801561100b576000805461ff0019166101001790555b611013611890565b61101d84846118bf565b4361013255678ac7230489e800006101335561c350610134556101358290558015611082576000805461ff0019169055604051600181527f7f26b83ff96e1f2b6a682f133852f6798a09c465da95921460cefb38474024989060200160405180910390a15b50505050565b60008061109483610c95565b905060058160088111156110aa576110aa612216565b146110c75760405162461bcd60e51b81526004016107c6906125e1565b600083815261010060205260409020546001148015906110f557506000838152610100602052604090205442115b61113d5760405162461bcd60e51b81526020600482015260196024820152781b5a5b8819195c1b185e481b9bdd081c185cdcd959081e595d603a1b60448201526064016107c6565b600083815260fe60209081526040808320600201805463ff0000ff191663010000001790556101008252918290206001905590518481527f7e5205efbe4aa6bbe58c855dad0cac57f74d144896e4ac84a6f4ec9f378c3022910160405180910390a15090919050565b60008383836040516020016111bd93929190612622565b60408051601f198184030181529190528051602090910120949350505050565b600081815260fe602090815260408083208151928301909152600101546001600160401b031690819052610a66565b3330146112565760405162461bcd60e51b8152602060048201526018602482015277476f7665726e6f723a206f6e6c79476f7665726e616e636560401b60448201526064016107c6565b611273565b8061126761010261191c565b146112715761125b565b505b6112b58483838080601f0160208091040260200160405190810160405280939291908181526020018383808284376000920191909152508892506119a4915050565b5050505050565b3330146113065760405162461bcd60e51b8152602060048201526018602482015277476f7665726e6f723a206f6e6c79476f7665726e616e636560401b60448201526064016107c6565b60ff55565b8061131761010261191c565b146113215761130b565b5060ff55565b6000806113358585856111a6565b9050600061134282610c95565b9050600481600881111561135857611358612216565b146113b15760405162461bcd60e51b8152602060048201526024808201527f476f7665726e6f723a2070726f706f73616c206e6f7420537563636565646564604482015263081e595d60e21b60648201526084016107c6565b60ff546113be9042612658565b6000838152610100602090815260408083209390935560fe905220600201805460ff191660011790557f9a2e42fd6722813d69113e7d0079d3d940171428df7373df9c7f7617cfda28928261141260ff5490565b61141c9042612658565b6040805192835260208301919091520160405180910390a150949350505050565b33301461145c5760405162461bcd60e51b81526004016107c6906125bf565b61013555565b61146a6117e4565b6001600160a01b0381166114cf5760405162461bcd60e51b815260206004820152602660248201527f4f776e61626c653a206e6577206f776e657220697320746865207a65726f206160448201526564647265737360d01b60648201526084016107c6565b610f348161183e565b60006101325482116114ec57506000919050565b6127106064610134546101335461013254866115089190612670565b6115129190612687565b61151c9190612687565b61152691906126a6565b6106c091906126a6565b60008061153e8585856111a6565b9050600061154b82610c95565b9050600581600881111561156157611561612216565b1461157e5760405162461bcd60e51b81526004016107c6906125e1565b600082815261010060205260409020546001148015906115ac57506000828152610100602052604090205442115b6115f45760405162461bcd60e51b81526020600482015260196024820152781b5a5b8819195c1b185e481b9bdd081c185cdcd959081e595d603a1b60448201526064016107c6565b600082815260fe60209081526040808320600201805461ffff19166101009081179091558252918290206001905590518381527f712ae1383f79ac853f8d882153778e0260ef8f03b504e2866e0593e04d2b291f910160405180910390a161165e828787876119d2565b50949350505050565b60006001600160401b038211156116cf5760405162461bcd60e51b815260206004820152602660248201527f53616665436173743a2076616c756520646f65736e27742066697420696e203660448201526534206269747360d01b60648201526084016107c6565b5090565b600060016116e086610c95565b60088111156116f1576116f1612216565b1461174a5760405162461bcd60e51b815260206004820152602360248201527f476f7665726e6f723a20766f7465206e6f742063757272656e746c792061637460448201526269766560e81b60648201526084016107c6565b61175685858585611ab6565b6040805186815260ff851660208201529081018390526001600160a01b038516907f2c9deb38f462962eadbd85a9d3a4120503ee091f1582eaaa10aa8c6797651d299060600160405180910390a2509392505050565b600081815261013660205260408120600281015460018201546117cf9190612658565b6117db61069185610a3e565b11159392505050565b6033546001600160a01b03163314610f495760405162461bcd60e51b815260206004820181905260248201527f4f776e61626c653a2063616c6c6572206973206e6f7420746865206f776e657260448201526064016107c6565b603380546001600160a01b038381166001600160a01b0319831681179093556040519116919082907f8be0079c531659141344cd1fd0a4f28419497f9722a3daafe3b4186f6b6457e090600090a35050565b600054610100900460ff166118b75760405162461bcd60e51b81526004016107c6906126c8565b610f49611c36565b600054610100900460ff166118e65760405162461bcd60e51b81526004016107c6906126c8565b61190d826119086040805180820190915260018152603160f81b602082015290565b611c66565b61191682611ca7565b60ff5550565b60006119378254600f81810b600160801b909204900b131590565b1561195557604051631ed9509560e11b815260040160405180910390fd5b508054600f0b6000818152600180840160205260408220805492905583546fffffffffffffffffffffffffffffffff191692016fffffffffffffffffffffffffffffffff169190911790915590565b60606119ca84848460405180606001604052806029815260200161278860299139611ce5565b949350505050565b600060405180606001604052806027815260200161276160279139905060005b8451811015611aae57600080868381518110611a1057611a10612713565b60200260200101516001600160a01b0316868481518110611a3357611a33612713565b6020026020010151604051611a489190612729565b6000604051808303816000865af19150503d8060008114611a85576040519150601f19603f3d011682016040523d82523d6000602084013e611a8a565b606091505b5091509150611a9a828286611e16565b50505080611aa790612745565b90506119f2565b505050505050565b6000848152610136602090815260408083206001600160a01b0387168452600381019092529091205460ff1615611b3f5760405162461bcd60e51b815260206004820152602760248201527f476f7665726e6f72566f74696e6753696d706c653a20766f746520616c726561604482015266191e4818d85cdd60ca1b60648201526084016107c6565b6001600160a01b03841660009081526003820160205260408120805460ff1916600117905560ff168360ff161415611b905781816000016000828254611b859190612658565b909155506112b59050565b60ff831660011415611bb05781816001016000828254611b859190612658565b60ff831660021415611bd05781816002016000828254611b859190612658565b60405162461bcd60e51b815260206004820152603560248201527f476f7665726e6f72566f74696e6753696d706c653a20696e76616c69642076616044820152746c756520666f7220656e756d20566f74655479706560581b60648201526084016107c6565b600054610100900460ff16611c5d5760405162461bcd60e51b81526004016107c6906126c8565b610f493361183e565b600054610100900460ff16611c8d5760405162461bcd60e51b81526004016107c6906126c8565b815160209283012081519190920120609791909155609855565b600054610100900460ff16611cce5760405162461bcd60e51b81526004016107c6906126c8565b8051611ce19060fd906020840190611e4f565b5050565b606082471015611d465760405162461bcd60e51b815260206004820152602660248201527f416464726573733a20696e73756666696369656e742062616c616e636520666f6044820152651c8818d85b1b60d21b60648201526084016107c6565b6001600160a01b0385163b611d9d5760405162461bcd60e51b815260206004820152601d60248201527f416464726573733a2063616c6c20746f206e6f6e2d636f6e747261637400000060448201526064016107c6565b600080866001600160a01b03168587604051611db99190612729565b60006040518083038185875af1925050503d8060008114611df6576040519150601f19603f3d011682016040523d82523d6000602084013e611dfb565b606091505b5091509150611e0b828286611e16565b979650505050505050565b60608315611e25575081610a12565b825115611e355782518084602001fd5b8160405162461bcd60e51b81526004016107c69190611f61565b828054611e5b90612410565b90600052602060002090601f016020900481019282611e7d5760008555611ec3565b82601f10611e9657805160ff1916838001178555611ec3565b82800160010185558215611ec3579182015b82811115611ec3578251825591602001919060010190611ea8565b506116cf9291505b808211156116cf5760008155600101611ecb565b600060208284031215611ef157600080fd5b81356001600160e01b031981168114610a1257600080fd5b60005b83811015611f24578181015183820152602001611f0c565b838111156110825750506000910152565b60008151808452611f4d816020860160208601611f09565b601f01601f19169290920160200192915050565b602081526000610a126020830184611f35565b634e487b7160e01b600052604160045260246000fd5b604051601f8201601f191681016001600160401b0381118282101715611fb257611fb2611f74565b604052919050565b60006001600160401b03821115611fd357611fd3611f74565b5060051b60200190565b80356001600160a01b0381168114611ff457600080fd5b919050565b600082601f83011261200a57600080fd5b8135602061201f61201a83611fba565b611f8a565b82815260059290921b8401810191818101908684111561203e57600080fd5b8286015b848110156120605761205381611fdd565b8352918301918301612042565b509695505050505050565b60006001600160401b0383111561208457612084611f74565b612097601f8401601f1916602001611f8a565b90508281528383830111156120ab57600080fd5b828260208301376000602084830101529392505050565b600082601f8301126120d357600080fd5b813560206120e361201a83611fba565b82815260059290921b8401810191818101908684111561210257600080fd5b8286015b848110156120605780356001600160401b038111156121255760008081fd5b8701603f810189136121375760008081fd5b61214889868301356040840161206b565b845250918301918301612106565b600082601f83011261216757600080fd5b610a128383356020850161206b565b60008060006060848603121561218b57600080fd5b83356001600160401b03808211156121a257600080fd5b6121ae87838801611ff9565b945060208601359150808211156121c457600080fd5b6121d0878388016120c2565b935060408601359150808211156121e657600080fd5b506121f386828701612156565b9150509250925092565b60006020828403121561220f57600080fd5b5035919050565b634e487b7160e01b600052602160045260246000fd5b602081016009831061224e57634e487b7160e01b600052602160045260246000fd5b91905290565b6000806040838503121561226757600080fd5b8235915061227760208401611fdd565b90509250929050565b6000806040838503121561229357600080fd5b82359150602083013560ff811681146122ab57600080fd5b809150509250929050565b6000806000606084860312156122cb57600080fd5b83356001600160401b038111156122e157600080fd5b6122ed86828701612156565b9660208601359650604090950135949350505050565b60008060006060848603121561231857600080fd5b83356001600160401b038082111561232f57600080fd5b61233b87838801611ff9565b9450602086013591508082111561235157600080fd5b5061235e868287016120c2565b925050604084013590509250925092565b6000806000806060858703121561238557600080fd5b61238e85611fdd565b93506020850135925060408501356001600160401b03808211156123b157600080fd5b818701915087601f8301126123c557600080fd5b8135818111156123d457600080fd5b8860208285010111156123e657600080fd5b95989497505060200194505050565b60006020828403121561240757600080fd5b610a1282611fdd565b600181811c9082168061242457607f821691505b6020821081141561244557634e487b7160e01b600052602260045260246000fd5b50919050565b634e487b7160e01b600052601160045260246000fd5b60006001600160401b03838116908316818110156124815761248161244b565b039392505050565b60006001600160401b038083168185168083038211156124ab576124ab61244b565b01949350505050565b600081518084526020808501945080840160005b838110156124ed5781516001600160a01b0316875295820195908201906001016124c8565b509495945050505050565b6000815180845260208085019450848260051b860182860160005b8581101561253d57838303895261252b838351611f35565b98850198925090840190600101612513565b5090979650505050505050565b8781526001600160a01b038716602082015260e060408201819052600090612574908301886124b4565b828103606084015261258681886124f8565b6001600160401b038781166080860152861660a085015283810360c085015290506125b18185611f35565b9a9950505050505050505050565b6020808252600890820152676f6e6c792044414f60c01b604082015260600190565b60208082526021908201527f476f7665726e6f723a2070726f706f73616c206e6f74205175657565642079656040820152601d60fa1b606082015260800190565b60608152600061263560608301866124b4565b828103602084015261264781866124f8565b915050826040830152949350505050565b6000821982111561266b5761266b61244b565b500190565b6000828210156126825761268261244b565b500390565b60008160001904831182151516156126a1576126a161244b565b500290565b6000826126c357634e487b7160e01b600052601260045260246000fd5b500490565b6020808252602b908201527f496e697469616c697a61626c653a20636f6e7472616374206973206e6f74206960408201526a6e697469616c697a696e6760a81b606082015260800190565b634e487b7160e01b600052603260045260246000fd5b6000825161273b818460208701611f09565b9190910192915050565b60006000198214156127595761275961244b565b506001019056fe476f7665726e6f723a2063616c6c20726576657274656420776974686f7574206d657373616765416464726573733a206c6f772d6c6576656c2063616c6c20776974682076616c7565206661696c6564a2646970667358221220fa08649a237d3b5174dc705846cff758c9637886c582db53159a3f89256e5d9364736f6c634300080a0033",
  "immutableReferences": {},
  "source": "// SPDX-License-Identifier: GPL-3.0\r\npragma solidity ^0.8.0;\r\n\r\nimport \"./GovernorUpgradeable.sol\";\r\nimport \"@openzeppelin/contracts-upgradeable/access/OwnableUpgradeable.sol\";\r\nimport \"@openzeppelin/contracts-upgradeable/proxy/utils/Initializable.sol\";\r\n\r\ncontract DAO is OwnableUpgradeable, GovernorUpgradeable {\r\n    /* Block time when DAO contract is deployed */\r\n    uint256 private _deployedBlockTime;\r\n    /* Current block reward */\r\n    uint256 private _blockReward;\r\n    /* Current block ratio */\r\n    uint256 private _blockRatio;\r\n    /* Voting period */\r\n    uint256 private _votingPeriod;\r\n\r\n    event MinDelayChange(uint256 oldDuration, uint256 newDuration);\r\n\r\n    /*  Voting type:\r\n        Against: Against\r\n        For: Agree\r\n        Abstain: Abstain\r\n    */\r\n    enum VoteType {\r\n        Against,\r\n        For,\r\n        Abstain\r\n    }\r\n\r\n    struct ProposalVote {\r\n        uint256 againstVotes;\r\n        uint256 forVotes;\r\n        uint256 abstainVotes;\r\n        mapping(address => bool) hasVoted;\r\n    }\r\n\r\n    mapping(uint256 => ProposalVote) private _proposalVotes;\r\n\r\n    event ProposalThresholdSet(\r\n        uint256 oldProposalThreshold,\r\n        uint256 newProposalThreshold\r\n    );\r\n\r\n    modifier onlyDAO() {\r\n        require(_msgSender() == address(this), \"only DAO\");\r\n        _;\r\n    }\r\n\r\n    /* contract initialization\r\n       _name: DAO organization name\r\n       _minTimeDelay: minimum time delay (timestamp)\r\n       _votingPeriod: voting period\r\n    */\r\n    function initialize(\r\n        string memory _name,\r\n        uint256 _minTimeDelay,\r\n        uint256 __votingPeriod\r\n    ) public initializer {\r\n        __Ownable_init();\r\n        __Governor_init(_name, _minTimeDelay);\r\n\r\n        _deployedBlockTime = block.number;\r\n\r\n        _blockReward = 10 * 1e18;\r\n\r\n        _blockRatio = 5 * 10000;\r\n\r\n        // with blocks\r\n        _votingPeriod = __votingPeriod;\r\n    }\r\n\r\n    receive() external payable {}\r\n\r\n    fallback() external payable {}\r\n\r\n    // Governor implementation\r\n\r\n    function COUNTING_MODE()\r\n        public\r\n        pure\r\n        virtual\r\n        override\r\n        returns (string memory)\r\n    {\r\n        return \"support=bravo&quorum=for,abstain\";\r\n    }\r\n\r\n    /* Whether the user has voted\r\n       proposalId: ID of the proposal\r\n       account: address of the user\r\n       bool: whether the user has voted\r\n    */\r\n    function hasVoted(\r\n        uint256 proposalId,\r\n        address account\r\n    ) public view virtual override returns (bool) {\r\n        return _proposalVotes[proposalId].hasVoted[account];\r\n    }\r\n\r\n    /* View the current voting details of the proposal\r\n       proposalId: ID of the proposal\r\n       uint256: The number of negative votes\r\n       uint256: The number of agree votes\r\n       uint256: The number of abstain votes\r\n    */\r\n    function proposalVotes(\r\n        uint256 proposalId\r\n    ) public view virtual returns (uint256, uint256, uint256) {\r\n        ProposalVote storage proposalvote = _proposalVotes[proposalId];\r\n        return (\r\n            proposalvote.againstVotes,\r\n            proposalvote.forVotes,\r\n            proposalvote.abstainVotes\r\n        );\r\n    }\r\n\r\n    /* update time depay (completed through DAO proposal)\r\n       newDelay: new time delay (timestamp)\r\n    */\r\n    function updateDelay(uint256 newDelay) public virtual override onlyDAO {\r\n        _updateDelay(newDelay);\r\n    }\r\n\r\n    /* Query the current votingDelay */\r\n    function votingDelay() public view override returns (uint256) {\r\n        return _getDelay();\r\n    }\r\n\r\n    /* updates the voting cycle (completed through DAO proposal)\r\n       newVotingPeriod: new voting period\r\n    */\r\n    function updateVotingPeriod(\r\n        uint256 newVotingPeriod\r\n    ) public virtual onlyDAO {\r\n        _votingPeriod = newVotingPeriod;\r\n    }\r\n\r\n    /* Query the current voting cycle\r\n       uint256: voting period\r\n    */\r\n    function votingPeriod() public view override returns (uint256) {\r\n        return _votingPeriod;\r\n    }\r\n\r\n    /* Set block reward\r\n       newBlockReward: new block reward\r\n    */\r\n    function setBlockReward(uint256 newBlockReward) public onlyDAO {\r\n        _blockReward = newBlockReward;\r\n    }\r\n\r\n    /* Set block ratio\r\n       newBlockRatio: new block ratio\r\n    */\r\n    function setBlockRatio(uint256 newBlockRatio) public onlyDAO {\r\n        _blockRatio = newBlockRatio;\r\n    }\r\n\r\n    /* get block reward */\r\n    function blockReward() public view returns (uint256) {\r\n        return _blockReward;\r\n    }\r\n\r\n    /* get block ratio */\r\n    function blockRatio() public view returns (uint256) {\r\n        return _blockRatio;\r\n    }\r\n\r\n    /* The quorum for the proposal to take effect\r\n       blockNumber: block number\r\n       uint256: quorum\r\n    */\r\n    function quorum(\r\n        uint256 blockNumber\r\n    ) public view override returns (uint256) {\r\n        if (blockNumber <= _deployedBlockTime) {\r\n            return 0;\r\n        }\r\n        /* _blockRatio needs to be divided by 10000 to provide greater precision */\r\n        return\r\n            ((blockNumber - _deployedBlockTime) * _blockReward * _blockRatio) /\r\n            100 /\r\n            10000;\r\n    }\r\n\r\n    function _quorumReached(\r\n        uint256 proposalId\r\n    ) internal view virtual override returns (bool) {\r\n        ProposalVote storage proposalvote = _proposalVotes[proposalId];\r\n\r\n        return\r\n            quorum(proposalSnapshot(proposalId)) <=\r\n            proposalvote.forVotes + proposalvote.abstainVotes;\r\n    }\r\n\r\n    function _voteSucceeded(\r\n        uint256 proposalId\r\n    ) internal view virtual override returns (bool) {\r\n        ProposalVote storage proposalvote = _proposalVotes[proposalId];\r\n\r\n        return proposalvote.forVotes > proposalvote.againstVotes;\r\n    }\r\n\r\n    function _countVote(\r\n        uint256 proposalId,\r\n        address account,\r\n        uint8 support,\r\n        uint256 weight\r\n    ) internal virtual override {\r\n        ProposalVote storage proposalvote = _proposalVotes[proposalId];\r\n\r\n        require(\r\n            !proposalvote.hasVoted[account],\r\n            \"GovernorVotingSimple: vote already cast\"\r\n        );\r\n        proposalvote.hasVoted[account] = true;\r\n\r\n        if (support == uint8(VoteType.Against)) {\r\n            proposalvote.againstVotes += weight;\r\n        } else if (support == uint8(VoteType.For)) {\r\n            proposalvote.forVotes += weight;\r\n        } else if (support == uint8(VoteType.Abstain)) {\r\n            proposalvote.abstainVotes += weight;\r\n        } else {\r\n            revert(\"GovernorVotingSimple: invalid value for enum VoteType\");\r\n        }\r\n    }\r\n}\r\n",
  "sourcePath": "D:\\work\\Treasurenet-contracts\\fork\\treasurenet-contracts\\contracts\\Governance\\DAO\\DAO.sol",
  "compiler": {
    "name": "solc",
    "version": "0.8.10+commit.fc410830.Emscripten.clang"
  },
  "schemaVersion": "3.4.16",
  "updatedAt": "2024-04-29T07:29:52.924Z",
  "devdoc": {
    "errors": {
      "Empty()": [
        {
          "details": "An operation (e.g. {front}) couldn't be completed due to the queue being empty."
        }
      ]
    },
    "kind": "dev",
    "methods": {
      "COUNTING_MODE()": {
        "details": "A description of the possible `support` values for {castVote} and the way these votes are counted, meant to be consumed by UIs to show correct vote options and interpret the results. The string is a URL-encoded sequence of key-value pairs that each describe one aspect, for example `support=bravo&quorum=for,abstain`. There are 2 standard keys: `support` and `quorum`. - `support=bravo` refers to the vote options 0 = Against, 1 = For, 2 = Abstain, as in `GovernorBravo`. - `quorum=bravo` means that only For votes are counted towards quorum. - `quorum=for,abstain` means that both For and Abstain votes are counted towards quorum. If a counting module makes use of encoded `params`, it should  include this under a `params` key with a unique name that describes the behavior. For example: - `params=fractional` might refer to a scheme where votes are divided fractionally between for/against/abstain. - `params=erc721` might refer to a scheme where specific NFTs are delegated to vote. NOTE: The string can be decoded by the standard https://developer.mozilla.org/en-US/docs/Web/API/URLSearchParams[`URLSearchParams`] JavaScript class."
      },
      "castVote(uint256,uint8)": {
        "details": "Initiate a vote (voting will stake a certain amount of tokens)",
        "params": {
          "proposalId": "proposal id",
          "support": "Do you support this proposal     enum VoteType {         Against, // against         For,   // agree         Abstain  // abstain     }"
        },
        "returns": {
          "_0": "uint256 return weight"
        }
      },
      "execute(address[],bytes[],bytes32)": {
        "details": "Execute the proposal that is already in the queued for execution",
        "params": {
          "calldatas": "Contract call data",
          "descriptionHash": "Hash of the description information",
          "targets": "Target contract address"
        },
        "returns": {
          "_0": "uint256 proposal id"
        }
      },
      "hasVoted(uint256,address)": {
        "details": "Returns weither `account` has cast a vote on `proposalId`."
      },
      "hashProposal(address[],bytes[],bytes32)": {
        "details": "Hashing function used to (re)build the proposal id from the proposal details.."
      },
      "name()": {
        "details": "See {IGovernor-name}."
      },
      "owner()": {
        "details": "Returns the address of the current owner."
      },
      "proposalDeadline(uint256)": {
        "details": "Query the deadline for the proposal vote(block number)",
        "params": {
          "proposalId": "proposal ID"
        },
        "returns": {
          "_0": "uint256 deadline(block number)"
        }
      },
      "proposalSnapshot(uint256)": {
        "details": "Query the start time of the proposal vote",
        "params": {
          "proposalId": "proposal ID"
        },
        "returns": {
          "_0": "uint256 start time(block number)"
        }
      },
      "proposalThreshold()": {
        "details": "Part of the Governor Bravo's interface: _\"The number of votes required in order for a voter to become a proposer\"_."
      },
      "propose(address[],bytes[],string)": {
        "details": "Initiate a new proposal",
        "params": {
          "calldatas": "Contract call data",
          "description": "Description information",
          "targets": "Target contract address"
        },
        "returns": {
          "_0": "uint256 proposal id"
        }
      },
      "queue(address[],bytes[],bytes32)": {
        "details": "Move the successfully voted proposal (Succeeded) to the pending execution queue",
        "params": {
          "calldatas": "contract call data",
          "descriptionHash": "hash of the description information",
          "targets": "Target contract address"
        },
        "returns": {
          "_0": "uint256 proposal id"
        }
      },
      "quorum(uint256)": {
        "details": "Minimum number of cast voted required for a proposal to be successful. Note: The `blockNumber` parameter corresponds to the snapshot used for counting vote. This allows to scale the quorum depending on values such as the totalSupply of a token at this block (see {ERC20Votes})."
      },
      "relay(address,uint256,bytes)": {
        "details": "Relays a transaction or function call to an arbitrary target. In cases where the governance executor is some contract other than the governor itself, like when using a timelock, this function can be invoked in a governance proposal to recover tokens or Ether that was sent to the governor contract by mistake. Note that if the executor is simply the governor itself, use of `relay` is redundant."
      },
      "renounceOwnership()": {
        "details": "Leaves the contract without owner. It will not be possible to call `onlyOwner` functions anymore. Can only be called by the current owner. NOTE: Renouncing ownership will leave the contract without an owner, thereby removing any functionality that is only available to the owner."
      },
      "state(uint256)": {
        "details": "Query the current status of the proposal",
        "params": {
          "proposalId": "proposal ID"
        },
        "returns": {
          "_0": "ProposalState enum ProposalState {     Pending,     Active,     Canceled,     Defeated,     Succeeded,     Queued,     Expired,     Executed,     ManualExecuted }"
        }
      },
      "supportsInterface(bytes4)": {
        "details": "See {IERC165-supportsInterface}."
      },
      "transferOwnership(address)": {
        "details": "Transfers ownership of the contract to a new account (`newOwner`). Can only be called by the current owner."
      },
      "version()": {
        "details": "See {IGovernor-version}."
      },
      "votingDelay()": {
        "details": "Delay, in number of block, between the proposal is created and the vote starts. This can be increassed to leave time for users to buy voting power, or delegate it, before the voting of a proposal starts."
      },
      "votingPeriod()": {
        "details": "Delay, in number of blocks, between the vote start and vote ends. NOTE: The {votingDelay} can delay the start of the vote. This must be considered when setting the voting duration compared to the voting delay."
      },
      "withdraw(uint256)": {
        "details": "After the proposal ends, voters can withdraw their tokens",
        "params": {
          "proposalId": "proposal id"
        },
        "returns": {
          "_0": "uint256 Number of tokens returned"
        }
      }
    },
    "version": 1
  },
  "userdoc": {
    "kind": "user",
    "methods": {
      "COUNTING_MODE()": {
        "notice": "module:voting"
      },
      "hasVoted(uint256,address)": {
        "notice": "module:voting"
      },
      "hashProposal(address[],bytes[],bytes32)": {
        "notice": "module:core"
      },
      "quorum(uint256)": {
        "notice": "module:user-config"
      },
      "votingDelay()": {
        "notice": "module:user-config"
      },
      "votingPeriod()": {
        "notice": "module:user-config"
      }
    },
    "version": 1
  }
}