{
  "contractName": "GasProducer",
  "abi": [
    {
      "anonymous": false,
      "inputs": [
        {
          "indexed": false,
          "internalType": "bytes32",
          "name": "uniqueId",
          "type": "bytes32"
        },
        {
          "components": [
            {
              "internalType": "string",
              "name": "nickname",
              "type": "string"
            },
            {
              "internalType": "address",
              "name": "owner",
              "type": "address"
            },
            {
              "internalType": "uint256",
              "name": "API",
              "type": "uint256"
            },
            {
              "internalType": "uint256",
              "name": "sulphur",
              "type": "uint256"
            },
            {
              "internalType": "string",
              "name": "account",
              "type": "string"
            }
          ],
          "indexed": false,
          "internalType": "struct IProducer.ProducerCore",
          "name": "producer",
          "type": "tuple"
        }
      ],
      "name": "AddProducer",
      "type": "event"
    },
    {
      "anonymous": false,
      "inputs": [
        {
          "indexed": false,
          "internalType": "bytes32",
          "name": "uniqueId",
          "type": "bytes32"
        },
        {
          "indexed": false,
          "internalType": "address",
          "name": "holder",
          "type": "address"
        }
      ],
      "name": "DeleteHolder",
      "type": "event"
    },
    {
      "anonymous": false,
      "inputs": [
        {
          "indexed": false,
          "internalType": "uint8",
          "name": "version",
          "type": "uint8"
        }
      ],
      "name": "Initialized",
      "type": "event"
    },
    {
      "anonymous": false,
      "inputs": [
        {
          "indexed": false,
          "internalType": "bytes32",
          "name": "key",
          "type": "bytes32"
        },
        {
          "indexed": false,
          "internalType": "bytes32[]",
          "name": "uniqueIds",
          "type": "bytes32[]"
        },
        {
          "indexed": false,
          "internalType": "uint256[]",
          "name": "ratios",
          "type": "uint256[]"
        },
        {
          "indexed": false,
          "internalType": "string[]",
          "name": "nicknames",
          "type": "string[]"
        },
        {
          "indexed": false,
          "internalType": "bytes32",
          "name": "dappId",
          "type": "bytes32"
        }
      ],
      "name": "Link",
      "type": "event"
    },
    {
      "anonymous": false,
      "inputs": [
        {
          "indexed": false,
          "internalType": "string",
          "name": "dap",
          "type": "string"
        },
        {
          "indexed": false,
          "internalType": "address",
          "name": "payee",
          "type": "address"
        },
        {
          "indexed": false,
          "internalType": "bytes32",
          "name": "dappId",
          "type": "bytes32"
        }
      ],
      "name": "RegisterDAppConnect",
      "type": "event"
    },
    {
      "anonymous": false,
      "inputs": [
        {
          "indexed": false,
          "internalType": "bytes32",
          "name": "uniqueId",
          "type": "bytes32"
        },
        {
          "indexed": false,
          "internalType": "address",
          "name": "holder",
          "type": "address"
        },
        {
          "indexed": false,
          "internalType": "uint256",
          "name": "ratio",
          "type": "uint256"
        },
        {
          "indexed": false,
          "internalType": "uint256",
          "name": "currentTotalHolders",
          "type": "uint256"
        },
        {
          "indexed": false,
          "internalType": "uint256",
          "name": "currentTotalShared",
          "type": "uint256"
        }
      ],
      "name": "SetHolder",
      "type": "event"
    },
    {
      "anonymous": false,
      "inputs": [
        {
          "indexed": false,
          "internalType": "bytes32",
          "name": "uniqueId",
          "type": "bytes32"
        },
        {
          "indexed": false,
          "internalType": "bytes32",
          "name": "requestId",
          "type": "bytes32"
        },
        {
          "indexed": false,
          "internalType": "enum IProducer.ProducerStatus",
          "name": "status",
          "type": "uint8"
        }
      ],
      "name": "SetProducerStatus",
      "type": "event"
    },
    {
      "anonymous": false,
      "inputs": [
        {
          "indexed": false,
          "internalType": "bytes32",
          "name": "uniqueId",
          "type": "bytes32"
        },
        {
          "indexed": false,
          "internalType": "address",
          "name": "from",
          "type": "address"
        },
        {
          "indexed": false,
          "internalType": "address",
          "name": "to",
          "type": "address"
        },
        {
          "indexed": false,
          "internalType": "uint256",
          "name": "ratio",
          "type": "uint256"
        }
      ],
      "name": "SplitHolder",
      "type": "event"
    },
    {
      "anonymous": false,
      "inputs": [
        {
          "indexed": false,
          "internalType": "bytes32",
          "name": "uniqueId",
          "type": "bytes32"
        },
        {
          "components": [
            {
              "internalType": "string",
              "name": "nickname",
              "type": "string"
            },
            {
              "internalType": "address",
              "name": "owner",
              "type": "address"
            },
            {
              "internalType": "uint256",
              "name": "API",
              "type": "uint256"
            },
            {
              "internalType": "uint256",
              "name": "sulphur",
              "type": "uint256"
            },
            {
              "internalType": "string",
              "name": "account",
              "type": "string"
            }
          ],
          "indexed": false,
          "internalType": "struct IProducer.ProducerCore",
          "name": "_old",
          "type": "tuple"
        },
        {
          "components": [
            {
              "internalType": "string",
              "name": "nickname",
              "type": "string"
            },
            {
              "internalType": "address",
              "name": "owner",
              "type": "address"
            },
            {
              "internalType": "uint256",
              "name": "API",
              "type": "uint256"
            },
            {
              "internalType": "uint256",
              "name": "sulphur",
              "type": "uint256"
            },
            {
              "internalType": "string",
              "name": "account",
              "type": "string"
            }
          ],
          "indexed": false,
          "internalType": "struct IProducer.ProducerCore",
          "name": "_new",
          "type": "tuple"
        }
      ],
      "name": "UpdateProducer",
      "type": "event"
    },
    {
      "inputs": [],
      "name": "FOUNDATION_MANAGER",
      "outputs": [
        {
          "internalType": "bytes32",
          "name": "",
          "type": "bytes32"
        }
      ],
      "stateMutability": "view",
      "type": "function"
    },
    {
      "inputs": [],
      "name": "MAX_HOLDERS",
      "outputs": [
        {
          "internalType": "uint256",
          "name": "",
          "type": "uint256"
        }
      ],
      "stateMutability": "view",
      "type": "function"
    },
    {
      "inputs": [],
      "name": "MAX_PIECES",
      "outputs": [
        {
          "internalType": "uint256",
          "name": "",
          "type": "uint256"
        }
      ],
      "stateMutability": "view",
      "type": "function"
    },
    {
      "inputs": [
        {
          "internalType": "bytes32",
          "name": "_uniqueId",
          "type": "bytes32"
        },
        {
          "components": [
            {
              "internalType": "string",
              "name": "nickname",
              "type": "string"
            },
            {
              "internalType": "address",
              "name": "owner",
              "type": "address"
            },
            {
              "internalType": "uint256",
              "name": "API",
              "type": "uint256"
            },
            {
              "internalType": "uint256",
              "name": "sulphur",
              "type": "uint256"
            },
            {
              "internalType": "string",
              "name": "account",
              "type": "string"
            }
          ],
          "internalType": "struct IProducer.ProducerCore",
          "name": "_producer",
          "type": "tuple"
        }
      ],
      "name": "addProducer",
      "outputs": [],
      "stateMutability": "nonpayable",
      "type": "function"
    },
    {
      "inputs": [
        {
          "internalType": "bytes32",
          "name": "_uniqueId",
          "type": "bytes32"
        },
        {
          "internalType": "uint256",
          "name": "total",
          "type": "uint256"
        }
      ],
      "name": "calculateRewards",
      "outputs": [
        {
          "internalType": "address[]",
          "name": "",
          "type": "address[]"
        },
        {
          "internalType": "uint256[]",
          "name": "",
          "type": "uint256[]"
        }
      ],
      "stateMutability": "view",
      "type": "function"
    },
    {
      "inputs": [
        {
          "internalType": "bytes32",
          "name": "_uniqueId",
          "type": "bytes32"
        },
        {
          "internalType": "address",
          "name": "_holder",
          "type": "address"
        }
      ],
      "name": "deleteHolder",
      "outputs": [],
      "stateMutability": "nonpayable",
      "type": "function"
    },
    {
      "inputs": [
        {
          "internalType": "bytes32",
          "name": "_dappId",
          "type": "bytes32"
        }
      ],
      "name": "getDAppPayee",
      "outputs": [
        {
          "internalType": "address",
          "name": "",
          "type": "address"
        }
      ],
      "stateMutability": "view",
      "type": "function"
    },
    {
      "inputs": [
        {
          "internalType": "bytes32",
          "name": "_uniqueId",
          "type": "bytes32"
        }
      ],
      "name": "getProducer",
      "outputs": [
        {
          "internalType": "enum IProducer.ProducerStatus",
          "name": "",
          "type": "uint8"
        },
        {
          "components": [
            {
              "internalType": "string",
              "name": "nickname",
              "type": "string"
            },
            {
              "internalType": "address",
              "name": "owner",
              "type": "address"
            },
            {
              "internalType": "uint256",
              "name": "API",
              "type": "uint256"
            },
            {
              "internalType": "uint256",
              "name": "sulphur",
              "type": "uint256"
            },
            {
              "internalType": "string",
              "name": "account",
              "type": "string"
            }
          ],
          "internalType": "struct IProducer.ProducerCore",
          "name": "",
          "type": "tuple"
        }
      ],
      "stateMutability": "view",
      "type": "function"
    },
    {
      "inputs": [
        {
          "internalType": "bytes32",
          "name": "_uniqueId",
          "type": "bytes32"
        },
        {
          "internalType": "address",
          "name": "_holder",
          "type": "address"
        }
      ],
      "name": "holder",
      "outputs": [
        {
          "components": [
            {
              "internalType": "uint256",
              "name": "index",
              "type": "uint256"
            },
            {
              "internalType": "uint256",
              "name": "ratio",
              "type": "uint256"
            },
            {
              "internalType": "enum IShare.Flag",
              "name": "flag",
              "type": "uint8"
            }
          ],
          "internalType": "struct IShare.Holder",
          "name": "",
          "type": "tuple"
        }
      ],
      "stateMutability": "view",
      "type": "function"
    },
    {
      "inputs": [
        {
          "internalType": "bytes32",
          "name": "_uniqueId",
          "type": "bytes32"
        },
        {
          "internalType": "address",
          "name": "_holder",
          "type": "address"
        }
      ],
      "name": "isHolder",
      "outputs": [
        {
          "internalType": "bool",
          "name": "",
          "type": "bool"
        }
      ],
      "stateMutability": "view",
      "type": "function"
    },
    {
      "inputs": [
        {
          "internalType": "bytes32",
          "name": "_uniqueId",
          "type": "bytes32"
        },
        {
          "internalType": "address",
          "name": "_producer",
          "type": "address"
        }
      ],
      "name": "isProducerOwner",
      "outputs": [
        {
          "internalType": "bool",
          "name": "",
          "type": "bool"
        }
      ],
      "stateMutability": "view",
      "type": "function"
    },
    {
      "inputs": [
        {
          "internalType": "bytes32[]",
          "name": "_uniqueIds",
          "type": "bytes32[]"
        },
        {
          "internalType": "bytes32",
          "name": "_key",
          "type": "bytes32"
        },
        {
          "internalType": "bytes32",
          "name": "_dappId",
          "type": "bytes32"
        }
      ],
      "name": "link",
      "outputs": [],
      "stateMutability": "nonpayable",
      "type": "function"
    },
    {
      "inputs": [],
      "name": "maxShares",
      "outputs": [
        {
          "internalType": "uint256",
          "name": "",
          "type": "uint256"
        }
      ],
      "stateMutability": "pure",
      "type": "function"
    },
    {
      "inputs": [
        {
          "internalType": "bytes32",
          "name": "_uniqueId",
          "type": "bytes32"
        }
      ],
      "name": "producerStatus",
      "outputs": [
        {
          "internalType": "enum IProducer.ProducerStatus",
          "name": "",
          "type": "uint8"
        }
      ],
      "stateMutability": "view",
      "type": "function"
    },
    {
      "inputs": [
        {
          "internalType": "string",
          "name": "dapp",
          "type": "string"
        },
        {
          "internalType": "address",
          "name": "payee",
          "type": "address"
        }
      ],
      "name": "registerDAppConnect",
      "outputs": [
        {
          "internalType": "bytes32",
          "name": "",
          "type": "bytes32"
        }
      ],
      "stateMutability": "nonpayable",
      "type": "function"
    },
    {
      "inputs": [
        {
          "internalType": "bytes32",
          "name": "_uniqueId",
          "type": "bytes32"
        },
        {
          "internalType": "address[]",
          "name": "_holderAddrs",
          "type": "address[]"
        },
        {
          "internalType": "uint256[]",
          "name": "_ratios",
          "type": "uint256[]"
        }
      ],
      "name": "setHolders",
      "outputs": [],
      "stateMutability": "nonpayable",
      "type": "function"
    },
    {
      "inputs": [
        {
          "internalType": "bytes32",
          "name": "_uniqueId",
          "type": "bytes32"
        },
        {
          "internalType": "enum IProducer.ProducerStatus",
          "name": "_newStatus",
          "type": "uint8"
        }
      ],
      "name": "setProducerStatus",
      "outputs": [],
      "stateMutability": "nonpayable",
      "type": "function"
    },
    {
      "inputs": [
        {
          "internalType": "bytes32",
          "name": "_uniqueId",
          "type": "bytes32"
        },
        {
          "internalType": "address",
          "name": "_toHolder",
          "type": "address"
        },
        {
          "internalType": "uint256",
          "name": "_ratio",
          "type": "uint256"
        }
      ],
      "name": "splitHolder",
      "outputs": [
        {
          "internalType": "uint256",
          "name": "",
          "type": "uint256"
        },
        {
          "internalType": "uint256",
          "name": "",
          "type": "uint256"
        }
      ],
      "stateMutability": "nonpayable",
      "type": "function"
    },
    {
      "inputs": [
        {
          "internalType": "bytes32",
          "name": "_uniqueId",
          "type": "bytes32"
        }
      ],
      "name": "totalHolders",
      "outputs": [
        {
          "internalType": "uint256",
          "name": "",
          "type": "uint256"
        }
      ],
      "stateMutability": "view",
      "type": "function"
    },
    {
      "inputs": [
        {
          "internalType": "bytes32",
          "name": "_uniqueId",
          "type": "bytes32"
        }
      ],
      "name": "totalShared",
      "outputs": [
        {
          "internalType": "uint256",
          "name": "",
          "type": "uint256"
        }
      ],
      "stateMutability": "view",
      "type": "function"
    },
    {
      "inputs": [
        {
          "internalType": "bytes32",
          "name": "_uniqueId",
          "type": "bytes32"
        },
        {
          "components": [
            {
              "internalType": "string",
              "name": "nickname",
              "type": "string"
            },
            {
              "internalType": "address",
              "name": "owner",
              "type": "address"
            },
            {
              "internalType": "uint256",
              "name": "API",
              "type": "uint256"
            },
            {
              "internalType": "uint256",
              "name": "sulphur",
              "type": "uint256"
            },
            {
              "internalType": "string",
              "name": "account",
              "type": "string"
            }
          ],
          "internalType": "struct IProducer.ProducerCore",
          "name": "_producer",
          "type": "tuple"
        }
      ],
      "name": "updateProdcuer",
      "outputs": [],
      "stateMutability": "nonpayable",
      "type": "function"
    },
    {
      "inputs": [
        {
          "internalType": "address",
          "name": "_mulSigContract",
          "type": "address"
        },
        {
          "internalType": "address",
          "name": "_roleContract",
          "type": "address"
        },
        {
          "internalType": "string",
          "name": "_treasureKind",
          "type": "string"
        },
        {
          "internalType": "address",
          "name": "_productionDataContract",
          "type": "address"
        },
        {
          "internalType": "string[]",
          "name": "_dappNames",
          "type": "string[]"
        },
        {
          "internalType": "address[]",
          "name": "_payees",
          "type": "address[]"
        }
      ],
      "name": "initialize",
      "outputs": [],
      "stateMutability": "nonpayable",
      "type": "function"
    }
  ],
  "bytecode": "0x608060405234801561001057600080fd5b5061343c806100206000396000f3fe608060405234801561001057600080fd5b50600436106101425760003560e01c80638ed8a8c9116100b8578063c65b61ca1161007c578063c65b61ca14610300578063d3879c5d14610308578063d65e19aa1461031b578063dc8b577f14610346578063f2aea6ba14610376578063f9978af81461038957600080fd5b80638ed8a8c91461026657806393e136da14610279578063991141aa14610281578063b4aca055146102a1578063b65d8f76146102e057600080fd5b80633ccc47901161010a5780633ccc4790146101cb578063422674f6146101de5780635f584759146101f15780636d8bc0a91461020457806371ec01301461022b57806377368d031461023e57600080fd5b806306c520ed146101475780630b1c7fef1461015c57806322e127201461018f578063353822481461019757806339b8a2af146101aa575b600080fd5b61015a61015536600461295d565b6103aa565b005b61017c61016a366004612989565b60009081526004602052604090205490565b6040519081526020015b60405180910390f35b61017c600981565b61015a6101a5366004612a33565b61068c565b6101bd6101b8366004612ad8565b6109e5565b604051610186929190612b35565b61015a6101d9366004612c04565b610c2b565b61017c6101ec366004612cc5565b610c92565b61015a6101ff366004612d09565b610e76565b61017c7fd8e00efd67a9b34b6da7b941bb2d92f1c529ce28e67d637c0b137058422e066981565b61015a610239366004612daa565b61122a565b61025161024c366004612ed2565b611347565b60408051928352602083019190915201610186565b61015a610274366004612f07565b6116e6565b61017c606481565b61017c61028f366004612989565b60009081526005602052604090205490565b6102d06102af36600461295d565b600091825260016020526040909120546001600160a01b0391821691161490565b6040519015158152602001610186565b6102f36102ee36600461295d565b61186c565b6040516101869190612fdf565b61017c6118ec565b6102d061031636600461295d565b6118ff565b61032e610329366004612989565b611992565b6040516001600160a01b039091168152602001610186565b610369610354366004612989565b6000908152600a602052604090205460ff1690565b6040516101869190613028565b61015a610384366004612c04565b611a08565b61039c610397366004612989565b611b27565b6040516101869291906130ef565b60008281526001602052604090205482906001600160a01b03166104105760405162461bcd60e51b81526020600482015260186024820152771c1c9bd91d58d95c881cda185c99481b9bdd08195e1a5cdd60421b60448201526064015b60405180910390fd5b6000818152600160205260409020546001600160a01b031633146104715760405162461bcd60e51b815260206004820152601860248201527737b7363c903a343290383937b23ab1b2b91034ba39b2b63360411b6044820152606401610407565b600061047d848461186c565b905060018160400151600181111561049757610497612fc9565b146104d75760405162461bcd60e51b815260206004820152601060248201526f36bab9ba1031329030903437b63232b960811b6044820152606401610407565b6020810151156105205760405162461bcd60e51b81526020600482015260146024820152736d7573742068617665207a65726f20736861726560601b6044820152606401610407565b604080518581526001600160a01b03851660208201527f44712ebf2e2edea454e6ac2621c60962b124874de1bb11f37e1048388b2a5584910160405180910390a1805160008581526003602052604090208054600110156105fa578054819061058b9060019061312d565b8154811061059b5761059b613144565b9060005260206000200160009054906101000a90046001600160a01b03168183815481106105cb576105cb613144565b9060005260206000200160006101000a8154816001600160a01b0302191690836001600160a01b031602179055505b8080548061060a5761060a61315a565b60008281526020808220830160001990810180546001600160a01b0319169055909201909255878252600280825260408084206001600160a01b038a168552835280842084815560018181018690559201805460ff19169055898452600490925290822080549192909161067f90849061312d565b9091555050505050505050565b60008351116106dd5760405162461bcd60e51b815260206004820152601f60248201527f6174206c65617374203120756e697175654964206973207265717569726564006044820152606401610407565b6000818152600c60205260409020546001600160a01b03166107415760405162461bcd60e51b815260206004820152601b60248201527f6461707020776974682074686973206964206e6f7420666f756e6400000000006044820152606401610407565b600083516001600160401b0381111561075c5761075c6129a2565b604051908082528060200260200182016040528015610785578160200160208202803683370190505b509050600084516001600160401b038111156107a3576107a36129a2565b6040519080825280602002602001820160405280156107d657816020015b60608152602001906001900390816107c15790505b50905060005b855181101561099e5760008061080a8884815181106107fd576107fd613144565b6020026020010151611b27565b9092509050600182600281111561082357610823612fc9565b146108665760405162461bcd60e51b815260206004820152601360248201527270726f6475636572206e6f742061637469766560681b6044820152606401610407565b6108a588848151811061087b5761087b613144565b6020908102919091018101516000898152600c9092526040909120546001600160a01b03166118ff565b6109005760405162461bcd60e51b815260206004820152602660248201527f646170702773207061796565206d7573742062652070726f64756365722773206044820152653437b63232b960d11b6064820152608401610407565b600061094189858151811061091757610917613144565b60209081029190910181015160008a8152600c9092526040909120546001600160a01b031661186c565b9050806020015186858151811061095a5761095a613144565b602002602001018181525050816000015185858151811061097d5761097d613144565b6020026020010181905250505050808061099690613170565b9150506107dc565b507f89dff77968431cf06db6433a96eaf5d808e9b64d281a3111f637a7a24798bcc384868484876040516109d695949392919061318b565b60405180910390a15050505050565b6000828152600460205260408120546060918291610a0490600161324c565b6001600160401b03811115610a1b57610a1b6129a2565b604051908082528060200260200182016040528015610a44578160200160208202803683370190505b5060008681526004602052604081205491925090610a6390600161324c565b6001600160401b03811115610a7a57610a7a6129a2565b604051908082528060200260200182016040528015610aa3578160200160208202803683370190505b5090506000805b600088815260046020526040902054811015610b95576000888152600360205260408120805483908110610ae057610ae0613144565b60009182526020822001546001600160a01b03169150610b008a8361186c565b905081868481518110610b1557610b15613144565b60200260200101906001600160a01b031690816001600160a01b031681525050600060648a8360200151610b499190613264565b610b539190613283565b905080868581518110610b6857610b68613144565b6020908102919091010152610b7d818661324c565b94505050508080610b8d90613170565b915050610aaa565b5060008781526001602090815260408083205460049092529091205484516001600160a01b03909216918591908110610bd057610bd0613144565b6001600160a01b0390921660209283029190910190910152610bf2818761312d565b60008881526004602052604090205483518491908110610c1457610c14613144565b602090810291909101015250909590945092505050565b610c358282611cf8565b610c3f8282611dd3565b6000828152600a60205260409020805460ff191690557f478c39c1610daba07c1f1023a3b99328852945f641b69e4aa7e54655b31718c38282604051610c869291906132a5565b60405180910390a15050565b6006546000906001600160a01b03163314610cc95760405162461bcd60e51b81526020600482015260006024820152604401610407565b604080516020808201909252600090528351908401206000805160206133e78339815191521415610d2e5760405162461bcd60e51b815260206004820152600f60248201526e656d7074792064617070206e616d6560881b6044820152606401610407565b6001600160a01b038216610d775760405162461bcd60e51b815260206004820152601060248201526f656d707479204441707020706179656560801b6044820152606401610407565b60008383604051602001610d8c9291906132be565b60408051601f1981840301815291815281516020928301206000818152600c9093529120549091506001600160a01b031615610e0a5760405162461bcd60e51b815260206004820152601760248201527f6461707020616c726561647920726567697374657265640000000000000000006044820152606401610407565b6000818152600c60205260409081902080546001600160a01b0319166001600160a01b038616179055517fca14ee2da0e500efb4f550aec444deba4e9444e8baaeaecece69af617b8d1f7990610e65908690869085906132f5565b60405180910390a190505b92915050565b600754604051632474521560e21b81527fd8e00efd67a9b34b6da7b941bb2d92f1c529ce28e67d637c0b137058422e066960048201523360248201526001600160a01b03909116906391d1485490604401602060405180830381865afa158015610ee4573d6000803e3d6000fd5b505050506040513d601f19601f82011682018060405250810190610f089190613323565b610f5f5760405162461bcd60e51b815260206004820152602260248201527f6d757374206861766520726f6c6520464f554e444154494f4e5f4d414e414745604482015261029160f51b6064820152608401610407565b6000816002811115610f7357610f73612fc9565b1415610fb25760405162461bcd60e51b815260206004820152600e60248201526d696e76616c69642073746174757360901b6044820152606401610407565b60006001826002811115610fc857610fc8612fc9565b1480156110405750600d5460405163bd8742cd60e01b8152600481018590526000916001600160a01b03169063bd8742cd90602401602060405180830381865afa15801561101a573d6000803e3d6000fd5b505050506040513d601f19601f8201168201806040525081019061103e919061334c565b145b156110b757600d5460405163f31c336d60e01b8152600481018590526001600160a01b039091169063f31c336d906024016020604051808303816000875af1158015611090573d6000803e3d6000fd5b505050506040513d601f19601f820116820180604052508101906110b4919061334c565b90505b60028260028111156110cb576110cb612fc9565b1480156111445750600d5460405163bd8742cd60e01b8152600481018590526000916001600160a01b03169063bd8742cd90602401602060405180830381865afa15801561111d573d6000803e3d6000fd5b505050506040513d601f19601f82011682018060405250810190611141919061334c565b14155b156111ba57600d54604051630f25180360e31b8152600481018590526001600160a01b0390911690637928c018906024016020604051808303816000875af1158015611194573d6000803e3d6000fd5b505050506040513d601f19601f820116820180604052508101906111b89190613323565b505b6000838152600a60205260409020805483919060ff191660018360028111156111e5576111e5612fc9565b02179055507f3c254ffcc5de334b3e17e9b7bcbcb1e8efbdabbd4635c7c4ee2cb9d094dd0ea683828460405161121d93929190613365565b60405180910390a1505050565b600054610100900460ff161580801561124a5750600054600160ff909116105b806112645750303b158015611264575060005460ff166001145b6112c75760405162461bcd60e51b815260206004820152602e60248201527f496e697469616c697a61626c653a20636f6e747261637420697320616c72656160448201526d191e481a5b9a5d1a585b1a5e995960921b6064820152608401610407565b6000805460ff1916600117905580156112ea576000805461ff0019166101001790555b6112f8878787878787611e4b565b801561133e576000805461ff0019169055604051600181527f7f26b83ff96e1f2b6a682f133852f6798a09c465da95921460cefb38474024989060200160405180910390a15b50505050505050565b6000806001600160a01b0384166113aa5760405162461bcd60e51b815260206004820152602160248201527f7265636569766572206d757374206e6f74206265207a65726f206164647265736044820152607360f81b6064820152608401610407565b60648311156113fb5760405162461bcd60e51b815260206004820152601d60248201527f726174696f206578636565646573204d41585f504945434528313030290000006044820152606401610407565b6000611407863361186c565b905060018160400151600181111561142157611421612fc9565b146114635760405162461bcd60e51b81526020600482015260126024820152713737ba10309039b430b932903437b63232b960711b6044820152606401610407565b83816020015110156114b75760405162461bcd60e51b815260206004820152601960248201527f73656e646572277320726174696f206e6f7420656e6f756768000000000000006044820152606401610407565b8381602001516114c7919061312d565b602082015260006114d8878761186c565b90508481602001516114ea919061324c565b602082015260008160400151600181111561150757611507612fc9565b14156115c95760008781526004602052604090205461152760018261324c565b905060098111156115755760405162461bcd60e51b81526020600482015260186024820152776578636565646573204d41585f484f4c444552532831302960401b6044820152606401610407565b6001604083018190525060008881526004602090815260408083209390935560038082529282208054808652938252600184018155825290200180546001600160a01b0319166001600160a01b0388161790555b60008781526002602081815260408084203385528252928390208551815590850151600180830191909155928501519181018054869492939260ff1990911690838181111561161a5761161a612fc9565b0217905550505060008781526002602081815260408084206001600160a01b038b1685528252928390208451815590840151600180830191909155928401519181018054859492939260ff1990911690838181111561167b5761167b612fc9565b021790555050604080518981523360208201526001600160a01b038916818301526060810188905290517f297fcbaa20cadaef57d0dd84b39fa798fcff426111aa4e498ac5cd0354054daa92509081900360800190a160209182015191015190969095509350505050565b60008381526001602052604090205483906001600160a01b03166117475760405162461bcd60e51b81526020600482015260186024820152771c1c9bd91d58d95c881cda185c99481b9bdd08195e1a5cdd60421b6044820152606401610407565b6000818152600160205260409020546001600160a01b031633146117a85760405162461bcd60e51b815260206004820152601860248201527737b7363c903a343290383937b23ab1b2b91034ba39b2b63360411b6044820152606401610407565b815183511461180a5760405162461bcd60e51b815260206004820152602860248201527f486f6c6465727320616e6420526174696f73206d75737420686176652073616d6044820152670ca40d8cadccee8d60c31b6064820152608401610407565b60005b8351811015611865576118538585838151811061182c5761182c613144565b602002602001015185848151811061184657611846613144565b60200260200101516122e8565b8061185d81613170565b91505061180d565b5050505050565b61187461283f565b60008381526002602081815260408084206001600160a01b03871685528252928390208351606081018552815481526001808301549382019390935292810154929390929084019160ff909116908111156118d1576118d1612fc9565b60018111156118e2576118e2612fc9565b9052509392505050565b60006118fa6009600161324c565b905090565b60008281526002602081815260408084206001600160a01b038616855282528084208151606081018352815481526001808301549482019490945293810154859493919284019160ff9091169081111561195b5761195b612fc9565b600181111561196c5761196c612fc9565b905250905060018160400151600181111561198957611989612fc9565b14949350505050565b6000818152600c60205260408120546001600160a01b031680610e705760405162461bcd60e51b815260206004820152602860248201527f646170702077697468207468697320646170704964206e6f7420726567697374604482015267195c9959081e595d60c21b6064820152608401610407565b6000611a1383611b27565b91505081602001516001600160a01b031681602001516001600160a01b031614611a7f5760405162461bcd60e51b815260206004820152601760248201527f6f776e6572206368616e6765206e6f7420616c6c6f77640000000000000000006044820152606401610407565b60208101516001600160a01b03163314611ad35760405162461bcd60e51b81526020600482015260156024820152746f6e6c79206f776e65722063616e2075706461746560581b6044820152606401610407565b611add8383611dd3565b6000838152600a602052604090819020805460ff19169055517fba686f94954ca641c90af074be63e610ba0723054205c40f1151f230b58a08939061121d90859084908690613380565b6000611b31612870565b6000838152600a602052604081205460ff166002811115611b5457611b54612fc9565b1415611b6d57611b62612870565b600094909350915050565b6000838152600a602052604090205460ff1660096000858152602001908152602001600020806040518060a0016040529081600082018054611bae906133ab565b80601f0160208091040260200160405190810160405280929190818152602001828054611bda906133ab565b8015611c275780601f10611bfc57610100808354040283529160200191611c27565b820191906000526020600020905b815481529060010190602001808311611c0a57829003601f168201915b505050918352505060018201546001600160a01b031660208201526002820154604082015260038201546060820152600482018054608090920191611c6b906133ab565b80601f0160208091040260200160405190810160405280929190818152602001828054611c97906133ab565b8015611ce45780601f10611cb957610100808354040283529160200191611ce4565b820191906000526020600020905b815481529060010190602001808311611cc757829003601f168201915b505050505081525050905091509150915091565b611d0282826125e9565b60208101516001600160a01b0316611d5c5760405162461bcd60e51b815260206004820152601b60248201527f7a65726f2070726f6475636572206f776e6572206164647265737300000000006044820152606401610407565b60408051602080820190925260009052815180519101206000805160206133e78339815191521415611dc15760405162461bcd60e51b815260206004820152600e60248201526d656d707479206e69636b6e616d6560901b6044820152606401610407565b611dcf8282602001516127ac565b5050565b6000828152600960209081526040909120825180518493611df89284929101906128a8565b506020828101516001830180546001600160a01b0319166001600160a01b0390921691909117905560408301516002830155606083015160038301556080830151805161186592600485019201906128a8565b600054610100900460ff16611eb65760405162461bcd60e51b815260206004820152602b60248201527f496e697469616c697a61626c653a20636f6e7472616374206973206e6f74206960448201526a6e697469616c697a696e6760a81b6064820152608401610407565b6001600160a01b038616611f045760405162461bcd60e51b8152602060048201526015602482015274195b5c1d1e48135d5b14da59c818dbdb9d1c9858dd605a1b6044820152606401610407565b6001600160a01b038516611f505760405162461bcd60e51b8152602060048201526013602482015272195b5c1d1e48149bdb194818dbdb9d1c9858dd606a1b6044820152606401610407565b604080516020808201909252600090528451908501206000805160206133e78339815191521415611fb95760405162461bcd60e51b8152602060048201526013602482015272656d707479207472656173757265207479706560681b6044820152606401610407565b6001600160a01b03831661200f5760405162461bcd60e51b815260206004820152601d60248201527f656d7074792050726f64756374696f6e4461746120636f6e74726163740000006044820152606401610407565b83516120229060089060208701906128a8565b50600780546001600160a01b038088166001600160a01b031992831617909255600d80549286169290911691909117905580518251146120b35760405162461bcd60e51b815260206004820152602660248201527f6461707073206172726179206d75737420657175616c20746f2070617965657360448201526520617272617960d01b6064820152608401610407565b60005b825181101561133e5760408051602081019091526000905282516000805160206133e7833981519152908490839081106120f2576120f2613144565b60200260200101518051906020012014156121455760405162461bcd60e51b815260206004820152601360248201527268617320656d7074792064617070206e616d6560681b6044820152606401610407565b60006001600160a01b031682828151811061216257612162613144565b60200260200101516001600160a01b031614156121b85760405162461bcd60e51b815260206004820152601460248201527368617320656d707479206461707020706179656560601b6044820152606401610407565b60008382815181106121cc576121cc613144565b60200260200101518383815181106121e6576121e6613144565b60200260200101516040516020016121ff9291906132be565b60405160208183030381529060405280519060200120905082828151811061222957612229613144565b6020026020010151600c600083815260200190815260200160002060006101000a8154816001600160a01b0302191690836001600160a01b031602179055507fca14ee2da0e500efb4f550aec444deba4e9444e8baaeaecece69af617b8d1f7984838151811061229b5761229b613144565b60200260200101518484815181106122b5576122b5613144565b6020026020010151836040516122cd939291906132f5565b60405180910390a150806122e081613170565b9150506120b6565b6000838152600160205260409020546001600160a01b038381169116141561235e5760405162461bcd60e51b8152602060048201526024808201527f7368617265206f776e657220646f206e6f74206e65656420746f20736574486f604482015263363232b960e11b6064820152608401610407565b60648111156123af5760405162461bcd60e51b815260206004820152601f60248201527f726174696f20657863636565646573204d41585f5049454345532831303029006044820152606401610407565b60006123bb848461186c565b60008581526004602090815260408083205484830151600590935290832054939450926123e990869061324c565b6123f3919061312d565b905060008360400151600181111561240d5761240d612fc9565b14156124aa5761241e60018361324c565b9150600982111561246c5760405162461bcd60e51b81526020600482015260186024820152776578636565646573204d41585f484f4c444552532831302960401b6044820152606401610407565b60008681526003602081815260408320805480885292825260018301815583529091200180546001600160a01b0319166001600160a01b0387161790555b60648111156125075760405162461bcd60e51b8152602060048201526024808201527f746f74616c20726174696f206578636565646573204d41585f504945434553286044820152633130302960e01b6064820152608401610407565b60208381018581526001604080870182815260008b815260028087528382206001600160a01b038d168352909652919091208751815592518383015551928201805487949260ff1990911690838181111561256457612564612fc9565b021790555050506000868152600460209081526040808320859055600582529182902083905581518881526001600160a01b0388169181019190915290810185905260608101839052608081018290527f859560eb92983d9c25725cfe95c4abb9752302c948d822cb37908357aea4688d9060a00160405180910390a1505050505050565b600082815260096020526040808220815160a08101909252805482908290612610906133ab565b80601f016020809104026020016040519081016040528092919081815260200182805461263c906133ab565b80156126895780601f1061265e57610100808354040283529160200191612689565b820191906000526020600020905b81548152906001019060200180831161266c57829003601f168201915b505050918352505060018201546001600160a01b0316602082015260028201546040820152600382015460608201526004820180546080909201916126cd906133ab565b80601f01602080910402602001604051908101604052809291908181526020018280546126f9906133ab565b80156127465780601f1061271b57610100808354040283529160200191612746565b820191906000526020600020905b81548152906001019060200180831161272957829003601f168201915b5050509190925250505060208101519091506001600160a01b0316156127a75760405162461bcd60e51b81526020600482015260166024820152751c1c9bd91d58d95c88185b1c9958591e48195e1a5cdd60521b6044820152606401610407565b505050565b6000828152600160205260409020546001600160a01b0316156128115760405162461bcd60e51b815260206004820152601b60248201527f70726f647563657220736861726520616c7265616420657869737400000000006044820152606401610407565b60009182526001602052604090912080546001600160a01b0319166001600160a01b03909216919091179055565b604051806060016040528060008152602001600081526020016000600181111561286b5761286b612fc9565b905290565b6040518060a001604052806060815260200160006001600160a01b031681526020016000815260200160008152602001606081525090565b8280546128b4906133ab565b90600052602060002090601f0160209004810192826128d6576000855561291c565b82601f106128ef57805160ff191683800117855561291c565b8280016001018555821561291c579182015b8281111561291c578251825591602001919060010190612901565b5061292892915061292c565b5090565b5b80821115612928576000815560010161292d565b80356001600160a01b038116811461295857600080fd5b919050565b6000806040838503121561297057600080fd5b8235915061298060208401612941565b90509250929050565b60006020828403121561299b57600080fd5b5035919050565b634e487b7160e01b600052604160045260246000fd5b60405160a081016001600160401b03811182821017156129da576129da6129a2565b60405290565b604051601f8201601f191681016001600160401b0381118282101715612a0857612a086129a2565b604052919050565b60006001600160401b03821115612a2957612a296129a2565b5060051b60200190565b600080600060608486031215612a4857600080fd5b83356001600160401b03811115612a5e57600080fd5b8401601f81018613612a6f57600080fd5b80356020612a84612a7f83612a10565b6129e0565b82815260059290921b83018101918181019089841115612aa357600080fd5b938201935b83851015612ac157843582529382019390820190612aa8565b999188013598505060409096013595945050505050565b60008060408385031215612aeb57600080fd5b50508035926020909101359150565b600081518084526020808501945080840160005b83811015612b2a57815187529582019590820190600101612b0e565b509495945050505050565b604080825283519082018190526000906020906060840190828701845b82811015612b775781516001600160a01b031684529284019290840190600101612b52565b50505083810382850152612b8b8186612afa565b9695505050505050565b600082601f830112612ba657600080fd5b81356001600160401b03811115612bbf57612bbf6129a2565b612bd2601f8201601f19166020016129e0565b818152846020838601011115612be757600080fd5b816020850160208301376000918101602001919091529392505050565b60008060408385031215612c1757600080fd5b8235915060208301356001600160401b0380821115612c3557600080fd5b9084019060a08287031215612c4957600080fd5b612c516129b8565b823582811115612c6057600080fd5b612c6c88828601612b95565b825250612c7b60208401612941565b60208201526040830135604082015260608301356060820152608083013582811115612ca657600080fd5b612cb288828601612b95565b6080830152508093505050509250929050565b60008060408385031215612cd857600080fd5b82356001600160401b03811115612cee57600080fd5b612cfa85828601612b95565b92505061298060208401612941565b60008060408385031215612d1c57600080fd5b82359150602083013560038110612d3257600080fd5b809150509250929050565b600082601f830112612d4e57600080fd5b81356020612d5e612a7f83612a10565b82815260059290921b84018101918181019086841115612d7d57600080fd5b8286015b84811015612d9f57612d9281612941565b8352918301918301612d81565b509695505050505050565b60008060008060008060c08789031215612dc357600080fd5b612dcc87612941565b95506020612ddb818901612941565b955060408801356001600160401b0380821115612df757600080fd5b612e038b838c01612b95565b9650612e1160608b01612941565b955060808a0135915080821115612e2757600080fd5b818a0191508a601f830112612e3b57600080fd5b8135612e49612a7f82612a10565b81815260059190911b8301840190848101908d831115612e6857600080fd5b8585015b83811015612e9e578481351115612e8257600080fd5b612e918f888335890101612b95565b8352918601918601612e6c565b509650505060a08a0135925080831115612eb757600080fd5b5050612ec589828a01612d3d565b9150509295509295509295565b600080600060608486031215612ee757600080fd5b83359250612ef760208501612941565b9150604084013590509250925092565b600080600060608486031215612f1c57600080fd5b833592506020808501356001600160401b0380821115612f3b57600080fd5b612f4788838901612d3d565b94506040870135915080821115612f5d57600080fd5b508501601f81018713612f6f57600080fd5b8035612f7d612a7f82612a10565b81815260059190911b82018301908381019089831115612f9c57600080fd5b928401925b82841015612fba57833582529284019290840190612fa1565b80955050505050509250925092565b634e487b7160e01b600052602160045260246000fd5b8151815260208083015190820152604082015160608201906002811061300757613007612fc9565b8060408401525092915050565b6003811061302457613024612fc9565b9052565b60208101610e708284613014565b60005b83811015613051578181015183820152602001613039565b83811115613060576000848401525b50505050565b6000815180845261307e816020860160208601613036565b601f01601f19169290920160200192915050565b6000815160a084526130a760a0850182613066565b905060018060a01b0360208401511660208501526040830151604085015260608301516060850152608083015184820360808601526130e68282613066565b95945050505050565b6130f98184613014565b60406020820152600061310f6040830184613092565b949350505050565b634e487b7160e01b600052601160045260246000fd5b60008282101561313f5761313f613117565b500390565b634e487b7160e01b600052603260045260246000fd5b634e487b7160e01b600052603160045260246000fd5b600060001982141561318457613184613117565b5060010190565b600060a08201878352602060a08185015281885180845260c086019150828a01935060005b818110156131cc578451835293830193918301916001016131b0565b505084810360408601526131e08189612afa565b92505083820360608501528186518084528284019150828160051b85010183890160005b8381101561323257601f19878403018552613220838351613066565b94860194925090850190600101613204565b505080955050505050508260808301529695505050505050565b6000821982111561325f5761325f613117565b500190565b600081600019048311821515161561327e5761327e613117565b500290565b6000826132a057634e487b7160e01b600052601260045260246000fd5b500490565b82815260406020820152600061310f6040830184613092565b600083516132d0818460208801613036565b60609390931b6bffffffffffffffffffffffff19169190920190815260140192915050565b6060815260006133086060830186613066565b6001600160a01b039490941660208301525060400152919050565b60006020828403121561333557600080fd5b8151801515811461334557600080fd5b9392505050565b60006020828403121561335e57600080fd5b5051919050565b838152602081018390526060810161310f6040830184613014565b8381526060602082015260006133996060830185613092565b8281036040840152612b8b8185613092565b600181811c908216806133bf57607f821691505b602082108114156133e057634e487b7160e01b600052602260045260246000fd5b5091905056fec5d2460186f7233c927e7db2dcc703c0e500b653ca82273b7bfad8045d85a470a26469706673582212205d1d81ef162247964c6c61d4af291098ef1866544febec2b559633ec71e8470664736f6c634300080a0033",
  "immutableReferences": {},
  "source": "// SPDX-License-Identifier: GPL-3.0\r\npragma solidity ^0.8.0;\r\n\r\nimport \"../Producer.sol\";\r\nimport \"../interfaces/IProductionData.sol\";\r\nimport \"@openzeppelin/contracts/utils/math/SafeCast.sol\";\r\nimport \"@openzeppelin/contracts/utils/Timers.sol\";\r\nimport \"@openzeppelin/contracts-upgradeable/proxy/utils/Initializable.sol\";\r\n\r\ncontract GasProducer is Producer {\r\n    function initialize(\r\n        address _mulSigContract,\r\n        address _roleContract,\r\n        string memory _treasureKind,\r\n        address _productionDataContract,\r\n        string[] memory _dappNames,\r\n        address[] memory _payees\r\n    ) public initializer {\r\n        __ProducerInitialize(\r\n            _mulSigContract,\r\n            _roleContract,\r\n            _treasureKind,\r\n            _productionDataContract,\r\n            _dappNames,\r\n            _payees\r\n        );\r\n    }\r\n\r\n    function _beforeAddProducer(\r\n        bytes32 _uniqueId,\r\n        ProducerCore memory _producer\r\n    ) internal override {\r\n        super._beforeAddProducer(_uniqueId, _producer);\r\n\r\n        require(_producer.owner != address(0), \"zero producer owner address\");\r\n        require(\r\n            keccak256(bytes(_producer.nickname)) != keccak256(bytes(\"\")),\r\n            \"empty nickname\"\r\n        );\r\n        /*require(\r\n            _producer.API != 0 && _producer.sulphur != 0,\r\n            \"API & sulphur cant be zero\"\r\n        );*/\r\n\r\n        // initialize `Share`\r\n        _setOwner(_uniqueId, _producer.owner);\r\n    }\r\n\r\n    function _afterAddProducer(bytes32 _uniqueId) internal override {\r\n        super._afterAddProducer(_uniqueId);\r\n    }\r\n}\r\n",
  "sourcePath": "D:\\work\\Treasurenet-contracts\\fork\\treasurenet-contracts\\contracts\\Treasure\\GAS\\GasProducer.sol",
  "compiler": {
    "name": "solc",
    "version": "0.8.10+commit.fc410830.Emscripten.clang"
  },
  "schemaVersion": "3.4.16",
  "updatedAt": "2024-04-29T07:29:53.067Z",
  "devdoc": {
    "kind": "dev",
    "methods": {
      "addProducer(bytes32,(string,address,uint256,uint256,string))": {
        "details": "(only FOUNDATION_MANAGER) - Event     event AddProducer(bytes32 uniqueId,ProducerCore producer);",
        "params": {
          "_producer": "",
          "_uniqueId": "ID"
        }
      },
      "calculateRewards(bytes32,uint256)": {
        "details": "",
        "params": {
          "_uniqueId": "()ID",
          "total": ""
        }
      },
      "deleteHolder(bytes32,address)": {
        "details": "",
        "params": {
          "_holder": "",
          "_uniqueId": "()ID"
        }
      },
      "getProducer(bytes32)": {
        "details": "",
        "params": {
          "_uniqueId": "ID"
        },
        "returns": {
          "_0": "ProducerStatus ",
          "_1": "ProducerCore"
        }
      },
      "holder(bytes32,address)": {
        "details": "",
        "params": {
          "_holder": "",
          "_uniqueId": "()ID"
        },
        "returns": {
          "_0": "Holder "
        }
      },
      "isHolder(bytes32,address)": {
        "details": "",
        "params": {
          "_holder": "",
          "_uniqueId": "()ID"
        },
        "returns": {
          "_0": "bool "
        }
      },
      "isProducerOwner(bytes32,address)": {
        "details": "Producer",
        "params": {
          "_producer": "",
          "_uniqueId": "()ID"
        },
        "returns": {
          "_0": "bool "
        }
      },
      "link(bytes32[],bytes32,bytes32)": {
        "details": "Otter Stream",
        "params": {
          "_dappId": "DAppID",
          "_key": "",
          "_uniqueIds": "ID"
        }
      },
      "maxShares()": {
        "details": "(Producer)",
        "returns": {
          "_0": "uint256 "
        }
      },
      "producerStatus(bytes32)": {
        "details": "",
        "params": {
          "_uniqueId": "ID"
        },
        "returns": {
          "_0": "ProducerStatus "
        }
      },
      "registerDAppConnect(string,address)": {
        "details": "DApp",
        "params": {
          "dapp": "DApp",
          "payee": "DApp"
        },
        "returns": {
          "_0": "bytes32 DAppid"
        }
      },
      "setHolders(bytes32,address[],uint256[])": {
        "details": "",
        "params": {
          "_holderAddrs": "",
          "_ratios": "(100)",
          "_uniqueId": "()ID"
        }
      },
      "setProducerStatus(bytes32,uint8)": {
        "details": "(only FOUNDATION_MANAGER) - Event      event SetProducerStatus(bytes32 uniqueId,ProducerStatus status);",
        "params": {
          "_newStatus": "",
          "_uniqueId": "ID"
        }
      },
      "splitHolder(bytes32,address,uint256)": {
        "details": "",
        "params": {
          "_ratio": "",
          "_toHolder": "",
          "_uniqueId": "()ID"
        },
        "returns": {
          "_0": "uint256 ",
          "_1": "uint256 "
        }
      },
      "totalHolders(bytes32)": {
        "details": "",
        "params": {
          "_uniqueId": "()ID"
        },
        "returns": {
          "_0": "uint256 "
        }
      },
      "totalShared(bytes32)": {
        "details": "",
        "params": {
          "_uniqueId": "()ID"
        },
        "returns": {
          "_0": "uint256    "
        }
      },
      "updateProdcuer(bytes32,(string,address,uint256,uint256,string))": {
        "details": " (only FOUNDATION_MANAGER) - Event       event UpdateProducer(bytes32 uniqueId,ProducerCore _old ,ProducerCore _new);",
        "params": {
          "_producer": " struct ProducerCore {     string nickname;     address owner;     uint256 API;     uint256 sulphur; }",
          "_uniqueId": "ID"
        }
      }
    },
    "version": 1
  },
  "userdoc": {
    "kind": "user",
    "methods": {},
    "version": 1
  }
}