{
  "contractName": "Governance",
  "abi": [
    {
      "anonymous": false,
      "inputs": [
        {
          "indexed": false,
          "internalType": "string",
          "name": "treasureType",
          "type": "string"
        },
        {
          "indexed": false,
          "internalType": "address",
          "name": "producerContract",
          "type": "address"
        },
        {
          "indexed": false,
          "internalType": "address",
          "name": "produceDataContract",
          "type": "address"
        }
      ],
      "name": "AddTreasure",
      "type": "event"
    },
    {
      "anonymous": false,
      "inputs": [
        {
          "indexed": false,
          "internalType": "uint8",
          "name": "version",
          "type": "uint8"
        }
      ],
      "name": "Initialized",
      "type": "event"
    },
    {
      "anonymous": false,
      "inputs": [
        {
          "indexed": true,
          "internalType": "address",
          "name": "previousOwner",
          "type": "address"
        },
        {
          "indexed": true,
          "internalType": "address",
          "name": "newOwner",
          "type": "address"
        }
      ],
      "name": "OwnershipTransferred",
      "type": "event"
    },
    {
      "inputs": [],
      "name": "FOUNDATION_MANAGER",
      "outputs": [
        {
          "internalType": "bytes32",
          "name": "",
          "type": "bytes32"
        }
      ],
      "stateMutability": "view",
      "type": "function"
    },
    {
      "inputs": [],
      "name": "owner",
      "outputs": [
        {
          "internalType": "address",
          "name": "",
          "type": "address"
        }
      ],
      "stateMutability": "view",
      "type": "function"
    },
    {
      "inputs": [],
      "name": "renounceOwnership",
      "outputs": [],
      "stateMutability": "nonpayable",
      "type": "function"
    },
    {
      "inputs": [
        {
          "internalType": "address",
          "name": "newOwner",
          "type": "address"
        }
      ],
      "name": "transferOwnership",
      "outputs": [],
      "stateMutability": "nonpayable",
      "type": "function"
    },
    {
      "inputs": [
        {
          "internalType": "address",
          "name": "_daoContract",
          "type": "address"
        },
        {
          "internalType": "address",
          "name": "_mulSigContract",
          "type": "address"
        },
        {
          "internalType": "address",
          "name": "_roleContract",
          "type": "address"
        },
        {
          "internalType": "address",
          "name": "_parameterInfoContract",
          "type": "address"
        },
        {
          "internalType": "string[]",
          "name": "_treasureTypes",
          "type": "string[]"
        },
        {
          "internalType": "address[]",
          "name": "_producers",
          "type": "address[]"
        },
        {
          "internalType": "address[]",
          "name": "_productionDatas",
          "type": "address[]"
        }
      ],
      "name": "initialize",
      "outputs": [],
      "stateMutability": "nonpayable",
      "type": "function"
    },
    {
      "inputs": [],
      "name": "fmThreshold",
      "outputs": [
        {
          "internalType": "uint256",
          "name": "",
          "type": "uint256"
        }
      ],
      "stateMutability": "view",
      "type": "function"
    },
    {
      "inputs": [
        {
          "internalType": "string",
          "name": "_treasureType",
          "type": "string"
        },
        {
          "internalType": "address",
          "name": "_producer",
          "type": "address"
        },
        {
          "internalType": "address",
          "name": "_productionData",
          "type": "address"
        }
      ],
      "name": "addTreasure",
      "outputs": [],
      "stateMutability": "nonpayable",
      "type": "function"
    },
    {
      "inputs": [
        {
          "internalType": "string",
          "name": "_treasureType",
          "type": "string"
        }
      ],
      "name": "getTreasureByKind",
      "outputs": [
        {
          "internalType": "address",
          "name": "",
          "type": "address"
        },
        {
          "internalType": "address",
          "name": "",
          "type": "address"
        }
      ],
      "stateMutability": "view",
      "type": "function"
    }
  ],
  "bytecode": "0x608060405234801561001057600080fd5b50610dbf806100206000396000f3fe608060405234801561001057600080fd5b50600436106100885760003560e01c80638da5cb5b1161005b5780638da5cb5b146100f75780639e145ebf14610112578063d5b6cc7414610145578063f2fde38b1461014d57600080fd5b806316d788d71461008d5780636d8bc0a9146100a2578063715018a6146100dc57806385d04d51146100e4575b600080fd5b6100a061009b3660046109ea565b610160565b005b6100c97fd8e00efd67a9b34b6da7b941bb2d92f1c529ce28e67d637c0b137058422e066981565b6040519081526020015b60405180910390f35b6100a06101f7565b6100a06100f2366004610ade565b61020b565b6033546040516001600160a01b0390911681526020016100d3565b610125610120366004610c1d565b6104e1565b604080516001600160a01b039384168152929091166020830152016100d3565b6100c9610579565b6100a061015b366004610c5a565b610625565b6067546001600160a01b0316336001600160a01b0316146101a25760405162461bcd60e51b815260206004820152600060248201526044015b60405180910390fd5b6101ad83838361069e565b6101f25760405162461bcd60e51b81526020600482015260166024820152756661696c656420746f2061646420747265617375726560501b6044820152606401610199565b505050565b6101ff61086b565b61020960006108c5565b565b600054610100900460ff161580801561022b5750600054600160ff909116105b806102455750303b158015610245575060005460ff166001145b6102a85760405162461bcd60e51b815260206004820152602e60248201527f496e697469616c697a61626c653a20636f6e747261637420697320616c72656160448201526d191e481a5b9a5d1a585b1a5e995960921b6064820152608401610199565b6000805460ff1916600117905580156102cb576000805461ff0019166101001790555b606580546001600160a01b038089166001600160a01b03199283161790925560668054888416908316179055606780548a841690831617905560688054928b169290911691909117905582518451146103665760405162461bcd60e51b815260206004820152601860248201527f7472656173757265206c656e677468206d69736d6174636800000000000000006044820152606401610199565b81518451146103d25760405162461bcd60e51b815260206004820152603260248201527f74726561737572655479706573206d69736d6174636820776974682070726f646044820152710eac6e8d2dedc88c2e8c2e640d8cadccee8d60731b6064820152608401610199565b60005b8451811015610490576104348582815181106103f3576103f3610c7c565b602002602001015185838151811061040d5761040d610c7c565b602002602001015185848151811061042757610427610c7c565b602002602001015161069e565b6104805760405162461bcd60e51b815260206004820152601d60248201527f6661696c656420746f20696e697469616c697a652074726561737572650000006044820152606401610199565b61048981610ca8565b90506103d5565b5080156104d7576000805461ff0019169055604051600181527f7f26b83ff96e1f2b6a682f133852f6798a09c465da95921460cefb38474024989060200160405180910390a15b5050505050505050565b80516020808301919091206000818152606990925260408220600101548291906001600160a01b031661054b5760405162461bcd60e51b81526020600482015260126024820152711d1c99585cdd5c99481b9bdd08199bdd5b9960721b6044820152606401610199565b600090815260696020526040902060018101546002909101546001600160a01b039182169591169350915050565b60655460405163ca15c87360e01b81527fd8e00efd67a9b34b6da7b941bb2d92f1c529ce28e67d637c0b137058422e066960048201526000916002916001600160a01b039091169063ca15c87390602401602060405180830381865afa1580156105e7573d6000803e3d6000fd5b505050506040513d601f19601f8201168201806040525081019061060b9190610cc3565b6106159190610cdc565b610620906001610cfe565b905090565b61062d61086b565b6001600160a01b0381166106925760405162461bcd60e51b815260206004820152602660248201527f4f776e61626c653a206e6577206f776e657220697320746865207a65726f206160448201526564647265737360d01b6064820152608401610199565b61069b816108c5565b50565b82516020808501919091206000818152606990925260408220600101546001600160a01b0316156107115760405162461bcd60e51b815260206004820152601c60248201527f7472656173757265207479706520616c726561647920657869737473000000006044820152606401610199565b6001600160a01b0384166107675760405162461bcd60e51b815260206004820152601760248201527f656d7074792070726f647563657220636f6e74726163740000000000000000006044820152606401610199565b6001600160a01b0383166107bd5760405162461bcd60e51b815260206004820152601e60248201527f656d7074792070726f64756374696f6e206461746120636f6e747261637400006044820152606401610199565b604080516060810182528281526001600160a01b03868116602080840191825287831684860190815260008781526069909252908590208451815591516001830180549185166001600160a01b031992831617905590516002909201805492909316911617905590517f2786246dc43a3a06720c754845a5ded22aa280217c67b98a0c92d74bcb016e219061085790889088908890610d16565b60405180910390a150600195945050505050565b6033546001600160a01b031633146102095760405162461bcd60e51b815260206004820181905260248201527f4f776e61626c653a2063616c6c6572206973206e6f7420746865206f776e65726044820152606401610199565b603380546001600160a01b038381166001600160a01b0319831681179093556040519116919082907f8be0079c531659141344cd1fd0a4f28419497f9722a3daafe3b4186f6b6457e090600090a35050565b634e487b7160e01b600052604160045260246000fd5b604051601f8201601f1916810167ffffffffffffffff8111828210171561095657610956610917565b604052919050565b600082601f83011261096f57600080fd5b813567ffffffffffffffff81111561098957610989610917565b61099c601f8201601f191660200161092d565b8181528460208386010111156109b157600080fd5b816020850160208301376000918101602001919091529392505050565b80356001600160a01b03811681146109e557600080fd5b919050565b6000806000606084860312156109ff57600080fd5b833567ffffffffffffffff811115610a1657600080fd5b610a228682870161095e565b935050610a31602085016109ce565b9150610a3f604085016109ce565b90509250925092565b600067ffffffffffffffff821115610a6257610a62610917565b5060051b60200190565b600082601f830112610a7d57600080fd5b81356020610a92610a8d83610a48565b61092d565b82815260059290921b84018101918181019086841115610ab157600080fd5b8286015b84811015610ad357610ac6816109ce565b8352918301918301610ab5565b509695505050505050565b600080600080600080600060e0888a031215610af957600080fd5b610b02886109ce565b9650610b10602089016109ce565b9550610b1e604089016109ce565b9450610b2c606089016109ce565b9350608088013567ffffffffffffffff80821115610b4957600080fd5b818a0191508a601f830112610b5d57600080fd5b8135610b6b610a8d82610a48565b8082825260208201915060208360051b86010192508d831115610b8d57600080fd5b602085015b83811015610bc6578481351115610ba857600080fd5b610bb88f6020833589010161095e565b835260209283019201610b92565b509650505060a08a0135915080821115610bdf57600080fd5b610beb8b838c01610a6c565b935060c08a0135915080821115610c0157600080fd5b50610c0e8a828b01610a6c565b91505092959891949750929550565b600060208284031215610c2f57600080fd5b813567ffffffffffffffff811115610c4657600080fd5b610c528482850161095e565b949350505050565b600060208284031215610c6c57600080fd5b610c75826109ce565b9392505050565b634e487b7160e01b600052603260045260246000fd5b634e487b7160e01b600052601160045260246000fd5b6000600019821415610cbc57610cbc610c92565b5060010190565b600060208284031215610cd557600080fd5b5051919050565b600082610cf957634e487b7160e01b600052601260045260246000fd5b500490565b60008219821115610d1157610d11610c92565b500190565b606081526000845180606084015260005b81811015610d445760208188018101516080868401015201610d27565b81811115610d56576000608083860101525b506001600160a01b0385166020840152601f01601f191682016080019050610c5260408301846001600160a01b0316905256fea26469706673582212202782eaf6fd26475995fad7e15b7ced9f134dec6272ad76fc28d1aad5282ec93864736f6c634300080a0033",
  "immutableReferences": {},
  "source": "// SPDX-License-Identifier: GPL-3.0\r\npragma solidity ^0.8.0;\r\n\r\nimport \"./IRoles.sol\";\r\nimport \"@openzeppelin/contracts-upgradeable/proxy/utils/Initializable.sol\";\r\nimport \"@openzeppelin/contracts-upgradeable/access/OwnableUpgradeable.sol\";\r\n\r\n/// @title Treasurenet's governance contract\r\n/// @author bjwswang\r\ncontract Governance is OwnableUpgradeable {\r\n    \r\n    bytes32 public constant FOUNDATION_MANAGER = keccak256(\"FOUNDATION_MANAGER\");\r\n\r\n    // bytes32 public constant TREAUSRE_OIL = keccak256(\"OIL\");\r\n    // bytes32 public constant TREASURE_GAS = keccak256(\"GAS\");\r\n\r\n    IRoles private _role;\r\n    address private _parameterInfo;\r\n    address private _mulSig;\r\n\r\n    address private _dao;\r\n\r\n    mapping(bytes32 => Treasure) private _treasures;\r\n\r\n     /// @dev Treasure's core data structure, representing a similar asset, such as OIL/GAS/ETHER\r\n    struct Treasure {\r\n        bytes32 Kind;\r\n        address ProducerContract;\r\n        address ProductionDataContract;\r\n    }\r\n\r\n     /// @dev Used for the initialization of the Governance contract\r\n     /// @param _daoContract DAO contract address\r\n     /// @param _mulSigContract Multisig contract address\r\n     /// @param _roleContract Role management contract address\r\n     /// @param _parameterInfoContract Parameter management contract address\r\n    function initialize(\r\n        address _daoContract,\r\n        address _mulSigContract,\r\n        address _roleContract,\r\n        address _parameterInfoContract,\r\n        string[] memory _treasureTypes,\r\n        address[] memory _producers,\r\n        address[] memory _productionDatas        \r\n    ) public initializer {\r\n        _role = IRoles(_roleContract);\r\n        _parameterInfo = _parameterInfoContract;\r\n        _mulSig = _mulSigContract;\r\n\r\n        _dao = _daoContract;\r\n\r\n        require(_treasureTypes.length == _producers.length,\"treasure length mismatch\");\r\n        require(_treasureTypes.length == _productionDatas.length,\"treasureTypes mismatch with productionDatas length\");\r\n\r\n        for (uint256 i = 0; i < _treasureTypes.length; ++i) {\r\n            require(_addTreasure(_treasureTypes[i], _producers[i], _productionDatas[i]),\"failed to initialize treasure\");\r\n        }   \r\n    }\r\n\r\n    modifier onlyDAO() {\r\n        require(_msgSender() == _dao, \"only DAO contract\");\r\n        _;\r\n    }\r\n\r\n    modifier onlyMulSig() {\r\n        require(_msgSender() == _mulSig, \"\");\r\n        _;\r\n    }\r\n    \r\n     /// @dev Return the current threshold set by the Governance multisig contract\r\n     /// @return uint256 threshold\r\n    function fmThreshold() public view returns (uint256) {\r\n        return _role.getRoleMemberCount(FOUNDATION_MANAGER) / 2 + 1;\r\n    }\r\n\r\n    event AddTreasure(string treasureType,address producerContract,address produceDataContract);\r\n     /// @dev Used to add new Treasure assets (this method can only be called from the Multisig contract)\r\n     ///   - Events:\r\n     ///    - event AddTreasure(string treasureType,address producerContract,address produceDataContract);\r\n     /// @param _treasureType Asset name\r\n     /// @param _producer Management contract address corresponding to the asset's producer\r\n     /// @param _productionData Management contract address corresponding to the asset's production data\r\n    function addTreasure(\r\n        string memory _treasureType,\r\n        address _producer,\r\n        address _productionData\r\n    ) public onlyMulSig {\r\n        require(_addTreasure(_treasureType, _producer, _productionData),\"failed to add treasure\");\r\n    }\r\n\r\n    function _addTreasure(string memory _treasureType,address _producer,address _productionData) internal returns(bool){\r\n        bytes32 kind = keccak256(bytes(_treasureType));\r\n        require(_treasures[kind].ProducerContract == address(0), \"treasure type already exists\");\r\n        require(_producer != address(0),\"empty producer contract\");\r\n        require(_productionData!= address(0),\"empty production data contract\");\r\n\r\n        Treasure memory newTreasure;\r\n        newTreasure.Kind = kind;\r\n        newTreasure.ProducerContract = _producer;\r\n        newTreasure.ProductionDataContract = _productionData;\r\n\r\n        _treasures[newTreasure.Kind] = newTreasure;\r\n\r\n        emit AddTreasure(_treasureType, _producer, _productionData);\r\n\r\n        return true;\r\n    }\r\n\r\n    /// @dev Used to query the contract address corresponding to the asset type of Treasure\r\n    /// @param _treasureType Asset name\r\n    /// @return address Producer management contract address\r\n    /// @return address Production data management contract address\r\n    function getTreasureByKind(string memory _treasureType) public view returns (address, address) {\r\n        bytes32 kind = keccak256(bytes(_treasureType));\r\n        require(_treasures[kind].ProducerContract != address(0), \"treasure not found\");\r\n\r\n        return (_treasures[kind].ProducerContract, _treasures[kind].ProductionDataContract);\r\n    }\r\n}\r\n",
  "sourcePath": "D:\\work\\Treasurenet-contracts\\fork\\treasurenet-contracts\\contracts\\Governance\\Governance.sol",
  "compiler": {
    "name": "solc",
    "version": "0.8.10+commit.fc410830.Emscripten.clang"
  },
  "schemaVersion": "3.4.16",
  "updatedAt": "2024-04-29T07:29:52.942Z",
  "devdoc": {
    "author": "bjwswang",
    "kind": "dev",
    "methods": {
      "addTreasure(string,address,address)": {
        "details": "Used to add new Treasure assets (this method can only be called from the Multisig contract)   - Events:    - event AddTreasure(string treasureType,address producerContract,address produceDataContract);",
        "params": {
          "_producer": "Management contract address corresponding to the asset's producer",
          "_productionData": "Management contract address corresponding to the asset's production data",
          "_treasureType": "Asset name"
        }
      },
      "fmThreshold()": {
        "details": "Return the current threshold set by the Governance multisig contract",
        "returns": {
          "_0": "uint256 threshold"
        }
      },
      "getTreasureByKind(string)": {
        "details": "Used to query the contract address corresponding to the asset type of Treasure",
        "params": {
          "_treasureType": "Asset name"
        },
        "returns": {
          "_0": "address Producer management contract address",
          "_1": "address Production data management contract address"
        }
      },
      "initialize(address,address,address,address,string[],address[],address[])": {
        "details": "Used for the initialization of the Governance contract",
        "params": {
          "_daoContract": "DAO contract address",
          "_mulSigContract": "Multisig contract address",
          "_parameterInfoContract": "Parameter management contract address",
          "_roleContract": "Role management contract address"
        }
      },
      "owner()": {
        "details": "Returns the address of the current owner."
      },
      "renounceOwnership()": {
        "details": "Leaves the contract without owner. It will not be possible to call `onlyOwner` functions anymore. Can only be called by the current owner. NOTE: Renouncing ownership will leave the contract without an owner, thereby removing any functionality that is only available to the owner."
      },
      "transferOwnership(address)": {
        "details": "Transfers ownership of the contract to a new account (`newOwner`). Can only be called by the current owner."
      }
    },
    "title": "Treasurenet's governance contract",
    "version": 1
  },
  "userdoc": {
    "kind": "user",
    "methods": {},
    "version": 1
  }
}