{
  "contractName": "Gravity",
  "abi": [
    {
      "inputs": [
        {
          "internalType": "bytes32",
          "name": "_gravityId",
          "type": "bytes32"
        },
        {
          "internalType": "address[]",
          "name": "_validators",
          "type": "address[]"
        },
        {
          "internalType": "uint256[]",
          "name": "_powers",
          "type": "uint256[]"
        }
      ],
      "stateMutability": "nonpayable",
      "type": "constructor"
    },
    {
      "inputs": [],
      "name": "BatchTimedOut",
      "type": "error"
    },
    {
      "inputs": [],
      "name": "IncorrectCheckpoint",
      "type": "error"
    },
    {
      "inputs": [
        {
          "internalType": "uint256",
          "name": "cumulativePower",
          "type": "uint256"
        },
        {
          "internalType": "uint256",
          "name": "powerThreshold",
          "type": "uint256"
        }
      ],
      "name": "InsufficientPower",
      "type": "error"
    },
    {
      "inputs": [
        {
          "internalType": "uint256",
          "name": "newNonce",
          "type": "uint256"
        },
        {
          "internalType": "uint256",
          "name": "currentNonce",
          "type": "uint256"
        }
      ],
      "name": "InvalidBatchNonce",
      "type": "error"
    },
    {
      "inputs": [],
      "name": "InvalidLogicCallFees",
      "type": "error"
    },
    {
      "inputs": [
        {
          "internalType": "uint256",
          "name": "newNonce",
          "type": "uint256"
        },
        {
          "internalType": "uint256",
          "name": "currentNonce",
          "type": "uint256"
        }
      ],
      "name": "InvalidLogicCallNonce",
      "type": "error"
    },
    {
      "inputs": [],
      "name": "InvalidLogicCallTransfers",
      "type": "error"
    },
    {
      "inputs": [],
      "name": "InvalidSendToCosmos",
      "type": "error"
    },
    {
      "inputs": [],
      "name": "InvalidSignature",
      "type": "error"
    },
    {
      "inputs": [
        {
          "internalType": "uint256",
          "name": "newNonce",
          "type": "uint256"
        },
        {
          "internalType": "uint256",
          "name": "currentNonce",
          "type": "uint256"
        }
      ],
      "name": "InvalidValsetNonce",
      "type": "error"
    },
    {
      "inputs": [],
      "name": "LogicCallTimedOut",
      "type": "error"
    },
    {
      "inputs": [],
      "name": "MalformedBatch",
      "type": "error"
    },
    {
      "inputs": [],
      "name": "MalformedCurrentValidatorSet",
      "type": "error"
    },
    {
      "inputs": [],
      "name": "MalformedNewValidatorSet",
      "type": "error"
    },
    {
      "anonymous": false,
      "inputs": [
        {
          "indexed": false,
          "internalType": "string",
          "name": "_cosmosDenom",
          "type": "string"
        },
        {
          "indexed": true,
          "internalType": "address",
          "name": "_tokenContract",
          "type": "address"
        },
        {
          "indexed": false,
          "internalType": "string",
          "name": "_name",
          "type": "string"
        },
        {
          "indexed": false,
          "internalType": "string",
          "name": "_symbol",
          "type": "string"
        },
        {
          "indexed": false,
          "internalType": "uint8",
          "name": "_decimals",
          "type": "uint8"
        },
        {
          "indexed": false,
          "internalType": "uint256",
          "name": "_eventNonce",
          "type": "uint256"
        }
      ],
      "name": "ERC20DeployedEvent",
      "type": "event"
    },
    {
      "anonymous": false,
      "inputs": [
        {
          "indexed": false,
          "internalType": "bytes32",
          "name": "_invalidationId",
          "type": "bytes32"
        },
        {
          "indexed": false,
          "internalType": "uint256",
          "name": "_invalidationNonce",
          "type": "uint256"
        },
        {
          "indexed": false,
          "internalType": "bytes",
          "name": "_returnData",
          "type": "bytes"
        },
        {
          "indexed": false,
          "internalType": "uint256",
          "name": "_eventNonce",
          "type": "uint256"
        }
      ],
      "name": "LogicCallEvent",
      "type": "event"
    },
    {
      "anonymous": false,
      "inputs": [
        {
          "indexed": true,
          "internalType": "address",
          "name": "_tokenContract",
          "type": "address"
        },
        {
          "indexed": true,
          "internalType": "address",
          "name": "_sender",
          "type": "address"
        },
        {
          "indexed": false,
          "internalType": "string",
          "name": "_destination",
          "type": "string"
        },
        {
          "indexed": false,
          "internalType": "uint256",
          "name": "_amount",
          "type": "uint256"
        },
        {
          "indexed": false,
          "internalType": "uint256",
          "name": "_eventNonce",
          "type": "uint256"
        }
      ],
      "name": "SendToCosmosEvent",
      "type": "event"
    },
    {
      "anonymous": false,
      "inputs": [
        {
          "indexed": true,
          "internalType": "uint256",
          "name": "_batchNonce",
          "type": "uint256"
        },
        {
          "indexed": true,
          "internalType": "address",
          "name": "_token",
          "type": "address"
        },
        {
          "indexed": false,
          "internalType": "uint256",
          "name": "_eventNonce",
          "type": "uint256"
        }
      ],
      "name": "TransactionBatchExecutedEvent",
      "type": "event"
    },
    {
      "anonymous": false,
      "inputs": [
        {
          "indexed": true,
          "internalType": "uint256",
          "name": "_newValsetNonce",
          "type": "uint256"
        },
        {
          "indexed": false,
          "internalType": "uint256",
          "name": "_eventNonce",
          "type": "uint256"
        },
        {
          "indexed": false,
          "internalType": "uint256",
          "name": "_rewardAmount",
          "type": "uint256"
        },
        {
          "indexed": false,
          "internalType": "address",
          "name": "_rewardToken",
          "type": "address"
        },
        {
          "indexed": false,
          "internalType": "address[]",
          "name": "_validators",
          "type": "address[]"
        },
        {
          "indexed": false,
          "internalType": "uint256[]",
          "name": "_powers",
          "type": "uint256[]"
        }
      ],
      "name": "ValsetUpdatedEvent",
      "type": "event"
    },
    {
      "inputs": [],
      "name": "state_gravityId",
      "outputs": [
        {
          "internalType": "bytes32",
          "name": "",
          "type": "bytes32"
        }
      ],
      "stateMutability": "view",
      "type": "function"
    },
    {
      "inputs": [
        {
          "internalType": "bytes32",
          "name": "",
          "type": "bytes32"
        }
      ],
      "name": "state_invalidationMapping",
      "outputs": [
        {
          "internalType": "uint256",
          "name": "",
          "type": "uint256"
        }
      ],
      "stateMutability": "view",
      "type": "function"
    },
    {
      "inputs": [
        {
          "internalType": "address",
          "name": "",
          "type": "address"
        }
      ],
      "name": "state_lastBatchNonces",
      "outputs": [
        {
          "internalType": "uint256",
          "name": "",
          "type": "uint256"
        }
      ],
      "stateMutability": "view",
      "type": "function"
    },
    {
      "inputs": [],
      "name": "state_lastEventNonce",
      "outputs": [
        {
          "internalType": "uint256",
          "name": "",
          "type": "uint256"
        }
      ],
      "stateMutability": "view",
      "type": "function"
    },
    {
      "inputs": [],
      "name": "state_lastValsetCheckpoint",
      "outputs": [
        {
          "internalType": "bytes32",
          "name": "",
          "type": "bytes32"
        }
      ],
      "stateMutability": "view",
      "type": "function"
    },
    {
      "inputs": [],
      "name": "state_lastValsetNonce",
      "outputs": [
        {
          "internalType": "uint256",
          "name": "",
          "type": "uint256"
        }
      ],
      "stateMutability": "view",
      "type": "function"
    },
    {
      "inputs": [
        {
          "components": [
            {
              "internalType": "address[]",
              "name": "validators",
              "type": "address[]"
            },
            {
              "internalType": "uint256[]",
              "name": "powers",
              "type": "uint256[]"
            },
            {
              "internalType": "uint256",
              "name": "valsetNonce",
              "type": "uint256"
            },
            {
              "internalType": "uint256",
              "name": "rewardAmount",
              "type": "uint256"
            },
            {
              "internalType": "address",
              "name": "rewardToken",
              "type": "address"
            }
          ],
          "internalType": "struct ValsetArgs",
          "name": "_valsetArgs",
          "type": "tuple"
        },
        {
          "internalType": "bytes32",
          "name": "_gravityId",
          "type": "bytes32"
        }
      ],
      "name": "testMakeCheckpoint",
      "outputs": [],
      "stateMutability": "pure",
      "type": "function"
    },
    {
      "inputs": [
        {
          "components": [
            {
              "internalType": "address[]",
              "name": "validators",
              "type": "address[]"
            },
            {
              "internalType": "uint256[]",
              "name": "powers",
              "type": "uint256[]"
            },
            {
              "internalType": "uint256",
              "name": "valsetNonce",
              "type": "uint256"
            },
            {
              "internalType": "uint256",
              "name": "rewardAmount",
              "type": "uint256"
            },
            {
              "internalType": "address",
              "name": "rewardToken",
              "type": "address"
            }
          ],
          "internalType": "struct ValsetArgs",
          "name": "_currentValset",
          "type": "tuple"
        },
        {
          "components": [
            {
              "internalType": "uint8",
              "name": "v",
              "type": "uint8"
            },
            {
              "internalType": "bytes32",
              "name": "r",
              "type": "bytes32"
            },
            {
              "internalType": "bytes32",
              "name": "s",
              "type": "bytes32"
            }
          ],
          "internalType": "struct Signature[]",
          "name": "_sigs",
          "type": "tuple[]"
        },
        {
          "internalType": "bytes32",
          "name": "_theHash",
          "type": "bytes32"
        },
        {
          "internalType": "uint256",
          "name": "_powerThreshold",
          "type": "uint256"
        }
      ],
      "name": "testCheckValidatorSignatures",
      "outputs": [],
      "stateMutability": "pure",
      "type": "function"
    },
    {
      "inputs": [
        {
          "internalType": "address",
          "name": "_erc20Address",
          "type": "address"
        }
      ],
      "name": "lastBatchNonce",
      "outputs": [
        {
          "internalType": "uint256",
          "name": "",
          "type": "uint256"
        }
      ],
      "stateMutability": "view",
      "type": "function"
    },
    {
      "inputs": [
        {
          "internalType": "bytes32",
          "name": "_invalidation_id",
          "type": "bytes32"
        }
      ],
      "name": "lastLogicCallNonce",
      "outputs": [
        {
          "internalType": "uint256",
          "name": "",
          "type": "uint256"
        }
      ],
      "stateMutability": "view",
      "type": "function"
    },
    {
      "inputs": [
        {
          "components": [
            {
              "internalType": "address[]",
              "name": "validators",
              "type": "address[]"
            },
            {
              "internalType": "uint256[]",
              "name": "powers",
              "type": "uint256[]"
            },
            {
              "internalType": "uint256",
              "name": "valsetNonce",
              "type": "uint256"
            },
            {
              "internalType": "uint256",
              "name": "rewardAmount",
              "type": "uint256"
            },
            {
              "internalType": "address",
              "name": "rewardToken",
              "type": "address"
            }
          ],
          "internalType": "struct ValsetArgs",
          "name": "_newValset",
          "type": "tuple"
        },
        {
          "components": [
            {
              "internalType": "address[]",
              "name": "validators",
              "type": "address[]"
            },
            {
              "internalType": "uint256[]",
              "name": "powers",
              "type": "uint256[]"
            },
            {
              "internalType": "uint256",
              "name": "valsetNonce",
              "type": "uint256"
            },
            {
              "internalType": "uint256",
              "name": "rewardAmount",
              "type": "uint256"
            },
            {
              "internalType": "address",
              "name": "rewardToken",
              "type": "address"
            }
          ],
          "internalType": "struct ValsetArgs",
          "name": "_currentValset",
          "type": "tuple"
        },
        {
          "components": [
            {
              "internalType": "uint8",
              "name": "v",
              "type": "uint8"
            },
            {
              "internalType": "bytes32",
              "name": "r",
              "type": "bytes32"
            },
            {
              "internalType": "bytes32",
              "name": "s",
              "type": "bytes32"
            }
          ],
          "internalType": "struct Signature[]",
          "name": "_sigs",
          "type": "tuple[]"
        }
      ],
      "name": "updateValset",
      "outputs": [],
      "stateMutability": "nonpayable",
      "type": "function"
    },
    {
      "inputs": [
        {
          "components": [
            {
              "internalType": "address[]",
              "name": "validators",
              "type": "address[]"
            },
            {
              "internalType": "uint256[]",
              "name": "powers",
              "type": "uint256[]"
            },
            {
              "internalType": "uint256",
              "name": "valsetNonce",
              "type": "uint256"
            },
            {
              "internalType": "uint256",
              "name": "rewardAmount",
              "type": "uint256"
            },
            {
              "internalType": "address",
              "name": "rewardToken",
              "type": "address"
            }
          ],
          "internalType": "struct ValsetArgs",
          "name": "_currentValset",
          "type": "tuple"
        },
        {
          "components": [
            {
              "internalType": "uint8",
              "name": "v",
              "type": "uint8"
            },
            {
              "internalType": "bytes32",
              "name": "r",
              "type": "bytes32"
            },
            {
              "internalType": "bytes32",
              "name": "s",
              "type": "bytes32"
            }
          ],
          "internalType": "struct Signature[]",
          "name": "_sigs",
          "type": "tuple[]"
        },
        {
          "internalType": "uint256[]",
          "name": "_amounts",
          "type": "uint256[]"
        },
        {
          "internalType": "address[]",
          "name": "_destinations",
          "type": "address[]"
        },
        {
          "internalType": "uint256[]",
          "name": "_fees",
          "type": "uint256[]"
        },
        {
          "internalType": "uint256",
          "name": "_batchNonce",
          "type": "uint256"
        },
        {
          "internalType": "address",
          "name": "_tokenContract",
          "type": "address"
        },
        {
          "internalType": "uint256",
          "name": "_batchTimeout",
          "type": "uint256"
        }
      ],
      "name": "submitBatch",
      "outputs": [],
      "stateMutability": "nonpayable",
      "type": "function"
    },
    {
      "inputs": [
        {
          "components": [
            {
              "internalType": "address[]",
              "name": "validators",
              "type": "address[]"
            },
            {
              "internalType": "uint256[]",
              "name": "powers",
              "type": "uint256[]"
            },
            {
              "internalType": "uint256",
              "name": "valsetNonce",
              "type": "uint256"
            },
            {
              "internalType": "uint256",
              "name": "rewardAmount",
              "type": "uint256"
            },
            {
              "internalType": "address",
              "name": "rewardToken",
              "type": "address"
            }
          ],
          "internalType": "struct ValsetArgs",
          "name": "_currentValset",
          "type": "tuple"
        },
        {
          "components": [
            {
              "internalType": "uint8",
              "name": "v",
              "type": "uint8"
            },
            {
              "internalType": "bytes32",
              "name": "r",
              "type": "bytes32"
            },
            {
              "internalType": "bytes32",
              "name": "s",
              "type": "bytes32"
            }
          ],
          "internalType": "struct Signature[]",
          "name": "_sigs",
          "type": "tuple[]"
        },
        {
          "components": [
            {
              "internalType": "uint256[]",
              "name": "transferAmounts",
              "type": "uint256[]"
            },
            {
              "internalType": "address[]",
              "name": "transferTokenContracts",
              "type": "address[]"
            },
            {
              "internalType": "uint256[]",
              "name": "feeAmounts",
              "type": "uint256[]"
            },
            {
              "internalType": "address[]",
              "name": "feeTokenContracts",
              "type": "address[]"
            },
            {
              "internalType": "address",
              "name": "logicContractAddress",
              "type": "address"
            },
            {
              "internalType": "bytes",
              "name": "payload",
              "type": "bytes"
            },
            {
              "internalType": "uint256",
              "name": "timeOut",
              "type": "uint256"
            },
            {
              "internalType": "bytes32",
              "name": "invalidationId",
              "type": "bytes32"
            },
            {
              "internalType": "uint256",
              "name": "invalidationNonce",
              "type": "uint256"
            }
          ],
          "internalType": "struct LogicCallArgs",
          "name": "_args",
          "type": "tuple"
        }
      ],
      "name": "submitLogicCall",
      "outputs": [],
      "stateMutability": "nonpayable",
      "type": "function"
    },
    {
      "inputs": [
        {
          "internalType": "address",
          "name": "_tokenContract",
          "type": "address"
        },
        {
          "internalType": "string",
          "name": "_destination",
          "type": "string"
        },
        {
          "internalType": "uint256",
          "name": "_amount",
          "type": "uint256"
        }
      ],
      "name": "sendToCosmos",
      "outputs": [],
      "stateMutability": "nonpayable",
      "type": "function"
    },
    {
      "inputs": [
        {
          "internalType": "string",
          "name": "_cosmosDenom",
          "type": "string"
        },
        {
          "internalType": "string",
          "name": "_name",
          "type": "string"
        },
        {
          "internalType": "string",
          "name": "_symbol",
          "type": "string"
        },
        {
          "internalType": "uint8",
          "name": "_decimals",
          "type": "uint8"
        }
      ],
      "name": "deployERC20",
      "outputs": [],
      "stateMutability": "nonpayable",
      "type": "function"
    }
  ],
  "bytecode": "0x60a0604052600060045560016005553480156200001b57600080fd5b5060405162003a8538038062003a858339810160408190526200003e916200032f565b6001600055805182511415806200005457508151155b15620000735760405163c6617b7b60e01b815260040160405180910390fd5b6000805b8251811015620000d55782818151811062000096576200009662000418565b602002602001015182620000ab919062000444565b915063aaaaaaaa821115620000c057620000d5565b80620000cc816200045f565b91505062000077565b5063aaaaaaaa81116200010b5760405162bfb6ab60e01b81526004810182905263aaaaaaaa602482015260440160405180910390fd5b620001476040518060a001604052806060815260200160608152602001600081526020016000815260200160006001600160a01b031681525090565b506040805160a0810182528481526020810184905260009181018290526060810182905260808101829052906200017f8287620001e1565b6080879052600181905560045460055460405192935090917f76d08978c024a4bf8cbb30c67fd78fcaa1827cbc533e4e175f36d07e64ccf96a91620001cd9160009081908b908b90620004f5565b60405180910390a2505050505050620005a4565b6000806918da1958dadc1bda5b9d60b21b60001b90506000838286604001518760000151886020015189606001518a608001516040516020016200022c979695949392919062000544565b60408051808303601f19018152919052805160209091012095945050505050565b634e487b7160e01b600052604160045260246000fd5b604051601f8201601f191681016001600160401b03811182821017156200028e576200028e6200024d565b604052919050565b60006001600160401b03821115620002b257620002b26200024d565b5060051b60200190565b600082601f830112620002ce57600080fd5b81516020620002e7620002e18362000296565b62000263565b82815260059290921b840181019181810190868411156200030757600080fd5b8286015b848110156200032457805183529183019183016200030b565b509695505050505050565b6000806000606084860312156200034557600080fd5b8351602080860151919450906001600160401b03808211156200036757600080fd5b818701915087601f8301126200037c57600080fd5b81516200038d620002e18262000296565b81815260059190911b8301840190848101908a831115620003ad57600080fd5b938501935b82851015620003e45784516001600160a01b0381168114620003d45760008081fd5b82529385019390850190620003b2565b60408a01519097509450505080831115620003fe57600080fd5b50506200040e86828701620002bc565b9150509250925092565b634e487b7160e01b600052603260045260246000fd5b634e487b7160e01b600052601160045260246000fd5b600082198211156200045a576200045a6200042e565b500190565b60006000198214156200047657620004766200042e565b5060010190565b600081518084526020808501945080840160005b83811015620004b85781516001600160a01b03168752958201959082019060010162000491565b509495945050505050565b600081518084526020808501945080840160005b83811015620004b857815187529582019590820190600101620004d7565b85815284602082015260018060a01b038416604082015260a0606082015260006200052460a08301856200047d565b8281036080840152620005388185620004c3565b98975050505050505050565b87815286602082015285604082015260e0606082015260006200056b60e08301876200047d565b82810360808401526200057f8187620004c3565b60a084019590955250506001600160a01b039190911660c09091015295945050505050565b6080516134b0620005d5600039600081816102140152818161055e015281816105f901526109b501526134b06000f3fe60806040523480156200001157600080fd5b5060043610620001085760003560e01c80638690ff9811620000a3578063c9d194d5116200006e578063c9d194d51462000236578063df97174b1462000259578063f2b53307146200027c578063f7955637146200028657600080fd5b80638690ff9814620001d6578063aca6b1c114620001ed578063b56561fe1462000204578063bdda81d4146200020e57600080fd5b80630f21235711620000e45780630f212357146200017b5780636941db93146200019257806373b2054714620001a95780637dfb6f8614620001b357600080fd5b8062901153146200010d578063010315251462000126578063011b2174146200013d575b600080fd5b620001246200011e3660046200189c565b6200029d565b005b62000124620001373660046200191d565b620002b3565b620001696200014e36600462001982565b6001600160a01b031660009081526002602052604090205490565b60405190815260200160405180910390f35b620001246200018c366004620019e4565b620002ce565b62000124620001a336600462001c32565b62000490565b6200016960055481565b62000169620001c436600462001dce565b60036020526000908152604090205481565b62000124620001e736600462001e2f565b62000825565b62000124620001fe36600462001f68565b62000b7a565b6200016960045481565b620001697f000000000000000000000000000000000000000000000000000000000000000081565b620001696200024736600462001dce565b60009081526003602052604090205490565b620001696200026a36600462001982565b60026020526000908152604090205481565b6200016960015481565b62000124620002973660046200200e565b62000e69565b620002ac858585858562000f21565b5050505050565b620002c9620002c283620020c4565b826200107b565b505050565b60026000541415620002fd5760405162461bcd60e51b8152600401620002f4906200217a565b60405180910390fd5b600260009081556040516370a0823160e01b81523060048201526001600160a01b038616906370a0823190602401602060405180830381865afa15801562000349573d6000803e3d6000fd5b505050506040513d601f19601f820116820180604052508101906200036f9190620021b1565b9050620003886001600160a01b038616333085620010e7565b6040516370a0823160e01b81523060048201526000906001600160a01b038716906370a0823190602401602060405180830381865afa158015620003d0573d6000803e3d6000fd5b505050506040513d601f19601f82011682018060405250810190620003f69190620021b1565b905081811162000419576040516321739d9b60e01b815260040160405180910390fd5b60055462000429906001620021e1565b600555336001600160a01b0387167f9e9794dbf94b0a0aa31a480f5b38550eda7f89115ac8fbf4953fa4dd219900c98787620004668787620021fc565b6005546040516200047b94939291906200223f565b60405180910390a35050600160005550505050565b60026000541415620004b65760405162461bcd60e51b8152600401620002f4906200217a565b600260005560c08101514310620004e05760405163bcf37c2560e01b815260040160405180910390fd5b61010081015160e0820151600090815260036020526040902054106200053d5761010081015160e082015160009081526003602052604090819020549051629427e960e11b815260048101929092526024820152604401620002f4565b6200054a8484846200115a565b600154620005836200055c86620020c4565b7f00000000000000000000000000000000000000000000000000000000000000006200107b565b14620005a25760405163723a340360e01b815260040160405180910390fd5b60208101515181515114620005ca57604051634298a95160e11b815260040160405180910390fd5b80606001515181604001515114620005f557604051634829247960e01b815260040160405180910390fd5b60007f0000000000000000000000000000000000000000000000000000000000000000681b1bd9da58d0d85b1b60ba1b836000015184602001518560400151866060015187608001518860a001518960c001518a60e001518b61010001516040516020016200066f9b9a999897969594939291906200233d565b6040516020818303038152906040528051906020012090506200069a8585858463aaaaaaaa62000f21565b5061010081015160e08201516000908152600360205260408120919091555b8151518110156200073d5762000728826080015183600001518381518110620006e657620006e6620023ed565b602002602001015184602001518481518110620007075762000707620023ed565b60200260200101516001600160a01b0316620011b39092919063ffffffff16565b80620007348162002403565b915050620006b9565b5060006200075482608001518360a00151620011e5565b905060005b826040015151811015620007bb57620007a63384604001518381518110620007855762000785620023ed565b602002602001015185606001518481518110620007075762000707620023ed565b80620007b28162002403565b91505062000759565b50600554620007cc906001620021e1565b600581905560e08301516101008401516040517f7c2bb24f8e1b3725cb613d7f11ef97d9745cc97a0e40f730621c052d684077a1936200081193929186919062002421565b60405180910390a150506001600055505050565b600260005414156200084b5760405162461bcd60e51b8152600401620002f4906200217a565b600260008181556001600160a01b038416815260209190915260409020548311620008af576001600160a01b0382166000908152600260205260409081902054905163f7f920ad60e01b8152620002f4918591600401918252602082015260400190565b6001600160a01b038216600090815260026020526040902054620008d790620f4240620021e1565b8311156200091e576001600160a01b0382166000908152600260205260409081902054905163f7f920ad60e01b8152620002f4918591600401918252602082015260400190565b8043106200093f576040516308b9266360e11b815260040160405180910390fd5b6200094c8c8c8c6200115a565b6001546200095e6200055c8e620020c4565b146200097d5760405163723a340360e01b815260040160405180910390fd5b87861415806200098d5750878414155b15620009ac5760405163c1f97e3560e01b815260040160405180910390fd5b62000a2e8c8c8c7f00000000000000000000000000000000000000000000000000000000000000006f0e8e4c2dce6c2c6e8d2dedc84c2e8c6d60831b8e8e8e8e8e8e8e8e8e60405160200162000a0d9b9a99989796959493929190620024ca565b6040516020818303038152906040528051906020012063aaaaaaaa62000f21565b6001600160a01b0382166000908152600260205260408120849055805b8981101562000afa5762000aba89898381811062000a6d5762000a6d620023ed565b905060200201602081019062000a84919062001982565b8c8c8481811062000a995762000a99620023ed565b90506020020135866001600160a01b0316620011b39092919063ffffffff16565b86868281811062000acf5762000acf620023ed565b905060200201358262000ae39190620021e1565b91508062000af18162002403565b91505062000a4b565b5062000b116001600160a01b0384163383620011b3565b5060055462000b22906001620021e1565b60058190556040519081526001600160a01b0383169084907f02c7e81975f8edb86e2a0c038b7b86a49c744236abf0f6177ff5afc6986ab7089060200160405180910390a35050600160005550505050505050505050565b826040013584604001351162000bb3576040805163e0e8edf360e01b8152818601356004820152908401356024820152604401620002f4565b62000bc66040840135620f4240620021e1565b8460400135111562000bfb576040805163e0e8edf360e01b8152818601356004820152908401356024820152604401620002f4565b62000c0a602085018562002548565b905062000c18858062002548565b905014158062000c33575062000c2f848062002548565b1590505b1562000c525760405163c01ba0ab60e01b815260040160405180910390fd5b62000c5f8383836200115a565b6000805b62000c72602087018762002548565b905081101562000cdc5762000c8b602087018762002548565b8281811062000c9e5762000c9e620023ed565b905060200201358262000cb29190620021e1565b915063aaaaaaaa82111562000cc75762000cdc565b8062000cd38162002403565b91505062000c63565b5063aaaaaaaa811162000d0f5760405162bfb6ab60e01b81526004810182905263aaaaaaaa6024820152604401620002f4565b60015462000d216200055c86620020c4565b1462000d405760405163723a340360e01b815260040160405180910390fd5b600062000d516200055c87620020c4565b905062000d668585858463aaaaaaaa62000f21565b60018190556040860135600455600062000d8760a088016080890162001982565b6001600160a01b03161415801562000da25750606086013515155b1562000dd55762000dd533606088013562000dc460a08a0160808b0162001982565b6001600160a01b03169190620011b3565b60055462000de5906001620021e1565b60058190556040870135907f76d08978c024a4bf8cbb30c67fd78fcaa1827cbc533e4e175f36d07e64ccf96a90606089013562000e2960a08b0160808c0162001982565b62000e358b8062002548565b62000e4460208e018e62002548565b60405162000e59979695949392919062002594565b60405180910390a2505050505050565b600030868686868660405162000e7f9062001827565b62000e9096959493929190620025e7565b604051809103906000f08015801562000ead573d6000803e3d6000fd5b509050600554600162000ec19190620021e1565b60058190556040516001600160a01b038316917f82fe3a4fa49c6382d0c085746698ddbbafe6c2bf61285b19410644b5b26287c79162000f0f918c918c918c918c918c918c918c916200263a565b60405180910390a25050505050505050565b6000805b62000f31878062002548565b9050811015620010475785858281811062000f505762000f50620023ed565b62000f68926020606090920201908101915062002697565b60ff1615620010325762000fcd62000f81888062002548565b8381811062000f945762000f94620023ed565b905060200201602081019062000fab919062001982565b8588888581811062000fc15762000fc1620023ed565b90506060020162001230565b62000feb57604051638baa579f60e01b815260040160405180910390fd5b62000ffa602088018862002548565b828181106200100d576200100d620023ed565b9050602002013582620010219190620021e1565b915082821115620010325762001047565b806200103e8162002403565b91505062000f25565b50818111620010735760405162bfb6ab60e01b81526004810182905260248101839052604401620002f4565b505050505050565b6000806918da1958dadc1bda5b9d60b21b60001b90506000838286604001518760000151886020015189606001518a60800151604051602001620010c69796959493929190620026b5565b60408051808303601f19018152919052805160209091012095945050505050565b6040516001600160a01b0380851660248301528316604482015260648101829052620011549085906323b872dd60e01b906084015b60408051601f198184030181529190526020810180516001600160e01b03166001600160e01b031990931692909217909152620012c5565b50505050565b62001169602084018462002548565b905062001177848062002548565b9050141580620011945750806200118f848062002548565b905014155b15620002c95760405163c6617b7b60e01b815260040160405180910390fd5b6040516001600160a01b038316602482015260448101829052620002c990849063a9059cbb60e01b906064016200111c565b60606200122983836040518060400160405280601e81526020017f416464726573733a206c6f772d6c6576656c2063616c6c206661696c656400008152506200139e565b9392505050565b6040517f19457468657265756d205369676e6564204d6573736167653a0a3332000000006020820152603c81018390526000908190605c0160408051601f1981840301815291905280516020918201209150620012a7908290620012979086018662002697565b85602001358660400135620013b7565b6001600160a01b0316856001600160a01b0316149150509392505050565b60006200131c826040518060400160405280602081526020017f5361666545524332303a206c6f772d6c6576656c2063616c6c206661696c6564815250856001600160a01b03166200139e9092919063ffffffff16565b805190915015620002c957808060200190518101906200133d919062002715565b620002c95760405162461bcd60e51b815260206004820152602a60248201527f5361666545524332303a204552433230206f7065726174696f6e20646964206e6044820152691bdd081cdd58d8d9595960b21b6064820152608401620002f4565b6060620013af8484600085620013e3565b949350505050565b6000806000620013ca878787876200151e565b91509150620013d98162001613565b5095945050505050565b606082471015620014465760405162461bcd60e51b815260206004820152602660248201527f416464726573733a20696e73756666696369656e742062616c616e636520666f6044820152651c8818d85b1b60d21b6064820152608401620002f4565b6001600160a01b0385163b6200149f5760405162461bcd60e51b815260206004820152601d60248201527f416464726573733a2063616c6c20746f206e6f6e2d636f6e74726163740000006044820152606401620002f4565b600080866001600160a01b03168587604051620014bd919062002739565b60006040518083038185875af1925050503d8060008114620014fc576040519150601f19603f3d011682016040523d82523d6000602084013e62001501565b606091505b509150915062001513828286620017e9565b979650505050505050565b6000807f7fffffffffffffffffffffffffffffff5d576e7357a4501ddfe92f46681b20a08311156200155757506000905060036200160a565b8460ff16601b141580156200157057508460ff16601c14155b156200158357506000905060046200160a565b6040805160008082526020820180845289905260ff881692820192909252606081018690526080810185905260019060a0016020604051602081039080840390855afa158015620015d8573d6000803e3d6000fd5b5050604051601f1901519150506001600160a01b03811662001603576000600192509250506200160a565b9150600090505b94509492505050565b60008160048111156200162a576200162a62002757565b1415620016345750565b60018160048111156200164b576200164b62002757565b14156200169b5760405162461bcd60e51b815260206004820152601860248201527f45434453413a20696e76616c6964207369676e617475726500000000000000006044820152606401620002f4565b6002816004811115620016b257620016b262002757565b1415620017025760405162461bcd60e51b815260206004820152601f60248201527f45434453413a20696e76616c6964207369676e6174757265206c656e677468006044820152606401620002f4565b600381600481111562001719576200171962002757565b1415620017745760405162461bcd60e51b815260206004820152602260248201527f45434453413a20696e76616c6964207369676e6174757265202773272076616c604482015261756560f01b6064820152608401620002f4565b60048160048111156200178b576200178b62002757565b1415620017e65760405162461bcd60e51b815260206004820152602260248201527f45434453413a20696e76616c6964207369676e6174757265202776272076616c604482015261756560f01b6064820152608401620002f4565b50565b60608315620017fa57508162001229565b8251156200180b5782518084602001fd5b8160405162461bcd60e51b8152600401620002f491906200276d565b610cf8806200278383390190565b600060a082840312156200184857600080fd5b50919050565b60008083601f8401126200186157600080fd5b5081356001600160401b038111156200187957600080fd5b6020830191508360206060830285010111156200189557600080fd5b9250929050565b600080600080600060808688031215620018b557600080fd5b85356001600160401b0380821115620018cd57600080fd5b620018db89838a0162001835565b96506020880135915080821115620018f257600080fd5b5062001901888289016200184e565b9699909850959660408101359660609091013595509350505050565b600080604083850312156200193157600080fd5b82356001600160401b038111156200194857600080fd5b620019568582860162001835565b95602094909401359450505050565b80356001600160a01b03811681146200197d57600080fd5b919050565b6000602082840312156200199557600080fd5b620012298262001965565b60008083601f840112620019b357600080fd5b5081356001600160401b03811115620019cb57600080fd5b6020830191508360208285010111156200189557600080fd5b60008060008060608587031215620019fb57600080fd5b62001a068562001965565b935060208501356001600160401b0381111562001a2257600080fd5b62001a3087828801620019a0565b9598909750949560400135949350505050565b634e487b7160e01b600052604160045260246000fd5b60405161012081016001600160401b038111828210171562001a7f5762001a7f62001a43565b60405290565b604051601f8201601f191681016001600160401b038111828210171562001ab05762001ab062001a43565b604052919050565b60006001600160401b0382111562001ad45762001ad462001a43565b5060051b60200190565b600082601f83011262001af057600080fd5b8135602062001b0962001b038362001ab8565b62001a85565b82815260059290921b8401810191818101908684111562001b2957600080fd5b8286015b8481101562001b46578035835291830191830162001b2d565b509695505050505050565b600082601f83011262001b6357600080fd5b8135602062001b7662001b038362001ab8565b82815260059290921b8401810191818101908684111562001b9657600080fd5b8286015b8481101562001b465762001bae8162001965565b835291830191830162001b9a565b600082601f83011262001bce57600080fd5b81356001600160401b0381111562001bea5762001bea62001a43565b62001bff601f8201601f191660200162001a85565b81815284602083860101111562001c1557600080fd5b816020850160208301376000918101602001919091529392505050565b6000806000806060858703121562001c4957600080fd5b84356001600160401b038082111562001c6157600080fd5b62001c6f8883890162001835565b9550602087013591508082111562001c8657600080fd5b62001c94888389016200184e565b9095509350604087013591508082111562001cae57600080fd5b90860190610120828903121562001cc457600080fd5b62001cce62001a59565b82358281111562001cde57600080fd5b62001cec8a82860162001ade565b82525060208301358281111562001d0257600080fd5b62001d108a82860162001b51565b60208301525060408301358281111562001d2957600080fd5b62001d378a82860162001ade565b60408301525060608301358281111562001d5057600080fd5b62001d5e8a82860162001b51565b60608301525062001d726080840162001965565b608082015260a08301358281111562001d8a57600080fd5b62001d988a82860162001bbc565b60a08301525060c083013560c082015260e083013560e08201526101009150818301358282015280935050505092959194509250565b60006020828403121562001de157600080fd5b5035919050565b60008083601f84011262001dfb57600080fd5b5081356001600160401b0381111562001e1357600080fd5b6020830191508360208260051b85010111156200189557600080fd5b6000806000806000806000806000806000806101008d8f03121562001e5357600080fd5b6001600160401b038d35111562001e6957600080fd5b62001e788e8e358f0162001835565b9b506001600160401b0360208e0135111562001e9357600080fd5b62001ea58e60208f01358f016200184e565b909b5099506001600160401b0360408e0135111562001ec357600080fd5b62001ed58e60408f01358f0162001de8565b90995097506001600160401b0360608e0135111562001ef357600080fd5b62001f058e60608f01358f0162001de8565b90975095506001600160401b0360808e0135111562001f2357600080fd5b62001f358e60808f01358f0162001de8565b909550935060a08d0135925062001f4f60c08e0162001965565b915060e08d013590509295989b509295989b509295989b565b6000806000806060858703121562001f7f57600080fd5b84356001600160401b038082111562001f9757600080fd5b62001fa58883890162001835565b9550602087013591508082111562001fbc57600080fd5b62001fca8883890162001835565b9450604087013591508082111562001fe157600080fd5b5062001ff0878288016200184e565b95989497509550505050565b803560ff811681146200197d57600080fd5b60008060008060008060006080888a0312156200202a57600080fd5b87356001600160401b03808211156200204257600080fd5b620020508b838c01620019a0565b909950975060208a01359150808211156200206a57600080fd5b620020788b838c01620019a0565b909750955060408a01359150808211156200209257600080fd5b50620020a18a828b01620019a0565b9094509250620020b690506060890162001ffc565b905092959891949750929550565b600060a08236031215620020d757600080fd5b60405160a081016001600160401b038282108183111715620020fd57620020fd62001a43565b8160405284359150808211156200211357600080fd5b620021213683870162001b51565b835260208501359150808211156200213857600080fd5b50620021473682860162001ade565b60208301525060408301356040820152606083013560608201526200216f6080840162001965565b608082015292915050565b6020808252601f908201527f5265656e7472616e637947756172643a207265656e7472616e742063616c6c00604082015260600190565b600060208284031215620021c457600080fd5b5051919050565b634e487b7160e01b600052601160045260246000fd5b60008219821115620021f757620021f7620021cb565b500190565b600082821015620022115762002211620021cb565b500390565b81835281816020850137506000828201602090810191909152601f909101601f19169091010190565b6060815260006200225560608301868862002216565b6020830194909452506040015292915050565b600081518084526020808501945080840160005b838110156200229a578151875295820195908201906001016200227c565b509495945050505050565b600081518084526020808501945080840160005b838110156200229a5781516001600160a01b031687529582019590820190600101620022b9565b60005b83811015620022fd578181015183820152602001620022e3565b83811115620011545750506000910152565b6000815180845262002329816020860160208601620022e0565b601f01601f19169290920160200192915050565b60006101608d83528c60208401528060408401526200235f8184018d62002268565b9050828103606084015262002375818c620022a5565b905082810360808401526200238b818b62002268565b905082810360a0840152620023a1818a620022a5565b6001600160a01b03891660c085015283810360e08501529050620023c681886200230f565b61010084019690965250506101208101929092526101409091015298975050505050505050565b634e487b7160e01b600052603260045260246000fd5b60006000198214156200241a576200241a620021cb565b5060010190565b8481528360208201526080604082015260006200244260808301856200230f565b905082606083015295945050505050565b81835260006001600160fb1b038311156200246d57600080fd5b8260051b8083602087013760009401602001938452509192915050565b8183526000602080850194508260005b858110156200229a576001600160a01b03620024b68362001965565b16875295820195908201906001016200249a565b60006101008d83528c6020840152806040840152620024ed8184018c8e62002453565b9050828103606084015262002504818a8c6200248a565b905082810360808401526200251b81888a62002453565b60a084019690965250506001600160a01b039290921660c083015260e09091015298975050505050505050565b6000808335601e198436030181126200256057600080fd5b8301803591506001600160401b038211156200257b57600080fd5b6020019150600581901b36038213156200189557600080fd5b87815286602082015260018060a01b038616604082015260a060608201526000620025c460a0830186886200248a565b8281036080840152620025d981858762002453565b9a9950505050505050505050565b6001600160a01b03871681526080602082018190526000906200260e908301878962002216565b82810360408401526200262381868862002216565b91505060ff83166060830152979650505050505050565b60a0815260006200265060a083018a8c62002216565b82810360208401526200266581898b62002216565b905082810360408401526200267c81878962002216565b60ff9590951660608401525050608001529695505050505050565b600060208284031215620026aa57600080fd5b620012298262001ffc565b87815286602082015285604082015260e060608201526000620026dc60e0830187620022a5565b8281036080840152620026f0818762002268565b60a084019590955250506001600160a01b039190911660c09091015295945050505050565b6000602082840312156200272857600080fd5b815180151581146200122957600080fd5b600082516200274d818460208701620022e0565b9190910192915050565b634e487b7160e01b600052602160045260246000fd5b6020815260006200122960208301846200230f56fe60806040523480156200001157600080fd5b5060405162000cf838038062000cf88339810160408190526200003491620002ff565b8251839083906200004d9060039060208501906200018c565b508051620000639060049060208401906200018c565b5050600580546001600160a01b038716610100026001600160a81b031990911660ff851617179055506200009a84600019620000a4565b5050505062000407565b6001600160a01b038216620000ff5760405162461bcd60e51b815260206004820152601f60248201527f45524332303a206d696e7420746f20746865207a65726f206164647265737300604482015260640160405180910390fd5b8060026000828254620001139190620003a3565b90915550506001600160a01b0382166000908152602081905260408120805483929062000142908490620003a3565b90915550506040518181526001600160a01b038316906000907fddf252ad1be2c89b69c2b068fc378daa952ba7f163c4a11628f55a4df523b3ef9060200160405180910390a35050565b8280546200019a90620003ca565b90600052602060002090601f016020900481019282620001be576000855562000209565b82601f10620001d957805160ff191683800117855562000209565b8280016001018555821562000209579182015b8281111562000209578251825591602001919060010190620001ec565b50620002179291506200021b565b5090565b5b808211156200021757600081556001016200021c565b634e487b7160e01b600052604160045260246000fd5b600082601f8301126200025a57600080fd5b81516001600160401b038082111562000277576200027762000232565b604051601f8301601f19908116603f01168101908282118183101715620002a257620002a262000232565b81604052838152602092508683858801011115620002bf57600080fd5b600091505b83821015620002e35785820183015181830184015290820190620002c4565b83821115620002f55760008385830101525b9695505050505050565b600080600080608085870312156200031657600080fd5b84516001600160a01b03811681146200032e57600080fd5b60208601519094506001600160401b03808211156200034c57600080fd5b6200035a8883890162000248565b945060408701519150808211156200037157600080fd5b50620003808782880162000248565b925050606085015160ff811681146200039857600080fd5b939692955090935050565b60008219821115620003c557634e487b7160e01b600052601160045260246000fd5b500190565b600181811c90821680620003df57607f821691505b602082108114156200040157634e487b7160e01b600052602260045260246000fd5b50919050565b6108e180620004176000396000f3fe608060405234801561001057600080fd5b50600436106100a95760003560e01c80633950935111610071578063395093511461012d57806370a082311461014057806395d89b4114610169578063a457c2d714610171578063a9059cbb14610184578063dd62ed3e1461019757600080fd5b806306fdde03146100ae578063095ea7b3146100cc57806318160ddd146100ef57806323b872dd14610105578063313ce56714610118575b600080fd5b6100b66101aa565b6040516100c391906106ff565b60405180910390f35b6100df6100da366004610770565b61023c565b60405190151581526020016100c3565b6100f7610254565b6040519081526020016100c3565b6100df61011336600461079a565b610285565b60055460405160ff90911681526020016100c3565b6100df61013b366004610770565b6102a9565b6100f761014e3660046107d6565b6001600160a01b031660009081526020819052604090205490565b6100b66102cb565b6100df61017f366004610770565b6102da565b6100df610192366004610770565b61035a565b6100f76101a53660046107f8565b610368565b6060600380546101b99061082b565b80601f01602080910402602001604051908101604052809291908181526020018280546101e59061082b565b80156102325780601f1061020757610100808354040283529160200191610232565b820191906000526020600020905b81548152906001019060200180831161021557829003601f168201915b5050505050905090565b60003361024a818585610393565b5060019392505050565b60055461010090046001600160a01b03166000908152602081905260408120546102809060001961087c565b905090565b6000336102938582856104b7565b61029e858585610531565b506001949350505050565b60003361024a8185856102bc8383610368565b6102c69190610893565b610393565b6060600480546101b99061082b565b600033816102e88286610368565b90508381101561034d5760405162461bcd60e51b815260206004820152602560248201527f45524332303a2064656372656173656420616c6c6f77616e63652062656c6f77604482015264207a65726f60d81b60648201526084015b60405180910390fd5b61029e8286868403610393565b60003361024a818585610531565b6001600160a01b03918216600090815260016020908152604080832093909416825291909152205490565b6001600160a01b0383166103f55760405162461bcd60e51b8152602060048201526024808201527f45524332303a20617070726f76652066726f6d20746865207a65726f206164646044820152637265737360e01b6064820152608401610344565b6001600160a01b0382166104565760405162461bcd60e51b815260206004820152602260248201527f45524332303a20617070726f766520746f20746865207a65726f206164647265604482015261737360f01b6064820152608401610344565b6001600160a01b0383811660008181526001602090815260408083209487168084529482529182902085905590518481527f8c5be1e5ebec7d5bd14f71427d1e84f3dd0314c0f7b2291e5b200ac8c7c3b925910160405180910390a3505050565b60006104c38484610368565b9050600019811461052b578181101561051e5760405162461bcd60e51b815260206004820152601d60248201527f45524332303a20696e73756666696369656e7420616c6c6f77616e63650000006044820152606401610344565b61052b8484848403610393565b50505050565b6001600160a01b0383166105955760405162461bcd60e51b815260206004820152602560248201527f45524332303a207472616e736665722066726f6d20746865207a65726f206164604482015264647265737360d81b6064820152608401610344565b6001600160a01b0382166105f75760405162461bcd60e51b815260206004820152602360248201527f45524332303a207472616e7366657220746f20746865207a65726f206164647260448201526265737360e81b6064820152608401610344565b6001600160a01b0383166000908152602081905260409020548181101561066f5760405162461bcd60e51b815260206004820152602660248201527f45524332303a207472616e7366657220616d6f756e7420657863656564732062604482015265616c616e636560d01b6064820152608401610344565b6001600160a01b038085166000908152602081905260408082208585039055918516815290812080548492906106a6908490610893565b92505081905550826001600160a01b0316846001600160a01b03167fddf252ad1be2c89b69c2b068fc378daa952ba7f163c4a11628f55a4df523b3ef846040516106f291815260200190565b60405180910390a361052b565b600060208083528351808285015260005b8181101561072c57858101830151858201604001528201610710565b8181111561073e576000604083870101525b50601f01601f1916929092016040019392505050565b80356001600160a01b038116811461076b57600080fd5b919050565b6000806040838503121561078357600080fd5b61078c83610754565b946020939093013593505050565b6000806000606084860312156107af57600080fd5b6107b884610754565b92506107c660208501610754565b9150604084013590509250925092565b6000602082840312156107e857600080fd5b6107f182610754565b9392505050565b6000806040838503121561080b57600080fd5b61081483610754565b915061082260208401610754565b90509250929050565b600181811c9082168061083f57607f821691505b6020821081141561086057634e487b7160e01b600052602260045260246000fd5b50919050565b634e487b7160e01b600052601160045260246000fd5b60008282101561088e5761088e610866565b500390565b600082198211156108a6576108a6610866565b50019056fea2646970667358221220ebe8422e06e713468448a9eb223d0a077c0f076f424f227e6f599427e6ca794664736f6c634300080a0033a2646970667358221220f63d94b34f6460fd1e7f7c3e65fd5c19294ed05ba18d171a4a9eca2a4a3a2a7164736f6c634300080a0033",
  "immutableReferences": {
    "13692": [
      {
        "length": 32,
        "start": 532
      },
      {
        "length": 32,
        "start": 1374
      },
      {
        "length": 32,
        "start": 1529
      },
      {
        "length": 32,
        "start": 2485
      }
    ]
  },
  "source": "//SPDX-License-Identifier: Apache-2.0\r\npragma solidity ^0.8.10;\r\n\r\nimport \"@openzeppelin/contracts/token/ERC20/IERC20.sol\";\r\nimport \"@openzeppelin/contracts/token/ERC20/utils/SafeERC20.sol\";\r\nimport \"@openzeppelin/contracts/security/ReentrancyGuard.sol\";\r\nimport \"@openzeppelin/contracts/utils/Address.sol\";\r\nimport \"@openzeppelin/contracts/utils/cryptography/ECDSA.sol\";\r\nimport \"./cosmosToken.sol\";\r\n\r\n    error InvalidSignature();\r\n    error InvalidValsetNonce(uint256 newNonce, uint256 currentNonce);\r\n    error InvalidBatchNonce(uint256 newNonce, uint256 currentNonce);\r\n    error InvalidLogicCallNonce(uint256 newNonce, uint256 currentNonce);\r\n    error InvalidLogicCallTransfers();\r\n    error InvalidLogicCallFees();\r\n    error InvalidSendToCosmos();\r\n    error IncorrectCheckpoint();\r\n    error MalformedNewValidatorSet();\r\n    error MalformedCurrentValidatorSet();\r\n    error MalformedBatch();\r\n    error InsufficientPower(uint256 cumulativePower, uint256 powerThreshold);\r\n    error BatchTimedOut();\r\n    error LogicCallTimedOut();\r\n\r\n// This is being used purely to avoid stack too deep errors\r\n    struct LogicCallArgs {\r\n        // Transfers out to the logic contract\r\n        uint256[] transferAmounts;\r\n        address[] transferTokenContracts;\r\n        // The fees (transferred to msg.sender)\r\n        uint256[] feeAmounts;\r\n        address[] feeTokenContracts;\r\n        // The arbitrary logic call\r\n        address logicContractAddress;\r\n        bytes payload;\r\n        // Invalidation metadata\r\n        uint256 timeOut;\r\n        bytes32 invalidationId;\r\n        uint256 invalidationNonce;\r\n    }\r\n\r\n// This is used purely to avoid stack too deep errors\r\n// represents everything about a given validator set\r\n    struct ValsetArgs {\r\n        // the validators in this set, represented by an Ethereum address\r\n        address[] validators;\r\n        // the powers of the given validators in the same order as above\r\n        uint256[] powers;\r\n        // the nonce of this validator set\r\n        uint256 valsetNonce;\r\n        // the reward amount denominated in the below reward token, can be\r\n        // set to zero\r\n        uint256 rewardAmount;\r\n        // the reward token, should be set to the zero address if not being used\r\n        address rewardToken;\r\n    }\r\n\r\n// This represents a validator signature\r\n    struct Signature {\r\n        uint8 v;\r\n        bytes32 r;\r\n        bytes32 s;\r\n    }\r\n\r\ncontract Gravity is ReentrancyGuard {\r\n    using SafeERC20 for IERC20;\r\n\r\n    // The number of 'votes' required to execute a valset\r\n    // update or batch execution, set to 2/3 of 2^32\r\n    uint256 constant constant_powerThreshold = 2863311530;\r\n\r\n    // These are updated often\r\n    bytes32 public state_lastValsetCheckpoint;\r\n    mapping(address => uint256) public state_lastBatchNonces;\r\n    mapping(bytes32 => uint256) public state_invalidationMapping;\r\n    uint256 public state_lastValsetNonce = 0;\r\n    // event nonce zero is reserved by the Cosmos module as a special\r\n    // value indicating that no events have yet been submitted\r\n    uint256 public state_lastEventNonce = 1;\r\n\r\n    // This is set once at initialization\r\n    bytes32 public immutable state_gravityId;\r\n\r\n    // TransactionBatchExecutedEvent and SendToCosmosEvent both include the field _eventNonce.\r\n    // This is incremented every time one of these events is emitted. It is checked by the\r\n    // Cosmos module to ensure that all events are received in order, and that none are lost.\r\n    //\r\n    // ValsetUpdatedEvent does not include the field _eventNonce because it is never submitted to the Cosmos\r\n    // module. It is purely for the use of relayers to allow them to successfully submit batches.\r\n    event TransactionBatchExecutedEvent(\r\n        uint256 indexed _batchNonce,\r\n        address indexed _token,\r\n        uint256 _eventNonce\r\n    );\r\n    event SendToCosmosEvent(\r\n        address indexed _tokenContract,\r\n        address indexed _sender,\r\n        string _destination,\r\n        uint256 _amount,\r\n        uint256 _eventNonce\r\n    );\r\n    event ERC20DeployedEvent(\r\n    // FYI: Can't index on a string without doing a bunch of weird stuff\r\n        string _cosmosDenom,\r\n        address indexed _tokenContract,\r\n        string _name,\r\n        string _symbol,\r\n        uint8 _decimals,\r\n        uint256 _eventNonce\r\n    );\r\n    event ValsetUpdatedEvent(\r\n        uint256 indexed _newValsetNonce,\r\n        uint256 _eventNonce,\r\n        uint256 _rewardAmount,\r\n        address _rewardToken,\r\n        address[] _validators,\r\n        uint256[] _powers\r\n    );\r\n    event LogicCallEvent(\r\n        bytes32 _invalidationId,\r\n        uint256 _invalidationNonce,\r\n        bytes _returnData,\r\n        uint256 _eventNonce\r\n    );\r\n\r\n    // TEST FIXTURES\r\n    // These are here to make it easier to measure gas usage. They should be removed before production\r\n    function testMakeCheckpoint(ValsetArgs calldata _valsetArgs, bytes32 _gravityId) external pure {\r\n        makeCheckpoint(_valsetArgs, _gravityId);\r\n    }\r\n\r\n    function testCheckValidatorSignatures(\r\n        ValsetArgs calldata _currentValset,\r\n        Signature[] calldata _sigs,\r\n        bytes32 _theHash,\r\n        uint256 _powerThreshold\r\n    ) external pure {\r\n        checkValidatorSignatures(_currentValset, _sigs, _theHash, _powerThreshold);\r\n    }\r\n\r\n    // END TEST FIXTURES\r\n\r\n    function lastBatchNonce(address _erc20Address) external view returns (uint256) {\r\n        return state_lastBatchNonces[_erc20Address];\r\n    }\r\n\r\n    function lastLogicCallNonce(bytes32 _invalidation_id) external view returns (uint256) {\r\n        return state_invalidationMapping[_invalidation_id];\r\n    }\r\n\r\n    // Utility function to verify geth style signatures\r\n    function verifySig(\r\n        address _signer,\r\n        bytes32 _theHash,\r\n        Signature calldata _sig\r\n    ) private pure returns (bool) {\r\n        bytes32 messageDigest = keccak256(\r\n            abi.encodePacked(\"\\x19Ethereum Signed Message:\\n32\", _theHash)\r\n        );\r\n        return _signer == ECDSA.recover(messageDigest, _sig.v, _sig.r, _sig.s);\r\n    }\r\n\r\n    // Utility function to determine that a validator set and signatures are well formed\r\n    function validateValset(ValsetArgs calldata _valset, Signature[] calldata _sigs) private pure {\r\n        // Check that current validators, powers, and signatures (v,r,s) set is well-formed\r\n        if (\r\n            _valset.validators.length != _valset.powers.length ||\r\n            _valset.validators.length != _sigs.length\r\n        ) {\r\n            revert MalformedCurrentValidatorSet();\r\n        }\r\n    }\r\n\r\n    // Make a new checkpoint from the supplied validator set\r\n    // A checkpoint is a hash of all relevant information about the valset. This is stored by the contract,\r\n    // instead of storing the information directly. This saves on storage and gas.\r\n    // The format of the checkpoint is:\r\n    // h(gravityId, \"checkpoint\", valsetNonce, validators[], powers[])\r\n    // Where h is the keccak256 hash function.\r\n    // The validator powers must be decreasing or equal. This is important for checking the signatures on the\r\n    // next valset, since it allows the caller to stop verifying signatures once a quorum of signatures have been verified.\r\n    function makeCheckpoint(ValsetArgs memory _valsetArgs, bytes32 _gravityId)\r\n    private\r\n    pure\r\n    returns (bytes32)\r\n    {\r\n        // bytes32 encoding of the string \"checkpoint\"\r\n        bytes32 methodName = 0x636865636b706f696e7400000000000000000000000000000000000000000000;\r\n\r\n        bytes32 checkpoint = keccak256(\r\n            abi.encode(\r\n                _gravityId,\r\n                methodName,\r\n                _valsetArgs.valsetNonce,\r\n                _valsetArgs.validators,\r\n                _valsetArgs.powers,\r\n                _valsetArgs.rewardAmount,\r\n                _valsetArgs.rewardToken\r\n            )\r\n        );\r\n\r\n        return checkpoint;\r\n    }\r\n\r\n    function checkValidatorSignatures(\r\n    // The current validator set and their powers\r\n        ValsetArgs calldata _currentValset,\r\n    // The current validator's signatures\r\n        Signature[] calldata _sigs,\r\n    // This is what we are checking they have signed\r\n        bytes32 _theHash,\r\n        uint256 _powerThreshold\r\n    ) private pure {\r\n        uint256 cumulativePower = 0;\r\n\r\n        for (uint256 i = 0; i < _currentValset.validators.length; i++) {\r\n            // If v is set to 0, this signifies that it was not possible to get a signature from this validator and we skip evaluation\r\n            // (In a valid signature, it is either 27 or 28)\r\n            if (_sigs[i].v != 0) {\r\n                // Check that the current validator has signed off on the hash\r\n                if (!verifySig(_currentValset.validators[i], _theHash, _sigs[i])) {\r\n                    revert InvalidSignature();\r\n                }\r\n\r\n                // Sum up cumulative power\r\n                cumulativePower = cumulativePower + _currentValset.powers[i];\r\n\r\n                // Break early to avoid wasting gas\r\n                if (cumulativePower > _powerThreshold) {\r\n                    break;\r\n                }\r\n            }\r\n        }\r\n\r\n        // Check that there was enough power\r\n        if (cumulativePower <= _powerThreshold) {\r\n            revert InsufficientPower(cumulativePower, _powerThreshold);\r\n        }\r\n        // Success\r\n    }\r\n\r\n    // This updates the valset by checking that the validators in the current valset have signed off on the\r\n    // new valset. The signatures supplied are the signatures of the current valset over the checkpoint hash\r\n    // generated from the new valset.\r\n    // Anyone can call this function, but they must supply valid signatures of constant_powerThreshold of the current valset over\r\n    // the new valset.\r\n    function updateValset(\r\n    // The new version of the validator set\r\n        ValsetArgs calldata _newValset,\r\n    // The current validators that approve the change\r\n        ValsetArgs calldata _currentValset,\r\n    // These are arrays of the parts of the current validator's signatures\r\n        Signature[] calldata _sigs\r\n    ) external {\r\n        // CHECKS\r\n\r\n        // Check that the valset nonce is greater than the old one\r\n        if (_newValset.valsetNonce <= _currentValset.valsetNonce) {\r\n            revert InvalidValsetNonce({\r\n            newNonce: _newValset.valsetNonce,\r\n            currentNonce: _currentValset.valsetNonce\r\n            });\r\n        }\r\n\r\n        // Check that the valset nonce is less than a million nonces forward from the old one\r\n        // this makes it difficult for an attacker to lock out the contract by getting a single\r\n        // bad validator set through with uint256 max nonce\r\n        if (_newValset.valsetNonce > _currentValset.valsetNonce + 1000000) {\r\n            revert InvalidValsetNonce({\r\n            newNonce: _newValset.valsetNonce,\r\n            currentNonce: _currentValset.valsetNonce\r\n            });\r\n        }\r\n\r\n        // Check that new validators and powers set is well-formed\r\n        if (\r\n            _newValset.validators.length != _newValset.powers.length ||\r\n            _newValset.validators.length == 0\r\n        ) {\r\n            revert MalformedNewValidatorSet();\r\n        }\r\n\r\n        // Check that current validators, powers, and signatures (v,r,s) set is well-formed\r\n        validateValset(_currentValset, _sigs);\r\n\r\n        // Check cumulative power to ensure the contract has sufficient power to actually\r\n        // pass a vote\r\n        uint256 cumulativePower = 0;\r\n        for (uint256 i = 0; i < _newValset.powers.length; i++) {\r\n            cumulativePower = cumulativePower + _newValset.powers[i];\r\n            if (cumulativePower > constant_powerThreshold) {\r\n                break;\r\n            }\r\n        }\r\n        if (cumulativePower <= constant_powerThreshold) {\r\n            revert InsufficientPower({\r\n            cumulativePower: cumulativePower,\r\n            powerThreshold: constant_powerThreshold\r\n            });\r\n        }\r\n\r\n        // Check that the supplied current validator set matches the saved checkpoint\r\n        if (makeCheckpoint(_currentValset, state_gravityId) != state_lastValsetCheckpoint) {\r\n            revert IncorrectCheckpoint();\r\n        }\r\n\r\n        // Check that enough current validators have signed off on the new validator set\r\n        bytes32 newCheckpoint = makeCheckpoint(_newValset, state_gravityId);\r\n\r\n        checkValidatorSignatures(_currentValset, _sigs, newCheckpoint, constant_powerThreshold);\r\n\r\n        // ACTIONS\r\n\r\n        // Stored to be used next time to validate that the valset\r\n        // supplied by the caller is correct.\r\n        state_lastValsetCheckpoint = newCheckpoint;\r\n\r\n        // Store new nonce\r\n        state_lastValsetNonce = _newValset.valsetNonce;\r\n\r\n        // Send submission reward to msg.sender if reward token is a valid value\r\n        if (_newValset.rewardToken != address(0) && _newValset.rewardAmount != 0) {\r\n            IERC20(_newValset.rewardToken).safeTransfer(msg.sender, _newValset.rewardAmount);\r\n        }\r\n\r\n        // LOGS\r\n\r\n        state_lastEventNonce = state_lastEventNonce + 1;\r\n        emit ValsetUpdatedEvent(\r\n            _newValset.valsetNonce,\r\n            state_lastEventNonce,\r\n            _newValset.rewardAmount,\r\n            _newValset.rewardToken,\r\n            _newValset.validators,\r\n            _newValset.powers\r\n        );\r\n    }\r\n\r\n    // submitBatch processes a batch of Cosmos -> Ethereum transactions by sending the tokens in the transactions\r\n    // to the destination addresses. It is approved by the current Cosmos validator set.\r\n    // Anyone can call this function, but they must supply valid signatures of constant_powerThreshold of the current valset over\r\n    // the batch.\r\n    function submitBatch(\r\n    // The validators that approve the batch\r\n        ValsetArgs calldata _currentValset,\r\n    // These are arrays of the parts of the validators signatures\r\n        Signature[] calldata _sigs,\r\n    // The batch of transactions\r\n        uint256[] calldata _amounts,\r\n        address[] calldata _destinations,\r\n        uint256[] calldata _fees,\r\n        uint256 _batchNonce,\r\n        address _tokenContract,\r\n    // a block height beyond which this batch is not valid\r\n    // used to provide a fee-free timeout\r\n        uint256 _batchTimeout\r\n    ) external nonReentrant {\r\n        // CHECKS scoped to reduce stack depth\r\n        {\r\n            // Check that the batch nonce is higher than the last nonce for this token\r\n            if (_batchNonce <= state_lastBatchNonces[_tokenContract]) {\r\n                revert InvalidBatchNonce({\r\n                newNonce: _batchNonce,\r\n                currentNonce: state_lastBatchNonces[_tokenContract]\r\n                });\r\n            }\r\n\r\n            // Check that the batch nonce is less than one million nonces forward from the old one\r\n            // this makes it difficult for an attacker to lock out the contract by getting a single\r\n            // bad batch through with uint256 max nonce\r\n            if (_batchNonce > state_lastBatchNonces[_tokenContract] + 1000000) {\r\n                revert InvalidBatchNonce({\r\n                newNonce: _batchNonce,\r\n                currentNonce: state_lastBatchNonces[_tokenContract]\r\n                });\r\n            }\r\n\r\n            // Check that the block height is less than the timeout height\r\n            if (block.number >= _batchTimeout) {\r\n                revert BatchTimedOut();\r\n            }\r\n\r\n            // Check that current validators, powers, and signatures (v,r,s) set is well-formed\r\n            validateValset(_currentValset, _sigs);\r\n\r\n            // Check that the supplied current validator set matches the saved checkpoint\r\n            if (makeCheckpoint(_currentValset, state_gravityId) != state_lastValsetCheckpoint) {\r\n                revert IncorrectCheckpoint();\r\n            }\r\n\r\n            // Check that the transaction batch is well-formed\r\n            if (_amounts.length != _destinations.length || _amounts.length != _fees.length) {\r\n                revert MalformedBatch();\r\n            }\r\n\r\n            // Check that enough current validators have signed off on the transaction batch and valset\r\n            checkValidatorSignatures(\r\n                _currentValset,\r\n                _sigs,\r\n            // Get hash of the transaction batch and checkpoint\r\n                keccak256(\r\n                    abi.encode(\r\n                        state_gravityId,\r\n                    // bytes32 encoding of \"transactionBatch\"\r\n                        0x7472616e73616374696f6e426174636800000000000000000000000000000000,\r\n                        _amounts,\r\n                        _destinations,\r\n                        _fees,\r\n                        _batchNonce,\r\n                        _tokenContract,\r\n                        _batchTimeout\r\n                    )\r\n                ),\r\n                constant_powerThreshold\r\n            );\r\n\r\n            // ACTIONS\r\n\r\n            // Store batch nonce\r\n            state_lastBatchNonces[_tokenContract] = _batchNonce;\r\n\r\n            {\r\n                // Send transaction amounts to destinations\r\n                uint256 totalFee;\r\n                for (uint256 i = 0; i < _amounts.length; i++) {\r\n                    IERC20(_tokenContract).safeTransfer(_destinations[i], _amounts[i]);\r\n                    totalFee = totalFee + _fees[i];\r\n                }\r\n\r\n                // Send transaction fees to msg.sender\r\n                IERC20(_tokenContract).safeTransfer(msg.sender, totalFee);\r\n            }\r\n        }\r\n\r\n        // LOGS scoped to reduce stack depth\r\n        {\r\n            state_lastEventNonce = state_lastEventNonce + 1;\r\n            emit TransactionBatchExecutedEvent(_batchNonce, _tokenContract, state_lastEventNonce);\r\n        }\r\n    }\r\n\r\n    // This makes calls to contracts that execute arbitrary logic\r\n    // First, it gives the logic contract some tokens\r\n    // Then, it gives msg.senders tokens for fees\r\n    // Then, it calls an arbitrary function on the logic contract\r\n    // invalidationId and invalidationNonce are used for replay prevention.\r\n    // They can be used to implement a per-token nonce by setting the token\r\n    // address as the invalidationId and incrementing the nonce each call.\r\n    // They can be used for nonce-free replay prevention by using a different invalidationId\r\n    // for each call.\r\n    function submitLogicCall(\r\n    // The validators that approve the call\r\n        ValsetArgs calldata _currentValset,\r\n    // These are arrays of the parts of the validators signatures\r\n        Signature[] calldata _sigs,\r\n        LogicCallArgs memory _args\r\n    ) external nonReentrant {\r\n        // CHECKS scoped to reduce stack depth\r\n        {\r\n            // Check that the call has not timed out\r\n            if (block.number >= _args.timeOut) {\r\n                revert LogicCallTimedOut();\r\n            }\r\n\r\n            // Check that the invalidation nonce is higher than the last nonce for this invalidation Id\r\n            if (state_invalidationMapping[_args.invalidationId] >= _args.invalidationNonce) {\r\n                revert InvalidLogicCallNonce({\r\n                newNonce: _args.invalidationNonce,\r\n                currentNonce: state_invalidationMapping[_args.invalidationId]\r\n                });\r\n            }\r\n\r\n            // note the lack of nonce skipping check, it's not needed here since an attacker\r\n            // will never be able to fill the invalidationId space, therefore a nonce lockout\r\n            // is simply not possible\r\n\r\n            // Check that current validators, powers, and signatures (v,r,s) set is well-formed\r\n            validateValset(_currentValset, _sigs);\r\n\r\n            // Check that the supplied current validator set matches the saved checkpoint\r\n            if (makeCheckpoint(_currentValset, state_gravityId) != state_lastValsetCheckpoint) {\r\n                revert IncorrectCheckpoint();\r\n            }\r\n\r\n            if (_args.transferAmounts.length != _args.transferTokenContracts.length) {\r\n                revert InvalidLogicCallTransfers();\r\n            }\r\n\r\n            if (_args.feeAmounts.length != _args.feeTokenContracts.length) {\r\n                revert InvalidLogicCallFees();\r\n            }\r\n        }\r\n        {\r\n            bytes32 argsHash = keccak256(\r\n                abi.encode(\r\n                    state_gravityId,\r\n                // bytes32 encoding of \"logicCall\"\r\n                    0x6c6f67696343616c6c0000000000000000000000000000000000000000000000,\r\n                    _args.transferAmounts,\r\n                    _args.transferTokenContracts,\r\n                    _args.feeAmounts,\r\n                    _args.feeTokenContracts,\r\n                    _args.logicContractAddress,\r\n                    _args.payload,\r\n                    _args.timeOut,\r\n                    _args.invalidationId,\r\n                    _args.invalidationNonce\r\n                )\r\n            );\r\n\r\n            // Check that enough current validators have signed off on the transaction batch and valset\r\n            checkValidatorSignatures(\r\n                _currentValset,\r\n                _sigs,\r\n            // Get hash of the transaction batch and checkpoint\r\n                argsHash,\r\n                constant_powerThreshold\r\n            );\r\n        }\r\n\r\n        // ACTIONS\r\n\r\n        // Update invaldiation nonce\r\n        state_invalidationMapping[_args.invalidationId] = _args.invalidationNonce;\r\n\r\n        // Send tokens to the logic contract\r\n        for (uint256 i = 0; i < _args.transferAmounts.length; i++) {\r\n            IERC20(_args.transferTokenContracts[i]).safeTransfer(\r\n                _args.logicContractAddress,\r\n                _args.transferAmounts[i]\r\n            );\r\n        }\r\n\r\n        // Make call to logic contract\r\n        bytes memory returnData = Address.functionCall(_args.logicContractAddress, _args.payload);\r\n\r\n        // Send fees to msg.sender\r\n        for (uint256 i = 0; i < _args.feeAmounts.length; i++) {\r\n            IERC20(_args.feeTokenContracts[i]).safeTransfer(msg.sender, _args.feeAmounts[i]);\r\n        }\r\n\r\n        // LOGS scoped to reduce stack depth\r\n        {\r\n            state_lastEventNonce = state_lastEventNonce + 1;\r\n            emit LogicCallEvent(\r\n                _args.invalidationId,\r\n                _args.invalidationNonce,\r\n                returnData,\r\n                state_lastEventNonce\r\n            );\r\n        }\r\n    }\r\n\r\n    function sendToCosmos(\r\n        address _tokenContract,\r\n        string calldata _destination,\r\n        uint256 _amount\r\n    ) external nonReentrant {\r\n        // we snapshot our current balance of this token\r\n        uint256 ourStartingBalance = IERC20(_tokenContract).balanceOf(address(this));\r\n\r\n        // attempt to transfer the user specified amount\r\n        IERC20(_tokenContract).safeTransferFrom(msg.sender, address(this), _amount);\r\n\r\n        // check what this particular ERC20 implementation actually gave us, since it doesn't\r\n        // have to be at all related to the _amount\r\n        uint256 ourEndingBalance = IERC20(_tokenContract).balanceOf(address(this));\r\n\r\n        // a very strange ERC20 may trigger this condition, if we didn't have this we would\r\n        // underflow, so it's mostly just an error message printer\r\n        if (ourEndingBalance <= ourStartingBalance) {\r\n            revert InvalidSendToCosmos();\r\n        }\r\n\r\n        state_lastEventNonce = state_lastEventNonce + 1;\r\n\r\n        // emit to Cosmos the actual amount our balance has changed, rather than the user\r\n        // provided amount. This protects against a small set of wonky ERC20 behavior, like\r\n        // burning on send but not tokens that for example change every users balance every day.\r\n        emit SendToCosmosEvent(\r\n            _tokenContract,\r\n            msg.sender,\r\n            _destination,\r\n            ourEndingBalance - ourStartingBalance,\r\n            state_lastEventNonce\r\n        );\r\n    }\r\n\r\n    function deployERC20(\r\n        string calldata _cosmosDenom,\r\n        string calldata _name,\r\n        string calldata _symbol,\r\n        uint8 _decimals\r\n    ) external {\r\n        // Deploy an ERC20 with entire supply granted to Gravity.sol\r\n        CosmosERC20 erc20 = new CosmosERC20(address(this), _name, _symbol, _decimals);\r\n\r\n        // Fire an event to let the Cosmos module know\r\n        state_lastEventNonce = state_lastEventNonce + 1;\r\n        emit ERC20DeployedEvent(\r\n            _cosmosDenom,\r\n            address(erc20),\r\n            _name,\r\n            _symbol,\r\n            _decimals,\r\n            state_lastEventNonce\r\n        );\r\n    }\r\n\r\n    constructor(\r\n    // A unique identifier for this gravity instance to use in signatures\r\n        bytes32 _gravityId,\r\n    // The validator set, not in valset args format since many of it's\r\n    // arguments would never be used in this case\r\n        address[] memory _validators,\r\n        uint256[] memory _powers\r\n    ) {\r\n        // CHECKS\r\n\r\n        // Check that validators, powers, and signatures (v,r,s) set is well-formed\r\n        if (_validators.length != _powers.length || _validators.length == 0) {\r\n            revert MalformedCurrentValidatorSet();\r\n        }\r\n\r\n        // Check cumulative power to ensure the contract has sufficient power to actually\r\n        // pass a vote\r\n        uint256 cumulativePower = 0;\r\n        for (uint256 i = 0; i < _powers.length; i++) {\r\n            cumulativePower = cumulativePower + _powers[i];\r\n            if (cumulativePower > constant_powerThreshold) {\r\n                break;\r\n            }\r\n        }\r\n        if (cumulativePower <= constant_powerThreshold) {\r\n            revert InsufficientPower({\r\n            cumulativePower: cumulativePower,\r\n            powerThreshold: constant_powerThreshold\r\n            });\r\n        }\r\n\r\n        ValsetArgs memory _valset;\r\n        _valset = ValsetArgs(_validators, _powers, 0, 0, address(0));\r\n\r\n        bytes32 newCheckpoint = makeCheckpoint(_valset, _gravityId);\r\n\r\n        // ACTIONS\r\n\r\n        state_gravityId = _gravityId;\r\n        state_lastValsetCheckpoint = newCheckpoint;\r\n\r\n        // LOGS\r\n\r\n        emit ValsetUpdatedEvent(\r\n            state_lastValsetNonce,\r\n            state_lastEventNonce,\r\n            0,\r\n            address(0),\r\n            _validators,\r\n            _powers\r\n        );\r\n    }\r\n}\r\n",
  "sourcePath": "D:\\work\\Treasurenet-contracts\\fork\\treasurenet-contracts\\contracts\\Crosschain\\gravity.sol",
  "compiler": {
    "name": "solc",
    "version": "0.8.10+commit.fc410830.Emscripten.clang"
  },
  "schemaVersion": "3.4.16",
  "updatedAt": "2024-04-29T07:29:52.913Z",
  "devdoc": {
    "kind": "dev",
    "methods": {},
    "version": 1
  },
  "userdoc": {
    "kind": "user",
    "methods": {},
    "version": 1
  }
}