{
  "contractName": "MulSig",
  "abi": [
    {
      "anonymous": false,
      "inputs": [
        {
          "indexed": false,
          "internalType": "uint256",
          "name": "proposalId",
          "type": "uint256"
        },
        {
          "indexed": false,
          "internalType": "address",
          "name": "proposer",
          "type": "address"
        },
        {
          "indexed": false,
          "internalType": "string",
          "name": "name",
          "type": "string"
        },
        {
          "indexed": false,
          "internalType": "address",
          "name": "producerContract",
          "type": "address"
        },
        {
          "indexed": false,
          "internalType": "address",
          "name": "productionContract",
          "type": "address"
        }
      ],
      "name": "AddResource",
      "type": "event"
    },
    {
      "anonymous": false,
      "inputs": [
        {
          "indexed": false,
          "internalType": "uint8",
          "name": "version",
          "type": "uint8"
        }
      ],
      "name": "Initialized",
      "type": "event"
    },
    {
      "anonymous": false,
      "inputs": [
        {
          "indexed": false,
          "internalType": "uint256",
          "name": "proposalId",
          "type": "uint256"
        },
        {
          "indexed": false,
          "internalType": "address",
          "name": "proposer",
          "type": "address"
        },
        {
          "indexed": false,
          "internalType": "string",
          "name": "name",
          "type": "string"
        },
        {
          "indexed": false,
          "internalType": "address",
          "name": "_add",
          "type": "address"
        }
      ],
      "name": "ManagePermission",
      "type": "event"
    },
    {
      "anonymous": false,
      "inputs": [
        {
          "indexed": true,
          "internalType": "address",
          "name": "previousOwner",
          "type": "address"
        },
        {
          "indexed": true,
          "internalType": "address",
          "name": "newOwner",
          "type": "address"
        }
      ],
      "name": "OwnershipTransferred",
      "type": "event"
    },
    {
      "anonymous": false,
      "inputs": [
        {
          "indexed": false,
          "internalType": "uint256",
          "name": "proposalId",
          "type": "uint256"
        }
      ],
      "name": "ProposalExecuted",
      "type": "event"
    },
    {
      "anonymous": false,
      "inputs": [
        {
          "indexed": false,
          "internalType": "uint256",
          "name": "proposalId",
          "type": "uint256"
        },
        {
          "indexed": false,
          "internalType": "address",
          "name": "signer",
          "type": "address"
        }
      ],
      "name": "ProposalSigned",
      "type": "event"
    },
    {
      "anonymous": false,
      "inputs": [
        {
          "indexed": false,
          "internalType": "uint256",
          "name": "proposalId",
          "type": "uint256"
        },
        {
          "indexed": false,
          "internalType": "address",
          "name": "proposer",
          "type": "address"
        },
        {
          "indexed": false,
          "internalType": "string",
          "name": "treasure",
          "type": "string"
        },
        {
          "indexed": false,
          "internalType": "string",
          "name": "dapp",
          "type": "string"
        },
        {
          "indexed": false,
          "internalType": "address",
          "name": "payee",
          "type": "address"
        }
      ],
      "name": "RegisterDApp",
      "type": "event"
    },
    {
      "anonymous": false,
      "inputs": [
        {
          "indexed": false,
          "internalType": "uint256",
          "name": "proposalId",
          "type": "uint256"
        },
        {
          "indexed": false,
          "internalType": "address",
          "name": "proposer",
          "type": "address"
        },
        {
          "components": [
            {
              "internalType": "uint256",
              "name": "API",
              "type": "uint256"
            },
            {
              "internalType": "uint256",
              "name": "sulphur",
              "type": "uint256"
            },
            {
              "internalType": "uint256[4]",
              "name": "discount",
              "type": "uint256[4]"
            }
          ],
          "indexed": false,
          "internalType": "struct IParameterInfo.PriceDiscountConfig",
          "name": "config",
          "type": "tuple"
        }
      ],
      "name": "SetDiscountConfig",
      "type": "event"
    },
    {
      "anonymous": false,
      "inputs": [
        {
          "indexed": false,
          "internalType": "uint256",
          "name": "proposalId",
          "type": "uint256"
        },
        {
          "indexed": false,
          "internalType": "address",
          "name": "proposer",
          "type": "address"
        },
        {
          "indexed": false,
          "internalType": "string",
          "name": "name",
          "type": "string"
        },
        {
          "indexed": false,
          "internalType": "uint256",
          "name": "_value",
          "type": "uint256"
        }
      ],
      "name": "SetPlatformConfig",
      "type": "event"
    },
    {
      "inputs": [],
      "name": "FEEDER",
      "outputs": [
        {
          "internalType": "bytes32",
          "name": "",
          "type": "bytes32"
        }
      ],
      "stateMutability": "view",
      "type": "function"
    },
    {
      "inputs": [],
      "name": "FOUNDATION_MANAGER",
      "outputs": [
        {
          "internalType": "bytes32",
          "name": "",
          "type": "bytes32"
        }
      ],
      "stateMutability": "view",
      "type": "function"
    },
    {
      "inputs": [],
      "name": "owner",
      "outputs": [
        {
          "internalType": "address",
          "name": "",
          "type": "address"
        }
      ],
      "stateMutability": "view",
      "type": "function"
    },
    {
      "inputs": [],
      "name": "renounceOwnership",
      "outputs": [],
      "stateMutability": "nonpayable",
      "type": "function"
    },
    {
      "inputs": [
        {
          "internalType": "address",
          "name": "newOwner",
          "type": "address"
        }
      ],
      "name": "transferOwnership",
      "outputs": [],
      "stateMutability": "nonpayable",
      "type": "function"
    },
    {
      "inputs": [
        {
          "internalType": "address",
          "name": "_daoContract",
          "type": "address"
        },
        {
          "internalType": "address",
          "name": "_governanceContract",
          "type": "address"
        },
        {
          "internalType": "address",
          "name": "_roleContract",
          "type": "address"
        },
        {
          "internalType": "address",
          "name": "_parameterInfoContract",
          "type": "address"
        },
        {
          "internalType": "uint256",
          "name": "_confirmation",
          "type": "uint256"
        }
      ],
      "name": "initialize",
      "outputs": [],
      "stateMutability": "nonpayable",
      "type": "function"
    },
    {
      "inputs": [
        {
          "internalType": "string",
          "name": "_name",
          "type": "string"
        },
        {
          "internalType": "address",
          "name": "_account",
          "type": "address"
        }
      ],
      "name": "proposeToManagePermission",
      "outputs": [
        {
          "internalType": "bool",
          "name": "",
          "type": "bool"
        }
      ],
      "stateMutability": "nonpayable",
      "type": "function"
    },
    {
      "inputs": [
        {
          "internalType": "string",
          "name": "_name",
          "type": "string"
        },
        {
          "internalType": "address",
          "name": "_producer",
          "type": "address"
        },
        {
          "internalType": "address",
          "name": "_productionData",
          "type": "address"
        }
      ],
      "name": "proposeToAddResource",
      "outputs": [
        {
          "internalType": "bool",
          "name": "",
          "type": "bool"
        }
      ],
      "stateMutability": "nonpayable",
      "type": "function"
    },
    {
      "inputs": [
        {
          "internalType": "string",
          "name": "_treasure",
          "type": "string"
        },
        {
          "internalType": "string",
          "name": "_dapp",
          "type": "string"
        },
        {
          "internalType": "address",
          "name": "_payee",
          "type": "address"
        }
      ],
      "name": "proposeToRegisterDApp",
      "outputs": [
        {
          "internalType": "bool",
          "name": "",
          "type": "bool"
        }
      ],
      "stateMutability": "nonpayable",
      "type": "function"
    },
    {
      "inputs": [
        {
          "internalType": "string",
          "name": "_name",
          "type": "string"
        },
        {
          "internalType": "uint256",
          "name": "_value",
          "type": "uint256"
        }
      ],
      "name": "proposeToSetPlatformConfig",
      "outputs": [
        {
          "internalType": "bool",
          "name": "",
          "type": "bool"
        }
      ],
      "stateMutability": "nonpayable",
      "type": "function"
    },
    {
      "inputs": [
        {
          "internalType": "uint256",
          "name": "b1",
          "type": "uint256"
        },
        {
          "internalType": "uint256",
          "name": "b2",
          "type": "uint256"
        },
        {
          "internalType": "uint256",
          "name": "b3",
          "type": "uint256"
        },
        {
          "internalType": "uint256",
          "name": "b4",
          "type": "uint256"
        },
        {
          "internalType": "uint256",
          "name": "b5",
          "type": "uint256"
        },
        {
          "internalType": "uint256",
          "name": "b6",
          "type": "uint256"
        }
      ],
      "name": "proposeToSetDiscountConfig",
      "outputs": [
        {
          "internalType": "bool",
          "name": "",
          "type": "bool"
        }
      ],
      "stateMutability": "nonpayable",
      "type": "function"
    },
    {
      "inputs": [],
      "name": "getPendingProposals",
      "outputs": [
        {
          "internalType": "uint256[]",
          "name": "",
          "type": "uint256[]"
        }
      ],
      "stateMutability": "view",
      "type": "function"
    },
    {
      "inputs": [
        {
          "internalType": "uint256",
          "name": "_proposalId",
          "type": "uint256"
        }
      ],
      "name": "signTransaction",
      "outputs": [
        {
          "internalType": "bool",
          "name": "",
          "type": "bool"
        }
      ],
      "stateMutability": "nonpayable",
      "type": "function"
    },
    {
      "inputs": [
        {
          "internalType": "uint256",
          "name": "_proposalId",
          "type": "uint256"
        }
      ],
      "name": "excuteProposal",
      "outputs": [
        {
          "internalType": "bool",
          "name": "",
          "type": "bool"
        }
      ],
      "stateMutability": "nonpayable",
      "type": "function"
    },
    {
      "inputs": [
        {
          "internalType": "uint256",
          "name": "_proposalId",
          "type": "uint256"
        }
      ],
      "name": "transactionDetails",
      "outputs": [
        {
          "components": [
            {
              "internalType": "string",
              "name": "name",
              "type": "string"
            },
            {
              "internalType": "address",
              "name": "_add",
              "type": "address"
            },
            {
              "internalType": "uint256",
              "name": "a1",
              "type": "uint256"
            },
            {
              "internalType": "uint256",
              "name": "a2",
              "type": "uint256"
            },
            {
              "internalType": "uint256",
              "name": "a3",
              "type": "uint256"
            },
            {
              "internalType": "uint256",
              "name": "a4",
              "type": "uint256"
            },
            {
              "internalType": "uint256",
              "name": "a5",
              "type": "uint256"
            },
            {
              "internalType": "uint256",
              "name": "a6",
              "type": "uint256"
            },
            {
              "internalType": "uint256",
              "name": "executeTime",
              "type": "uint256"
            }
          ],
          "internalType": "struct MulSig.ProposalResponse",
          "name": "",
          "type": "tuple"
        }
      ],
      "stateMutability": "view",
      "type": "function"
    },
    {
      "inputs": [
        {
          "internalType": "uint256",
          "name": "_proposalId",
          "type": "uint256"
        }
      ],
      "name": "deleteProposals",
      "outputs": [],
      "stateMutability": "nonpayable",
      "type": "function"
    }
  ],
  "bytecode": "0x608060405234801561001057600080fd5b50612be1806100206000396000f3fe608060405234801561001057600080fd5b50600436106101005760003560e01c8063715018a611610097578063adac345011610066578063adac345014610230578063c63f555214610243578063f2fde38b14610256578063f7013ef61461026957600080fd5b8063715018a6146101e55780638da5cb5b146101ed578063a80db6fc14610208578063a84749d71461021d57600080fd5b80634f496f0d116100d35780634f496f0d146101755780635d9ec210146101885780636447189a1461019b5780636d8bc0a9146101d057600080fd5b80632a0a2bf214610105578063323765ba1461012d57806339c6cf62146101425780633f0a54a614610155575b600080fd5b610118610113366004612319565b61027c565b60405190151581526020015b60405180910390f35b61014061013b36600461236b565b610468565b005b610118610150366004612384565b6106df565b61016861016336600461236b565b610870565b6040516101249190612414565b6101186101833660046124a4565b610bfa565b61011861019636600461236b565b610d69565b6101c27f0a59a035ae0a00eac2a600a582577e6f107971288ab786d897919ae27385652481565b604051908152602001610124565b6101c2600080516020612b8c83398151915281565b61014061104b565b6033546040516001600160a01b039091168152602001610124565b61021061105f565b60405161012491906124e9565b61011861022b36600461252d565b611163565b61011861023e3660046125a5565b61152d565b61011861025136600461236b565b6116e0565b6101406102643660046125fe565b611e4c565b61014061027736600461261b565b611ec5565b606c546000906001600160a01b03166391d14854600080516020612b8c833981519152336040516001600160e01b031960e085901b16815260048101929092526001600160a01b03166024820152604401602060405180830381865afa1580156102ea573d6000803e3d6000fd5b505050506040513d601f19601f8201168201806040525081019061030e919061267f565b6103335760405162461bcd60e51b815260040161032a906126a1565b60405180910390fd5b6001600160a01b03821661037f5760405162461bcd60e51b81526020600482015260136024820152724d756c5369673a7a65726f206164647265737360681b604482015260640161032a565b6067805460009182610390836126ee565b90915550600081815260656020908152604090912080546001600160a01b031916331781558651929350916103cd91600184019190880190612139565b506002810180546001600160a01b0319166001600160a01b0386161790556001600a8201819055600b8201805460ff19169055606680549182018155600052600080516020612b6c833981519152018290556040517f79ed9dbb3cd6beed3bf424d5d6d722aa3d21d7e1b5797eed4cff6ab9bc3f48b390610455908490339089908990612709565b60405180910390a1506001949350505050565b606c546001600160a01b03166391d14854600080516020612b8c833981519152336040516001600160e01b031960e085901b16815260048101929092526001600160a01b03166024820152604401602060405180830381865afa1580156104d3573d6000803e3d6000fd5b505050506040513d601f19601f820116820180604052508101906104f7919061267f565b6105135760405162461bcd60e51b815260040161032a906126a1565b6000805b6066548110156105b7578160ff166001141561057b576066818154811061054057610540612745565b9060005260206000200154606660018361055a919061275b565b8154811061056a5761056a612745565b6000918252602090912001556105a5565b6066818154811061058e5761058e612745565b90600052602060002001548314156105a557600191505b806105af816126ee565b915050610517565b508060ff16600114156106db57606680546105d49060019061275b565b815481106105e4576105e4612745565b6000918252602082200155606680548061060057610600612772565b600082815260208082208301600019908101839055909201909255838252606590526040812080546001600160a01b03191681559061064260018301826121bd565b6002820180546001600160a01b0319908116909155600060038401819055600484018190556005840181905560068401819055600784018190556008840181905560098401819055600a8401819055600b8401805460ff19169055600c8401819055600d8401805483169055600e840180549092169091556106c89060108401906121bd565b5060110180546001600160a01b03191690555b5050565b606c546000906001600160a01b03166391d14854600080516020612b8c833981519152336040516001600160e01b031960e085901b16815260048101929092526001600160a01b03166024820152604401602060405180830381865afa15801561074d573d6000803e3d6000fd5b505050506040513d601f19601f82011682018060405250810190610771919061267f565b61078d5760405162461bcd60e51b815260040161032a906126a1565b606780546000918261079e836126ee565b9091555060008181526065602052604080822080546001600160a01b03191633908117825560048083018e8155600584018e9055600684018d9055600784018c9055600884018b9055600984018a9055600a840191909155600b8301805460ff19169055606680546001810182559552600080516020612b6c8339815191529094018590559151939450927fff44a701b14f853a77fffd08a41cacc24e57b8a153fd2a82f5f55a9befe0506b92610859928692909190612788565b60405180910390a150600198975050505050505050565b6108786121f7565b600082815260656020526040902061088e6121f7565b81600a015460011415610987576040518061012001604052808360010180546108b6906127eb565b80601f01602080910402602001604051908101604052809291908181526020018280546108e2906127eb565b801561092f5780601f106109045761010080835404028352916020019161092f565b820191906000526020600020905b81548152906001019060200180831161091257829003601f168201915b505050918352505060028401546001600160a01b03166020820152600060408201819052606082018190526080820181905260a0820181905260c0820181905260e0820152600c840154610100909101529050610bf3565b81600a015460021415610a7b576040518061012001604052808360010180546109af906127eb565b80601f01602080910402602001604051908101604052809291908181526020018280546109db906127eb565b8015610a285780601f106109fd57610100808354040283529160200191610a28565b820191906000526020600020905b815481529060010190602001808311610a0b57829003601f168201915b5050505050815260200160006001600160a01b0316815260200160008152602001600081526020016000815260200160008152602001600081526020016000815260200183600c01548152509050610bf3565b81600a015460031415610b7257604051806101200160405280836001018054610aa3906127eb565b80601f0160208091040260200160405190810160405280929190818152602001828054610acf906127eb565b8015610b1c5780601f10610af157610100808354040283529160200191610b1c565b820191906000526020600020905b815481529060010190602001808311610aff57829003601f168201915b5050505050815260200160006001600160a01b0316815260200183600301548152602001600081526020016000815260200160008152602001600081526020016000815260200183600c01548152509050610bf3565b81600a015460041415610bf35750604080516101608101825260016101208201908152600360fc1b6101408301528152600060208201526004830154918101919091526005820154606082015260068201546080820152600782015460a0820152600882015460c0820152600982015460e0820152600c8201546101008201525b9392505050565b606c546000906001600160a01b03166391d14854600080516020612b8c833981519152336040516001600160e01b031960e085901b16815260048101929092526001600160a01b03166024820152604401602060405180830381865afa158015610c68573d6000803e3d6000fd5b505050506040513d601f19601f82011682018060405250810190610c8c919061267f565b610ca85760405162461bcd60e51b815260040161032a906126a1565b6067805460009182610cb9836126ee565b90915550600081815260656020908152604090912080546001600160a01b03191633178155865192935091610cf691600184019190880190612139565b506003808201859055600a820155600b8101805460ff1916905560668054600181018255600091909152600080516020612b6c833981519152018290556040517f41f9f0fa762e101b98a2e3a327a2c84192282ce99740af608cd110b38d49d8a690610455908490339089908990612826565b606c546000906001600160a01b03166391d14854600080516020612b8c833981519152336040516001600160e01b031960e085901b16815260048101929092526001600160a01b03166024820152604401602060405180830381865afa158015610dd7573d6000803e3d6000fd5b505050506040513d601f19601f82011682018060405250810190610dfb919061267f565b610e175760405162461bcd60e51b815260040161032a906126a1565b6000828152606560209081526040808320606a54825163356db31d60e21b8152925191946001600160a01b039091169363d5b6cc749360048082019492939183900301908290875af1158015610e71573d6000803e3d6000fd5b505050506040513d601f19601f82011682018060405250810190610e959190612861565b600b82015460ff1610610ed25760405162461bcd60e51b81526020600482015260056024820152641b1a5b5a5d60da1b604482015260640161032a565b336000908152600f8201602052604090205460ff1660011415610f285760405162461bcd60e51b815260206004820152600e60248201526d185b1c9958591e481cda59db995960921b604482015260640161032a565b336000908152600f820160205260408120805460ff19166001179055600b8201805460ff1691610f578361287a565b91906101000a81548160ff021916908360ff16021790555050606a60009054906101000a90046001600160a01b03166001600160a01b031663d5b6cc746040518163ffffffff1660e01b81526004016020604051808303816000875af1158015610fc5573d6000803e3d6000fd5b505050506040513d601f19601f82011682018060405250810190610fe99190612861565b600b82015460ff161061100957606854611003904261289a565b600c8201555b604080518481523360208201527fc47a1536197401b36a117101725a5dfa1495e2643f664e4a10289c7bba94444791015b60405180910390a150600192915050565b611053612033565b61105d600061208d565b565b606c546060906001600160a01b03166391d14854600080516020612b8c833981519152336040516001600160e01b031960e085901b16815260048101929092526001600160a01b03166024820152604401602060405180830381865afa1580156110cd573d6000803e3d6000fd5b505050506040513d601f19601f820116820180604052508101906110f1919061267f565b61110d5760405162461bcd60e51b815260040161032a906126a1565b606680548060200260200160405190810160405280929190818152602001828054801561115957602002820191906000526020600020905b815481526020019060010190808311611145575b5050505050905090565b606c546000906001600160a01b03166391d14854600080516020612b8c833981519152336040516001600160e01b031960e085901b16815260048101929092526001600160a01b03166024820152604401602060405180830381865afa1580156111d1573d6000803e3d6000fd5b505050506040513d601f19601f820116820180604052508101906111f5919061267f565b6112115760405162461bcd60e51b815260040161032a906126a1565b604080516020808201909252600090528451908501207fc5d2460186f7233c927e7db2dcc703c0e500b653ca82273b7bfad8045d85a470141561128c5760405162461bcd60e51b8152602060048201526013602482015272656d707479207472656173757265206e616d6560681b604482015260640161032a565b604080516020808201909252600090528351908401207fc5d2460186f7233c927e7db2dcc703c0e500b653ca82273b7bfad8045d85a47014156113035760405162461bcd60e51b815260206004820152600f60248201526e656d7074792064617070206e616d6560881b604482015260640161032a565b6001600160a01b03821661134c5760405162461bcd60e51b815260206004820152601060248201526f656d707479204441707020706179656560801b604482015260640161032a565b606a54604051639e145ebf60e01b81526000916001600160a01b031690639e145ebf9061137d9088906004016128b2565b6040805180830381865afa158015611399573d6000803e3d6000fd5b505050506040513d601f19601f820116820180604052508101906113bd91906128c5565b5090506001600160a01b0381166114205760405162461bcd60e51b815260206004820152602160248201527f747265617375726520776974682074686973206b696e64206e6f7420666f756e6044820152601960fa1b606482015260840161032a565b6067805460009182611431836126ee565b90915550600081815260656020908152604090912080546001600160a01b0319163317815587519293509161146e91600184019190890190612139565b50865161148490601083019060208a0190612139565b506011810180546001600160a01b0319166001600160a01b03878116919091179091556005600a830155600b8201805460ff1916905560668054600181018255600091909152600080516020612b6c8339815191520183905581546040517f17861436dc3ed4abf662bbbf2de359f3737c6a3f578d709fb0169f070a947c34926115189286929116908b908b908b906128f4565b60405180910390a15060019695505050505050565b606c546000906001600160a01b03166391d14854600080516020612b8c833981519152336040516001600160e01b031960e085901b16815260048101929092526001600160a01b03166024820152604401602060405180830381865afa15801561159b573d6000803e3d6000fd5b505050506040513d601f19601f820116820180604052508101906115bf919061267f565b6115db5760405162461bcd60e51b815260040161032a906126a1565b60678054600091826115ec836126ee565b90915550600081815260656020908152604090912080546001600160a01b0319163317815587519293509161162991600184019190890190612139565b506002600a820155600b8101805460ff19169055600d810180546001600160a01b038088166001600160a01b031992831617909255600e830180549287169290911691909117905560668054600181018255600091909152600080516020612b6c833981519152018290556040517f4e02c3e463a82f22775bd6084d902066be061944724f9c5a901f410e569a65ef906116cc90849033908a908a908a90612944565b60405180910390a150600195945050505050565b606c546000906001600160a01b03166391d14854600080516020612b8c833981519152336040516001600160e01b031960e085901b16815260048101929092526001600160a01b03166024820152604401602060405180830381865afa15801561174e573d6000803e3d6000fd5b505050506040513d601f19601f82011682018060405250810190611772919061267f565b61178e5760405162461bcd60e51b815260040161032a906126a1565b6000828152606560205260409020600c8101544210156117e75760405162461bcd60e51b8152602060048201526014602482015273195e1958dd5d19551a5b59481b9bdd081b59595d60621b604482015260640161032a565b80600a015460011415611b4457604080518082018252600381526211935160ea1b602090910152517f593e3f42532c092b5b6cb8cca0fa7155e49af38205a8dd58d05db52ce4c818c79061183f906001840190612986565b604051809103902014156118c957606c54600282015460405163d547741f60e01b8152600080516020612b8c83398151915260048201526001600160a01b03918216602482015291169063d547741f90604401600060405180830381600087803b1580156118ac57600080fd5b505af11580156118c0573d6000803e3d6000fd5b5050505061199a565b6040805180820182526003815262464d4160e81b602090910152517f2011d7e6241094b35663e5ea36dc944907a6cea3bfc3f10ecabae7e43951186e90611914906001840190612986565b6040518091039020141561199a57606c546002820154604051632f2ff15d60e01b8152600080516020612b8c83398151915260048201526001600160a01b039182166024820152911690632f2ff15d90604401600060405180830381600087803b15801561198157600080fd5b505af1158015611995573d6000803e3d6000fd5b505050505b60408051808201825260078152661191515111549160ca1b602090910152517fe47e457e767f0e479cd1ddf3b3418f19623f0665216bb2592867c6adb3ee46ee906119e9906001840190612986565b60405180910390201415611a8657606c54600282015460405163d547741f60e01b81527f0a59a035ae0a00eac2a600a582577e6f107971288ab786d897919ae27385652460048201526001600160a01b03918216602482015291169063d547741f906044015b600060405180830381600087803b158015611a6957600080fd5b505af1158015611a7d573d6000803e3d6000fd5b50505050611e13565b60408051808201825260078152664645454445524160c81b602090910152517fb18eb37f27699ee248c646af9a6d12ae48965eedb691d9e9278d1dc8ace2c95490611ad5906001840190612986565b60405180910390201415611b3f57606c546002820154604051632f2ff15d60e01b81527f0a59a035ae0a00eac2a600a582577e6f107971288ab786d897919ae27385652460048201526001600160a01b039182166024820152911690632f2ff15d90604401611a4f565b611e13565b80600a015460021415611b9457606a54600d820154600e8301546040516316d788d760e01b81526001600160a01b03938416936316d788d793611a4f936001880193918316921690600401612a6f565b80600a015460031415611c2357606b546003820154604051636b16c63960e11b81526001600160a01b039092169163d62d8c7291611bda91600186019190600401612aa2565b6020604051808303816000875af1158015611bf9573d6000803e3d6000fd5b505050506040513d601f19601f82011682018060405250810190611c1d919061267f565b50611e13565b80600a015460041415611c9f57606b5460048281015460058401546006850154600786015460088701546009880154604051630b0bbc3560e41b815296870195909552602486019390935260448501919091526064840152608483015260a48201526001600160a01b039091169063b0bbc3509060c401611bda565b80600a015460051415611e1357606a54604051639e145ebf60e01b81526000916001600160a01b031690639e145ebf90611ce0906010860190600401612ac4565b6040805180830381865afa158015611cfc573d6000803e3d6000fd5b505050506040513d601f19601f82011682018060405250810190611d2091906128c5565b5090506001600160a01b038116611d925760405162461bcd60e51b815260206004820152603060248201527f7472656173757265206e6f7420666f756e6420776974682070726f706f73616c60448201526f09dcc81d1c99585cdd5c99481ada5b9960821b606482015260840161032a565b60118201546040516321133a7b60e11b815282916001600160a01b038084169263422674f692611dcc926001890192911690600401612ad7565b6020604051808303816000875af1158015611deb573d6000803e3d6000fd5b505050506040513d601f19601f82011682018060405250810190611e0f9190612861565b5050505b611e1c83610468565b6040518381527f712ae1383f79ac853f8d882153778e0260ef8f03b504e2866e0593e04d2b291f9060200161103a565b611e54612033565b6001600160a01b038116611eb95760405162461bcd60e51b815260206004820152602660248201527f4f776e61626c653a206e6577206f776e657220697320746865207a65726f206160448201526564647265737360d01b606482015260840161032a565b611ec28161208d565b50565b600054610100900460ff1615808015611ee55750600054600160ff909116105b80611eff5750303b158015611eff575060005460ff166001145b611f625760405162461bcd60e51b815260206004820152602e60248201527f496e697469616c697a61626c653a20636f6e747261637420697320616c72656160448201526d191e481a5b9a5d1a585b1a5e995960921b606482015260840161032a565b6000805460ff191660011790558015611f85576000805461ff0019166101001790555b611f8d6120df565b611f9882603c612b01565b606855606980546001600160a01b038089166001600160a01b031992831617909255606a8054888416908316179055606b8054868416908316179055606c805492871692909116919091179055801561202b576000805461ff0019169055604051600181527f7f26b83ff96e1f2b6a682f133852f6798a09c465da95921460cefb38474024989060200160405180910390a15b505050505050565b6033546001600160a01b0316331461105d5760405162461bcd60e51b815260206004820181905260248201527f4f776e61626c653a2063616c6c6572206973206e6f7420746865206f776e6572604482015260640161032a565b603380546001600160a01b038381166001600160a01b0319831681179093556040519116919082907f8be0079c531659141344cd1fd0a4f28419497f9722a3daafe3b4186f6b6457e090600090a35050565b600054610100900460ff166121065760405162461bcd60e51b815260040161032a90612b20565b61105d600054610100900460ff166121305760405162461bcd60e51b815260040161032a90612b20565b61105d3361208d565b828054612145906127eb565b90600052602060002090601f01602090048101928261216757600085556121ad565b82601f1061218057805160ff19168380011785556121ad565b828001600101855582156121ad579182015b828111156121ad578251825591602001919060010190612192565b506121b992915061224c565b5090565b5080546121c9906127eb565b6000825580601f106121d9575050565b601f016020900490600052602060002090810190611ec2919061224c565b6040518061012001604052806060815260200160006001600160a01b03168152602001600081526020016000815260200160008152602001600081526020016000815260200160008152602001600081525090565b5b808211156121b9576000815560010161224d565b634e487b7160e01b600052604160045260246000fd5b600082601f83011261228857600080fd5b813567ffffffffffffffff808211156122a3576122a3612261565b604051601f8301601f19908116603f011681019082821181831017156122cb576122cb612261565b816040528381528660208588010111156122e457600080fd5b836020870160208301376000602085830101528094505050505092915050565b6001600160a01b0381168114611ec257600080fd5b6000806040838503121561232c57600080fd5b823567ffffffffffffffff81111561234357600080fd5b61234f85828601612277565b925050602083013561236081612304565b809150509250929050565b60006020828403121561237d57600080fd5b5035919050565b60008060008060008060c0878903121561239d57600080fd5b505084359660208601359650604086013595606081013595506080810135945060a0013592509050565b6000815180845260005b818110156123ed576020818501810151868301820152016123d1565b818111156123ff576000602083870101525b50601f01601f19169290920160200192915050565b60208152600082516101208060208501526124336101408501836123c7565b9150602085015161244f60408601826001600160a01b03169052565b506040850151606085015260608501516080850152608085015160a085015260a085015160c085015260c085015160e085015260e0850151610100818187015280870151838701525050508091505092915050565b600080604083850312156124b757600080fd5b823567ffffffffffffffff8111156124ce57600080fd5b6124da85828601612277565b95602094909401359450505050565b6020808252825182820181905260009190848201906040850190845b8181101561252157835183529284019291840191600101612505565b50909695505050505050565b60008060006060848603121561254257600080fd5b833567ffffffffffffffff8082111561255a57600080fd5b61256687838801612277565b9450602086013591508082111561257c57600080fd5b5061258986828701612277565b925050604084013561259a81612304565b809150509250925092565b6000806000606084860312156125ba57600080fd5b833567ffffffffffffffff8111156125d157600080fd5b6125dd86828701612277565b93505060208401356125ee81612304565b9150604084013561259a81612304565b60006020828403121561261057600080fd5b8135610bf381612304565b600080600080600060a0868803121561263357600080fd5b853561263e81612304565b9450602086013561264e81612304565b9350604086013561265e81612304565b9250606086013561266e81612304565b949793965091946080013592915050565b60006020828403121561269157600080fd5b81518015158114610bf357600080fd5b60208082526017908201527f6f6e6c7920666f756e646174696f6e206d616e61676572000000000000000000604082015260600190565b634e487b7160e01b600052601160045260246000fd5b6000600019821415612702576127026126d8565b5060010190565b848152600060018060a01b0380861660208401526080604084015261273160808401866123c7565b915080841660608401525095945050505050565b634e487b7160e01b600052603260045260246000fd5b60008282101561276d5761276d6126d8565b500390565b634e487b7160e01b600052603160045260246000fd5b8381526001600160a01b03831660208083019190915282546040830152600183810154606084015261010083019190608084016002860160005b60048110156127de5781548352918401919083019083016127c2565b5050505050949350505050565b600181811c908216806127ff57607f821691505b6020821081141561282057634e487b7160e01b600052602260045260246000fd5b50919050565b8481526001600160a01b0384166020820152608060408201819052600090612850908301856123c7565b905082606083015295945050505050565b60006020828403121561287357600080fd5b5051919050565b600060ff821660ff811415612891576128916126d8565b60010192915050565b600082198211156128ad576128ad6126d8565b500190565b602081526000610bf360208301846123c7565b600080604083850312156128d857600080fd5b82516128e381612304565b602084015190925061236081612304565b858152600060018060a01b03808716602084015260a0604084015261291c60a08401876123c7565b838103606085015261292e81876123c7565b9250508084166080840152509695505050505050565b858152600060018060a01b03808716602084015260a0604084015261296c60a08401876123c7565b948116606084015292909216608090910152509392505050565b6000808354612994816127eb565b600182811680156129ac57600181146129bd576129ec565b60ff198416875282870194506129ec565b8760005260208060002060005b858110156129e35781548a8201529084019082016129ca565b50505082870194505b50929695505050505050565b60008154612a05816127eb565b808552602060018381168015612a225760018114612a3657612a64565b60ff19851688840152604088019550612a64565b866000528260002060005b85811015612a5c5781548a8201860152908301908401612a41565b890184019650505b505050505092915050565b606081526000612a8260608301866129f8565b6001600160a01b0394851660208401529290931660409091015292915050565b604081526000612ab560408301856129f8565b90508260208301529392505050565b602081526000610bf360208301846129f8565b604081526000612aea60408301856129f8565b905060018060a01b03831660208301529392505050565b6000816000190483118215151615612b1b57612b1b6126d8565b500290565b6020808252602b908201527f496e697469616c697a61626c653a20636f6e7472616374206973206e6f74206960408201526a6e697469616c697a696e6760a81b60608201526080019056fe46501879b8ca8525e8c2fd519e2fbfcfa2ebea26501294aa02cbfcfb12e94354d8e00efd67a9b34b6da7b941bb2d92f1c529ce28e67d637c0b137058422e0669a26469706673582212201643c6a742355b6c861d7d65408903d40d71a436802ed2916b9333b9caea67d264736f6c634300080a0033",
  "immutableReferences": {},
  "source": "// SPDX-License-Identifier: MIT\r\npragma solidity ^0.8.0;\r\n\r\nimport \"@openzeppelin/contracts-upgradeable/proxy/utils/Initializable.sol\";\r\nimport \"@openzeppelin/contracts-upgradeable/access/OwnableUpgradeable.sol\";\r\nimport \"@openzeppelin/contracts/proxy/transparent/ProxyAdmin.sol\";\r\nimport \"@openzeppelin/contracts/proxy/transparent/TransparentUpgradeableProxy.sol\";\r\n\r\nimport \"./DAO/IDAO.sol\";\r\nimport \"./IGovernance.sol\";\r\nimport \"./IParameterInfo.sol\";\r\nimport \"./IRoles.sol\";\r\nimport \"../Treasure/interfaces/IProducer.sol\";\r\n\r\n/// @title \r\n/// @author bjwswang\r\ncontract MulSig is Initializable, OwnableUpgradeable {\r\n    bytes32 public constant FOUNDATION_MANAGER = keccak256(\"FOUNDATION_MANAGER\");\r\n    bytes32 public constant FEEDER = keccak256(\"FEEDER\");\r\n\r\n    mapping(uint256 => proposal) private proposals;\r\n    uint256[] private pendingProposals;\r\n    uint256 private proposalIDx;\r\n    uint256 private confirmDuration;\r\n\r\n    IDAO private _dao;\r\n    IGovernance private _governance;\r\n    IParameterInfo private _parameterInfo;\r\n    IRoles private _roles;\r\n\r\n    // \r\n    // - manager\r\n    // - \r\n    // - platform config\r\n    // - discount config\r\n    // - \r\n    struct proposal {\r\n        address proposer;\r\n        string name;\r\n        address _add;\r\n        uint256 value;\r\n        IParameterInfo.PriceDiscountConfig data;\r\n        uint256 _type; // 1: adminPermission 2: addResource  3: dataConfig 4: discountConfig 5: registerDApp\r\n        uint8 signatureCount;\r\n        uint256 excuteTime;\r\n        address producer;\r\n        address productionData;\r\n        mapping(address => uint8) signatures;\r\n\r\n        string treasureKind;\r\n        address payee;\r\n    }\r\n\r\n    /// @dev MulSig\r\n    /// @param _daoContract DAO\r\n    /// @param _governanceContract \r\n    /// @param _roleContract \r\n    /// @param _parameterInfoContract \r\n    function initialize(\r\n        address _daoContract,\r\n        address _governanceContract,\r\n        address _roleContract,\r\n        address _parameterInfoContract,\r\n        uint256 _confirmation\r\n    ) public initializer {\r\n        __Ownable_init();\r\n\r\n        confirmDuration = _confirmation * 1 minutes;\r\n\r\n        _dao = IDAO(_daoContract);\r\n        _governance = IGovernance(_governanceContract);\r\n        _parameterInfo = IParameterInfo(_parameterInfoContract);\r\n        _roles = IRoles(_roleContract);\r\n    }\r\n\r\n    modifier onlyDAO() {\r\n        require(_msgSender() == address(_dao), \"only DAO\");\r\n        _;\r\n    }\r\n\r\n    modifier onlyFoundationManager() {\r\n        require(_roles.hasRole(FOUNDATION_MANAGER, _msgSender()), \"only foundation manager\");\r\n        _;\r\n    }\r\n\r\n\r\n    event ManagePermission(uint256 proposalId, address proposer, string name, address _add);\r\n    /// @dev /\r\n    ///  - FoundationManager\r\n    ///  - Event:\r\n    ///  -   `event ManagePermission(address proposer, string name, address _add, uint256 proposalId);`\r\n    /// @param _name: ,:\r\n    ///   - FMD: FoundationManager\r\n    ///   - FMA: FoundationManager\r\n    ///   - FEEDERD: FEEDER\r\n    ///   - FEEDERAFEEDER\r\n    /// @param _account \r\n    /// @return bool proposal\r\n    function proposeToManagePermission(string memory _name, address _account) public onlyFoundationManager returns (bool) {\r\n        require(address(0) != _account, \"MulSig:zero address\");\r\n        uint256 proposalID = proposalIDx++;\r\n        proposal storage kk = proposals[proposalID];\r\n        kk.proposer = msg.sender;\r\n        kk.name = _name;\r\n        kk._add = _account;\r\n        kk._type = 1;\r\n        kk.signatureCount = 0;\r\n        pendingProposals.push(proposalID);\r\n\r\n        emit ManagePermission(proposalID, msg.sender, _name, _account);\r\n\r\n        return true;\r\n    }\r\n\r\n    event AddResource(uint256 proposalId, address proposer, string name, address producerContract, address productionContract);\r\n    /// @dev Treasure\r\n    ///  - Event:\r\n    ///     - event AddResource(address proposer, string name, address producerContract,address productionContract);\r\n    /// @param _name  \r\n    /// @param _producer \r\n    /// @param _productionData \r\n    /// @return bool proposal\r\n    function proposeToAddResource(\r\n        string memory _name,\r\n        address _producer,\r\n        address _productionData\r\n    ) public onlyFoundationManager returns (bool) {\r\n        uint256 proposalID = proposalIDx++;\r\n        proposal storage kk = proposals[proposalID];\r\n        kk.proposer = msg.sender;\r\n        kk.name = _name;\r\n        kk._type = 2;\r\n        kk.signatureCount = 0;\r\n        kk.producer = _producer;\r\n        kk.productionData = _productionData;\r\n\r\n        pendingProposals.push(proposalID);\r\n\r\n        emit AddResource(proposalID, msg.sender, _name, _producer, _productionData);\r\n\r\n        return true;\r\n    }\r\n\r\n    event RegisterDApp(uint256 proposalId, address proposer, string treasure, string dapp, address payee);\r\n\r\n    function proposeToRegisterDApp(\r\n        string memory _treasure,\r\n        string memory _dapp,\r\n        address _payee\r\n    ) public onlyFoundationManager returns (bool) {\r\n        require(keccak256(bytes(_treasure)) != keccak256(bytes(\"\")), \"empty treasure name\");\r\n        require(keccak256(bytes(_dapp)) != keccak256(bytes(\"\")), \"empty dapp name\");\r\n        require(_payee != address(0), \"empty DApp payee\");\r\n\r\n        (address producerContract,) = _governance.getTreasureByKind(_treasure);\r\n        require(producerContract != address(0), \"treasure with this kind not found\");\r\n\r\n        uint256 proposalID = proposalIDx++;\r\n        proposal storage kk = proposals[proposalID];\r\n        kk.proposer = msg.sender;\r\n\r\n        kk.name = _dapp;\r\n        kk.treasureKind = _treasure;\r\n        kk.payee = _payee;\r\n        kk._type = 5;\r\n\r\n        kk.signatureCount = 0;\r\n\r\n        pendingProposals.push(proposalID);\r\n\r\n        emit RegisterDApp(proposalID, kk.proposer, _treasure, _dapp, _payee);\r\n\r\n        return true;\r\n    }\r\n\r\n\r\n    event SetPlatformConfig(uint256 proposalId, address proposer, string name, uint256 _value);\r\n    /// @dev (parameterInfo)\r\n    ///  - Event\r\n    ///     -  event SetPlatformConfig(address proposer, string name, uint256 _value);\r\n    /// @param _name  key\r\n    /// @param _value \r\n    /// @return bool proposal\r\n    function proposeToSetPlatformConfig(string memory _name, uint256 _value) public onlyFoundationManager returns (bool) {\r\n        uint256 proposalID = proposalIDx++;\r\n        proposal storage kk = proposals[proposalID];\r\n        kk.proposer = msg.sender;\r\n        kk.name = _name;\r\n        kk.value = _value;\r\n        kk._type = 3;\r\n        kk.signatureCount = 0;\r\n        pendingProposals.push(proposalID);\r\n\r\n        emit SetPlatformConfig(proposalID, msg.sender, _name, _value);\r\n\r\n        return true;\r\n    }\r\n\r\n    event SetDiscountConfig(uint256 proposalId, address proposer, IParameterInfo.PriceDiscountConfig config);\r\n    /// @dev (parameterInfo.DiscountConfig)\r\n    ///  - Event\r\n    ///     - event SetDiscountConfig(address proposer,IParameterInfo.PriceDiscountConfig config);\r\n    ///       struct PriceDiscountConfig {\r\n    ///         uint256 API;\r\n    ///         uint256 sulphur;\r\n    ///         uint256[4] discount;\r\n    ///       }\r\n    /// @param b1  API\r\n    /// @param b2  sulphur\r\n    /// @param b3  discount[0]\r\n    /// @param b4  discount[1]\r\n    /// @param b5  discount[2]\r\n    /// @param b6  discount[3]\r\n    /// @return bool proposal\r\n    function proposeToSetDiscountConfig(\r\n        uint256 b1,\r\n        uint256 b2,\r\n        uint256 b3,\r\n        uint256 b4,\r\n        uint256 b5,\r\n        uint256 b6\r\n    ) public onlyFoundationManager returns (bool) {\r\n        uint256 proposalID = proposalIDx++;\r\n        proposal storage kk = proposals[proposalID];\r\n        kk.proposer = msg.sender;\r\n        kk.data.API = b1;\r\n        kk.data.sulphur = b2;\r\n        kk.data.discount[0] = b3;\r\n        kk.data.discount[1] = b4;\r\n        kk.data.discount[2] = b5;\r\n        kk.data.discount[3] = b6;\r\n        kk._type = 4;\r\n        kk.signatureCount = 0;\r\n        pendingProposals.push(proposalID);\r\n\r\n        emit SetDiscountConfig(proposalID, msg.sender, kk.data);\r\n\r\n        return true;\r\n    }\r\n\r\n    /// @dev pendingproposal\r\n    /// @return uint256[] proposal id\r\n    function getPendingProposals() public view onlyFoundationManager returns (uint256[] memory) {\r\n        return pendingProposals;\r\n    }\r\n\r\n    event ProposalSigned(uint256 proposalId, address signer);\r\n    /// @dev FoundationManagerproposal\r\n    /// @param _proposalId ID\r\n    /// @return bool \r\n    function signTransaction(uint256 _proposalId) public onlyFoundationManager returns (bool) {\r\n        proposal storage pro = proposals[_proposalId];\r\n        //  \r\n        require(pro.signatureCount < _governance.fmThreshold(), \"limit\");\r\n        // signature\r\n        require(pro.signatures[msg.sender] != 1, \"already signed\");\r\n        // \r\n        pro.signatures[msg.sender] = 1;\r\n        pro.signatureCount++;\r\n\r\n        // ()\r\n        if (pro.signatureCount >= _governance.fmThreshold()) {\r\n            // \r\n            pro.excuteTime = block.timestamp + confirmDuration;\r\n        }\r\n        emit ProposalSigned(_proposalId, msg.sender);\r\n\r\n        return true;\r\n    }\r\n\r\n    event ProposalExecuted(uint256 proposalId);\r\n    /// @dev FoundationManagerproposal(Id\r\n    /// @param _proposalId ID\r\n    /// @return bool \r\n    function excuteProposal(uint256 _proposalId) public onlyFoundationManager returns (bool) {\r\n        proposal storage pro = proposals[_proposalId];\r\n        require(pro.excuteTime <= block.timestamp, \"executeTime not meet\");\r\n\r\n        if (pro._type == 1) {\r\n            if (keccak256(bytes(pro.name)) == keccak256(bytes(\"FMD\"))) {\r\n                _roles.revokeRole(FOUNDATION_MANAGER, pro._add);\r\n            } else if (keccak256(bytes(pro.name)) == keccak256(bytes(\"FMA\"))) {\r\n                _roles.grantRole(FOUNDATION_MANAGER, pro._add);\r\n            }\r\n            if (keccak256(bytes(pro.name)) == keccak256(bytes(\"FEEDERD\"))) {\r\n                _roles.revokeRole(FEEDER, pro._add);\r\n            } else if (keccak256(bytes(pro.name)) == keccak256(bytes(\"FEEDERA\"))) {\r\n                _roles.grantRole(FEEDER, pro._add);\r\n            }\r\n        } else if (pro._type == 2) {\r\n            // treasure management\r\n            _governance.addTreasure(pro.name, pro.producer, pro.productionData);\r\n        } else if (pro._type == 3) {\r\n            _parameterInfo.setPlatformConfig(pro.name, pro.value);\r\n        } else if (pro._type == 4) {\r\n            _parameterInfo.setPriceDiscountConfig(\r\n                pro.data.API,\r\n                pro.data.sulphur,\r\n                pro.data.discount[0],\r\n                pro.data.discount[1],\r\n                pro.data.discount[2],\r\n                pro.data.discount[3]\r\n            );\r\n        } else if (pro._type == 5) {\r\n            (address producerAddr,) = _governance.getTreasureByKind(pro.treasureKind);\r\n            require(producerAddr != address(0), \"treasure not found with proposal's treasure kind\");\r\n            IProducer _producer = IProducer(producerAddr);\r\n            _producer.registerDAppConnect(pro.name, pro.payee);\r\n        }\r\n        deleteProposals(_proposalId);\r\n\r\n        emit ProposalExecuted(_proposalId);\r\n\r\n        return true;\r\n    }\r\n\r\n    struct ProposalResponse {\r\n        string name;\r\n        address _add;\r\n        uint256 a1;\r\n        uint256 a2;\r\n        uint256 a3;\r\n        uint256 a4;\r\n        uint256 a5;\r\n        uint256 a6;\r\n        uint256 executeTime;\r\n    }\r\n\r\n    /**\r\n      * ID\r\n      *\r\n      * @param _proposalId \r\n     * @return ProposalResponse\r\n     */\r\n    function transactionDetails(uint256 _proposalId)\r\n    public\r\n    view\r\n    returns (ProposalResponse memory)\r\n    {\r\n        proposal storage pro = proposals[_proposalId];\r\n        ProposalResponse memory pr;\r\n        if (pro._type == 1) {\r\n            pr = ProposalResponse(pro.name, pro._add, 0, 0, 0, 0, 0, 0, pro.excuteTime);\r\n        } else if (pro._type == 2) {\r\n            pr = ProposalResponse(pro.name, address(0), 0, 0, 0, 0, 0, 0, pro.excuteTime);\r\n        } else if (pro._type == 3) {\r\n            pr = ProposalResponse(pro.name, address(0), pro.value, 0, 0, 0, 0, 0, pro.excuteTime);\r\n        } else if (pro._type == 4) {\r\n            pr = ProposalResponse(\r\n                \"0\",\r\n                address(0),\r\n                pro.data.API,\r\n                pro.data.sulphur,\r\n                pro.data.discount[0],\r\n                pro.data.discount[1],\r\n                pro.data.discount[2],\r\n                pro.data.discount[3],\r\n                pro.excuteTime\r\n            );\r\n        }\r\n        return pr;\r\n    }\r\n\r\n    /// @dev proposal\r\n    /// @param _proposalId ID\r\n    function deleteProposals(uint256 _proposalId) public onlyFoundationManager {\r\n        uint8 replace = 0;\r\n        for (uint256 i = 0; i < pendingProposals.length; i++) {\r\n            if (1 == replace) {\r\n                pendingProposals[i - 1] = pendingProposals[i];\r\n            } else if (_proposalId == pendingProposals[i]) {\r\n                replace = 1;\r\n            }\r\n        }\r\n        if (1 == replace) {\r\n            delete pendingProposals[pendingProposals.length - 1];\r\n            pendingProposals.pop();\r\n            delete proposals[_proposalId];\r\n        }\r\n    }\r\n}\r\n",
  "sourcePath": "D:\\work\\Treasurenet-contracts\\fork\\treasurenet-contracts\\contracts\\Governance\\MulSig.sol",
  "compiler": {
    "name": "solc",
    "version": "0.8.10+commit.fc410830.Emscripten.clang"
  },
  "schemaVersion": "3.4.16",
  "updatedAt": "2024-04-29T07:29:52.959Z",
  "devdoc": {
    "author": "bjwswang",
    "kind": "dev",
    "methods": {
      "deleteProposals(uint256)": {
        "details": "proposal",
        "params": {
          "_proposalId": "ID"
        }
      },
      "excuteProposal(uint256)": {
        "details": "FoundationManagerproposal(Id",
        "params": {
          "_proposalId": "ID"
        },
        "returns": {
          "_0": "bool "
        }
      },
      "getPendingProposals()": {
        "details": "pendingproposal",
        "returns": {
          "_0": "uint256[] proposal id"
        }
      },
      "initialize(address,address,address,address,uint256)": {
        "details": "MulSig",
        "params": {
          "_daoContract": "DAO",
          "_governanceContract": "",
          "_parameterInfoContract": "",
          "_roleContract": ""
        }
      },
      "owner()": {
        "details": "Returns the address of the current owner."
      },
      "proposeToAddResource(string,address,address)": {
        "details": "Treasure  - Event:     - event AddResource(address proposer, string name, address producerContract,address productionContract);",
        "params": {
          "_name": "",
          "_producer": "",
          "_productionData": ""
        },
        "returns": {
          "_0": "bool proposal"
        }
      },
      "proposeToManagePermission(string,address)": {
        "details": "/  - FoundationManager  - Event:  -   `event ManagePermission(address proposer, string name, address _add, uint256 proposalId);`",
        "params": {
          "_account": "",
          "_name": ": ,:   - FMD: FoundationManager   - FMA: FoundationManager   - FEEDERD: FEEDER   - FEEDERAFEEDER"
        },
        "returns": {
          "_0": "bool proposal"
        }
      },
      "proposeToSetDiscountConfig(uint256,uint256,uint256,uint256,uint256,uint256)": {
        "details": "(parameterInfo.DiscountConfig)  - Event     - event SetDiscountConfig(address proposer,IParameterInfo.PriceDiscountConfig config);       struct PriceDiscountConfig {         uint256 API;         uint256 sulphur;         uint256[4] discount;       }",
        "params": {
          "b1": "API",
          "b2": "sulphur",
          "b3": "discount[0]",
          "b4": "discount[1]",
          "b5": "discount[2]",
          "b6": "discount[3]"
        },
        "returns": {
          "_0": "bool proposal"
        }
      },
      "proposeToSetPlatformConfig(string,uint256)": {
        "details": "(parameterInfo)  - Event     -  event SetPlatformConfig(address proposer, string name, uint256 _value);",
        "params": {
          "_name": "key",
          "_value": ""
        },
        "returns": {
          "_0": "bool proposal"
        }
      },
      "renounceOwnership()": {
        "details": "Leaves the contract without owner. It will not be possible to call `onlyOwner` functions anymore. Can only be called by the current owner. NOTE: Renouncing ownership will leave the contract without an owner, thereby removing any functionality that is only available to the owner."
      },
      "signTransaction(uint256)": {
        "details": "FoundationManagerproposal",
        "params": {
          "_proposalId": "ID"
        },
        "returns": {
          "_0": "bool "
        }
      },
      "transactionDetails(uint256)": {
        "params": {
          "_proposalId": ""
        },
        "returns": {
          "_0": "ProposalResponse"
        }
      },
      "transferOwnership(address)": {
        "details": "Transfers ownership of the contract to a new account (`newOwner`). Can only be called by the current owner."
      }
    },
    "title": "",
    "version": 1
  },
  "userdoc": {
    "kind": "user",
    "methods": {
      "transactionDetails(uint256)": {
        "notice": "ID"
      }
    },
    "version": 1
  }
}