{
  "contractName": "OilData",
  "abi": [
    {
      "anonymous": false,
      "inputs": [
        {
          "indexed": false,
          "internalType": "string",
          "name": "kind",
          "type": "string"
        },
        {
          "indexed": false,
          "internalType": "bytes32",
          "name": "requestId",
          "type": "bytes32"
        }
      ],
      "name": "CancleAssetValueRequest",
      "type": "event"
    },
    {
      "anonymous": false,
      "inputs": [
        {
          "indexed": false,
          "internalType": "string",
          "name": "kind",
          "type": "string"
        },
        {
          "indexed": false,
          "internalType": "bytes32",
          "name": "uniqueId",
          "type": "bytes32"
        },
        {
          "indexed": false,
          "internalType": "bytes32",
          "name": "requestId",
          "type": "bytes32"
        }
      ],
      "name": "CancleTrustedDataRequest",
      "type": "event"
    },
    {
      "anonymous": false,
      "inputs": [
        {
          "indexed": false,
          "internalType": "string",
          "name": "treasureKind",
          "type": "string"
        },
        {
          "indexed": false,
          "internalType": "bytes32",
          "name": "_uniqueId",
          "type": "bytes32"
        },
        {
          "indexed": false,
          "internalType": "uint256",
          "name": "_month",
          "type": "uint256"
        },
        {
          "indexed": false,
          "internalType": "uint256",
          "name": "penaltyAmount",
          "type": "uint256"
        },
        {
          "indexed": false,
          "internalType": "uint256",
          "name": "percent",
          "type": "uint256"
        }
      ],
      "name": "ClearingPenalty",
      "type": "event"
    },
    {
      "anonymous": false,
      "inputs": [
        {
          "indexed": false,
          "internalType": "string",
          "name": "treasureKind",
          "type": "string"
        },
        {
          "indexed": false,
          "internalType": "bytes32",
          "name": "_uniqueId",
          "type": "bytes32"
        },
        {
          "indexed": false,
          "internalType": "uint256",
          "name": "_month",
          "type": "uint256"
        },
        {
          "indexed": false,
          "internalType": "uint256",
          "name": "rewardAmount",
          "type": "uint256"
        }
      ],
      "name": "ClearingReward",
      "type": "event"
    },
    {
      "anonymous": false,
      "inputs": [
        {
          "indexed": false,
          "internalType": "uint256",
          "name": "time",
          "type": "uint256"
        },
        {
          "indexed": false,
          "internalType": "address",
          "name": "operator",
          "type": "address"
        },
        {
          "indexed": false,
          "internalType": "enum Expense.Action",
          "name": "_type",
          "type": "uint8"
        },
        {
          "indexed": false,
          "internalType": "string",
          "name": "content",
          "type": "string"
        },
        {
          "indexed": false,
          "internalType": "uint256",
          "name": "tokens",
          "type": "uint256"
        }
      ],
      "name": "ExpenseHistory",
      "type": "event"
    },
    {
      "anonymous": false,
      "inputs": [
        {
          "indexed": false,
          "internalType": "uint8",
          "name": "version",
          "type": "uint8"
        }
      ],
      "name": "Initialized",
      "type": "event"
    },
    {
      "anonymous": false,
      "inputs": [
        {
          "indexed": false,
          "internalType": "string",
          "name": "treasureKind",
          "type": "string"
        },
        {
          "indexed": false,
          "internalType": "bytes32",
          "name": "uniqueId",
          "type": "bytes32"
        },
        {
          "indexed": false,
          "internalType": "uint256",
          "name": "month",
          "type": "uint256"
        },
        {
          "indexed": false,
          "internalType": "uint256",
          "name": "date",
          "type": "uint256"
        },
        {
          "indexed": false,
          "internalType": "uint256",
          "name": "amount",
          "type": "uint256"
        },
        {
          "indexed": false,
          "internalType": "uint256",
          "name": "price",
          "type": "uint256"
        }
      ],
      "name": "ProducerProductionData",
      "type": "event"
    },
    {
      "anonymous": false,
      "inputs": [
        {
          "indexed": false,
          "internalType": "string",
          "name": "treasureKind",
          "type": "string"
        },
        {
          "indexed": false,
          "internalType": "uint256",
          "name": "date",
          "type": "uint256"
        },
        {
          "indexed": false,
          "internalType": "uint256",
          "name": "value",
          "type": "uint256"
        }
      ],
      "name": "ReceiveAssetValue",
      "type": "event"
    },
    {
      "anonymous": false,
      "inputs": [
        {
          "indexed": false,
          "internalType": "string",
          "name": "kind",
          "type": "string"
        },
        {
          "indexed": false,
          "internalType": "bytes32",
          "name": "requestid",
          "type": "bytes32"
        }
      ],
      "name": "RegisterAssetValueRequest",
      "type": "event"
    },
    {
      "anonymous": false,
      "inputs": [
        {
          "indexed": false,
          "internalType": "string",
          "name": "kind",
          "type": "string"
        },
        {
          "indexed": false,
          "internalType": "bytes32",
          "name": "uniqueId",
          "type": "bytes32"
        },
        {
          "indexed": false,
          "internalType": "bytes32",
          "name": "requestid",
          "type": "bytes32"
        }
      ],
      "name": "RegisterTrustedDataRequest",
      "type": "event"
    },
    {
      "anonymous": false,
      "inputs": [
        {
          "indexed": false,
          "internalType": "bytes32",
          "name": "requestid",
          "type": "bytes32"
        },
        {
          "indexed": false,
          "internalType": "address",
          "name": "callbackAddress",
          "type": "address"
        },
        {
          "indexed": false,
          "internalType": "bytes4",
          "name": "callbackFunctionId",
          "type": "bytes4"
        },
        {
          "indexed": false,
          "internalType": "uint256",
          "name": "nonce",
          "type": "uint256"
        }
      ],
      "name": "Request",
      "type": "event"
    },
    {
      "anonymous": false,
      "inputs": [
        {
          "indexed": false,
          "internalType": "string",
          "name": "treasureKind",
          "type": "string"
        },
        {
          "indexed": false,
          "internalType": "bytes32",
          "name": "uniqueId",
          "type": "bytes32"
        },
        {
          "indexed": false,
          "internalType": "uint256",
          "name": "month",
          "type": "uint256"
        },
        {
          "indexed": false,
          "internalType": "uint256",
          "name": "amount",
          "type": "uint256"
        }
      ],
      "name": "TrustedProductionData",
      "type": "event"
    },
    {
      "anonymous": false,
      "inputs": [
        {
          "indexed": false,
          "internalType": "bytes32",
          "name": "_uniqueId",
          "type": "bytes32"
        },
        {
          "indexed": false,
          "internalType": "uint256",
          "name": "month",
          "type": "uint256"
        },
        {
          "indexed": false,
          "internalType": "uint256",
          "name": "amount",
          "type": "uint256"
        }
      ],
      "name": "VerifiedProduction",
      "type": "event"
    },
    {
      "inputs": [],
      "name": "FEEDER",
      "outputs": [
        {
          "internalType": "bytes32",
          "name": "",
          "type": "bytes32"
        }
      ],
      "stateMutability": "view",
      "type": "function"
    },
    {
      "inputs": [],
      "name": "FOUNDATION_MANAGER",
      "outputs": [
        {
          "internalType": "bytes32",
          "name": "",
          "type": "bytes32"
        }
      ],
      "stateMutability": "view",
      "type": "function"
    },
    {
      "inputs": [],
      "name": "cancelAssetValueRequest",
      "outputs": [
        {
          "internalType": "bool",
          "name": "",
          "type": "bool"
        }
      ],
      "stateMutability": "nonpayable",
      "type": "function"
    },
    {
      "inputs": [
        {
          "internalType": "bytes32",
          "name": "_uniqueId",
          "type": "bytes32"
        }
      ],
      "name": "cancelTrustedDataRequest",
      "outputs": [
        {
          "internalType": "bool",
          "name": "",
          "type": "bool"
        }
      ],
      "stateMutability": "nonpayable",
      "type": "function"
    },
    {
      "inputs": [
        {
          "internalType": "bytes32",
          "name": "_uniqueId",
          "type": "bytes32"
        },
        {
          "internalType": "uint256",
          "name": "_month",
          "type": "uint256"
        }
      ],
      "name": "clearing",
      "outputs": [],
      "stateMutability": "nonpayable",
      "type": "function"
    },
    {
      "inputs": [
        {
          "internalType": "uint256",
          "name": "_date",
          "type": "uint256"
        }
      ],
      "name": "getAssetValue",
      "outputs": [
        {
          "internalType": "uint256",
          "name": "",
          "type": "uint256"
        }
      ],
      "stateMutability": "nonpayable",
      "type": "function"
    },
    {
      "inputs": [],
      "name": "getAssetValueRequestID",
      "outputs": [
        {
          "internalType": "bytes32",
          "name": "",
          "type": "bytes32"
        }
      ],
      "stateMutability": "view",
      "type": "function"
    },
    {
      "inputs": [
        {
          "internalType": "bytes32",
          "name": "_uniqueId",
          "type": "bytes32"
        }
      ],
      "name": "getTDRequestID",
      "outputs": [
        {
          "internalType": "bytes32",
          "name": "",
          "type": "bytes32"
        }
      ],
      "stateMutability": "view",
      "type": "function"
    },
    {
      "inputs": [
        {
          "internalType": "address",
          "name": "_account",
          "type": "address"
        }
      ],
      "name": "marginOf",
      "outputs": [
        {
          "internalType": "uint256",
          "name": "",
          "type": "uint256"
        },
        {
          "internalType": "enum Expense.Status",
          "name": "",
          "type": "uint8"
        }
      ],
      "stateMutability": "view",
      "type": "function"
    },
    {
      "inputs": [],
      "name": "prepay",
      "outputs": [
        {
          "internalType": "bool",
          "name": "",
          "type": "bool"
        }
      ],
      "stateMutability": "payable",
      "type": "function"
    },
    {
      "inputs": [
        {
          "internalType": "bytes32",
          "name": "_requestId",
          "type": "bytes32"
        },
        {
          "internalType": "uint256",
          "name": "_date",
          "type": "uint256"
        },
        {
          "internalType": "uint256",
          "name": "_value",
          "type": "uint256"
        }
      ],
      "name": "receiveAssetValue",
      "outputs": [
        {
          "internalType": "uint256",
          "name": "",
          "type": "uint256"
        }
      ],
      "stateMutability": "nonpayable",
      "type": "function"
    },
    {
      "inputs": [],
      "name": "registerAssetValueRequest",
      "outputs": [
        {
          "internalType": "bytes32",
          "name": "",
          "type": "bytes32"
        }
      ],
      "stateMutability": "nonpayable",
      "type": "function"
    },
    {
      "inputs": [
        {
          "internalType": "bytes32",
          "name": "_uniqueId",
          "type": "bytes32"
        }
      ],
      "name": "registerTrustedDataRequest",
      "outputs": [
        {
          "internalType": "bytes32",
          "name": "",
          "type": "bytes32"
        }
      ],
      "stateMutability": "nonpayable",
      "type": "function"
    },
    {
      "inputs": [
        {
          "internalType": "uint256",
          "name": "amount",
          "type": "uint256"
        }
      ],
      "name": "withdraw",
      "outputs": [
        {
          "internalType": "bool",
          "name": "",
          "type": "bool"
        }
      ],
      "stateMutability": "payable",
      "type": "function"
    },
    {
      "stateMutability": "payable",
      "type": "receive"
    },
    {
      "inputs": [
        {
          "internalType": "string",
          "name": "_treasureKind",
          "type": "string"
        },
        {
          "internalType": "address",
          "name": "_oracleContract",
          "type": "address"
        },
        {
          "internalType": "address",
          "name": "_rolesContract",
          "type": "address"
        },
        {
          "internalType": "address",
          "name": "_parameterInfoContract",
          "type": "address"
        },
        {
          "internalType": "address",
          "name": "_producerContract",
          "type": "address"
        },
        {
          "internalType": "address",
          "name": "_tatContract",
          "type": "address"
        }
      ],
      "name": "initialize",
      "outputs": [],
      "stateMutability": "nonpayable",
      "type": "function"
    },
    {
      "inputs": [
        {
          "internalType": "bytes32",
          "name": "_requestId",
          "type": "bytes32"
        },
        {
          "internalType": "bytes32",
          "name": "_uniqueId",
          "type": "bytes32"
        },
        {
          "components": [
            {
              "internalType": "bytes32",
              "name": "uniqueId",
              "type": "bytes32"
            },
            {
              "internalType": "uint256",
              "name": "counterId",
              "type": "uint256"
            },
            {
              "internalType": "address",
              "name": "account",
              "type": "address"
            },
            {
              "internalType": "uint256",
              "name": "amount",
              "type": "uint256"
            },
            {
              "internalType": "uint256",
              "name": "price",
              "type": "uint256"
            },
            {
              "internalType": "uint256",
              "name": "date",
              "type": "uint256"
            },
            {
              "internalType": "uint256",
              "name": "month",
              "type": "uint256"
            },
            {
              "internalType": "string",
              "name": "miner",
              "type": "string"
            },
            {
              "internalType": "uint256",
              "name": "blockNumber",
              "type": "uint256"
            },
            {
              "internalType": "uint256",
              "name": "blockReward",
              "type": "uint256"
            },
            {
              "internalType": "enum IProductionData.ProduceDataStatus",
              "name": "status",
              "type": "uint8"
            }
          ],
          "internalType": "struct IProductionData.ProduceData",
          "name": "_produceData",
          "type": "tuple"
        }
      ],
      "name": "receiveTrustedProductionData",
      "outputs": [],
      "stateMutability": "nonpayable",
      "type": "function"
    },
    {
      "inputs": [
        {
          "internalType": "bytes32",
          "name": "_uniqueId",
          "type": "bytes32"
        },
        {
          "components": [
            {
              "internalType": "bytes32",
              "name": "uniqueId",
              "type": "bytes32"
            },
            {
              "internalType": "uint256",
              "name": "counterId",
              "type": "uint256"
            },
            {
              "internalType": "address",
              "name": "account",
              "type": "address"
            },
            {
              "internalType": "uint256",
              "name": "amount",
              "type": "uint256"
            },
            {
              "internalType": "uint256",
              "name": "price",
              "type": "uint256"
            },
            {
              "internalType": "uint256",
              "name": "date",
              "type": "uint256"
            },
            {
              "internalType": "uint256",
              "name": "month",
              "type": "uint256"
            },
            {
              "internalType": "string",
              "name": "miner",
              "type": "string"
            },
            {
              "internalType": "uint256",
              "name": "blockNumber",
              "type": "uint256"
            },
            {
              "internalType": "uint256",
              "name": "blockReward",
              "type": "uint256"
            },
            {
              "internalType": "enum IProductionData.ProduceDataStatus",
              "name": "status",
              "type": "uint8"
            }
          ],
          "internalType": "struct IProductionData.ProduceData",
          "name": "_produceData",
          "type": "tuple"
        }
      ],
      "name": "setProductionData",
      "outputs": [],
      "stateMutability": "nonpayable",
      "type": "function"
    },
    {
      "inputs": [
        {
          "internalType": "bytes32",
          "name": "_uniqueId",
          "type": "bytes32"
        },
        {
          "internalType": "uint256",
          "name": "month",
          "type": "uint256"
        }
      ],
      "name": "getProductionData",
      "outputs": [
        {
          "components": [
            {
              "internalType": "bytes32",
              "name": "uniqueId",
              "type": "bytes32"
            },
            {
              "internalType": "uint256",
              "name": "counterId",
              "type": "uint256"
            },
            {
              "internalType": "address",
              "name": "account",
              "type": "address"
            },
            {
              "internalType": "uint256",
              "name": "amount",
              "type": "uint256"
            },
            {
              "internalType": "uint256",
              "name": "price",
              "type": "uint256"
            },
            {
              "internalType": "uint256",
              "name": "date",
              "type": "uint256"
            },
            {
              "internalType": "uint256",
              "name": "month",
              "type": "uint256"
            },
            {
              "internalType": "string",
              "name": "miner",
              "type": "string"
            },
            {
              "internalType": "uint256",
              "name": "blockNumber",
              "type": "uint256"
            },
            {
              "internalType": "uint256",
              "name": "blockReward",
              "type": "uint256"
            },
            {
              "internalType": "enum IProductionData.ProduceDataStatus",
              "name": "status",
              "type": "uint8"
            }
          ],
          "internalType": "struct IProductionData.ProduceData",
          "name": "",
          "type": "tuple"
        }
      ],
      "stateMutability": "view",
      "type": "function"
    }
  ],
  "bytecode": "0x608060405234801561001057600080fd5b50613c77806100206000396000f3fe60806040526004361061010d5760003560e01c80636d8bc0a911610095578063a31bffb811610064578063a31bffb814610310578063ac398a7414610330578063bd8742cd14610350578063dd19288a1461037d578063f31c336d1461039257600080fd5b80636d8bc0a9146102445780637928c018146102785780638182e70714610298578063a23270b2146102b857600080fd5b806334fe1d1e116100dc57806334fe1d1e146101a65780636447189a146101ae578063664e504c146101e257806366a88c3d1461020f57806366c0e6991461022457600080fd5b806305c12a46146101195780630fb029641461014c57806323d7c9c1146101615780632e1a7d4d1461018357600080fd5b3661011457005b600080fd5b34801561012557600080fd5b50610139610134366004612f8f565b6103b2565b6040519081526020015b60405180910390f35b34801561015857600080fd5b506101396103c3565b34801561016d57600080fd5b5061018161017c366004612fa8565b610474565b005b610196610191366004612f8f565b61052c565b6040519015158152602001610143565b610196610678565b3480156101ba57600080fd5b506101397f0a59a035ae0a00eac2a600a582577e6f107971288ab786d897919ae27385652481565b3480156101ee57600080fd5b506102026101fd366004612fa8565b610a42565b6040516101439190613058565b34801561021b57600080fd5b50610196610c44565b34801561023057600080fd5b5061018161023f36600461330f565b610ca1565b34801561025057600080fd5b506101397fd8e00efd67a9b34b6da7b941bb2d92f1c529ce28e67d637c0b137058422e066981565b34801561028457600080fd5b50610196610293366004612f8f565b611099565b3480156102a457600080fd5b506101816102b336600461335f565b611162565b3480156102c457600080fd5b506103026102d33660046133fa565b6001600160a01b0316600090815260036020526040902080546001909101549091600160a01b90910460ff1690565b604051610143929190613417565b34801561031c57600080fd5b5061018161032b366004613434565b611280565b34801561033c57600080fd5b5061013961034b36600461347b565b611991565b34801561035c57600080fd5b5061013961036b366004612f8f565b6000908152600c602052604090205490565b34801561038957600080fd5b50600b54610139565b34801561039e57600080fd5b506101396103ad366004612f8f565b611b99565b60006103bd82611cd6565b92915050565b600080600b541461040f5760405162461bcd60e51b8152602060048201526011602482015270185b1c9958591e481c9959da5cdd195c99607a1b60448201526064015b60405180910390fd5b6000610419611e22565b905061042d30632b0e629d60e21b83611e3d565b600b8190556040517fa4f2b75fa48d1260c0196fd83a5dbe1616b5aad1f700d725b5d4681ab1a69c0d91610464916005919061357c565b60405180910390a15050600b5490565b81600160085460405163dc8b577f60e01b8152600481018490526001600160a01b039091169063dc8b577f90602401602060405180830381865afa1580156104c0573d6000803e3d6000fd5b505050506040513d601f19601f820116820180604052508101906104e4919061359e565b60028111156104f5576104f5613022565b146105125760405162461bcd60e51b8152600401610406906135bb565b61051b83611f67565b506105268383611fde565b50505050565b60003360016001600160a01b038216600090815260036020526040902060010154600160a01b900460ff16600281111561056857610568613022565b146105855760405162461bcd60e51b8152600401610406906135ff565b33600090815260036020526040902080548411156105dc5760405162461bcd60e51b81526020600482015260146024820152730dac2e4ced2dc40d2e640dcdee840cadcdeeaced60631b6044820152606401610406565b33600090815260036020526040812080548692906105fb908490613659565b9091555050604051339085156108fc029086906000818181858888f1935050505015801561062d573d6000803e3d6000fd5b507f28671cdd0231ca4027ae5f2f7cb3942f7b71850e856473a9878c5ffe8a7b2feb42336002876040516106649493929190613680565b60405180910390a160019250505b50919050565b60008034116106c95760405162461bcd60e51b815260206004820152601d60248201527f7061796d656e74206d75737420626967676572207468616e207a65726f0000006044820152606401610406565b336000908152600360205260408120906001820154600160a01b900460ff1660028111156106f9576106f9613022565b141561078d573480825560018083018054600160a01b60ff60a01b1990911681178255336000908152600360205260409020938455815492840180546001600160a01b039094166001600160a01b031985168117825592548695949083900460ff169391926001600160a81b03199091169091179083600281111561078057610780613022565b02179055509050506109fc565b600180820154600160a01b900460ff1660028111156107ae576107ae613022565b141561083857348160000160008282546107c891906136d1565b9091555050336000908152600360205260409020815481556001808301805491830180546001600160a01b031981166001600160a01b03949094169384178255915485949360ff600160a01b9283900416936001600160a81b031916179083600281111561078057610780613022565b60026001820154600160a01b900460ff16600281111561085a5761085a613022565b14156109fc578054348111610932576108738134613659565b80835560018084018054600160a01b6001600160a81b031991821681178355336000908152600360205260409020948555825493850180546001600160a01b039095166001600160a01b031986168117825593548896959083900460ff169491931617908360028111156108e9576108e9613022565b0217905550505060018201546040516001600160a01b039091169082156108fc029083906000818181858888f1935050505015801561092c573d6000803e3d6000fd5b506109fa565b348260000160008282546109469190613659565b9091555050336000908152600360205260409020825481556001808401805491830180546001600160a01b031981166001600160a01b03949094169384178255915486949360ff600160a01b9283900416936001600160a81b03191617908360028111156109b6576109b6613022565b0217905550505060018201546040516001600160a01b03909116903480156108fc02916000818181858888f193505050501580156109f8573d6000803e3d6000fd5b505b505b7f28671cdd0231ca4027ae5f2f7cb3942f7b71850e856473a9878c5ffe8a7b2feb4233600134604051610a3294939291906136e9565b60405180910390a1600191505090565b610a4a612e48565b610a52612e48565b60005b600084815260116020526040902054811015610c3c576000848152601160205260409020805486919083908110610a8e57610a8e61373a565b90600052602060002090600b0201600001541415610c2a576000848152601160205260409020805482908110610ac657610ac661373a565b90600052602060002090600b02016040518061016001604052908160008201548152602001600182015481526020016002820160009054906101000a90046001600160a01b03166001600160a01b03166001600160a01b0316815260200160038201548152602001600482015481526020016005820154815260200160068201548152602001600782018054610b5b906134a7565b80601f0160208091040260200160405190810160405280929190818152602001828054610b87906134a7565b8015610bd45780601f10610ba957610100808354040283529160200191610bd4565b820191906000526020600020905b815481529060010190602001808311610bb757829003601f168201915b50505091835250506008820154602082015260098201546040820152600a82015460609091019060ff166002811115610c0f57610c0f613022565b6002811115610c2057610c20613022565b9052509150610c3c565b80610c3481613750565b915050610a55565b509392505050565b6000610c5a600b54306366c0e69960e01b6125ab565b6000600b8190556040517f8671e9ffb14cf0f79bf6f9c276f3f060f8041d92e6148936c09f3e37298ab64791610c93916005919061357c565b60405180910390a150600190565b600a546001600160a01b03166391d148547f0a59a035ae0a00eac2a600a582577e6f107971288ab786d897919ae273856524336040516001600160e01b031960e085901b16815260048101929092526001600160a01b03166024820152604401602060405180830381865afa158015610d1e573d6000803e3d6000fd5b505050506040513d601f19601f82011682018060405250810190610d42919061376b565b610d8a5760405162461bcd60e51b81526020600482015260196024820152784f6e6c79204665656465722063616e2070757368206461746160381b6044820152606401610406565b81600160085460405163dc8b577f60e01b8152600481018490526001600160a01b039091169063dc8b577f90602401602060405180830381865afa158015610dd6573d6000803e3d6000fd5b505050506040513d601f19601f82011682018060405250810190610dfa919061359e565b6002811115610e0b57610e0b613022565b14610e285760405162461bcd60e51b8152600401610406906135bb565b6000838152600c60205260409020548414610e9f5760405162461bcd60e51b815260206004820152603160248201527f696e76616c6964206f7261636c6520726571756573742069642c6e6f7420666f604482015270722070726f64756374696f6e206461746160781b6064820152608401610406565b60c0820151610efb5760405162461bcd60e51b815260206004820152602260248201527f70726f64756374696f6e2064617461206d6f6e74682063616e74206265207a65604482015261726f60f01b6064820152608401610406565b6000610f0684612639565b60208082015160c0860151600090815260108352604080822089835290935291909120600201549192506001600160a01b0391821691161415610f6f57606083015160c0840151600090815260106020908152604080832088845290915290206003015561104c565b6020818101516001600160a01b03908116604086810191825260c0870180516000908152601086528281208a82528652919091208751815587850151600182015591516002830180546001600160a01b0319169190941617909255606086015160038201556080860151600482015560a086015160058201559051600682015560e085015180518693611009926007850192910190612ebe565b5061010082015160088201556101208201516009820155610140820151600a8201805460ff1916600183600281111561104457611044613022565b021790555050505b7f1d0909fc0006e2b3c252ccfa38040e4640aae5a2ad644bcb73a1e6f602f9c42b6005858560c00151866060015160405161108a949392919061378d565b60405180910390a15050505050565b6008546000906001600160a01b031633146110f65760405162461bcd60e51b815260206004820152601e60248201527f6f6e6c792070726f647563657220636f6e747261637420616c6c6f77656400006044820152606401610406565b6000828152600c60205260408120805491905561111b81306366c0e69960e01b6125ab565b7fcf2aeb56f97d9bef25e0a4ebe043f0caaaf5424f3d5a2d9a7f6458e93b7cab2a6005848360405161114f939291906137bc565b60405180910390a160019150505b919050565b600054610100900460ff16158080156111825750600054600160ff909116105b8061119c5750303b15801561119c575060005460ff166001145b6111ff5760405162461bcd60e51b815260206004820152602e60248201527f496e697469616c697a61626c653a20636f6e747261637420697320616c72656160448201526d191e481a5b9a5d1a585b1a5e995960921b6064820152608401610406565b6000805460ff191660011790558015611222576000805461ff0019166101001790555b611230878787878787612734565b8015611277576000805461ff0019169055604051600181527f7f26b83ff96e1f2b6a682f133852f6798a09c465da95921460cefb3847402498906020015b60405180910390a15b50505050505050565b81600160085460405163dc8b577f60e01b8152600481018490526001600160a01b039091169063dc8b577f90602401602060405180830381865afa1580156112cc573d6000803e3d6000fd5b505050506040513d601f19601f820116820180604052508101906112f0919061359e565b600281111561130157611301613022565b1461131e5760405162461bcd60e51b8152600401610406906135bb565b600061132984612639565b905080602001516001600160a01b03166113403390565b6001600160a01b03161461138d5760405162461bcd60e51b815260206004820152601460248201527336bab9ba103132903a343290383937b23ab1b2b960611b6044820152606401610406565b60008360c00151116113d95760405162461bcd60e51b81526020600482015260156024820152740f4cae4de40e0e4dec8eac6e8d2dedc40dadedce8d605b1b6044820152606401610406565b6127108360c001511061142e5760405162461bcd60e51b815260206004820152601860248201527f6d6f6e746820666f726d6174206973206e6f742059594d4d00000000000000006044820152606401610406565b60008360a00151116114795760405162461bcd60e51b81526020600482015260146024820152737a65726f2070726f64756374696f6e206461746560601b6044820152606401610406565b620f42408360a00151106114cf5760405162461bcd60e51b815260206004820152601960248201527f6461746520666f726d6174206973206e6f742059594d4d4444000000000000006044820152606401610406565b600083606001511161151c5760405162461bcd60e51b81526020600482015260166024820152751e995c9bc81c1c9bd91d58dd1a5bdb88185b5bdd5b9d60521b6044820152606401610406565b60065460408083015160608401519151636caa33c560e01b81526000936001600160a01b031692636caa33c59261156192909190600401918252602082015260400190565b602060405180830381865afa15801561157e573d6000803e3d6000fd5b505050506040513d601f19601f820116820180604052508101906115a291906137e1565b9050600061271080612710846115bb8960a00151611cd6565b89606001516115ca91906137fa565b6115d491906137fa565b6115e690670de0b6b3a76400006137fa565b6115f09190613819565b6115fa9190613819565b6116049190613819565b90506000805b60c08701516000908152601160205260409020548110156118295787601160008960c001518152602001908152602001600020828154811061164e5761164e61373a565b90600052602060002090600b02016000015414156118175760c087015160009081526011602052604081208054600194508390811061168f5761168f61373a565b60009182526020909120600a600b90920201015460ff1660028111156116b7576116b7613022565b146117135760405162461bcd60e51b815260206004820152602660248201527f70726f64756374696f6e2064617461207468617420686173206265656e2061756044820152653234ba32b21760d11b6064820152608401610406565b606087015160c0880151600090815260116020526040902080548390811061173d5761173d61373a565b90600052602060002090600b02016003015461175991906136d1565b60c0880151600090815260116020526040902080548390811061177e5761177e61373a565b90600052602060002090600b02016003018190555082601160008960c00151815260200190815260200160002082815481106117bc576117bc61373a565b90600052602060002090600b0201600401546117d891906136d1565b60c088015160009081526011602052604090208054839081106117fd576117fd61373a565b90600052602060002090600b020160040181905550611829565b8061182181613750565b91505061160a565b508061193f5786865260208401516001600160a01b03166040870152608086018290526012546020870152600061014087018190525060c0860180516000908152601160209081526040808320805460018082018355918552938390208b51600b90950201938455828b0151908401558901516002830180546001600160a01b0319166001600160a01b03909216919091179055606089015160038301556080890151600483015560a089015160058301559151600682015560e0880151805189936118fc926007850192910190612ebe565b5061010082015160088201556101208201516009820155610140820151600a8201805460ff1916600183600281111561193757611937613022565b021790555050505b61194d601280546001019055565b60c086015160a087015160608801516040517f5860c8de4e56ff5e724b71e8b03fbbf20006606febdf2e2d303a34390c91f0eb9361126e936005938d93899061383b565b600a546000906001600160a01b03166391d148547f0a59a035ae0a00eac2a600a582577e6f107971288ab786d897919ae273856524336040516001600160e01b031960e085901b16815260048101929092526001600160a01b03166024820152604401602060405180830381865afa158015611a11573d6000803e3d6000fd5b505050506040513d601f19601f82011682018060405250810190611a35919061376b565b611a7d5760405162461bcd60e51b81526020600482015260196024820152784f6e6c79204665656465722063616e2070757368206461746160381b6044820152606401610406565b600b548414611ace5760405162461bcd60e51b815260206004820152601960248201527f696e76616c6964206f7261636c652072657175657374206964000000000000006044820152606401610406565b620f42408310611b205760405162461bcd60e51b815260206004820152601960248201527f4461746520666f726d6174206973206e6f742059594d4d4444000000000000006044820152606401610406565b600082611b3b57611b3084611cd6565b925060019050611b49565b611b49600f80546001019055565b611b548484836127d3565b7f3bb3c1b8511f81c6b36916aa374276f49b7bc9dfe44b6420661f162590d7bf8560058585604051611b88939291906137bc565b60405180910390a150909392505050565b6008546000906001600160a01b03163314611bf65760405162461bcd60e51b815260206004820152601e60248201527f6f6e6c792070726f647563657220636f6e747261637420616c6c6f77656400006044820152606401610406565b6000828152600c602052604090205415611c5e5760405162461bcd60e51b815260206004820152602360248201527f70726f64756374206f7261636c65207265717565737420616c72656164792073604482015262195b9d60ea1b6064820152608401610406565b6000611c68611e22565b90506000611c7e306366c0e69960e01b84611e3d565b6000858152600c602052604090819020829055519091507f196f892e92466d317a7a16174d708f337dcd6b188b75297ff99c041a2fff6c7f90611cc790600590879085906137bc565b60405180910390a19392505050565b600080611ce2600f5490565b905080611cf25750600092915050565b6000838152600d60209081526040918290208251606081018452815481526001820154928101839052600290910154928101929092528015611d3657949350505050565b600a8310611dbb576000805b600a811015611da757600e611d58600187613659565b81548110611d6857611d6861373a565b90600052602060002090600302016001015482611d8591906136d1565b915084611d9181613877565b9550508080611d9f90613750565b915050611d42565b50611db3600a82613819565b915050611e1a565b6000805b84811015611e0b57600e8181548110611dda57611dda61373a565b90600052602060002090600302016001015482611df791906136d1565b915080611e0381613750565b915050611dbf565b50611e168482613819565b9150505b949350505050565b600254600090611e339060016128c5565b6002819055919050565b6040516bffffffffffffffffffffffff193060601b16602082015260348101829052600090819060540160408051808303601f190181529082905280516020909101206000546316f54b9960e11b83526001600160a01b0388811660048501526001600160e01b031988166024850152604484018790529193506201000090041690632dea9732906064016020604051808303816000875af1158015611ee7573d6000803e3d6000fd5b505050506040513d601f19601f82011682018060405250810190611f0b91906137e1565b8114611e1a5760405162461bcd60e51b815260206004820152602560248201527f726571756573746964206d69736d617463682c636865636b206f7261636c65206044820152646c6f67696360d81b6064820152608401610406565b611f6f612f42565b6000611f7a83612639565b905080602001516001600160a01b0316611f913390565b6001600160a01b0316146103bd5760405162461bcd60e51b815260206004820152601460248201527336bab9ba103132903a343290383937b23ab1b2b960611b6044820152606401610406565b6000611fe8612e48565b6000805b6000858152601160205260409020548110156121d25760008581526011602052604090208054879190839081106120255761202561373a565b90600052602060002090600b02016000015414156121c057600085815260116020526040902080548290811061205d5761205d61373a565b90600052602060002090600b02016040518061016001604052908160008201548152602001600182015481526020016002820160009054906101000a90046001600160a01b03166001600160a01b03166001600160a01b03168152602001600382015481526020016004820154815260200160058201548152602001600682015481526020016007820180546120f2906134a7565b80601f016020809104026020016040519081016040528092919081815260200182805461211e906134a7565b801561216b5780601f106121405761010080835404028352916020019161216b565b820191906000526020600020905b81548152906001019060200180831161214e57829003601f168201915b50505091835250506008820154602082015260098201546040820152600a82015460609091019060ff1660028111156121a6576121a6613022565b60028111156121b7576121b7613022565b90525092509050805b806121ca81613750565b915050611fec565b5060408201516001600160a01b03166121fd5760405162461bcd60e51b81526004016104069061388e565b6000826101400151600281111561221657612216613022565b1461226d5760405162461bcd60e51b815260206004820152602160248201527f746869732070726f64756374206461746120616c7265616479206175646974656044820152601960fa1b6064820152608401610406565b6000848152601060209081526040808320888452909152902060028101546001600160a01b03166122b05760405162461bcd60e51b81526004016104069061388e565b6003810154604080518881526020810188905280820192909252517f9632275fcee040eba07c6f31fad4870e760756c12c9a5f3177f3f4233a3b4ceb9181900360600190a18060030154836060015111156123f857600083606001518260030154856080015161232091906137fa565b61232a9190613819565b608085018190526003830154606086015191925060009161234c908290613659565b6123579060646137fa565b6123629060646137fa565b61236c9190613819565b9050610bb881111561237d57506127105b6103e88111156123e8576000612398866040015184846128d1565b90507f7eb13e595e1a4affd6778ae3e90f3a56b800c9258f0204e6130d5bbe1ecc3aa060058a8a84866040516123d29594939291906138dd565b60405180910390a15060026101408601526123f1565b60016101408601525b5050612401565b60016101408401525b60808301516124108782612bc1565b1461246f5760405162461bcd60e51b815260206004820152602960248201527f746f74616c206d696e746564206d75737420657175616c20746f20747275737460448201526819590b985b5bdd5b9d60ba1b6064820152608401610406565b7f7fa5dad38255129907a9d121ff93b93692a257afe524cbc721d8eba1df76a2686005878786608001516040516124a9949392919061378d565b60405180910390a160008581526011602052604090208054849190849081106124d4576124d461373a565b60009182526020918290208351600b929092020190815582820151600182015560408301516002820180546001600160a01b0319166001600160a01b03909216919091179055606083015160038201556080830151600482015560a0830151600582015560c0830151600682015560e08301518051919261255d92600785019290910190612ebe565b5061010082015160088201556101208201516009820155610140820151600a8201805460ff1916600183600281111561259857612598613022565b0217905550600198975050505050505050565b600054604051630938203b60e11b8152600481018590526001600160a01b0384811660248301526001600160e01b03198416604483015262010000909204909116906312704076906064016020604051808303816000875af1158015612615573d6000803e3d6000fd5b505050506040513d601f19601f8201168201806040525081019061052691906137e1565b612641612f42565b600854604051631f32f15f60e31b81526004810184905260009182916001600160a01b039091169063f9978af890602401600060405180830381865afa15801561268f573d6000803e3d6000fd5b505050506040513d6000823e601f3d908101601f191682016040526126b79190810190613959565b909250905060008260028111156126d0576126d0613022565b141561272d5760405162461bcd60e51b815260206004820152602660248201527f70726f64756365722077697468207468697320756e69717565206964206e6f7460448201526508199bdd5b9960d21b6064820152608401610406565b9392505050565b600054610100900460ff1661275b5760405162461bcd60e51b815260040161040690613a29565b61276483612c58565b61276d85612ca1565b8551612780906005906020890190612ebe565b50600a80546001600160a01b039586166001600160a01b03199182161790915560068054948616948216949094179093556008805492851692841692909217909155600980549190931691161790555050565b6127f760405180606001604052806000815260200160008152602001600081525090565b83815260208082018481524260408085019182526000888152600d909452909220835181559051600182015590516002909101558161052657600e805460018101825560009190915281517fbb7b4a454dc3493923482f07822329ed19e8244eff582cc204f8554c3620c3fd60039092029182015560208201517fbb7b4a454dc3493923482f07822329ed19e8244eff582cc204f8554c3620c3fe8201556040909101517fbb7b4a454dc3493923482f07822329ed19e8244eff582cc204f8554c3620c3ff90910155505050565b600061272d82846136d1565b60008360016001600160a01b038216600090815260036020526040902060010154600160a01b900460ff16600281111561290d5761290d613022565b1461292a5760405162461bcd60e51b8152600401610406906135ff565b6001600160a01b03808616600090815260036020526040808220600480549251634629209360e01b815291946305f5e10093169163462920939161298e91016020808252600b908201526a6d617267696e526174696f60a81b604082015260600190565b602060405180830381865afa1580156129ab573d6000803e3d6000fd5b505050506040513d601f19601f820116820180604052508101906129cf91906137e1565b6129d987896137fa565b6129e391906137fa565b6129ed9190613819565b905080826000015410612ab85780826000016000828254612a0e9190613659565b9091555050336000908152600360205260409020825481556001808401805491830180546001600160a01b031981166001600160a01b03949094169384178255915486949360ff600160a01b9283900416936001600160a81b0319161790836002811115612a7e57612a7e613022565b02179055505060405130915082156108fc029083906000818181858888f19350505050158015612ab2573d6000803e3d6000fd5b50612b79565b8154612ac49082613659565b80835560018084018054600160a11b306001600160a81b031992831617178255336000908152600360205260409020938455815492840180546001600160a01b039094166001600160a01b03198516811782559254879594600160a01b9182900460ff169492931690911790836002811115612b4257612b42613022565b021790555050825460405130925081156108fc0291906000818181858888f19350505050158015612b77573d6000803e3d6000fd5b505b7f28671cdd0231ca4027ae5f2f7cb3942f7b71850e856473a9878c5ffe8a7b2feb4288600384604051612baf9493929190613a74565b60405180910390a19695505050505050565b6008546040516339b8a2af60e01b81526004810184905260248101839052600091829182916001600160a01b0316906339b8a2af906044016000604051808303816000875af1158015612c18573d6000803e3d6000fd5b505050506040513d6000823e601f3d908101601f19168201604052612c409190810190613b4e565b91509150612c4f858383612cf2565b95945050505050565b600054610100900460ff16612c7f5760405162461bcd60e51b815260040161040690613a29565b600480546001600160a01b0319166001600160a01b0392909216919091179055565b600054610100900460ff16612cc85760405162461bcd60e51b815260040161040690613a29565b600080546001600160a01b03909216620100000262010000600160b01b0319909216919091179055565b6000808251845114612d595760405162461bcd60e51b815260206004820152602a60248201527f6163636f756e747320616e6420616d6f756e7473206d757374206861766520736044820152690c2daca40d8cadccee8d60b31b6064820152608401610406565b60005b8451811015612e3f5760095485516001600160a01b0390911690631c2e469e906005908990899086908110612d9357612d9361373a565b6020026020010151888681518110612dad57612dad61373a565b60200260200101516040518563ffffffff1660e01b8152600401612dd49493929190613c09565b600060405180830381600087803b158015612dee57600080fd5b505af1158015612e02573d6000803e3d6000fd5b50505050838181518110612e1857612e1861373a565b602002602001015182612e2b91906136d1565b915080612e3781613750565b915050612d5c565b50949350505050565b604051806101600160405280600080191681526020016000815260200160006001600160a01b031681526020016000815260200160008152602001600081526020016000815260200160608152602001600081526020016000815260200160006002811115612eb957612eb9613022565b905290565b828054612eca906134a7565b90600052602060002090601f016020900481019282612eec5760008555612f32565b82601f10612f0557805160ff1916838001178555612f32565b82800160010185558215612f32579182015b82811115612f32578251825591602001919060010190612f17565b50612f3e929150612f7a565b5090565b6040518060a001604052806060815260200160006001600160a01b031681526020016000815260200160008152602001606081525090565b5b80821115612f3e5760008155600101612f7b565b600060208284031215612fa157600080fd5b5035919050565b60008060408385031215612fbb57600080fd5b50508035926020909101359150565b60005b83811015612fe5578181015183820152602001612fcd565b838111156105265750506000910152565b6000815180845261300e816020860160208601612fca565b601f01601f19169290920160200192915050565b634e487b7160e01b600052602160045260246000fd5b6003811061304857613048613022565b50565b61305481613038565b9052565b6020815281516020820152602082015160408201526000604083015161308960608401826001600160a01b03169052565b5060608301516080830152608083015160a083015260a083015160c083015260c083015160e083015260e083015161016061010081818601526130d0610180860184612ff6565b9086015161012086810191909152860151610140808701919091528601519092506130fd8286018261304b565b5090949350505050565b634e487b7160e01b600052604160045260246000fd5b604051610160810167ffffffffffffffff8111828210171561314157613141613107565b60405290565b60405160a0810167ffffffffffffffff8111828210171561314157613141613107565b604051601f8201601f1916810167ffffffffffffffff8111828210171561319357613193613107565b604052919050565b6001600160a01b038116811461304857600080fd5b803561115d8161319b565b600067ffffffffffffffff8211156131d5576131d5613107565b50601f01601f191660200190565b600082601f8301126131f457600080fd5b8135613207613202826131bb565b61316a565b81815284602083860101111561321c57600080fd5b816020850160208301376000918101602001919091529392505050565b6003811061304857600080fd5b803561115d81613239565b6000610160828403121561326457600080fd5b61326c61311d565b90508135815260208201356020820152613288604083016131b0565b6040820152606082013560608201526080820135608082015260a082013560a082015260c082013560c082015260e082013567ffffffffffffffff8111156132cf57600080fd5b6132db848285016131e3565b60e08301525061010082810135908201526101208083013590820152610140613305818401613246565b9082015292915050565b60008060006060848603121561332457600080fd5b8335925060208401359150604084013567ffffffffffffffff81111561334957600080fd5b61335586828701613251565b9150509250925092565b60008060008060008060c0878903121561337857600080fd5b863567ffffffffffffffff81111561338f57600080fd5b61339b89828a016131e3565b96505060208701356133ac8161319b565b945060408701356133bc8161319b565b935060608701356133cc8161319b565b925060808701356133dc8161319b565b915060a08701356133ec8161319b565b809150509295509295509295565b60006020828403121561340c57600080fd5b813561272d8161319b565b8281526040810161342783613038565b8260208301529392505050565b6000806040838503121561344757600080fd5b82359150602083013567ffffffffffffffff81111561346557600080fd5b61347185828601613251565b9150509250929050565b60008060006060848603121561349057600080fd5b505081359360208301359350604090920135919050565b600181811c908216806134bb57607f821691505b6020821081141561067257634e487b7160e01b600052602260045260246000fd5b8054600090600181811c90808316806134f657607f831692505b602080841082141561351857634e487b7160e01b600052602260045260246000fd5b8388526020880182801561353357600181146135445761356f565b60ff1987168252828201975061356f565b60008981526020902060005b8781101561356957815484820152908601908401613550565b83019850505b5050505050505092915050565b60408152600061358f60408301856134dc565b90508260208301529392505050565b6000602082840312156135b057600080fd5b815161272d81613239565b60208082526024908201527f70726f6475636572206e6f7420616374697665206f6e207468697320756e69716040820152631d59525960e21b606082015260800190565b60208082526024908201527f6d757374206265206465706f7369746f7220616e64206d757374206265204e6f6040820152631c9b585b60e21b606082015260800190565b634e487b7160e01b600052601160045260246000fd5b60008282101561366b5761366b613643565b500390565b6004811061305457613054613022565b8481526001600160a01b038416602082015261369f6040820184613670565b60a06060820181905260089082015267776974686472617760c01b60c0820152608081019190915260e0019392505050565b600082198211156136e4576136e4613643565b500190565b8481526001600160a01b03841660208201526137086040820184613670565b60a060608201819052600890820152676465706f7369746560c01b60c0820152608081019190915260e0019392505050565b634e487b7160e01b600052603260045260246000fd5b600060001982141561376457613764613643565b5060010190565b60006020828403121561377d57600080fd5b8151801515811461272d57600080fd5b6080815260006137a060808301876134dc565b6020830195909552506040810192909252606090910152919050565b6060815260006137cf60608301866134dc565b60208301949094525060400152919050565b6000602082840312156137f357600080fd5b5051919050565b600081600019048311821515161561381457613814613643565b500290565b60008261383657634e487b7160e01b600052601260045260246000fd5b500490565b60c08152600061384e60c08301896134dc565b60208301979097525060408101949094526060840192909252608083015260a090910152919050565b60008161388657613886613643565b506000190190565b6020808252602f908201527f636c6561726564206f722070726f647563742064617461206e6f7420666f756e60408201526e0c840c2e840e8d0d2e640dadedce8d608b1b606082015260800190565b60a0815260006138f060a08301886134dc565b90508560208301528460408301528360608301528260808301529695505050505050565b600082601f83011261392557600080fd5b8151613933613202826131bb565b81815284602083860101111561394857600080fd5b611e1a826020830160208701612fca565b6000806040838503121561396c57600080fd5b825161397781613239565b602084015190925067ffffffffffffffff8082111561399557600080fd5b9084019060a082870312156139a957600080fd5b6139b1613147565b8251828111156139c057600080fd5b6139cc88828601613914565b82525060208301516139dd8161319b565b806020830152506040830151604082015260608301516060820152608083015182811115613a0a57600080fd5b613a1688828601613914565b6080830152508093505050509250929050565b6020808252602b908201527f496e697469616c697a61626c653a20636f6e7472616374206973206e6f74206960408201526a6e697469616c697a696e6760a81b606082015260800190565b8481526001600160a01b0384166020820152613a936040820184613670565b60a0606082018190526007908201526670656e616c747960c81b60c0820152608081019190915260e0019392505050565b600067ffffffffffffffff821115613ade57613ade613107565b5060051b60200190565b600082601f830112613af957600080fd5b81516020613b0961320283613ac4565b82815260059290921b84018101918181019086841115613b2857600080fd5b8286015b84811015613b435780518352918301918301613b2c565b509695505050505050565b60008060408385031215613b6157600080fd5b825167ffffffffffffffff80821115613b7957600080fd5b818501915085601f830112613b8d57600080fd5b81516020613b9d61320283613ac4565b82815260059290921b84018101918181019089841115613bbc57600080fd5b948201945b83861015613be3578551613bd48161319b565b82529482019490820190613bc1565b91880151919650909350505080821115613bfc57600080fd5b5061347185828601613ae8565b608081526000613c1c60808301876134dc565b6020830195909552506001600160a01b0392909216604083015260609091015291905056fea26469706673582212206961a8def826bdc556541baf6558a850373c7ecb7511a97012adc946ffedb4f364736f6c634300080a0033",
  "immutableReferences": {},
  "source": "// SPDX-License-Identifier: GPL-3.0\r\npragma solidity ^0.8.0;\r\n\r\nimport \"../interfaces/IProducer.sol\";\r\nimport \"../ProductionData.sol\";\r\nimport \"@openzeppelin/contracts/utils/Counters.sol\";\r\n\r\ncontract OilData is ProductionData {\r\n    using Counters for Counters.Counter;\r\n\r\n    function initialize(\r\n        string memory _treasureKind,\r\n        address _oracleContract,\r\n        address _rolesContract,\r\n        address _parameterInfoContract,\r\n        address _producerContract,\r\n        address _tatContract\r\n    ) public initializer {\r\n        __ProductionDataInitialize(\r\n            _treasureKind,\r\n            _oracleContract,\r\n            _rolesContract,\r\n            _parameterInfoContract,\r\n            _producerContract,\r\n            _tatContract\r\n        );\r\n    }\r\n\r\n    function receiveTrustedProductionData(\r\n        bytes32 _requestId,\r\n        bytes32 _uniqueId,\r\n        ProduceData memory _produceData\r\n    ) external override onlyFeeder onlyWhenActive(_uniqueId) {\r\n        require(\r\n            _requestId == _requestIdsToPullTrustedData[_uniqueId],\r\n            \"invalid oracle request id,not for production data\"\r\n        );\r\n        require(_produceData.month != 0, \"production data month cant be zero\");\r\n\r\n        IProducer.ProducerCore memory thisProducer = _getProducer(_uniqueId);\r\n\r\n        if (\r\n            _trustedProduceData[_produceData.month][_uniqueId].account ==\r\n            thisProducer.owner\r\n        ) {\r\n            _trustedProduceData[_produceData.month][_uniqueId]\r\n                .amount = _produceData.amount;\r\n        } else {\r\n            // ProduceData memory data;\r\n            _produceData.account = thisProducer.owner;\r\n            _produceData.amount = _produceData.amount; //TODO: \r\n            _trustedProduceData[_produceData.month][_uniqueId] = _produceData;\r\n        }\r\n\r\n        emit TrustedProductionData(\r\n            TREASURE_KIND,\r\n            _uniqueId,\r\n            _produceData.month,\r\n            _produceData.amount\r\n        );\r\n    }\r\n\r\n    // product add by producer\r\n    function setProductionData(\r\n        bytes32 _uniqueId,\r\n        ProduceData memory _produceData\r\n    ) public override onlyWhenActive(_uniqueId) {\r\n        IProducer.ProducerCore memory thisProducer = _getProducer(_uniqueId);\r\n        require(_msgSender() == thisProducer.owner, \"must be the producer\");\r\n        require(_produceData.month > 0, \"zero production month\");\r\n        require(_produceData.month < 10000, \"month format is not YYMM\");\r\n        require(_produceData.date > 0, \"zero production date\");\r\n        require(_produceData.date < 1000000, \"date format is not YYMMDD\");\r\n        require(_produceData.amount > 0, \"zero production amount\");\r\n\r\n        uint256 discount = _parameterInfo.getPriceDiscountConfig(\r\n            thisProducer.API,\r\n            thisProducer.sulphur\r\n        );\r\n\r\n        // \r\n        /*  amount 10000 10000 10000*/\r\n        uint256 price = ((_produceData.amount *\r\n            _getAssetValue(_produceData.date) *\r\n            discount) * 1e18) /\r\n            10000 /\r\n            10000 /\r\n            10000;\r\n\r\n        bool _exist = false;\r\n        for (\r\n            uint256 i = 0;\r\n            i < _uploadedProduceData[_produceData.month].length;\r\n            i++\r\n        ) {\r\n            if (\r\n                _uploadedProduceData[_produceData.month][i].uniqueId ==\r\n                _uniqueId\r\n            ) {\r\n                _exist = true;\r\n                require(\r\n                    _uploadedProduceData[_produceData.month][i].status ==\r\n                        ProduceDataStatus.UNAUDITED,\r\n                    \"production data that has been audited.\"\r\n                );\r\n                _uploadedProduceData[_produceData.month][i].amount =\r\n                    _uploadedProduceData[_produceData.month][i].amount +\r\n                    _produceData.amount;\r\n                _uploadedProduceData[_produceData.month][i].price =\r\n                    _uploadedProduceData[_produceData.month][i].price +\r\n                    price;\r\n                break;\r\n            }\r\n        }\r\n        if (!_exist) {\r\n            _produceData.uniqueId = _uniqueId;\r\n            _produceData.account = thisProducer.owner;\r\n            _produceData.price = price;\r\n            _produceData.counterId = _entityCounter.current();\r\n            // inc++\r\n            _produceData.status = ProduceDataStatus.UNAUDITED;\r\n            _uploadedProduceData[_produceData.month].push(_produceData);\r\n        }\r\n\r\n        _entityCounter.increment();\r\n\r\n        emit ProducerProductionData(\r\n            TREASURE_KIND,\r\n            _uniqueId,\r\n            _produceData.month,\r\n            _produceData.date,\r\n            _produceData.amount,\r\n            price\r\n        );\r\n    }\r\n\r\n    function getProductionData(\r\n        bytes32 _uniqueId,\r\n        uint256 month\r\n    ) public view override returns (ProduceData memory) {\r\n        ProduceData memory data;\r\n        for (uint256 i = 0; i < _uploadedProduceData[month].length; i++) {\r\n            if (_uploadedProduceData[month][i].uniqueId == _uniqueId) {\r\n                data = _uploadedProduceData[month][i];\r\n                break;\r\n            }\r\n        }\r\n        return data;\r\n    }\r\n\r\n    function _clearing(\r\n        bytes32 _uniqueId,\r\n        uint256 _month\r\n    ) internal override returns (bool) {\r\n        ProduceData memory uploaded;\r\n        uint256 index;\r\n        for (uint256 i = 0; i < _uploadedProduceData[_month].length; i++) {\r\n            if (_uploadedProduceData[_month][i].uniqueId == _uniqueId) {\r\n                uploaded = _uploadedProduceData[_month][i];\r\n                index = i;\r\n            }\r\n        }\r\n        require(\r\n            uploaded.account != address(0),\r\n            \"cleared or product data not found at this month\"\r\n        );\r\n        require(\r\n            uploaded.status == ProduceDataStatus.UNAUDITED,\r\n            \"this product data already audited\"\r\n        );\r\n\r\n        ProduceData storage trusted = _trustedProduceData[_month][_uniqueId];\r\n        require(\r\n            trusted.account != address(0),\r\n            \"cleared or product data not found at this month\"\r\n        );\r\n\r\n        emit VerifiedProduction(_uniqueId, _month, trusted.amount);\r\n\r\n        // compare produce data within `uploaded` and `trusted`\r\n        if (uploaded.amount > trusted.amount) {\r\n            uint256 nprice = (uploaded.price * trusted.amount) /\r\n                uploaded.amount;\r\n            uploaded.price = nprice;\r\n\r\n            uint256 deviation = ((uploaded.amount - trusted.amount) *\r\n                100 *\r\n                100) / trusted.amount;\r\n            /*  deviation100 */\r\n            if (deviation > 3000) {\r\n                deviation = 10000;\r\n            }\r\n            //  >10%\r\n            if (deviation > 1000) {\r\n                uint256 penaltyCost = _penalty(\r\n                    uploaded.account,\r\n                    nprice,\r\n                    deviation\r\n                );\r\n                emit ClearingPenalty(\r\n                    TREASURE_KIND,\r\n                    _uniqueId,\r\n                    _month,\r\n                    penaltyCost,\r\n                    deviation\r\n                );\r\n                // FAILED\r\n                uploaded.status = ProduceDataStatus.FAILED;\r\n            } else {\r\n                uploaded.status = ProduceDataStatus.FINISHED;\r\n            }\r\n        } else {\r\n            uploaded.status = ProduceDataStatus.FINISHED;\r\n        }\r\n        require(\r\n            _rewardByShare(_uniqueId, uploaded.price) == uploaded.price,\r\n            \"total minted must equal to trusted.amount\"\r\n        );\r\n        emit ClearingReward(TREASURE_KIND, _uniqueId, _month, uploaded.price);\r\n\r\n        _uploadedProduceData[_month][index] = uploaded;\r\n\r\n        return true;\r\n    }\r\n\r\n    function _afterClearing(\r\n        bytes32 _uniqueId,\r\n        uint256 _month\r\n    ) internal override {}\r\n\r\n    function _rewardByShare(\r\n        bytes32 uniqueId,\r\n        uint256 total\r\n    ) internal returns (uint256) {\r\n        (address[] memory accounts, uint256[] memory amounts) = _producer\r\n            .calculateRewards(uniqueId, total);\r\n        return _reward(uniqueId, accounts, amounts);\r\n    }\r\n}\r\n",
  "sourcePath": "D:\\work\\Treasurenet-contracts\\fork\\treasurenet-contracts\\contracts\\Treasure\\OIL\\OilData.sol",
  "compiler": {
    "name": "solc",
    "version": "0.8.10+commit.fc410830.Emscripten.clang"
  },
  "schemaVersion": "3.4.16",
  "updatedAt": "2024-04-29T07:29:53.079Z",
  "devdoc": {
    "kind": "dev",
    "methods": {
      "cancelAssetValueRequest()": {
        "details": "(Oracle)",
        "returns": {
          "_0": "bool "
        }
      },
      "cancelTrustedDataRequest(bytes32)": {
        "details": "(Oracle)",
        "params": {
          "_uniqueId": "ID"
        },
        "returns": {
          "_0": "bool "
        }
      },
      "clearing(bytes32,uint256)": {
        "details": "Mint TAT",
        "params": {
          "_month": "",
          "_uniqueId": "ID"
        }
      },
      "getAssetValue(uint256)": {
        "details": "Asset Value",
        "params": {
          "_date": "value"
        },
        "returns": {
          "_0": "uint256 value"
        }
      },
      "receiveAssetValue(bytes32,uint256,uint256)": {
        "details": "AssetValue(FEEDER)",
        "params": {
          "_date": "value",
          "_requestId": "id",
          "_value": "value"
        }
      },
      "receiveTrustedProductionData(bytes32,bytes32,(bytes32,uint256,address,uint256,uint256,uint256,uint256,string,uint256,uint256,uint8))": {
        "details": "",
        "params": {
          "_requestId": "ID",
          "_uniqueId": "ID"
        }
      },
      "registerAssetValueRequest()": {
        "details": "AssetValue(Oracle)",
        "returns": {
          "_0": "bytes32 request id"
        }
      },
      "registerTrustedDataRequest(bytes32)": {
        "details": "(Oracle)",
        "params": {
          "_uniqueId": "ID"
        },
        "returns": {
          "_0": "bytes32 Oraclerequest id"
        }
      },
      "setProductionData(bytes32,(bytes32,uint256,address,uint256,uint256,uint256,uint256,string,uint256,uint256,uint8))": {
        "details": "",
        "params": {
          "_produceData": "",
          "_uniqueId": "ID"
        }
      }
    },
    "version": 1
  },
  "userdoc": {
    "events": {
      "RegisterTrustedDataRequest(string,bytes32,bytes32)": {
        "notice": "Resource Trusted data management"
      }
    },
    "kind": "user",
    "methods": {},
    "version": 1
  }
}