{
  "contractName": "Oracle",
  "abi": [
    {
      "anonymous": false,
      "inputs": [
        {
          "indexed": false,
          "internalType": "address",
          "name": "requester",
          "type": "address"
        },
        {
          "indexed": false,
          "internalType": "bytes32",
          "name": "requestid",
          "type": "bytes32"
        }
      ],
      "name": "CancelOracleRequest",
      "type": "event"
    },
    {
      "anonymous": false,
      "inputs": [
        {
          "indexed": false,
          "internalType": "uint8",
          "name": "version",
          "type": "uint8"
        }
      ],
      "name": "Initialized",
      "type": "event"
    },
    {
      "anonymous": false,
      "inputs": [
        {
          "indexed": false,
          "internalType": "address",
          "name": "requester",
          "type": "address"
        },
        {
          "indexed": false,
          "internalType": "bytes32",
          "name": "requesterid",
          "type": "bytes32"
        },
        {
          "indexed": false,
          "internalType": "address",
          "name": "callbackAddress",
          "type": "address"
        },
        {
          "indexed": false,
          "internalType": "bytes4",
          "name": "callbackFunctionId",
          "type": "bytes4"
        }
      ],
      "name": "OracleRequest",
      "type": "event"
    },
    {
      "anonymous": false,
      "inputs": [
        {
          "indexed": true,
          "internalType": "address",
          "name": "previousOwner",
          "type": "address"
        },
        {
          "indexed": true,
          "internalType": "address",
          "name": "newOwner",
          "type": "address"
        }
      ],
      "name": "OwnershipTransferred",
      "type": "event"
    },
    {
      "inputs": [],
      "name": "FEEDER",
      "outputs": [
        {
          "internalType": "bytes32",
          "name": "",
          "type": "bytes32"
        }
      ],
      "stateMutability": "view",
      "type": "function"
    },
    {
      "inputs": [],
      "name": "owner",
      "outputs": [
        {
          "internalType": "address",
          "name": "",
          "type": "address"
        }
      ],
      "stateMutability": "view",
      "type": "function"
    },
    {
      "inputs": [],
      "name": "renounceOwnership",
      "outputs": [],
      "stateMutability": "nonpayable",
      "type": "function"
    },
    {
      "inputs": [
        {
          "internalType": "address",
          "name": "newOwner",
          "type": "address"
        }
      ],
      "name": "transferOwnership",
      "outputs": [],
      "stateMutability": "nonpayable",
      "type": "function"
    },
    {
      "inputs": [
        {
          "internalType": "address",
          "name": "_roleContract",
          "type": "address"
        }
      ],
      "name": "initialize",
      "outputs": [],
      "stateMutability": "nonpayable",
      "type": "function"
    },
    {
      "inputs": [
        {
          "internalType": "address",
          "name": "_callbackAddress",
          "type": "address"
        },
        {
          "internalType": "bytes4",
          "name": "_callbackFunctionId",
          "type": "bytes4"
        },
        {
          "internalType": "uint256",
          "name": "_nonce",
          "type": "uint256"
        }
      ],
      "name": "createOracleRequest",
      "outputs": [
        {
          "internalType": "bytes32",
          "name": "",
          "type": "bytes32"
        }
      ],
      "stateMutability": "nonpayable",
      "type": "function"
    },
    {
      "inputs": [
        {
          "internalType": "bytes32",
          "name": "_requestId",
          "type": "bytes32"
        },
        {
          "internalType": "address",
          "name": "_callbackAddress",
          "type": "address"
        },
        {
          "internalType": "bytes4",
          "name": "_callbackFuncId",
          "type": "bytes4"
        }
      ],
      "name": "cancelOracleRequest",
      "outputs": [
        {
          "internalType": "bytes32",
          "name": "",
          "type": "bytes32"
        }
      ],
      "stateMutability": "nonpayable",
      "type": "function"
    },
    {
      "inputs": [
        {
          "internalType": "bytes32",
          "name": "_currencyKind",
          "type": "bytes32"
        },
        {
          "internalType": "uint256",
          "name": "_currencyValue",
          "type": "uint256"
        }
      ],
      "name": "setCurrencyValue",
      "outputs": [],
      "stateMutability": "nonpayable",
      "type": "function"
    },
    {
      "inputs": [
        {
          "internalType": "bytes32",
          "name": "_currencyKind",
          "type": "bytes32"
        }
      ],
      "name": "getCurrencyValue",
      "outputs": [
        {
          "internalType": "uint256",
          "name": "",
          "type": "uint256"
        }
      ],
      "stateMutability": "view",
      "type": "function"
    }
  ],
  "bytecode": "0x608060405234801561001057600080fd5b50610910806100206000396000f3fe608060405234801561001057600080fd5b50600436106100935760003560e01c806366ba954f1161006657806366ba954f1461010d578063715018a61461012d5780638da5cb5b14610135578063c4d66de814610150578063f2fde38b1461016357600080fd5b806312704076146100985780632dea9732146100be57806351f4cc67146100d15780636447189a146100e6575b600080fd5b6100ab6100a636600461076c565b610176565b6040519081526020015b60405180910390f35b6100ab6100cc3660046107a8565b610249565b6100e46100df3660046107e4565b610379565b005b6100ab7f0a59a035ae0a00eac2a600a582577e6f107971288ab786d897919ae27385652481565b6100ab61011b366004610806565b60009081526066602052604090205490565b6100e4610478565b6033546040516001600160a01b0390911681526020016100b5565b6100e461015e36600461081f565b61048c565b6100e461017136600461081f565b6105b9565b600080838360405160200161018c929190610841565b60408051601f1981840301815291815281516020928301206000888152606790935291205490915081146102075760405162461bcd60e51b815260206004820152601e60248201527f506172616d7320646f206e6f74206d617463682072657175657374204944000060448201526064015b60405180910390fd5b60408051338152602081018790527f8e4255d95749c1251b65ca9e70035633ca1d4f4fef9e462fbf716b2d67493b44910160405180910390a150929392505050565b6040516bffffffffffffffffffffffff193360601b16602082015260348101829052600090819060540160408051601f19818403018152918152815160209283012060008181526067909352912054909150156102e85760405162461bcd60e51b815260206004820152601b60248201527f6d757374206265206120756e697175652072657175657374206964000000000060448201526064016101fe565b84846040516020016102fb929190610841565b60408051601f1981840301815282825280516020918201206000858152606783528390205533835282018390526001600160a01b038716828201526001600160e01b031986166060830152517f2d568d320f597aa684ba1800e717fdcf56b8501498fd81d83a8d74cd22f6ee999181900360800190a1949350505050565b6065546001600160a01b03166391d148547f0a59a035ae0a00eac2a600a582577e6f107971288ab786d897919ae273856524336040516001600160e01b031960e085901b16815260048101929092526001600160a01b03166024820152604401602060405180830381865afa1580156103f6573d6000803e3d6000fd5b505050506040513d601f19601f8201168201806040525081019061041a919061086d565b6104665760405162461bcd60e51b815260206004820152601960248201527f4f6e6c79204665656465722063616e207075736820646174610000000000000060448201526064016101fe565b60009182526066602052604090912055565b610480610632565b61048a600061068c565b565b600054610100900460ff16158080156104ac5750600054600160ff909116105b806104c65750303b1580156104c6575060005460ff166001145b6105295760405162461bcd60e51b815260206004820152602e60248201527f496e697469616c697a61626c653a20636f6e747261637420697320616c72656160448201526d191e481a5b9a5d1a585b1a5e995960921b60648201526084016101fe565b6000805460ff19166001179055801561054c576000805461ff0019166101001790555b6105546106de565b606580546001600160a01b0319166001600160a01b03841617905580156105b5576000805461ff0019169055604051600181527f7f26b83ff96e1f2b6a682f133852f6798a09c465da95921460cefb38474024989060200160405180910390a15b5050565b6105c1610632565b6001600160a01b0381166106265760405162461bcd60e51b815260206004820152602660248201527f4f776e61626c653a206e6577206f776e657220697320746865207a65726f206160448201526564647265737360d01b60648201526084016101fe565b61062f8161068c565b50565b6033546001600160a01b0316331461048a5760405162461bcd60e51b815260206004820181905260248201527f4f776e61626c653a2063616c6c6572206973206e6f7420746865206f776e657260448201526064016101fe565b603380546001600160a01b038381166001600160a01b0319831681179093556040519116919082907f8be0079c531659141344cd1fd0a4f28419497f9722a3daafe3b4186f6b6457e090600090a35050565b600054610100900460ff166107055760405162461bcd60e51b81526004016101fe9061088f565b61048a600054610100900460ff1661072f5760405162461bcd60e51b81526004016101fe9061088f565b61048a3361068c565b80356001600160a01b038116811461074f57600080fd5b919050565b80356001600160e01b03198116811461074f57600080fd5b60008060006060848603121561078157600080fd5b8335925061079160208501610738565b915061079f60408501610754565b90509250925092565b6000806000606084860312156107bd57600080fd5b6107c684610738565b92506107d460208501610754565b9150604084013590509250925092565b600080604083850312156107f757600080fd5b50508035926020909101359150565b60006020828403121561081857600080fd5b5035919050565b60006020828403121561083157600080fd5b61083a82610738565b9392505050565b60609290921b6bffffffffffffffffffffffff191682526001600160e01b031916601482015260180190565b60006020828403121561087f57600080fd5b8151801515811461083a57600080fd5b6020808252602b908201527f496e697469616c697a61626c653a20636f6e7472616374206973206e6f74206960408201526a6e697469616c697a696e6760a81b60608201526080019056fea2646970667358221220e38d64aa84ea4a0210413623bf70c02ab2ba33c939dda305ed7e60527554f5c864736f6c634300080a0033",
  "immutableReferences": {},
  "source": "// SPDX-License-Identifier: GPL-3.0\r\npragma solidity ^0.8.0;\r\nimport \"@openzeppelin/contracts-upgradeable/proxy/utils/Initializable.sol\";\r\nimport \"@openzeppelin/contracts-upgradeable/access/OwnableUpgradeable.sol\";\r\n\r\nimport \"../Governance/IRoles.sol\";\r\nimport \"./IOracle.sol\";\r\n\r\n/**\r\n * @dev Oracle\r\n *    - /Oracle\r\n *    - Oracle(Role.Feeder)\r\n*/\r\ncontract Oracle is Initializable, OwnableUpgradeable, IOracle {\r\n    bytes32 public constant FEEDER = keccak256(\"FEEDER\");\r\n\r\n    event OracleRequest(\r\n        address requester,\r\n        bytes32 requesterid,\r\n        address callbackAddress,\r\n        bytes4 callbackFunctionId\r\n    );\r\n\r\n    event CancelOracleRequest(address requester, bytes32 requestid);\r\n\r\n    IRoles private _roleController;\r\n\r\n    mapping(bytes32 => uint256) private _currencyValues;\r\n\r\n    // requestid -> commitment id\r\n    mapping(bytes32 => bytes32) private _commitments;\r\n\r\n    /// @dev \r\n    /// @param _roleContract \r\n    function initialize(address _roleContract) public initializer {\r\n        __Ownable_init();\r\n        _roleController = IRoles(_roleContract);\r\n    }\r\n\r\n    modifier onlyFeeder() {\r\n        require(_roleController.hasRole(FEEDER, _msgSender()), \"Only Feeder can push data\");\r\n        _;\r\n    }\r\n\r\n    /// @dev \r\n    ///  - Event\r\n    ///  ``` \r\n    ///  event OracleRequest(\r\n    ///     address requester,\r\n    ///     bytes32 requesterid,\r\n    ///     address callbackAddress,\r\n    ///     bytes4 callbackFunctionId\r\n    // ); \r\n    /// ```\r\n    /// @param _callbackAddress \r\n    /// @param _callbackFunctionId \r\n    /// @param _nonce nonce\r\n    /// @return bytes32 request id\r\n    function createOracleRequest(\r\n        address _callbackAddress,\r\n        bytes4 _callbackFunctionId,\r\n        uint256 _nonce\r\n    ) public override returns (bytes32) {\r\n        bytes32 requestId = keccak256(abi.encodePacked(msg.sender, _nonce));\r\n        require(_commitments[requestId] == 0, \"must be a unique request id\");\r\n        _commitments[requestId] = keccak256(\r\n            abi.encodePacked(_callbackAddress, _callbackFunctionId)\r\n        );\r\n\r\n        emit OracleRequest(msg.sender, requestId, _callbackAddress, _callbackFunctionId);\r\n\r\n        return requestId;\r\n    }\r\n\r\n    /// @dev \r\n    ///  - Event\r\n    ///  ``` \r\n    ///  event CancelOracleRequest(\r\n    ///     address requester,\r\n    ///     bytes32 requesterid,\r\n    ///     address callbackAddress,\r\n    ///     bytes4 callbackFunctionId\r\n    // ); \r\n    /// ```\r\n    /// @param _requestId  id\r\n    /// @param _callbackAddress \r\n    /// @param _callbackFuncId \r\n    /// @return bytes32 request id\r\n    function cancelOracleRequest(\r\n        bytes32 _requestId,\r\n        address _callbackAddress,\r\n        bytes4 _callbackFuncId\r\n    ) public override returns (bytes32) {\r\n        bytes32 paramsHash = keccak256(abi.encodePacked(_callbackAddress, _callbackFuncId));\r\n        require(paramsHash == _commitments[_requestId], \"Params do not match request ID\");\r\n        // delete _commitments[_requestId];\r\n\r\n        emit CancelOracleRequest(msg.sender, _requestId);\r\n\r\n        return _requestId;\r\n    }\r\n\r\n    // UNIT Value \r\n    function setCurrencyValue(bytes32 _currencyKind,uint256 _currencyValue) public override onlyFeeder {\r\n        _currencyValues[_currencyKind] = _currencyValue;\r\n    }\r\n\r\n    function getCurrencyValue(bytes32 _currencyKind) public view override returns(uint256) {\r\n        return _currencyValues[_currencyKind];\r\n    }\r\n}\r\n",
  "sourcePath": "D:\\work\\Treasurenet-contracts\\fork\\treasurenet-contracts\\contracts\\Oracle\\Oracle.sol",
  "compiler": {
    "name": "solc",
    "version": "0.8.10+commit.fc410830.Emscripten.clang"
  },
  "schemaVersion": "3.4.16",
  "updatedAt": "2024-04-29T07:29:52.978Z",
  "devdoc": {
    "details": "Oracle    - /Oracle    - Oracle(Role.Feeder)",
    "kind": "dev",
    "methods": {
      "cancelOracleRequest(bytes32,address,bytes4)": {
        "params": {
          "_callbackAddress": "",
          "_callbackFuncId": "",
          "_requestId": " id"
        },
        "returns": {
          "_0": "bytes32 request id"
        }
      },
      "createOracleRequest(address,bytes4,uint256)": {
        "params": {
          "_callbackAddress": "",
          "_callbackFunctionId": "",
          "_nonce": "nonce"
        },
        "returns": {
          "_0": "bytes32 request id"
        }
      },
      "initialize(address)": {
        "details": "",
        "params": {
          "_roleContract": ""
        }
      },
      "owner()": {
        "details": "Returns the address of the current owner."
      },
      "renounceOwnership()": {
        "details": "Leaves the contract without owner. It will not be possible to call `onlyOwner` functions anymore. Can only be called by the current owner. NOTE: Renouncing ownership will leave the contract without an owner, thereby removing any functionality that is only available to the owner."
      },
      "transferOwnership(address)": {
        "details": "Transfers ownership of the contract to a new account (`newOwner`). Can only be called by the current owner."
      }
    },
    "version": 1
  },
  "userdoc": {
    "kind": "user",
    "methods": {
      "cancelOracleRequest(bytes32,address,bytes4)": {
        "notice": "```"
      },
      "createOracleRequest(address,bytes4,uint256)": {
        "notice": "```"
      }
    },
    "version": 1
  }
}