{
  "contractName": "ParameterInfo",
  "abi": [
    {
      "anonymous": false,
      "inputs": [
        {
          "indexed": false,
          "internalType": "uint8",
          "name": "version",
          "type": "uint8"
        }
      ],
      "name": "Initialized",
      "type": "event"
    },
    {
      "anonymous": false,
      "inputs": [
        {
          "indexed": true,
          "internalType": "address",
          "name": "previousOwner",
          "type": "address"
        },
        {
          "indexed": true,
          "internalType": "address",
          "name": "newOwner",
          "type": "address"
        }
      ],
      "name": "OwnershipTransferred",
      "type": "event"
    },
    {
      "inputs": [],
      "name": "owner",
      "outputs": [
        {
          "internalType": "address",
          "name": "",
          "type": "address"
        }
      ],
      "stateMutability": "view",
      "type": "function"
    },
    {
      "inputs": [],
      "name": "renounceOwnership",
      "outputs": [],
      "stateMutability": "nonpayable",
      "type": "function"
    },
    {
      "inputs": [
        {
          "internalType": "address",
          "name": "newOwner",
          "type": "address"
        }
      ],
      "name": "transferOwnership",
      "outputs": [],
      "stateMutability": "nonpayable",
      "type": "function"
    },
    {
      "inputs": [
        {
          "internalType": "address",
          "name": "_mulSigContract",
          "type": "address"
        }
      ],
      "name": "initialize",
      "outputs": [],
      "stateMutability": "nonpayable",
      "type": "function"
    },
    {
      "inputs": [
        {
          "internalType": "string",
          "name": "key",
          "type": "string"
        },
        {
          "internalType": "uint256",
          "name": "amount",
          "type": "uint256"
        }
      ],
      "name": "setPlatformConfig",
      "outputs": [
        {
          "internalType": "bool",
          "name": "",
          "type": "bool"
        }
      ],
      "stateMutability": "nonpayable",
      "type": "function"
    },
    {
      "inputs": [
        {
          "internalType": "string",
          "name": "key",
          "type": "string"
        }
      ],
      "name": "getPlatformConfig",
      "outputs": [
        {
          "internalType": "uint256",
          "name": "",
          "type": "uint256"
        }
      ],
      "stateMutability": "view",
      "type": "function"
    },
    {
      "inputs": [],
      "name": "getUSTNLoanPledgeRateWarningValue",
      "outputs": [
        {
          "internalType": "uint256",
          "name": "amount",
          "type": "uint256"
        }
      ],
      "stateMutability": "view",
      "type": "function"
    },
    {
      "inputs": [],
      "name": "getUSTNLoanLiquidationRate",
      "outputs": [
        {
          "internalType": "uint256",
          "name": "amount",
          "type": "uint256"
        }
      ],
      "stateMutability": "view",
      "type": "function"
    },
    {
      "inputs": [],
      "name": "getUSTNLoanPledgeRate",
      "outputs": [
        {
          "internalType": "uint256",
          "name": "",
          "type": "uint256"
        }
      ],
      "stateMutability": "view",
      "type": "function"
    },
    {
      "inputs": [],
      "name": "getUSTNLoanInterestRate",
      "outputs": [
        {
          "internalType": "uint256",
          "name": "",
          "type": "uint256"
        }
      ],
      "stateMutability": "view",
      "type": "function"
    },
    {
      "inputs": [
        {
          "internalType": "uint256",
          "name": "API",
          "type": "uint256"
        },
        {
          "internalType": "uint256",
          "name": "sulphur",
          "type": "uint256"
        },
        {
          "internalType": "uint256",
          "name": "discount1",
          "type": "uint256"
        },
        {
          "internalType": "uint256",
          "name": "discount2",
          "type": "uint256"
        },
        {
          "internalType": "uint256",
          "name": "discount3",
          "type": "uint256"
        },
        {
          "internalType": "uint256",
          "name": "discount4",
          "type": "uint256"
        }
      ],
      "name": "setPriceDiscountConfig",
      "outputs": [
        {
          "internalType": "bool",
          "name": "",
          "type": "bool"
        }
      ],
      "stateMutability": "nonpayable",
      "type": "function"
    },
    {
      "inputs": [
        {
          "internalType": "uint256",
          "name": "_API",
          "type": "uint256"
        },
        {
          "internalType": "uint256",
          "name": "_sulphur",
          "type": "uint256"
        }
      ],
      "name": "getPriceDiscountConfig",
      "outputs": [
        {
          "internalType": "uint256",
          "name": "",
          "type": "uint256"
        }
      ],
      "stateMutability": "view",
      "type": "function"
    }
  ],
  "bytecode": "0x608060405234801561001057600080fd5b50610ede806100206000396000f3fe608060405234801561001057600080fd5b50600436106100b45760003560e01c8063a4fce62511610071578063a4fce62514610127578063b0bbc3501461012f578063be6f2d6e14610152578063c4d66de81461015a578063d62d8c721461016d578063f2fde38b1461018057600080fd5b80633190afd3146100b957806346292093146100d45780636caa33c5146100e7578063715018a6146100fa57806387e2c17d146101045780638da5cb5b1461010c575b600080fd5b6100c1610193565b6040519081526020015b60405180910390f35b6100c16100e2366004610ca1565b6101e6565b6100c16100f5366004610cde565b61020e565b610102610303565b005b6100c1610317565b6033546040516001600160a01b0390911681526020016100cb565b6100c1610352565b61014261013d366004610d00565b610377565b60405190151581526020016100cb565b6100c1610499565b610102610168366004610d43565b6104c4565b61014261017b366004610d6c565b6106e5565b61010261018e366004610d43565b6109f8565b6000612710606c54606b6040516101be906d6c6f616e506c656467655261746560901b8152600e0190565b9081526020016040518091039020546101d79190610db1565b6101e19190610dde565b905090565b6000606b826040516101f89190610e00565b9081526020016040518091039020549050919050565b600080831580159061021f57508215155b6102885760405162461bcd60e51b815260206004820152602f60248201527f74686973206d696e652064617461206973206572726f72206f72206e6f74206560448201526e3c34b9ba103a3434b99036b4b7329760891b60648201526084015b60405180910390fd5b6065548411801561029a575060665483105b156102a457506067545b606554841180156102b757506066548310155b156102c157506068545b60655484118015906102d4575060665483105b156102de57506069545b60655484118015906102f257506066548310155b156102fc5750606a545b9392505050565b61030b610a71565b6103156000610acb565b565b6000606b60405161033e906f6c6f616e496e7465726573745261746560801b815260100190565b908152602001604051809103902054905090565b6000606b60405161033e906d6c6f616e506c656467655261746560901b8152600e0190565b606e546000906001600160a01b0316336001600160a01b0316146103b75760405162461bcd60e51b8152602060048201526000602482015260440161027f565b6127108711156103d95760405162461bcd60e51b815260040161027f90610e3b565b6127108611156103fb5760405162461bcd60e51b815260040161027f90610e3b565b61271085111561041d5760405162461bcd60e51b815260040161027f90610e3b565b838511801561042b57508284115b801561043657508183115b6104525760405162461bcd60e51b815260040161027f90610e3b565b6065879055606686905560408051608081018252868152602081018690529081018490526060810183905261048b906067906004610b77565b506001979650505050505050565b6000612710606d54606b6040516101be906d6c6f616e506c656467655261746560901b8152600e0190565b600054610100900460ff16158080156104e45750600054600160ff909116105b806104fe5750303b1580156104fe575060005460ff166001145b6105615760405162461bcd60e51b815260206004820152602e60248201527f496e697469616c697a61626c653a20636f6e747261637420697320616c72656160448201526d191e481a5b9a5d1a585b1a5e995960921b606482015260840161027f565b6000805460ff191660011790558015610584576000805461ff0019166101001790555b61058c610b1d565b606e80546001600160a01b0319166001600160a01b0384161790556126ac606c55612328606d819055604080516a6d617267696e526174696f60a81b8152606b600b8201819052825191829003602b018220606490556b72657365727665526174696f60a01b8252600c8201819052825191829003602c0182206103e890556f6c6f616e496e7465726573745261746560801b8252601082018190528251918290036030018220600590556d6c6f616e506c656467655261746560901b8252600e820152815190819003602e018120613a989055610c266065556101f46066556080810182529182526121346020830152611f4090820152611d4c606082015261069a906067906004610bb5565b5080156106e1576000805461ff0019169055604051600181527f7f26b83ff96e1f2b6a682f133852f6798a09c465da95921460cefb38474024989060200160405180910390a15b5050565b606e546000906001600160a01b0316336001600160a01b0316146107255760405162461bcd60e51b8152602060048201526000602482015260440161027f565b60408051808201909152600b81526a6d617267696e526174696f60a81b6020918201528351908401207fc6200dd1a96d438d3093bae97e2ff49052cd7ef4e9a041953f8bdade1d448b0c14156107be576127108211155b6107985760405162461bcd60e51b815260040161027f90610e3b565b81606b846040516107a99190610e00565b908152604051908190036020019020556109ef565b60408051808201909152600c81526b72657365727665526174696f60a01b6020918201528351908401207fa98fc758c61c1e560f1b1888c5b47bd826f66220cd993e4206e26ece68dedd191415610831576127108211156107985760405162461bcd60e51b815260040161027f90610e3b565b60408051808201909152601081526f6c6f616e496e7465726573745261746560801b6020918201528351908401207f1df704a61513cb5bd9dac7e34782e2b7d3364d49b25e09738bce63ab068decca14156108a75760648211156107985760405162461bcd60e51b815260040161027f90610e3b565b60408051808201909152600e81526d6c6f616e506c656467655261746560901b6020918201528351908401207fe787056f5a72ef3009220539575c62c8d53a30acb8f515ab970f9e9bc1acb292141561092a5781612ee01115801561077c5750620104288211156107985760405162461bcd60e51b815260040161027f90610e3b565b60408051808201909152601081526f6c69717569646174696f6e526174696f60801b6020918201528351908401207fb6357d4d2914da0df51253d6e777ada9c3e70ccd4e04fbe5afa73eb98bdc3cd814156109b957816123281115801561099357506126ac8211155b6109af5760405162461bcd60e51b815260040161027f90610e3b565b606d8290556109ef565b60405162461bcd60e51b815260206004820152600b60248201526a1b9bdd081cdd5c1c1bdc9d60aa1b604482015260640161027f565b50600192915050565b610a00610a71565b6001600160a01b038116610a655760405162461bcd60e51b815260206004820152602660248201527f4f776e61626c653a206e6577206f776e657220697320746865207a65726f206160448201526564647265737360d01b606482015260840161027f565b610a6e81610acb565b50565b6033546001600160a01b031633146103155760405162461bcd60e51b815260206004820181905260248201527f4f776e61626c653a2063616c6c6572206973206e6f7420746865206f776e6572604482015260640161027f565b603380546001600160a01b038381166001600160a01b0319831681179093556040519116919082907f8be0079c531659141344cd1fd0a4f28419497f9722a3daafe3b4186f6b6457e090600090a35050565b600054610100900460ff16610b445760405162461bcd60e51b815260040161027f90610e5d565b610315600054610100900460ff16610b6e5760405162461bcd60e51b815260040161027f90610e5d565b61031533610acb565b8260048101928215610ba5579160200282015b82811115610ba5578251825591602001919060010190610b8a565b50610bb1929150610be9565b5090565b8260048101928215610ba5579160200282015b82811115610ba5578251829061ffff16905591602001919060010190610bc8565b5b80821115610bb15760008155600101610bea565b634e487b7160e01b600052604160045260246000fd5b600082601f830112610c2557600080fd5b813567ffffffffffffffff80821115610c4057610c40610bfe565b604051601f8301601f19908116603f01168101908282118183101715610c6857610c68610bfe565b81604052838152866020858801011115610c8157600080fd5b836020870160208301376000602085830101528094505050505092915050565b600060208284031215610cb357600080fd5b813567ffffffffffffffff811115610cca57600080fd5b610cd684828501610c14565b949350505050565b60008060408385031215610cf157600080fd5b50508035926020909101359150565b60008060008060008060c08789031215610d1957600080fd5b505084359660208601359650604086013595606081013595506080810135945060a0013592509050565b600060208284031215610d5557600080fd5b81356001600160a01b03811681146102fc57600080fd5b60008060408385031215610d7f57600080fd5b823567ffffffffffffffff811115610d9657600080fd5b610da285828601610c14565b95602094909401359450505050565b6000816000190483118215151615610dd957634e487b7160e01b600052601160045260246000fd5b500290565b600082610dfb57634e487b7160e01b600052601260045260246000fd5b500490565b6000825160005b81811015610e215760208186018101518583015201610e07565b81811115610e30576000828501525b509190910192915050565b6020808252600890820152676f766572666c6f7760c01b604082015260600190565b6020808252602b908201527f496e697469616c697a61626c653a20636f6e7472616374206973206e6f74206960408201526a6e697469616c697a696e6760a81b60608201526080019056fea26469706673582212202363d17145aed444bf14cbe2dcaeb1d952fc25cd31fc3761c4cbe0f1ac6dec4064736f6c634300080a0033",
  "immutableReferences": {},
  "source": "// SPDX-License-Identifier: GPL-3.0\r\npragma solidity ^0.8.0;\r\n\r\nimport \"./IParameterInfo.sol\";\r\nimport \"@openzeppelin/contracts-upgradeable/proxy/utils/Initializable.sol\";\r\nimport \"@openzeppelin/contracts-upgradeable/access/OwnableUpgradeable.sol\";\r\nimport \"@openzeppelin/contracts/utils/Context.sol\";\r\n\r\n/// @title \r\n/// @author bjwswang\r\ncontract ParameterInfo is Context, Initializable, OwnableUpgradeable, IParameterInfo {\r\n    // OIL/GAS required\r\n    PriceDiscountConfig private _priceDiscountConfig;\r\n    mapping(string => uint256) private _platformConfig;\r\n\r\n    uint256 private warnRatio;\r\n    uint256 private liquidationRatio;\r\n\r\n    address private _mulSig;\r\n\r\n    /// @dev \r\n    /// @param _mulSigContract \r\n    function initialize(address _mulSigContract) public initializer {\r\n        __Ownable_init();\r\n\r\n        _mulSig = _mulSigContract;\r\n\r\n        warnRatio = 9900;\r\n        liquidationRatio = 9000;\r\n\r\n        _platformConfig[\"marginRatio\"] = 100;\r\n        _platformConfig[\"reserveRatio\"] = 1000;\r\n        _platformConfig[\"loanInterestRate\"] = 5;\r\n        _platformConfig[\"loanPledgeRate\"] = 15000;\r\n\r\n        _priceDiscountConfig.API = 3110;\r\n        _priceDiscountConfig.sulphur = 500;\r\n        _priceDiscountConfig.discount = [9000, 8500, 8000, 7500];\r\n    }\r\n\r\n    /*function _contextSuffixLength() internal view virtual override(Context,ContextUpgradeable) returns (uint256) {\r\n        return ContextUpgradeable._contextSuffixLength();\r\n    }*/\r\n\r\n    modifier onlyMulSig() {\r\n        require(_msgSender() == _mulSig, \"\");\r\n        _;\r\n    }\r\n\r\n    function _msgSender()\r\n    internal\r\n    view\r\n    virtual\r\n    override(Context, ContextUpgradeable)\r\n    returns (address)\r\n    {\r\n        return msg.sender;\r\n    }\r\n\r\n    function _msgData()\r\n    internal\r\n    view\r\n    virtual\r\n    override(Context, ContextUpgradeable)\r\n    returns (bytes calldata)\r\n    {\r\n        return msg.data;\r\n    }\r\n\r\n    /// @dev \r\n    /// @param key \r\n    ///    - marginRatio\r\n    ///    - reserveRatio\r\n    ///    - loanInterestRate\r\n    ///    - loanPledgeRate\r\n    ///    - liquidationRatio\r\n    /// @param amount \r\n    /// @return bool \r\n    function setPlatformConfig(string memory key, uint256 amount)\r\n    external override\r\n    onlyMulSig\r\n    returns (bool)\r\n    {\r\n        if (keccak256(bytes(key)) == keccak256(bytes(\"marginRatio\"))) {\r\n            require(0 <= amount && amount <= 10000, \"overflow\");\r\n            _platformConfig[key] = amount;\r\n        } else if (keccak256(bytes(key)) == keccak256(bytes(\"reserveRatio\"))) {\r\n            require(0 <= amount && amount <= 10000, \"overflow\");\r\n            _platformConfig[key] = amount;\r\n        } else if (keccak256(bytes(key)) == keccak256(bytes(\"loanInterestRate\"))) {\r\n            require(0 <= amount && amount <= 100, \"overflow\");\r\n            _platformConfig[key] = amount;\r\n        } else if (keccak256(bytes(key)) == keccak256(bytes(\"loanPledgeRate\"))) {\r\n            require(12000 <= amount && amount <= 66600, \"overflow\");\r\n            _platformConfig[key] = amount;\r\n        } else if (keccak256(bytes(key)) == keccak256(bytes(\"liquidationRatio\"))) {\r\n            require(9000 <= amount && amount <= 9900, \"overflow\");\r\n            liquidationRatio = amount;\r\n        } else {\r\n            revert(\"not support\");\r\n        }\r\n\r\n        return true;\r\n    }\r\n\r\n    /// @dev \r\n    /// @param key \r\n    /// @return uint256  \r\n    function getPlatformConfig(string memory key) public view override returns (uint256) {\r\n        return _platformConfig[key];\r\n    }\r\n\r\n    function getUSTNLoanPledgeRateWarningValue() public view override returns (uint amount){\r\n        return _platformConfig[\"loanPledgeRate\"] * warnRatio / 10000;\r\n    }\r\n\r\n    // get USTN loan liquidation rate\r\n    function getUSTNLoanLiquidationRate() public view override returns (uint amount){\r\n        return _platformConfig[\"loanPledgeRate\"] * liquidationRatio / 10000;\r\n    }\r\n\r\n    // \r\n    function getUSTNLoanPledgeRate() public view returns (uint256){\r\n        return _platformConfig[\"loanPledgeRate\"];\r\n    }\r\n    function getUSTNLoanInterestRate() public view returns (uint256){\r\n        return _platformConfig[\"loanInterestRate\"];\r\n    }\r\n\r\n    /// @dev \r\n    /// @param API API\r\n    /// @param sulphur  \r\n    /// @param discount1 1\r\n    /// @param discount2 2\r\n    /// @param discount3 3\r\n    /// @param discount4 4\r\n    /// @return bool \r\n    function setPriceDiscountConfig(\r\n        uint256 API,\r\n        uint256 sulphur,\r\n        uint256 discount1,\r\n        uint256 discount2,\r\n        uint256 discount3,\r\n        uint256 discount4\r\n    ) external override onlyMulSig returns (bool) {\r\n        require(0 <= API && API <= 10000, \"overflow\");\r\n        require(0 <= sulphur && sulphur <= 10000, \"overflow\");\r\n        require(0 <= discount1 && discount1 <= 10000, \"overflow\");\r\n        require(\r\n            discount1 > discount2 && discount2 > discount3 && discount3 > discount4,\r\n            \"overflow\"\r\n        );\r\n        _priceDiscountConfig.API = API;\r\n        _priceDiscountConfig.sulphur = sulphur;\r\n        _priceDiscountConfig.discount = [discount1, discount2, discount3, discount4];\r\n\r\n        return true;\r\n    }\r\n\r\n    /// @dev \r\n    /// @param _API API\r\n    /// @param _sulphur  \r\n    /// @return uint256 \r\n    function getPriceDiscountConfig(uint256 _API, uint256 _sulphur) public view override returns (uint256) {\r\n        uint256 discount;\r\n        require(_API != 0 && _sulphur != 0, \"this mine data is error or not exist this mine.\");\r\n        if (_API > _priceDiscountConfig.API && _sulphur < _priceDiscountConfig.sulphur) {\r\n            discount = _priceDiscountConfig.discount[0];\r\n        }\r\n        if (_API > _priceDiscountConfig.API && _sulphur >= _priceDiscountConfig.sulphur) {\r\n            discount = _priceDiscountConfig.discount[1];\r\n        }\r\n        if (_API <= _priceDiscountConfig.API && _sulphur < _priceDiscountConfig.sulphur) {\r\n            discount = _priceDiscountConfig.discount[2];\r\n        }\r\n        if (_API <= _priceDiscountConfig.API && _sulphur >= _priceDiscountConfig.sulphur) {\r\n            discount = _priceDiscountConfig.discount[3];\r\n        }\r\n        return discount;\r\n    }\r\n}\r\n",
  "sourcePath": "D:\\work\\Treasurenet-contracts\\fork\\treasurenet-contracts\\contracts\\Governance\\ParameterInfo.sol",
  "compiler": {
    "name": "solc",
    "version": "0.8.10+commit.fc410830.Emscripten.clang"
  },
  "schemaVersion": "3.4.16",
  "updatedAt": "2024-04-29T07:29:52.969Z",
  "devdoc": {
    "author": "bjwswang",
    "kind": "dev",
    "methods": {
      "getPlatformConfig(string)": {
        "details": "",
        "params": {
          "key": ""
        },
        "returns": {
          "_0": "uint256  "
        }
      },
      "getPriceDiscountConfig(uint256,uint256)": {
        "details": "",
        "params": {
          "_API": "API",
          "_sulphur": ""
        },
        "returns": {
          "_0": "uint256 "
        }
      },
      "initialize(address)": {
        "details": "",
        "params": {
          "_mulSigContract": ""
        }
      },
      "owner()": {
        "details": "Returns the address of the current owner."
      },
      "renounceOwnership()": {
        "details": "Leaves the contract without owner. It will not be possible to call `onlyOwner` functions anymore. Can only be called by the current owner. NOTE: Renouncing ownership will leave the contract without an owner, thereby removing any functionality that is only available to the owner."
      },
      "setPlatformConfig(string,uint256)": {
        "details": "",
        "params": {
          "amount": "",
          "key": "    - marginRatio    - reserveRatio    - loanInterestRate    - loanPledgeRate    - liquidationRatio"
        },
        "returns": {
          "_0": "bool "
        }
      },
      "setPriceDiscountConfig(uint256,uint256,uint256,uint256,uint256,uint256)": {
        "details": "",
        "params": {
          "API": "API",
          "discount1": "1",
          "discount2": "2",
          "discount3": "3",
          "discount4": "4",
          "sulphur": ""
        },
        "returns": {
          "_0": "bool "
        }
      },
      "transferOwnership(address)": {
        "details": "Transfers ownership of the contract to a new account (`newOwner`). Can only be called by the current owner."
      }
    },
    "title": "",
    "version": 1
  },
  "userdoc": {
    "kind": "user",
    "methods": {},
    "version": 1
  }
}