{
  "contractName": "Roles",
  "abi": [
    {
      "anonymous": false,
      "inputs": [
        {
          "indexed": false,
          "internalType": "uint8",
          "name": "version",
          "type": "uint8"
        }
      ],
      "name": "Initialized",
      "type": "event"
    },
    {
      "anonymous": false,
      "inputs": [
        {
          "indexed": true,
          "internalType": "address",
          "name": "previousOwner",
          "type": "address"
        },
        {
          "indexed": true,
          "internalType": "address",
          "name": "newOwner",
          "type": "address"
        }
      ],
      "name": "OwnershipTransferred",
      "type": "event"
    },
    {
      "anonymous": false,
      "inputs": [
        {
          "indexed": true,
          "internalType": "bytes32",
          "name": "role",
          "type": "bytes32"
        },
        {
          "indexed": true,
          "internalType": "bytes32",
          "name": "previousAdminRole",
          "type": "bytes32"
        },
        {
          "indexed": true,
          "internalType": "bytes32",
          "name": "newAdminRole",
          "type": "bytes32"
        }
      ],
      "name": "RoleAdminChanged",
      "type": "event"
    },
    {
      "anonymous": false,
      "inputs": [
        {
          "indexed": true,
          "internalType": "bytes32",
          "name": "role",
          "type": "bytes32"
        },
        {
          "indexed": true,
          "internalType": "address",
          "name": "account",
          "type": "address"
        },
        {
          "indexed": true,
          "internalType": "address",
          "name": "sender",
          "type": "address"
        }
      ],
      "name": "RoleGranted",
      "type": "event"
    },
    {
      "anonymous": false,
      "inputs": [
        {
          "indexed": true,
          "internalType": "bytes32",
          "name": "role",
          "type": "bytes32"
        },
        {
          "indexed": true,
          "internalType": "address",
          "name": "account",
          "type": "address"
        },
        {
          "indexed": true,
          "internalType": "address",
          "name": "sender",
          "type": "address"
        }
      ],
      "name": "RoleRevoked",
      "type": "event"
    },
    {
      "inputs": [],
      "name": "ADMIN",
      "outputs": [
        {
          "internalType": "bytes32",
          "name": "",
          "type": "bytes32"
        }
      ],
      "stateMutability": "view",
      "type": "function"
    },
    {
      "inputs": [],
      "name": "AUCTION_MANAGER",
      "outputs": [
        {
          "internalType": "bytes32",
          "name": "",
          "type": "bytes32"
        }
      ],
      "stateMutability": "view",
      "type": "function"
    },
    {
      "inputs": [],
      "name": "DEFAULT_ADMIN_ROLE",
      "outputs": [
        {
          "internalType": "bytes32",
          "name": "",
          "type": "bytes32"
        }
      ],
      "stateMutability": "view",
      "type": "function"
    },
    {
      "inputs": [],
      "name": "FEEDER",
      "outputs": [
        {
          "internalType": "bytes32",
          "name": "",
          "type": "bytes32"
        }
      ],
      "stateMutability": "view",
      "type": "function"
    },
    {
      "inputs": [],
      "name": "FOUNDATION_MANAGER",
      "outputs": [
        {
          "internalType": "bytes32",
          "name": "",
          "type": "bytes32"
        }
      ],
      "stateMutability": "view",
      "type": "function"
    },
    {
      "inputs": [
        {
          "internalType": "bytes32",
          "name": "role",
          "type": "bytes32"
        }
      ],
      "name": "getRoleAdmin",
      "outputs": [
        {
          "internalType": "bytes32",
          "name": "",
          "type": "bytes32"
        }
      ],
      "stateMutability": "view",
      "type": "function"
    },
    {
      "inputs": [
        {
          "internalType": "bytes32",
          "name": "role",
          "type": "bytes32"
        },
        {
          "internalType": "uint256",
          "name": "index",
          "type": "uint256"
        }
      ],
      "name": "getRoleMember",
      "outputs": [
        {
          "internalType": "address",
          "name": "",
          "type": "address"
        }
      ],
      "stateMutability": "view",
      "type": "function"
    },
    {
      "inputs": [
        {
          "internalType": "bytes32",
          "name": "role",
          "type": "bytes32"
        }
      ],
      "name": "getRoleMemberCount",
      "outputs": [
        {
          "internalType": "uint256",
          "name": "",
          "type": "uint256"
        }
      ],
      "stateMutability": "view",
      "type": "function"
    },
    {
      "inputs": [
        {
          "internalType": "bytes32",
          "name": "role",
          "type": "bytes32"
        },
        {
          "internalType": "address",
          "name": "account",
          "type": "address"
        }
      ],
      "name": "grantRole",
      "outputs": [],
      "stateMutability": "nonpayable",
      "type": "function"
    },
    {
      "inputs": [
        {
          "internalType": "bytes32",
          "name": "role",
          "type": "bytes32"
        },
        {
          "internalType": "address",
          "name": "account",
          "type": "address"
        }
      ],
      "name": "hasRole",
      "outputs": [
        {
          "internalType": "bool",
          "name": "",
          "type": "bool"
        }
      ],
      "stateMutability": "view",
      "type": "function"
    },
    {
      "inputs": [],
      "name": "owner",
      "outputs": [
        {
          "internalType": "address",
          "name": "",
          "type": "address"
        }
      ],
      "stateMutability": "view",
      "type": "function"
    },
    {
      "inputs": [],
      "name": "renounceOwnership",
      "outputs": [],
      "stateMutability": "nonpayable",
      "type": "function"
    },
    {
      "inputs": [
        {
          "internalType": "bytes32",
          "name": "role",
          "type": "bytes32"
        },
        {
          "internalType": "address",
          "name": "account",
          "type": "address"
        }
      ],
      "name": "renounceRole",
      "outputs": [],
      "stateMutability": "nonpayable",
      "type": "function"
    },
    {
      "inputs": [
        {
          "internalType": "bytes32",
          "name": "role",
          "type": "bytes32"
        },
        {
          "internalType": "address",
          "name": "account",
          "type": "address"
        }
      ],
      "name": "revokeRole",
      "outputs": [],
      "stateMutability": "nonpayable",
      "type": "function"
    },
    {
      "inputs": [
        {
          "internalType": "bytes4",
          "name": "interfaceId",
          "type": "bytes4"
        }
      ],
      "name": "supportsInterface",
      "outputs": [
        {
          "internalType": "bool",
          "name": "",
          "type": "bool"
        }
      ],
      "stateMutability": "view",
      "type": "function"
    },
    {
      "inputs": [
        {
          "internalType": "address",
          "name": "newOwner",
          "type": "address"
        }
      ],
      "name": "transferOwnership",
      "outputs": [],
      "stateMutability": "nonpayable",
      "type": "function"
    },
    {
      "inputs": [
        {
          "internalType": "address",
          "name": "_mulSigContract",
          "type": "address"
        },
        {
          "internalType": "address[]",
          "name": "managers",
          "type": "address[]"
        },
        {
          "internalType": "address[]",
          "name": "auctionManagers",
          "type": "address[]"
        },
        {
          "internalType": "address[]",
          "name": "feeders",
          "type": "address[]"
        }
      ],
      "name": "initialize",
      "outputs": [],
      "stateMutability": "nonpayable",
      "type": "function"
    }
  ],
  "bytecode": "0x608060405234801561001057600080fd5b50611275806100206000396000f3fe608060405234801561001057600080fd5b506004361061010b5760003560e01c80636d8bc0a9116100a257806391d148541161007157806391d148541461025c578063a217fddf1461026f578063ca15c87314610277578063d547741f1461028a578063f2fde38b1461029d57600080fd5b80636d8bc0a914610207578063715018a61461021c5780638da5cb5b146102245780639010d07c1461024957600080fd5b80632f2ff15d116100de5780632f2ff15d1461019357806336568abe146101a657806339fb284e146101b95780636447189a146101e057600080fd5b806301ffc9a714610110578063248a9ca3146101385780632a0acc6a146101695780632f26b1de1461017e575b600080fd5b61012361011e366004610e01565b6102b0565b60405190151581526020015b60405180910390f35b61015b610146366004610e2b565b60009081526065602052604090206001015490565b60405190815260200161012f565b61015b60008051602061120083398151915281565b61019161018c366004610f18565b6102db565b005b6101916101a1366004610fb1565b6105ca565b6101916101b4366004610fb1565b6105f4565b61015b7fc55a74c743a5d6aff6a82963adf054e2367242c4a636870f26b8ee90910968d081565b61015b7f0a59a035ae0a00eac2a600a582577e6f107971288ab786d897919ae27385652481565b61015b60008051602061122083398151915281565b610191610672565b6033546001600160a01b03165b6040516001600160a01b03909116815260200161012f565b610231610257366004610fdd565b610686565b61012361026a366004610fb1565b6106a5565b61015b600081565b61015b610285366004610e2b565b6106d0565b610191610298366004610fb1565b6106e7565b6101916102ab366004610fff565b61070c565b60006001600160e01b03198216635a05180f60e01b14806102d557506102d582610785565b92915050565b600054610100900460ff16158080156102fb5750600054600160ff909116105b806103155750303b158015610315575060005460ff166001145b61037d5760405162461bcd60e51b815260206004820152602e60248201527f496e697469616c697a61626c653a20636f6e747261637420697320616c72656160448201526d191e481a5b9a5d1a585b1a5e995960921b60648201526084015b60405180910390fd5b6000805460ff1916600117905580156103a0576000805461ff0019166101001790555b6103a86107ba565b606780546001600160a01b0319166001600160a01b0387161790556103db600080516020611200833981519152866107e9565b6103f3600080516020611200833981519152806107f3565b6104196000805160206112208339815191526000805160206112008339815191526107f3565b6104517fc55a74c743a5d6aff6a82963adf054e2367242c4a636870f26b8ee90910968d06000805160206112208339815191526107f3565b6104897f0a59a035ae0a00eac2a600a582577e6f107971288ab786d897919ae2738565246000805160206112008339815191526107f3565b60005b84518110156104d6576104c66000805160206112208339815191528683815181106104b9576104b961101a565b60200260200101516107e9565b6104cf81611046565b905061048c565b5060005b8351811015610529576105197fc55a74c743a5d6aff6a82963adf054e2367242c4a636870f26b8ee90910968d08583815181106104b9576104b961101a565b61052281611046565b90506104da565b5060005b825181101561057c5761056c7f0a59a035ae0a00eac2a600a582577e6f107971288ab786d897919ae2738565248483815181106104b9576104b961101a565b61057581611046565b905061052d565b5080156105c3576000805461ff0019169055604051600181527f7f26b83ff96e1f2b6a682f133852f6798a09c465da95921460cefb38474024989060200160405180910390a15b5050505050565b6000828152606560205260409020600101546105e58161083e565b6105ef8383610848565b505050565b6001600160a01b03811633146106645760405162461bcd60e51b815260206004820152602f60248201527f416363657373436f6e74726f6c3a2063616e206f6e6c792072656e6f756e636560448201526e103937b632b9903337b91039b2b63360891b6064820152608401610374565b61066e828261086a565b5050565b61067a61088c565b61068460006108e6565b565b600082815260666020526040812061069e9083610938565b9392505050565b60009182526065602090815260408084206001600160a01b0393909316845291905290205460ff1690565b60008181526066602052604081206102d590610944565b6000828152606560205260409020600101546107028161083e565b6105ef838361086a565b61071461088c565b6001600160a01b0381166107795760405162461bcd60e51b815260206004820152602660248201527f4f776e61626c653a206e6577206f776e657220697320746865207a65726f206160448201526564647265737360d01b6064820152608401610374565b610782816108e6565b50565b60006001600160e01b03198216637965db0b60e01b14806102d557506301ffc9a760e01b6001600160e01b03198316146102d5565b600054610100900460ff166107e15760405162461bcd60e51b815260040161037490611061565b61068461094e565b61066e8282610848565b600082815260656020526040808220600101805490849055905190918391839186917fbd79b86ffe0ab8e8776151514217cd7cacd52c909f66475c3af44e129f0b00ff9190a4505050565b610782813361097e565b61085282826109e2565b60008281526066602052604090206105ef9082610a68565b6108748282610a7d565b60008281526066602052604090206105ef9082610ae4565b6033546001600160a01b031633146106845760405162461bcd60e51b815260206004820181905260248201527f4f776e61626c653a2063616c6c6572206973206e6f7420746865206f776e65726044820152606401610374565b603380546001600160a01b038381166001600160a01b0319831681179093556040519116919082907f8be0079c531659141344cd1fd0a4f28419497f9722a3daafe3b4186f6b6457e090600090a35050565b600061069e8383610af9565b60006102d5825490565b600054610100900460ff166109755760405162461bcd60e51b815260040161037490611061565b610684336108e6565b61098882826106a5565b61066e576109a0816001600160a01b03166014610b23565b6109ab836020610b23565b6040516020016109bc9291906110dc565b60408051601f198184030181529082905262461bcd60e51b825261037491600401611151565b6109ec82826106a5565b61066e5760008281526065602090815260408083206001600160a01b03851684529091529020805460ff19166001179055610a243390565b6001600160a01b0316816001600160a01b0316837f2f8788117e7eff1d82e926ec794901d17c78024a50270940304540a733656f0d60405160405180910390a45050565b600061069e836001600160a01b038416610cbf565b610a8782826106a5565b1561066e5760008281526065602090815260408083206001600160a01b0385168085529252808320805460ff1916905551339285917ff6391f5c32d9c69d2a47ea670b442974b53935d1edc7fd64eb21e047a839171b9190a45050565b600061069e836001600160a01b038416610d0e565b6000826000018281548110610b1057610b1061101a565b9060005260206000200154905092915050565b60606000610b32836002611184565b610b3d9060026111a3565b67ffffffffffffffff811115610b5557610b55610e60565b6040519080825280601f01601f191660200182016040528015610b7f576020820181803683370190505b509050600360fc1b81600081518110610b9a57610b9a61101a565b60200101906001600160f81b031916908160001a905350600f60fb1b81600181518110610bc957610bc961101a565b60200101906001600160f81b031916908160001a9053506000610bed846002611184565b610bf89060016111a3565b90505b6001811115610c70576f181899199a1a9b1b9c1cb0b131b232b360811b85600f1660108110610c2c57610c2c61101a565b1a60f81b828281518110610c4257610c4261101a565b60200101906001600160f81b031916908160001a90535060049490941c93610c69816111bb565b9050610bfb565b50831561069e5760405162461bcd60e51b815260206004820181905260248201527f537472696e67733a20686578206c656e67746820696e73756666696369656e746044820152606401610374565b6000818152600183016020526040812054610d06575081546001818101845560008481526020808220909301849055845484825282860190935260409020919091556102d5565b5060006102d5565b60008181526001830160205260408120548015610df7576000610d326001836111d2565b8554909150600090610d46906001906111d2565b9050818114610dab576000866000018281548110610d6657610d6661101a565b9060005260206000200154905080876000018481548110610d8957610d8961101a565b6000918252602080832090910192909255918252600188019052604090208390555b8554869080610dbc57610dbc6111e9565b6001900381819060005260206000200160009055905585600101600086815260200190815260200160002060009055600193505050506102d5565b60009150506102d5565b600060208284031215610e1357600080fd5b81356001600160e01b03198116811461069e57600080fd5b600060208284031215610e3d57600080fd5b5035919050565b80356001600160a01b0381168114610e5b57600080fd5b919050565b634e487b7160e01b600052604160045260246000fd5b600082601f830112610e8757600080fd5b8135602067ffffffffffffffff80831115610ea457610ea4610e60565b8260051b604051601f19603f83011681018181108482111715610ec957610ec9610e60565b604052938452858101830193838101925087851115610ee757600080fd5b83870191505b84821015610f0d57610efe82610e44565b83529183019190830190610eed565b979650505050505050565b60008060008060808587031215610f2e57600080fd5b610f3785610e44565b9350602085013567ffffffffffffffff80821115610f5457600080fd5b610f6088838901610e76565b94506040870135915080821115610f7657600080fd5b610f8288838901610e76565b93506060870135915080821115610f9857600080fd5b50610fa587828801610e76565b91505092959194509250565b60008060408385031215610fc457600080fd5b82359150610fd460208401610e44565b90509250929050565b60008060408385031215610ff057600080fd5b50508035926020909101359150565b60006020828403121561101157600080fd5b61069e82610e44565b634e487b7160e01b600052603260045260246000fd5b634e487b7160e01b600052601160045260246000fd5b600060001982141561105a5761105a611030565b5060010190565b6020808252602b908201527f496e697469616c697a61626c653a20636f6e7472616374206973206e6f74206960408201526a6e697469616c697a696e6760a81b606082015260800190565b60005b838110156110c75781810151838201526020016110af565b838111156110d6576000848401525b50505050565b7f416363657373436f6e74726f6c3a206163636f756e74200000000000000000008152600083516111148160178501602088016110ac565b7001034b99036b4b9b9b4b733903937b6329607d1b60179184019182015283516111458160288401602088016110ac565b01602801949350505050565b60208152600082518060208401526111708160408501602087016110ac565b601f01601f19169190910160400192915050565b600081600019048311821515161561119e5761119e611030565b500290565b600082198211156111b6576111b6611030565b500190565b6000816111ca576111ca611030565b506000190190565b6000828210156111e4576111e4611030565b500390565b634e487b7160e01b600052603160045260246000fdfedf8b4c520ffe197c5343c6f5aec59570151ef9a492f2c624fd45ddde6135ec42d8e00efd67a9b34b6da7b941bb2d92f1c529ce28e67d637c0b137058422e0669a264697066735822122022fdce8239e72764fd140faacfb660e3dc7e36867f55ed8a8846cc619799da1964736f6c634300080a0033",
  "immutableReferences": {},
  "source": "// SPDX-License-Identifier: GPL-3.0\r\npragma solidity ^0.8.0;\r\n\r\nimport \"@openzeppelin/contracts-upgradeable/access/OwnableUpgradeable.sol\";\r\nimport \"@openzeppelin/contracts/access/AccessControlEnumerable.sol\";\r\nimport \"@openzeppelin/contracts-upgradeable/proxy/utils/Initializable.sol\";\r\n\r\n/// @title \r\n/// @author bjwswang\r\ncontract Roles is Initializable, OwnableUpgradeable, AccessControlEnumerable {\r\n    bytes32 public constant ADMIN = keccak256(\"ADMIN\");\r\n    bytes32 public constant FOUNDATION_MANAGER = keccak256(\"FOUNDATION_MANAGER\");\r\n    bytes32 public constant AUCTION_MANAGER = keccak256(\"AUCTION_MANAGER\");\r\n    bytes32 public constant FEEDER = keccak256(\"FEEDER\");\r\n\r\n    address private _mulSig;\r\n\r\n    /// @dev \r\n    /// @param _mulSigContract \r\n    /// @param managers  (FOUNDATION_MANAGER)\r\n    /// @param feeders (FEEDER)\r\n    function initialize(\r\n        address _mulSigContract,\r\n        address[] memory managers, // initialize manager\r\n        address[] memory auctionManagers,\r\n        address[] memory feeders // feeders for oracle data\r\n    ) public initializer {\r\n        __Ownable_init();\r\n\r\n        _mulSig = _mulSigContract;\r\n        _setupRole(ADMIN, _mulSigContract);\r\n\r\n        _setRoleAdmin(ADMIN, ADMIN);\r\n        _setRoleAdmin(FOUNDATION_MANAGER, ADMIN);\r\n        _setRoleAdmin(AUCTION_MANAGER,FOUNDATION_MANAGER);\r\n        _setRoleAdmin(FEEDER, ADMIN);\r\n\r\n        for (uint256 i = 0; i < managers.length; ++i) {\r\n            _setupRole(FOUNDATION_MANAGER, managers[i]);\r\n        }\r\n\r\n        for (uint256 i = 0; i < auctionManagers.length; ++i) {\r\n            _setupRole(AUCTION_MANAGER, auctionManagers[i]);\r\n        }\r\n\r\n        for (uint256 i = 0; i < feeders.length; ++i) {\r\n            _setupRole(FEEDER, feeders[i]);\r\n        }\r\n    }\r\n\r\n    /*function _contextSuffixLength() internal view virtual override(Context,ContextUpgradeable) returns (uint256) {\r\n        return ContextUpgradeable._contextSuffixLength();\r\n    }*/\r\n\r\n    modifier onlyMulSig() {\r\n        require(_msgSender() == _mulSig, \"\");\r\n        _;\r\n    }\r\n\r\n    function _msgSender()\r\n        internal\r\n        view\r\n        virtual\r\n        override(Context, ContextUpgradeable)\r\n        returns (address)\r\n    {\r\n        return msg.sender;\r\n    }\r\n\r\n    function _msgData()\r\n        internal\r\n        view\r\n        virtual\r\n        override(Context, ContextUpgradeable)\r\n        returns (bytes calldata)\r\n    {\r\n        return msg.data;\r\n    }\r\n}\r\n",
  "sourcePath": "D:\\work\\Treasurenet-contracts\\fork\\treasurenet-contracts\\contracts\\Governance\\Roles.sol",
  "compiler": {
    "name": "solc",
    "version": "0.8.10+commit.fc410830.Emscripten.clang"
  },
  "schemaVersion": "3.4.16",
  "updatedAt": "2024-04-29T07:29:52.973Z",
  "devdoc": {
    "author": "bjwswang",
    "kind": "dev",
    "methods": {
      "getRoleAdmin(bytes32)": {
        "details": "Returns the admin role that controls `role`. See {grantRole} and {revokeRole}. To change a role's admin, use {_setRoleAdmin}."
      },
      "getRoleMember(bytes32,uint256)": {
        "details": "Returns one of the accounts that have `role`. `index` must be a value between 0 and {getRoleMemberCount}, non-inclusive. Role bearers are not sorted in any particular way, and their ordering may change at any point. WARNING: When using {getRoleMember} and {getRoleMemberCount}, make sure you perform all queries on the same block. See the following https://forum.openzeppelin.com/t/iterating-over-elements-on-enumerableset-in-openzeppelin-contracts/2296[forum post] for more information."
      },
      "getRoleMemberCount(bytes32)": {
        "details": "Returns the number of accounts that have `role`. Can be used together with {getRoleMember} to enumerate all bearers of a role."
      },
      "grantRole(bytes32,address)": {
        "details": "Grants `role` to `account`. If `account` had not been already granted `role`, emits a {RoleGranted} event. Requirements: - the caller must have ``role``'s admin role. May emit a {RoleGranted} event."
      },
      "hasRole(bytes32,address)": {
        "details": "Returns `true` if `account` has been granted `role`."
      },
      "initialize(address,address[],address[],address[])": {
        "details": "",
        "params": {
          "_mulSigContract": "",
          "feeders": "(FEEDER)",
          "managers": "(FOUNDATION_MANAGER)"
        }
      },
      "owner()": {
        "details": "Returns the address of the current owner."
      },
      "renounceOwnership()": {
        "details": "Leaves the contract without owner. It will not be possible to call `onlyOwner` functions anymore. Can only be called by the current owner. NOTE: Renouncing ownership will leave the contract without an owner, thereby removing any functionality that is only available to the owner."
      },
      "renounceRole(bytes32,address)": {
        "details": "Revokes `role` from the calling account. Roles are often managed via {grantRole} and {revokeRole}: this function's purpose is to provide a mechanism for accounts to lose their privileges if they are compromised (such as when a trusted device is misplaced). If the calling account had been revoked `role`, emits a {RoleRevoked} event. Requirements: - the caller must be `account`. May emit a {RoleRevoked} event."
      },
      "revokeRole(bytes32,address)": {
        "details": "Revokes `role` from `account`. If `account` had been granted `role`, emits a {RoleRevoked} event. Requirements: - the caller must have ``role``'s admin role. May emit a {RoleRevoked} event."
      },
      "supportsInterface(bytes4)": {
        "details": "See {IERC165-supportsInterface}."
      },
      "transferOwnership(address)": {
        "details": "Transfers ownership of the contract to a new account (`newOwner`). Can only be called by the current owner."
      }
    },
    "title": "",
    "version": 1
  },
  "userdoc": {
    "kind": "user",
    "methods": {},
    "version": 1
  }
}