{
  "contractName": "SampleDAO",
  "abi": [
    {
      "anonymous": false,
      "inputs": [
        {
          "indexed": false,
          "internalType": "uint256",
          "name": "oldB",
          "type": "uint256"
        },
        {
          "indexed": false,
          "internalType": "uint256",
          "name": "newB",
          "type": "uint256"
        }
      ],
      "name": "BlockRewardReset",
      "type": "event"
    },
    {
      "anonymous": false,
      "inputs": [
        {
          "indexed": false,
          "internalType": "uint8",
          "name": "version",
          "type": "uint8"
        }
      ],
      "name": "Initialized",
      "type": "event"
    },
    {
      "anonymous": false,
      "inputs": [
        {
          "indexed": false,
          "internalType": "uint256",
          "name": "",
          "type": "uint256"
        }
      ],
      "name": "PayEth",
      "type": "event"
    },
    {
      "inputs": [
        {
          "internalType": "address",
          "name": "dao_",
          "type": "address"
        }
      ],
      "name": "initialize",
      "outputs": [],
      "stateMutability": "nonpayable",
      "type": "function"
    },
    {
      "inputs": [],
      "name": "blockReward",
      "outputs": [
        {
          "internalType": "uint256",
          "name": "",
          "type": "uint256"
        }
      ],
      "stateMutability": "view",
      "type": "function"
    },
    {
      "inputs": [
        {
          "internalType": "uint256",
          "name": "_newReward",
          "type": "uint256"
        }
      ],
      "name": "setBlockReward",
      "outputs": [],
      "stateMutability": "nonpayable",
      "type": "function"
    },
    {
      "inputs": [],
      "name": "receiveEth",
      "outputs": [],
      "stateMutability": "payable",
      "type": "function"
    }
  ],
  "bytecode": "0x608060405234801561001057600080fd5b50610368806100206000396000f3fe60806040526004361061003f5760003560e01c80630ac168a1146100445780631a18e707146100665780634185f8eb14610088578063c4d66de814610090575b600080fd5b34801561005057600080fd5b5060015460405190815260200160405180910390f35b34801561007257600080fd5b506100866100813660046102e9565b6100b0565b005b610086610146565b34801561009c57600080fd5b506100866100ab366004610302565b61017b565b6000546201000090046001600160a01b031633146101005760405162461bcd60e51b81526020600482015260086024820152676f6e6c792064616f60c01b60448201526064015b60405180910390fd5b600180549082905560408051828152602081018490527f108058c766287bd618f20feb72fe416570bbde46393c9049724c5068fb0c8ef691015b60405180910390a15050565b6040513481527fcc827bf2f2514a8fa11d70143fcb8465d227b6a6e062f3f6eccbdf7e9a921e6d9060200160405180910390a1565b600054610100900460ff161580801561019b5750600054600160ff909116105b806101b55750303b1580156101b5575060005460ff166001145b6102185760405162461bcd60e51b815260206004820152602e60248201527f496e697469616c697a61626c653a20636f6e747261637420697320616c72656160448201526d191e481a5b9a5d1a585b1a5e995960921b60648201526084016100f7565b6000805460ff19166001179055801561023b576000805461ff0019166101001790555b6001600160a01b0382166102815760405162461bcd60e51b815260206004820152600d60248201526c656d707479206164647265737360981b60448201526064016100f7565b6000805462010000600160b01b031916620100006001600160a01b0385160217905580156102e5576000805461ff0019169055604051600181527f7f26b83ff96e1f2b6a682f133852f6798a09c465da95921460cefb38474024989060200161013a565b5050565b6000602082840312156102fb57600080fd5b5035919050565b60006020828403121561031457600080fd5b81356001600160a01b038116811461032b57600080fd5b939250505056fea2646970667358221220bb7fae097ccb0067b3dfa0fcbe6ce8c1d715ccf0748cc932baa155fc7178eaaf64736f6c634300080a0033",
  "immutableReferences": {},
  "source": "// SPDX-License-Identifier: GPL-3.0\r\npragma solidity ^0.8.0;\r\n\r\nimport \"@openzeppelin/contracts-upgradeable/proxy/utils/Initializable.sol\";\r\n\r\ncontract SampleDAO is Initializable {\r\n    address private _dao;\r\n\r\n    uint256 private _blockReward;\r\n\r\n    event BlockRewardReset(uint256 oldB, uint256 newB);\r\n\r\n    function initialize(address dao_) public initializer {\r\n        require(dao_ != address(0), \"empty address\");\r\n        _dao = dao_;\r\n    }\r\n\r\n    modifier onlyDAO() {\r\n        require(msg.sender == _dao, \"only dao\");\r\n        _;\r\n    }\r\n\r\n    function blockReward() public view returns (uint256) {\r\n        return _blockReward;\r\n    }\r\n\r\n    function setBlockReward(uint256 _newReward) public onlyDAO {\r\n        uint256 old = _blockReward;\r\n        _blockReward = _newReward;\r\n        emit BlockRewardReset(old, _newReward);\r\n    }\r\n\r\n    event PayEth(uint256);\r\n\r\n    function receiveEth() public payable {\r\n        emit PayEth(msg.value);\r\n    }\r\n}\r\n",
  "sourcePath": "D:\\work\\Treasurenet-contracts\\fork\\treasurenet-contracts\\contracts\\Governance\\DAO\\SampleDAO.sol",
  "compiler": {
    "name": "solc",
    "version": "0.8.10+commit.fc410830.Emscripten.clang"
  },
  "schemaVersion": "3.4.16",
  "updatedAt": "2024-04-29T07:29:52.938Z",
  "devdoc": {
    "kind": "dev",
    "methods": {},
    "version": 1
  },
  "userdoc": {
    "kind": "user",
    "methods": {},
    "version": 1
  }
}