{
  "contractName": "Share",
  "abi": [
    {
      "anonymous": false,
      "inputs": [
        {
          "indexed": false,
          "internalType": "bytes32",
          "name": "uniqueId",
          "type": "bytes32"
        },
        {
          "indexed": false,
          "internalType": "address",
          "name": "holder",
          "type": "address"
        }
      ],
      "name": "DeleteHolder",
      "type": "event"
    },
    {
      "anonymous": false,
      "inputs": [
        {
          "indexed": false,
          "internalType": "bytes32",
          "name": "uniqueId",
          "type": "bytes32"
        },
        {
          "indexed": false,
          "internalType": "address",
          "name": "holder",
          "type": "address"
        },
        {
          "indexed": false,
          "internalType": "uint256",
          "name": "ratio",
          "type": "uint256"
        },
        {
          "indexed": false,
          "internalType": "uint256",
          "name": "currentTotalHolders",
          "type": "uint256"
        },
        {
          "indexed": false,
          "internalType": "uint256",
          "name": "currentTotalShared",
          "type": "uint256"
        }
      ],
      "name": "SetHolder",
      "type": "event"
    },
    {
      "anonymous": false,
      "inputs": [
        {
          "indexed": false,
          "internalType": "bytes32",
          "name": "uniqueId",
          "type": "bytes32"
        },
        {
          "indexed": false,
          "internalType": "address",
          "name": "from",
          "type": "address"
        },
        {
          "indexed": false,
          "internalType": "address",
          "name": "to",
          "type": "address"
        },
        {
          "indexed": false,
          "internalType": "uint256",
          "name": "ratio",
          "type": "uint256"
        }
      ],
      "name": "SplitHolder",
      "type": "event"
    },
    {
      "inputs": [],
      "name": "MAX_HOLDERS",
      "outputs": [
        {
          "internalType": "uint256",
          "name": "",
          "type": "uint256"
        }
      ],
      "stateMutability": "view",
      "type": "function"
    },
    {
      "inputs": [],
      "name": "MAX_PIECES",
      "outputs": [
        {
          "internalType": "uint256",
          "name": "",
          "type": "uint256"
        }
      ],
      "stateMutability": "view",
      "type": "function"
    },
    {
      "inputs": [
        {
          "internalType": "bytes32",
          "name": "_uniqueId",
          "type": "bytes32"
        },
        {
          "internalType": "address",
          "name": "_producer",
          "type": "address"
        }
      ],
      "name": "isProducerOwner",
      "outputs": [
        {
          "internalType": "bool",
          "name": "",
          "type": "bool"
        }
      ],
      "stateMutability": "view",
      "type": "function"
    },
    {
      "inputs": [],
      "name": "maxShares",
      "outputs": [
        {
          "internalType": "uint256",
          "name": "",
          "type": "uint256"
        }
      ],
      "stateMutability": "pure",
      "type": "function"
    },
    {
      "inputs": [
        {
          "internalType": "bytes32",
          "name": "_uniqueId",
          "type": "bytes32"
        }
      ],
      "name": "totalHolders",
      "outputs": [
        {
          "internalType": "uint256",
          "name": "",
          "type": "uint256"
        }
      ],
      "stateMutability": "view",
      "type": "function"
    },
    {
      "inputs": [
        {
          "internalType": "bytes32",
          "name": "_uniqueId",
          "type": "bytes32"
        }
      ],
      "name": "totalShared",
      "outputs": [
        {
          "internalType": "uint256",
          "name": "",
          "type": "uint256"
        }
      ],
      "stateMutability": "view",
      "type": "function"
    },
    {
      "inputs": [
        {
          "internalType": "bytes32",
          "name": "_uniqueId",
          "type": "bytes32"
        },
        {
          "internalType": "address",
          "name": "_holder",
          "type": "address"
        }
      ],
      "name": "isHolder",
      "outputs": [
        {
          "internalType": "bool",
          "name": "",
          "type": "bool"
        }
      ],
      "stateMutability": "view",
      "type": "function"
    },
    {
      "inputs": [
        {
          "internalType": "bytes32",
          "name": "_uniqueId",
          "type": "bytes32"
        },
        {
          "internalType": "address",
          "name": "_holder",
          "type": "address"
        }
      ],
      "name": "holder",
      "outputs": [
        {
          "components": [
            {
              "internalType": "uint256",
              "name": "index",
              "type": "uint256"
            },
            {
              "internalType": "uint256",
              "name": "ratio",
              "type": "uint256"
            },
            {
              "internalType": "enum IShare.Flag",
              "name": "flag",
              "type": "uint8"
            }
          ],
          "internalType": "struct IShare.Holder",
          "name": "",
          "type": "tuple"
        }
      ],
      "stateMutability": "view",
      "type": "function"
    },
    {
      "inputs": [
        {
          "internalType": "bytes32",
          "name": "_uniqueId",
          "type": "bytes32"
        },
        {
          "internalType": "address[]",
          "name": "_holderAddrs",
          "type": "address[]"
        },
        {
          "internalType": "uint256[]",
          "name": "_ratios",
          "type": "uint256[]"
        }
      ],
      "name": "setHolders",
      "outputs": [],
      "stateMutability": "nonpayable",
      "type": "function"
    },
    {
      "inputs": [
        {
          "internalType": "bytes32",
          "name": "_uniqueId",
          "type": "bytes32"
        },
        {
          "internalType": "address",
          "name": "_toHolder",
          "type": "address"
        },
        {
          "internalType": "uint256",
          "name": "_ratio",
          "type": "uint256"
        }
      ],
      "name": "splitHolder",
      "outputs": [
        {
          "internalType": "uint256",
          "name": "",
          "type": "uint256"
        },
        {
          "internalType": "uint256",
          "name": "",
          "type": "uint256"
        }
      ],
      "stateMutability": "nonpayable",
      "type": "function"
    },
    {
      "inputs": [
        {
          "internalType": "bytes32",
          "name": "_uniqueId",
          "type": "bytes32"
        },
        {
          "internalType": "address",
          "name": "_holder",
          "type": "address"
        }
      ],
      "name": "deleteHolder",
      "outputs": [],
      "stateMutability": "nonpayable",
      "type": "function"
    },
    {
      "inputs": [
        {
          "internalType": "bytes32",
          "name": "_uniqueId",
          "type": "bytes32"
        },
        {
          "internalType": "uint256",
          "name": "total",
          "type": "uint256"
        }
      ],
      "name": "calculateRewards",
      "outputs": [
        {
          "internalType": "address[]",
          "name": "",
          "type": "address[]"
        },
        {
          "internalType": "uint256[]",
          "name": "",
          "type": "uint256[]"
        }
      ],
      "stateMutability": "view",
      "type": "function"
    }
  ],
  "bytecode": "0x608060405234801561001057600080fd5b506114d0806100206000396000f3fe608060405234801561001057600080fd5b50600436106100b45760003560e01c806393e136da1161007157806393e136da14610165578063991141aa1461016d578063b4aca0551461018d578063b65d8f76146101cc578063c65b61ca146101ec578063d3879c5d146101f457600080fd5b806306c520ed146100b95780630b1c7fef146100ce57806322e127201461010157806339b8a2af1461010957806377368d031461012a5780638ed8a8c914610152575b600080fd5b6100cc6100c73660046110b3565b610207565b005b6100ee6100dc3660046110df565b60009081526003602052604090205490565b6040519081526020015b60405180910390f35b6100ee600981565b61011c6101173660046110f8565b6104e8565b6040516100f892919061111a565b61013d61013836600461119e565b61072e565b604080519283526020830191909152016100f8565b6100cc6101603660046112a9565b610ac1565b6100ee606481565b6100ee61017b3660046110df565b60009081526004602052604090205490565b6101bc61019b3660046110b3565b600091825260208290526040909120546001600160a01b0391821691161490565b60405190151581526020016100f8565b6101df6101da3660046110b3565b610c47565b6040516100f8919061138a565b6100ee610cc4565b6101bc6102023660046110b3565b610cd7565b60008281526020819052604090205482906001600160a01b031661026d5760405162461bcd60e51b81526020600482015260186024820152771c1c9bd91d58d95c881cda185c99481b9bdd08195e1a5cdd60421b60448201526064015b60405180910390fd5b6000818152602081905260409020546001600160a01b031633146102ce5760405162461bcd60e51b815260206004820152601860248201527737b7363c903a343290383937b23ab1b2b91034ba39b2b63360411b6044820152606401610264565b60006102da8484610c47565b90506001816040015160018111156102f4576102f4611374565b146103345760405162461bcd60e51b815260206004820152601060248201526f36bab9ba1031329030903437b63232b960811b6044820152606401610264565b60208101511561037d5760405162461bcd60e51b81526020600482015260146024820152736d7573742068617665207a65726f20736861726560601b6044820152606401610264565b604080518581526001600160a01b03851660208201527f44712ebf2e2edea454e6ac2621c60962b124874de1bb11f37e1048388b2a5584910160405180910390a18051600085815260026020526040902080546001101561045757805481906103e8906001906113e3565b815481106103f8576103f86113fa565b9060005260206000200160009054906101000a90046001600160a01b0316818381548110610428576104286113fa565b9060005260206000200160006101000a8154816001600160a01b0302191690836001600160a01b031602179055505b8080548061046757610467611410565b60008281526020808220830160001990810180546001600160a01b0319169055909201909255878252600180825260408084206001600160a01b038a1685528352808420848155808301859055600201805460ff1916905589845260039092529082208054919290916104db9084906113e3565b9091555050505050505050565b6000828152600360205260408120546060918291610507906001611426565b67ffffffffffffffff81111561051f5761051f6111d3565b604051908082528060200260200182016040528015610548578160200160208202803683370190505b5060008681526003602052604081205491925090610567906001611426565b67ffffffffffffffff81111561057f5761057f6111d3565b6040519080825280602002602001820160405280156105a8578160200160208202803683370190505b5090506000805b60008881526003602052604090205481101561069a5760008881526002602052604081208054839081106105e5576105e56113fa565b60009182526020822001546001600160a01b031691506106058a83610c47565b90508186848151811061061a5761061a6113fa565b60200260200101906001600160a01b031690816001600160a01b031681525050600060648a836020015161064e919061143e565b610658919061145d565b90508086858151811061066d5761066d6113fa565b60209081029190910101526106828186611426565b945050505080806106929061147f565b9150506105af565b506000878152602081815260408083205460039092529091205484516001600160a01b039092169185919081106106d3576106d36113fa565b6001600160a01b03909216602092830291909101909101526106f581876113e3565b60008881526003602052604090205483518491908110610717576107176113fa565b602090810291909101015250909590945092505050565b6000806001600160a01b0384166107915760405162461bcd60e51b815260206004820152602160248201527f7265636569766572206d757374206e6f74206265207a65726f206164647265736044820152607360f81b6064820152608401610264565b60648311156107e25760405162461bcd60e51b815260206004820152601d60248201527f726174696f206578636565646573204d41585f504945434528313030290000006044820152606401610264565b60006107ee8633610c47565b905060018160400151600181111561080857610808611374565b1461084a5760405162461bcd60e51b81526020600482015260126024820152713737ba10309039b430b932903437b63232b960711b6044820152606401610264565b838160200151101561089e5760405162461bcd60e51b815260206004820152601960248201527f73656e646572277320726174696f206e6f7420656e6f756768000000000000006044820152606401610264565b8381602001516108ae91906113e3565b602082015260006108bf8787610c47565b90508481602001516108d19190611426565b60208201526000816040015160018111156108ee576108ee611374565b14156109b05760008781526003602052604090205461090e600182611426565b9050600981111561095c5760405162461bcd60e51b81526020600482015260186024820152776578636565646573204d41585f484f4c444552532831302960401b6044820152606401610264565b6001604083018190525060008881526003602090815260408083209390935560028082529282208054808652938252600184018155825290200180546001600160a01b0319166001600160a01b0388161790555b60008781526001602081815260408084203385528252928390208551815590850151818301559184015160028301805486949360ff199091169083818111156109fb576109fb611374565b0217905550505060008781526001602081815260408084206001600160a01b038b1685528252928390208451815590840151818301559183015160028301805485949360ff19909116908381811115610a5657610a56611374565b021790555050604080518981523360208201526001600160a01b038916818301526060810188905290517f297fcbaa20cadaef57d0dd84b39fa798fcff426111aa4e498ac5cd0354054daa92509081900360800190a160209182015191015190969095509350505050565b60008381526020819052604090205483906001600160a01b0316610b225760405162461bcd60e51b81526020600482015260186024820152771c1c9bd91d58d95c881cda185c99481b9bdd08195e1a5cdd60421b6044820152606401610264565b6000818152602081905260409020546001600160a01b03163314610b835760405162461bcd60e51b815260206004820152601860248201527737b7363c903a343290383937b23ab1b2b91034ba39b2b63360411b6044820152606401610264565b8151835114610be55760405162461bcd60e51b815260206004820152602860248201527f486f6c6465727320616e6420526174696f73206d75737420686176652073616d6044820152670ca40d8cadccee8d60c31b6064820152608401610264565b60005b8351811015610c4057610c2e85858381518110610c0757610c076113fa565b6020026020010151858481518110610c2157610c216113fa565b6020026020010151610d68565b80610c388161147f565b915050610be8565b5050505050565b610c4f611066565b60008381526001602081815260408084206001600160a01b038716855282529283902083516060810185528154815281840154928101929092526002810154919390929084019160ff1690811115610ca957610ca9611374565b6001811115610cba57610cba611374565b9052509392505050565b6000610cd260096001611426565b905090565b60008281526001602081815260408084206001600160a01b03861685528252808420815160608101835281548152818501549381019390935260028101548594919284019160ff90911690811115610d3157610d31611374565b6001811115610d4257610d42611374565b9052509050600181604001516001811115610d5f57610d5f611374565b14949350505050565b6000838152602081905260409020546001600160a01b0383811691161415610dde5760405162461bcd60e51b8152602060048201526024808201527f7368617265206f776e657220646f206e6f74206e65656420746f20736574486f604482015263363232b960e11b6064820152608401610264565b6064811115610e2f5760405162461bcd60e51b815260206004820152601f60248201527f726174696f20657863636565646573204d41585f5049454345532831303029006044820152606401610264565b6000610e3b8484610c47565b6000858152600360209081526040808320548483015160049093529083205493945092610e69908690611426565b610e7391906113e3565b9050600083604001516001811115610e8d57610e8d611374565b1415610f2a57610e9e600183611426565b91506009821115610eec5760405162461bcd60e51b81526020600482015260186024820152776578636565646573204d41585f484f4c444552532831302960401b6044820152606401610264565b60008681526002602081815260408320805480885292825260018301815583529091200180546001600160a01b0319166001600160a01b0387161790555b6064811115610f875760405162461bcd60e51b8152602060048201526024808201527f746f74616c20726174696f206578636565646573204d41585f504945434553286044820152633130302960e01b6064820152608401610264565b60208381018581526001604080870182815260008b81528386528281206001600160a01b038c1682529095529320865181559151828201559151600282018054879460ff19909116908381811115610fe157610fe1611374565b021790555050506000868152600360209081526040808320859055600482529182902083905581518881526001600160a01b0388169181019190915290810185905260608101839052608081018290527f859560eb92983d9c25725cfe95c4abb9752302c948d822cb37908357aea4688d9060a00160405180910390a1505050505050565b604051806060016040528060008152602001600081526020016000600181111561109257611092611374565b905290565b80356001600160a01b03811681146110ae57600080fd5b919050565b600080604083850312156110c657600080fd5b823591506110d660208401611097565b90509250929050565b6000602082840312156110f157600080fd5b5035919050565b6000806040838503121561110b57600080fd5b50508035926020909101359150565b604080825283519082018190526000906020906060840190828701845b8281101561115c5781516001600160a01b031684529284019290840190600101611137565b5050508381038285015284518082528583019183019060005b8181101561119157835183529284019291840191600101611175565b5090979650505050505050565b6000806000606084860312156111b357600080fd5b833592506111c360208501611097565b9150604084013590509250925092565b634e487b7160e01b600052604160045260246000fd5b604051601f8201601f1916810167ffffffffffffffff81118282101715611212576112126111d3565b604052919050565b600067ffffffffffffffff821115611234576112346111d3565b5060051b60200190565b600082601f83011261124f57600080fd5b8135602061126461125f8361121a565b6111e9565b82815260059290921b8401810191818101908684111561128357600080fd5b8286015b8481101561129e5780358352918301918301611287565b509695505050505050565b6000806000606084860312156112be57600080fd5b8335925060208085013567ffffffffffffffff808211156112de57600080fd5b818701915087601f8301126112f257600080fd5b813561130061125f8261121a565b81815260059190911b8301840190848101908a83111561131f57600080fd5b938501935b828510156113445761133585611097565b82529385019390850190611324565b96505050604087013592508083111561135c57600080fd5b505061136a8682870161123e565b9150509250925092565b634e487b7160e01b600052602160045260246000fd5b815181526020808301519082015260408201516060820190600281106113c057634e487b7160e01b600052602160045260246000fd5b8060408401525092915050565b634e487b7160e01b600052601160045260246000fd5b6000828210156113f5576113f56113cd565b500390565b634e487b7160e01b600052603260045260246000fd5b634e487b7160e01b600052603160045260246000fd5b60008219821115611439576114396113cd565b500190565b6000816000190483118215151615611458576114586113cd565b500290565b60008261147a57634e487b7160e01b600052601260045260246000fd5b500490565b6000600019821415611493576114936113cd565b506001019056fea2646970667358221220255fd61f60c82ef067fb5810b7c726e7b2442a318e15f3d64586da3af28cf1a364736f6c634300080a0033",
  "immutableReferences": {},
  "source": "// SPDX-License-Identifier: GPL-3.0\r\npragma solidity ^0.8.0;\r\n\r\nimport \"./interfaces/IShare.sol\";\r\n\r\n/**\r\n * @dev Share\r\n*/\r\ncontract Share is IShare {\r\n    // MAX_HOLDER except owner\r\n    uint256 public constant MAX_HOLDERS = 9;\r\n    uint256 public constant MAX_PIECES = 100;\r\n\r\n    // unique id => owner\r\n    mapping(bytes32 => address) private _owners;\r\n\r\n    // unique id => Shares\r\n    mapping(bytes32 => mapping(address => Holder)) private _holders;\r\n    mapping(bytes32 => address[]) private _holderAddresses;\r\n\r\n    // unique id => total holders\r\n    mapping(bytes32 => uint256) private _totalHolders;\r\n\r\n    // unique id => total shared\r\n    // producer owns (100 - _totalShared)\r\n    mapping(bytes32 => uint256) private _totalShared;\r\n\r\n    modifier onlyProducerOwner(bytes32 _uniqueId) virtual {\r\n        require(_owners[_uniqueId] != address(0), \"producer share not exist\");\r\n        require(_owners[_uniqueId] == msg.sender, \"only the producer itself\");\r\n        _;\r\n    }\r\n\r\n    // set by internal management\r\n    function _setOwner(bytes32 _uniqueId, address _owner) internal {\r\n        require(_owners[_uniqueId] == address(0), \"producer share alread exist\");\r\n        _owners[_uniqueId] = _owner;\r\n    }\r\n\r\n    /// @dev Producer\r\n    /// @param _uniqueId ()ID\r\n    /// @param _producer \r\n    /// @return bool \r\n    function isProducerOwner(bytes32 _uniqueId, address _producer)\r\n        public\r\n        view\r\n        returns (bool)\r\n    {\r\n        return (_owners[_uniqueId] == _producer);\r\n    }\r\n\r\n    // Core functions in Share Contract\r\n\r\n\r\n    /// @dev (Producer)\r\n    /// @return uint256 \r\n    function maxShares() public pure override returns (uint256) {\r\n        return MAX_HOLDERS+1;\r\n    }\r\n\r\n\r\n    /// @dev \r\n    /// @param _uniqueId ()ID\r\n    /// @return uint256 \r\n    function totalHolders(bytes32 _uniqueId) public view override returns (uint256) {\r\n        return _totalHolders[_uniqueId];\r\n    }\r\n\r\n     /// @dev \r\n    /// @param _uniqueId ()ID\r\n    /// @return uint256    \r\n    function totalShared(bytes32 _uniqueId) public view override returns (uint256) {\r\n        return _totalShared[_uniqueId];\r\n    }\r\n\r\n     /// @dev \r\n    /// @param _uniqueId ()ID\r\n    /// @param _holder \r\n    /// @return bool \r\n    function isHolder(bytes32 _uniqueId, address _holder)\r\n        public\r\n        view\r\n        override\r\n        returns (bool)\r\n    {\r\n        Holder memory h = _holders[_uniqueId][_holder];\r\n        return (h.flag == Flag.Holder);\r\n    }\r\n\r\n     /// @dev \r\n    /// @param _uniqueId ()ID\r\n    /// @param _holder \r\n    /// @return Holder \r\n    function holder(bytes32 _uniqueId, address _holder)\r\n        public\r\n        view\r\n        override\r\n        returns (Holder memory)\r\n    {\r\n        return _holders[_uniqueId][_holder];\r\n    }\r\n\r\n    /// @dev \r\n    /// @param _uniqueId ()ID\r\n    /// @param _holderAddrs \r\n    /// @param _ratios (100)\r\n    function setHolders(\r\n        bytes32 _uniqueId,\r\n        address[] memory _holderAddrs,\r\n        uint256[] memory _ratios\r\n    ) public override onlyProducerOwner(_uniqueId) {\r\n        require(_holderAddrs.length == _ratios.length,\"Holders and Ratios must have same length\");\r\n        for(uint i=0; i< _holderAddrs.length; i++){\r\n            _setHolder(_uniqueId, _holderAddrs[i], _ratios[i]);\r\n        }\r\n    }\r\n\r\n    function _setHolder(\r\n        bytes32 _uniqueId,\r\n        address _holder,\r\n        uint256 _ratio\r\n    ) internal {\r\n        require(!isProducerOwner(_uniqueId, _holder), \"share owner do not need to setHolder\");\r\n\r\n        require(_ratio <= MAX_PIECES, \"ratio excceedes MAX_PIECES(100)\");\r\n        Holder memory h = holder(_uniqueId, _holder);\r\n\r\n        uint256 _th = totalHolders(_uniqueId);\r\n        uint256 _ts = totalShared(_uniqueId) + _ratio - h.ratio;\r\n\r\n        // MAX_HOLDER\r\n        if (h.flag == Flag.NotHolder) {\r\n            _th += 1;\r\n            require(_th <= MAX_HOLDERS, \"exceedes MAX_HOLDERS(10)\");\r\n            // save holder address to `_holderAddresses`\r\n            h.index =  _holderAddresses[_uniqueId].length;\r\n            _holderAddresses[_uniqueId].push(_holder);\r\n        }\r\n\r\n        // MAX_PIECES\r\n        require(_ts <= MAX_PIECES, \"total ratio exceedes MAX_PIECES(100)\");\r\n\r\n        h.ratio = _ratio;\r\n        h.flag = Flag.Holder;\r\n\r\n        _holders[_uniqueId][_holder] = h;\r\n\r\n        _totalHolders[_uniqueId] = _th;\r\n        _totalShared[_uniqueId] = _ts;\r\n\r\n        emit SetHolder(_uniqueId, _holder, _ratio, _th, _ts);\r\n    }\r\n \r\n\r\n\r\n    /// @dev \r\n    /// @param _uniqueId ()ID\r\n    /// @param _toHolder \r\n    /// @param _ratio \r\n    /// @return uint256 \r\n    /// @return uint256 \r\n    function splitHolder(bytes32 _uniqueId,address _toHolder,uint256 _ratio) public override returns(uint256,uint256)  {\r\n        require(_toHolder != address(0),\"receiver must not be zero address\");\r\n        require(_ratio <= MAX_PIECES,\"ratio exceedes MAX_PIECE(100)\");\r\n     \r\n        Holder memory sender = holder(_uniqueId,msg.sender);\r\n        require(sender.flag == Flag.Holder,\"not a share holder\");\r\n        require(sender.ratio >= _ratio,\"sender's ratio not enough\");\r\n\r\n        sender.ratio = sender.ratio - _ratio;\r\n\r\n        Holder memory receiver = holder(_uniqueId,_toHolder);\r\n\r\n        receiver.ratio = receiver.ratio + _ratio;\r\n\r\n        // Update total holders\r\n        if (receiver.flag == Flag.NotHolder){\r\n            uint256 _th = totalHolders(_uniqueId);\r\n            _th += 1;\r\n            require(_th <= MAX_HOLDERS, \"exceedes MAX_HOLDERS(10)\");\r\n\r\n            receiver.flag = Flag.Holder;\r\n            _totalHolders[_uniqueId] = _th;\r\n\r\n            // save new receiver to `_holderAddresses`\r\n            receiver.index =  _holderAddresses[_uniqueId].length;\r\n            _holderAddresses[_uniqueId].push(_toHolder);\r\n        }\r\n\r\n        _holders[_uniqueId][msg.sender] = sender;\r\n        _holders[_uniqueId][_toHolder] = receiver;\r\n\r\n        emit SplitHolder(_uniqueId, msg.sender, _toHolder, _ratio);\r\n\r\n        return (sender.ratio,receiver.ratio);\r\n    }\r\n\r\n    /// @dev \r\n    /// @param _uniqueId ()ID\r\n    /// @param _holder \r\n    function deleteHolder(bytes32 _uniqueId, address _holder)\r\n        public\r\n        override\r\n        onlyProducerOwner(_uniqueId)\r\n    {\r\n        Holder memory h = holder(_uniqueId, _holder);\r\n        require(h.flag == Flag.Holder, \"must be a holder\");\r\n        require(h.ratio == 0, \"must have zero share\");\r\n\r\n        emit DeleteHolder(_uniqueId, _holder);\r\n\r\n        uint256 index = h.index;\r\n        address[] storage hs = _holderAddresses[_uniqueId];\r\n        if(hs.length >1) {\r\n            hs[index] = hs[hs.length-1];\r\n        }\r\n        hs.pop();\r\n\r\n        delete (_holders[_uniqueId][_holder]);\r\n\r\n        _totalHolders[_uniqueId] -= 1;\r\n    }\r\n\r\n    /// @dev \r\n    /// @param _uniqueId ()ID\r\n    /// @param total \r\n    function calculateRewards(bytes32 _uniqueId,uint256 total) public view override returns(address[] memory,uint256[] memory) {\r\n        address[] memory accounts = new address[](_totalHolders[_uniqueId]+1);\r\n        uint256[] memory amounts = new uint256[](_totalHolders[_uniqueId]+1);\r\n        uint256 shared;\r\n\r\n        for(uint256 i=0;i<_totalHolders[_uniqueId];i++) {\r\n            address account =  _holderAddresses[_uniqueId][i];\r\n            Holder memory h = holder(_uniqueId,account);\r\n            accounts[i] = account;\r\n            uint256 share =  h.ratio*total/100;\r\n            amounts[i] = share;\r\n            shared = shared + share;\r\n        }\r\n        // set owner\r\n        accounts[_totalHolders[_uniqueId]] = _owners[_uniqueId];\r\n        amounts[_totalHolders[_uniqueId]] = total - shared;\r\n\r\n        return (accounts,amounts);\r\n    }\r\n}\r\n",
  "sourcePath": "D:\\work\\Treasurenet-contracts\\fork\\treasurenet-contracts\\contracts\\Treasure\\Share.sol",
  "compiler": {
    "name": "solc",
    "version": "0.8.10+commit.fc410830.Emscripten.clang"
  },
  "schemaVersion": "3.4.16",
  "updatedAt": "2024-04-29T07:29:53.113Z",
  "devdoc": {
    "details": "Share",
    "kind": "dev",
    "methods": {
      "calculateRewards(bytes32,uint256)": {
        "details": "",
        "params": {
          "_uniqueId": "()ID",
          "total": ""
        }
      },
      "deleteHolder(bytes32,address)": {
        "details": "",
        "params": {
          "_holder": "",
          "_uniqueId": "()ID"
        }
      },
      "holder(bytes32,address)": {
        "details": "",
        "params": {
          "_holder": "",
          "_uniqueId": "()ID"
        },
        "returns": {
          "_0": "Holder "
        }
      },
      "isHolder(bytes32,address)": {
        "details": "",
        "params": {
          "_holder": "",
          "_uniqueId": "()ID"
        },
        "returns": {
          "_0": "bool "
        }
      },
      "isProducerOwner(bytes32,address)": {
        "details": "Producer",
        "params": {
          "_producer": "",
          "_uniqueId": "()ID"
        },
        "returns": {
          "_0": "bool "
        }
      },
      "maxShares()": {
        "details": "(Producer)",
        "returns": {
          "_0": "uint256 "
        }
      },
      "setHolders(bytes32,address[],uint256[])": {
        "details": "",
        "params": {
          "_holderAddrs": "",
          "_ratios": "(100)",
          "_uniqueId": "()ID"
        }
      },
      "splitHolder(bytes32,address,uint256)": {
        "details": "",
        "params": {
          "_ratio": "",
          "_toHolder": "",
          "_uniqueId": "()ID"
        },
        "returns": {
          "_0": "uint256 ",
          "_1": "uint256 "
        }
      },
      "totalHolders(bytes32)": {
        "details": "",
        "params": {
          "_uniqueId": "()ID"
        },
        "returns": {
          "_0": "uint256 "
        }
      },
      "totalShared(bytes32)": {
        "details": "",
        "params": {
          "_uniqueId": "()ID"
        },
        "returns": {
          "_0": "uint256    "
        }
      }
    },
    "version": 1
  },
  "userdoc": {
    "kind": "user",
    "methods": {},
    "version": 1
  }
}