{
  "contractName": "SimpleClient",
  "abi": [
    {
      "anonymous": false,
      "inputs": [
        {
          "indexed": false,
          "internalType": "bytes32",
          "name": "requesterid",
          "type": "bytes32"
        },
        {
          "indexed": false,
          "internalType": "uint256",
          "name": "Date",
          "type": "uint256"
        },
        {
          "indexed": false,
          "internalType": "uint256",
          "name": "Value",
          "type": "uint256"
        }
      ],
      "name": "AssetValueSet",
      "type": "event"
    },
    {
      "anonymous": false,
      "inputs": [
        {
          "indexed": false,
          "internalType": "uint8",
          "name": "version",
          "type": "uint8"
        }
      ],
      "name": "Initialized",
      "type": "event"
    },
    {
      "anonymous": false,
      "inputs": [
        {
          "indexed": false,
          "internalType": "address",
          "name": "requester",
          "type": "address"
        },
        {
          "indexed": false,
          "internalType": "bytes32",
          "name": "requesterid",
          "type": "bytes32"
        },
        {
          "indexed": false,
          "internalType": "address",
          "name": "callbackAddress",
          "type": "address"
        },
        {
          "indexed": false,
          "internalType": "bytes4",
          "name": "callbackFunctionId",
          "type": "bytes4"
        }
      ],
      "name": "OracleRequest",
      "type": "event"
    },
    {
      "anonymous": false,
      "inputs": [
        {
          "indexed": true,
          "internalType": "address",
          "name": "previousOwner",
          "type": "address"
        },
        {
          "indexed": true,
          "internalType": "address",
          "name": "newOwner",
          "type": "address"
        }
      ],
      "name": "OwnershipTransferred",
      "type": "event"
    },
    {
      "anonymous": false,
      "inputs": [
        {
          "indexed": false,
          "internalType": "bytes32",
          "name": "requestid",
          "type": "bytes32"
        },
        {
          "indexed": false,
          "internalType": "address",
          "name": "callbackAddress",
          "type": "address"
        },
        {
          "indexed": false,
          "internalType": "bytes4",
          "name": "callbackFunctionId",
          "type": "bytes4"
        },
        {
          "indexed": false,
          "internalType": "uint256",
          "name": "nonce",
          "type": "uint256"
        }
      ],
      "name": "Request",
      "type": "event"
    },
    {
      "inputs": [],
      "name": "owner",
      "outputs": [
        {
          "internalType": "address",
          "name": "",
          "type": "address"
        }
      ],
      "stateMutability": "view",
      "type": "function"
    },
    {
      "inputs": [],
      "name": "renounceOwnership",
      "outputs": [],
      "stateMutability": "nonpayable",
      "type": "function"
    },
    {
      "inputs": [
        {
          "internalType": "address",
          "name": "newOwner",
          "type": "address"
        }
      ],
      "name": "transferOwnership",
      "outputs": [],
      "stateMutability": "nonpayable",
      "type": "function"
    },
    {
      "inputs": [
        {
          "internalType": "address",
          "name": "_oracleContract",
          "type": "address"
        },
        {
          "internalType": "address",
          "name": "_rolesContract",
          "type": "address"
        }
      ],
      "name": "initialize",
      "outputs": [],
      "stateMutability": "nonpayable",
      "type": "function"
    },
    {
      "inputs": [],
      "name": "oracle",
      "outputs": [
        {
          "internalType": "address",
          "name": "",
          "type": "address"
        }
      ],
      "stateMutability": "view",
      "type": "function"
    },
    {
      "inputs": [],
      "name": "requesterid",
      "outputs": [
        {
          "internalType": "bytes32",
          "name": "",
          "type": "bytes32"
        }
      ],
      "stateMutability": "nonpayable",
      "type": "function"
    },
    {
      "inputs": [],
      "name": "registerAssetValueRequest",
      "outputs": [
        {
          "internalType": "bytes32",
          "name": "",
          "type": "bytes32"
        }
      ],
      "stateMutability": "nonpayable",
      "type": "function"
    },
    {
      "inputs": [
        {
          "internalType": "bytes32",
          "name": "_requestId",
          "type": "bytes32"
        },
        {
          "internalType": "uint256",
          "name": "_date",
          "type": "uint256"
        },
        {
          "internalType": "uint256",
          "name": "_value",
          "type": "uint256"
        }
      ],
      "name": "receiveAssetValue",
      "outputs": [],
      "stateMutability": "nonpayable",
      "type": "function"
    },
    {
      "inputs": [
        {
          "internalType": "uint256",
          "name": "_date",
          "type": "uint256"
        }
      ],
      "name": "getAssetValue",
      "outputs": [
        {
          "internalType": "uint256",
          "name": "",
          "type": "uint256"
        }
      ],
      "stateMutability": "view",
      "type": "function"
    }
  ],
  "bytecode": "0x608060405234801561001057600080fd5b50610b24806100206000396000f3fe608060405234801561001057600080fd5b50600436106100935760003560e01c8063715018a611610066578063715018a6146100f35780637dc0d1d0146100fb5780638da5cb5b1461011b578063ac398a741461012c578063f2fde38b1461013f57600080fd5b806305c12a46146100985780630fb02964146100ce578063485cc955146100d657806369ed4ce9146100eb575b600080fd5b6100bb6100a6366004610993565b60009081526069602052604090206001015490565b6040519081526020015b60405180910390f35b6100bb610152565b6100e96100e43660046109c8565b6101d6565b005b6068546100bb565b6100e9610312565b610103610326565b6040516001600160a01b0390911681526020016100c5565b6033546001600160a01b0316610103565b6100e961013a3660046109fb565b61033f565b6100e961014d366004610a27565b610519565b600061015c610592565b60006101666105ec565b905061017a30632b0e629d60e21b83610607565b60688190556040805130808252602082019390935280820192909252632b0e629d60e21b6060830152517f2d568d320f597aa684ba1800e717fdcf56b8501498fd81d83a8d74cd22f6ee999181900360800190a1505060685490565b600054610100900460ff16158080156101f65750600054600160ff909116105b806102105750303b158015610210575060005460ff166001145b6102785760405162461bcd60e51b815260206004820152602e60248201527f496e697469616c697a61626c653a20636f6e747261637420697320616c72656160448201526d191e481a5b9a5d1a585b1a5e995960921b60648201526084015b60405180910390fd5b6000805460ff19166001179055801561029b576000805461ff0019166101001790555b6102a3610733565b6102ac83610762565b606c80546001600160a01b0319166001600160a01b038416179055801561030d576000805461ff0019169055604051600181527f7f26b83ff96e1f2b6a682f133852f6798a09c465da95921460cefb38474024989060200160405180910390a15b505050565b61031a610592565b61032460006107ab565b565b600061033a6065546001600160a01b031690565b905090565b606c546001600160a01b03166391d148547f0a59a035ae0a00eac2a600a582577e6f107971288ab786d897919ae273856524336040516001600160e01b031960e085901b16815260048101929092526001600160a01b03166024820152604401602060405180830381865afa1580156103bc573d6000803e3d6000fd5b505050506040513d601f19601f820116820180604052508101906103e09190610a42565b61042c5760405162461bcd60e51b815260206004820152601960248201527f4f6e6c79204665656465722063616e2070757368206461746100000000000000604482015260640161026f565b606854831461047d5760405162461bcd60e51b815260206004820152601960248201527f696e76616c6964206f7261636c65207265717565737420696400000000000000604482015260640161026f565b600081116104c05760405162461bcd60e51b815260206004820152601060248201526f7a65726f2061737365742076616c756560801b604482015260640161026f565b6104ca82826107fd565b60408051848152602081018490529081018290527f791c507d570dcfe41c0eb3210e1a6ff76cbc7c2c5a9f2eef00073fcd716db9ed9060600160405180910390a161030d606b80546001019055565b610521610592565b6001600160a01b0381166105865760405162461bcd60e51b815260206004820152602660248201527f4f776e61626c653a206e6577206f776e657220697320746865207a65726f206160448201526564647265737360d01b606482015260840161026f565b61058f816107ab565b50565b6033546001600160a01b031633146103245760405162461bcd60e51b815260206004820181905260248201527f4f776e61626c653a2063616c6c6572206973206e6f7420746865206f776e6572604482015260640161026f565b6067546000906105fd906001610950565b6067819055919050565b6040516bffffffffffffffffffffffff193060601b16602082015260348101829052600090819060540160408051808303601f190181529082905280516020909101206065546316f54b9960e11b83526001600160a01b0388811660048501526001600160e01b031988166024850152604484018790529193501690632dea9732906064016020604051808303816000875af11580156106ab573d6000803e3d6000fd5b505050506040513d601f19601f820116820180604052508101906106cf9190610a64565b811461072b5760405162461bcd60e51b815260206004820152602560248201527f726571756573746964206d69736d617463682c636865636b206f7261636c65206044820152646c6f67696360d81b606482015260840161026f565b949350505050565b600054610100900460ff1661075a5760405162461bcd60e51b815260040161026f90610a7d565b610324610963565b600054610100900460ff166107895760405162461bcd60e51b815260040161026f90610a7d565b606580546001600160a01b0319166001600160a01b0392909216919091179055565b603380546001600160a01b038381166001600160a01b0319831681179093556040519116919082907f8be0079c531659141344cd1fd0a4f28419497f9722a3daafe3b4186f6b6457e090600090a35050565b6000828152606960205260409020600201541561086b5760405162461bcd60e51b815260206004820152602660248201527f70726f647563742076616c75652061742074686973206461746520616c726561604482015265191e481cd95d60d21b606482015260840161026f565b61088f60405180606001604052806000815260200160008152602001600081525090565b8281526020808201928352426040808401918252600095865260699092529084208251815583516001808301919091558251600290920191909155606a8054918201815590945290517f116fea137db6e131133e7f2bab296045d8f41cc5607279db17b218cab0929a5160039094029384015590517f116fea137db6e131133e7f2bab296045d8f41cc5607279db17b218cab0929a52830155517f116fea137db6e131133e7f2bab296045d8f41cc5607279db17b218cab0929a5390910155565b600061095c8284610ac8565b9392505050565b600054610100900460ff1661098a5760405162461bcd60e51b815260040161026f90610a7d565b610324336107ab565b6000602082840312156109a557600080fd5b5035919050565b80356001600160a01b03811681146109c357600080fd5b919050565b600080604083850312156109db57600080fd5b6109e4836109ac565b91506109f2602084016109ac565b90509250929050565b600080600060608486031215610a1057600080fd5b505081359360208301359350604090920135919050565b600060208284031215610a3957600080fd5b61095c826109ac565b600060208284031215610a5457600080fd5b8151801515811461095c57600080fd5b600060208284031215610a7657600080fd5b5051919050565b6020808252602b908201527f496e697469616c697a61626c653a20636f6e7472616374206973206e6f74206960408201526a6e697469616c697a696e6760a81b606082015260800190565b60008219821115610ae957634e487b7160e01b600052601160045260246000fd5b50019056fea264697066735822122006fa4a4ff66b031e7425d8979ef34255b37cbe5fe71777f9f41e89e21fd0b5c564736f6c634300080a0033",
  "immutableReferences": {},
  "source": "// SPDX-License-Identifier: GPL-3.0\r\npragma solidity ^0.8.0;\r\n\r\nimport \"./OracleClient.sol\";\r\nimport \"@openzeppelin/contracts/utils/math/SafeMath.sol\";\r\nimport \"@openzeppelin/contracts/utils/Counters.sol\";\r\nimport \"@openzeppelin/contracts-upgradeable/proxy/utils/Initializable.sol\";\r\nimport \"@openzeppelin/contracts-upgradeable/access/OwnableUpgradeable.sol\";\r\nimport \"../Governance/IRoles.sol\";\r\n\r\ncontract SimpleClient is Initializable, OwnableUpgradeable, OracleClient {\r\n    using Counters for Counters.Counter;\r\n\r\n    event OracleRequest(\r\n        address requester,\r\n        bytes32 requesterid,\r\n        address callbackAddress,\r\n        bytes4 callbackFunctionId\r\n    );\r\n\r\n    event AssetValueSet(bytes32 requesterid, uint256 Date, uint256 Value);\r\n\r\n    struct AssetValue {\r\n        uint256 Date;\r\n        uint256 Value;\r\n        uint256 Timestamp;\r\n    }\r\n\r\n    bytes32 private _requestIdToPullAssetValue; // oralce request id\r\n\r\n    mapping(uint256 => AssetValue) private _assetMappedValues;\r\n    AssetValue[] private _assetValues;\r\n\r\n    Counters.Counter private _counter;\r\n\r\n    IRoles private _roleController;\r\n\r\n    function initialize(address _oracleContract, address _rolesContract) public initializer {\r\n        __Ownable_init();\r\n        __oracleClientInitialize(_oracleContract);\r\n\r\n        _roleController = IRoles(_rolesContract);\r\n    }\r\n\r\n    modifier onlyFeeder() {\r\n        require(\r\n            _roleController.hasRole(keccak256(\"FEEDER\"), _msgSender()),\r\n            \"Only Feeder can push data\"\r\n        );\r\n        _;\r\n    }\r\n\r\n    function oracle() public view returns (address) {\r\n        return _oracleContract();\r\n    }\r\n\r\n    function requesterid() public virtual returns (bytes32) {\r\n        return _requestIdToPullAssetValue;\r\n    }\r\n\r\n    function registerAssetValueRequest() public onlyOwner returns (bytes32) {\r\n        uint256 nonce = _nextNonce();\r\n\r\n        _requestIdToPullAssetValue = _sendOracleRequest(\r\n            address(this),\r\n            this.receiveAssetValue.selector,\r\n            nonce\r\n        );\r\n\r\n        emit OracleRequest(\r\n            address(this),\r\n            _requestIdToPullAssetValue,\r\n            address(this),\r\n            this.receiveAssetValue.selector\r\n        );\r\n\r\n        return _requestIdToPullAssetValue;\r\n    }\r\n\r\n    function receiveAssetValue(\r\n        bytes32 _requestId,\r\n        uint256 _date,\r\n        uint256 _value\r\n    ) public onlyFeeder {\r\n        require(_requestId == _requestIdToPullAssetValue, \"invalid oracle request id\");\r\n        require(_value > 0, \"zero asset value\");\r\n        _setResourceValue(_date, _value);\r\n\r\n        emit AssetValueSet(_requestId, _date, _value);\r\n\r\n        _counter.increment();\r\n    }\r\n\r\n    function _setResourceValue(uint256 _date, uint256 _value) internal {\r\n        require(_assetMappedValues[_date].Timestamp == 0, \"product value at this date already set\");\r\n\r\n        AssetValue memory value;\r\n        value.Date = _date;\r\n        value.Value = _value;\r\n        value.Timestamp = block.timestamp;\r\n\r\n        _assetMappedValues[_date] = value;\r\n        _assetValues.push(value);\r\n    }\r\n\r\n    function getAssetValue(uint256 _date) public view returns (uint256) {\r\n        return _assetMappedValues[_date].Value;\r\n    }\r\n}\r\n",
  "sourcePath": "D:\\work\\Treasurenet-contracts\\fork\\treasurenet-contracts\\contracts\\Oracle\\SimpleClient.sol",
  "compiler": {
    "name": "solc",
    "version": "0.8.10+commit.fc410830.Emscripten.clang"
  },
  "schemaVersion": "3.4.16",
  "updatedAt": "2024-04-29T07:29:52.982Z",
  "devdoc": {
    "kind": "dev",
    "methods": {
      "owner()": {
        "details": "Returns the address of the current owner."
      },
      "renounceOwnership()": {
        "details": "Leaves the contract without owner. It will not be possible to call `onlyOwner` functions anymore. Can only be called by the current owner. NOTE: Renouncing ownership will leave the contract without an owner, thereby removing any functionality that is only available to the owner."
      },
      "transferOwnership(address)": {
        "details": "Transfers ownership of the contract to a new account (`newOwner`). Can only be called by the current owner."
      }
    },
    "version": 1
  },
  "userdoc": {
    "kind": "user",
    "methods": {},
    "version": 1
  }
}