{
  "contractName": "TAT",
  "abi": [
    {
      "anonymous": false,
      "inputs": [
        {
          "indexed": true,
          "internalType": "address",
          "name": "owner",
          "type": "address"
        },
        {
          "indexed": true,
          "internalType": "address",
          "name": "spender",
          "type": "address"
        },
        {
          "indexed": false,
          "internalType": "uint256",
          "name": "value",
          "type": "uint256"
        }
      ],
      "name": "Approval",
      "type": "event"
    },
    {
      "anonymous": false,
      "inputs": [
        {
          "indexed": false,
          "internalType": "uint8",
          "name": "version",
          "type": "uint8"
        }
      ],
      "name": "Initialized",
      "type": "event"
    },
    {
      "anonymous": false,
      "inputs": [
        {
          "indexed": true,
          "internalType": "address",
          "name": "previousOwner",
          "type": "address"
        },
        {
          "indexed": true,
          "internalType": "address",
          "name": "newOwner",
          "type": "address"
        }
      ],
      "name": "OwnershipTransferred",
      "type": "event"
    },
    {
      "anonymous": false,
      "inputs": [
        {
          "indexed": false,
          "internalType": "address",
          "name": "account",
          "type": "address"
        }
      ],
      "name": "Paused",
      "type": "event"
    },
    {
      "anonymous": false,
      "inputs": [
        {
          "indexed": false,
          "internalType": "address",
          "name": "from",
          "type": "address"
        },
        {
          "indexed": false,
          "internalType": "uint256",
          "name": "amount",
          "type": "uint256"
        }
      ],
      "name": "Stake",
      "type": "event"
    },
    {
      "anonymous": false,
      "inputs": [
        {
          "indexed": false,
          "internalType": "string",
          "name": "kind",
          "type": "string"
        },
        {
          "indexed": false,
          "internalType": "bytes32",
          "name": "uniqueId",
          "type": "bytes32"
        },
        {
          "indexed": false,
          "internalType": "address",
          "name": "from",
          "type": "address"
        },
        {
          "indexed": false,
          "internalType": "address",
          "name": "to",
          "type": "address"
        },
        {
          "indexed": false,
          "internalType": "uint256",
          "name": "amount",
          "type": "uint256"
        }
      ],
      "name": "TATHistory",
      "type": "event"
    },
    {
      "anonymous": false,
      "inputs": [
        {
          "indexed": true,
          "internalType": "address",
          "name": "from",
          "type": "address"
        },
        {
          "indexed": true,
          "internalType": "address",
          "name": "to",
          "type": "address"
        },
        {
          "indexed": false,
          "internalType": "uint256",
          "name": "value",
          "type": "uint256"
        }
      ],
      "name": "Transfer",
      "type": "event"
    },
    {
      "anonymous": false,
      "inputs": [
        {
          "indexed": false,
          "internalType": "address",
          "name": "account",
          "type": "address"
        }
      ],
      "name": "Unpaused",
      "type": "event"
    },
    {
      "anonymous": false,
      "inputs": [
        {
          "indexed": false,
          "internalType": "address",
          "name": "from",
          "type": "address"
        },
        {
          "indexed": false,
          "internalType": "uint256",
          "name": "amount",
          "type": "uint256"
        }
      ],
      "name": "Withdraw",
      "type": "event"
    },
    {
      "inputs": [
        {
          "internalType": "address",
          "name": "owner",
          "type": "address"
        },
        {
          "internalType": "address",
          "name": "spender",
          "type": "address"
        }
      ],
      "name": "allowance",
      "outputs": [
        {
          "internalType": "uint256",
          "name": "",
          "type": "uint256"
        }
      ],
      "stateMutability": "view",
      "type": "function"
    },
    {
      "inputs": [
        {
          "internalType": "address",
          "name": "spender",
          "type": "address"
        },
        {
          "internalType": "uint256",
          "name": "amount",
          "type": "uint256"
        }
      ],
      "name": "approve",
      "outputs": [
        {
          "internalType": "bool",
          "name": "",
          "type": "bool"
        }
      ],
      "stateMutability": "nonpayable",
      "type": "function"
    },
    {
      "inputs": [
        {
          "internalType": "address",
          "name": "account",
          "type": "address"
        }
      ],
      "name": "balanceOf",
      "outputs": [
        {
          "internalType": "uint256",
          "name": "",
          "type": "uint256"
        }
      ],
      "stateMutability": "view",
      "type": "function"
    },
    {
      "inputs": [
        {
          "internalType": "address",
          "name": "account",
          "type": "address"
        },
        {
          "internalType": "uint256",
          "name": "amount",
          "type": "uint256"
        }
      ],
      "name": "burnFrom",
      "outputs": [],
      "stateMutability": "nonpayable",
      "type": "function"
    },
    {
      "inputs": [],
      "name": "decimals",
      "outputs": [
        {
          "internalType": "uint8",
          "name": "",
          "type": "uint8"
        }
      ],
      "stateMutability": "view",
      "type": "function"
    },
    {
      "inputs": [
        {
          "internalType": "address",
          "name": "spender",
          "type": "address"
        },
        {
          "internalType": "uint256",
          "name": "subtractedValue",
          "type": "uint256"
        }
      ],
      "name": "decreaseAllowance",
      "outputs": [
        {
          "internalType": "bool",
          "name": "",
          "type": "bool"
        }
      ],
      "stateMutability": "nonpayable",
      "type": "function"
    },
    {
      "inputs": [
        {
          "internalType": "address",
          "name": "spender",
          "type": "address"
        },
        {
          "internalType": "uint256",
          "name": "addedValue",
          "type": "uint256"
        }
      ],
      "name": "increaseAllowance",
      "outputs": [
        {
          "internalType": "bool",
          "name": "",
          "type": "bool"
        }
      ],
      "stateMutability": "nonpayable",
      "type": "function"
    },
    {
      "inputs": [],
      "name": "name",
      "outputs": [
        {
          "internalType": "string",
          "name": "",
          "type": "string"
        }
      ],
      "stateMutability": "view",
      "type": "function"
    },
    {
      "inputs": [],
      "name": "owner",
      "outputs": [
        {
          "internalType": "address",
          "name": "",
          "type": "address"
        }
      ],
      "stateMutability": "view",
      "type": "function"
    },
    {
      "inputs": [],
      "name": "paused",
      "outputs": [
        {
          "internalType": "bool",
          "name": "",
          "type": "bool"
        }
      ],
      "stateMutability": "view",
      "type": "function"
    },
    {
      "inputs": [],
      "name": "renounceOwnership",
      "outputs": [],
      "stateMutability": "nonpayable",
      "type": "function"
    },
    {
      "inputs": [
        {
          "internalType": "address",
          "name": "_stakeholder",
          "type": "address"
        }
      ],
      "name": "stakeOf",
      "outputs": [
        {
          "internalType": "uint256",
          "name": "",
          "type": "uint256"
        }
      ],
      "stateMutability": "view",
      "type": "function"
    },
    {
      "inputs": [],
      "name": "symbol",
      "outputs": [
        {
          "internalType": "string",
          "name": "",
          "type": "string"
        }
      ],
      "stateMutability": "view",
      "type": "function"
    },
    {
      "inputs": [],
      "name": "totalStakers",
      "outputs": [
        {
          "internalType": "uint256",
          "name": "",
          "type": "uint256"
        }
      ],
      "stateMutability": "view",
      "type": "function"
    },
    {
      "inputs": [],
      "name": "totalStakes",
      "outputs": [
        {
          "internalType": "uint256",
          "name": "",
          "type": "uint256"
        }
      ],
      "stateMutability": "view",
      "type": "function"
    },
    {
      "inputs": [],
      "name": "totalSupply",
      "outputs": [
        {
          "internalType": "uint256",
          "name": "",
          "type": "uint256"
        }
      ],
      "stateMutability": "view",
      "type": "function"
    },
    {
      "inputs": [
        {
          "internalType": "address",
          "name": "to",
          "type": "address"
        },
        {
          "internalType": "uint256",
          "name": "amount",
          "type": "uint256"
        }
      ],
      "name": "transfer",
      "outputs": [
        {
          "internalType": "bool",
          "name": "",
          "type": "bool"
        }
      ],
      "stateMutability": "nonpayable",
      "type": "function"
    },
    {
      "inputs": [
        {
          "internalType": "address",
          "name": "from",
          "type": "address"
        },
        {
          "internalType": "address",
          "name": "to",
          "type": "address"
        },
        {
          "internalType": "uint256",
          "name": "amount",
          "type": "uint256"
        }
      ],
      "name": "transferFrom",
      "outputs": [
        {
          "internalType": "bool",
          "name": "",
          "type": "bool"
        }
      ],
      "stateMutability": "nonpayable",
      "type": "function"
    },
    {
      "inputs": [
        {
          "internalType": "address",
          "name": "newOwner",
          "type": "address"
        }
      ],
      "name": "transferOwnership",
      "outputs": [],
      "stateMutability": "nonpayable",
      "type": "function"
    },
    {
      "inputs": [
        {
          "internalType": "string",
          "name": "_name",
          "type": "string"
        },
        {
          "internalType": "string",
          "name": "_symbol",
          "type": "string"
        },
        {
          "internalType": "address",
          "name": "_governanceContract",
          "type": "address"
        }
      ],
      "name": "initialize",
      "outputs": [],
      "stateMutability": "nonpayable",
      "type": "function"
    },
    {
      "inputs": [
        {
          "internalType": "string",
          "name": "_treasureKind",
          "type": "string"
        },
        {
          "internalType": "bytes32",
          "name": "_uniqueId",
          "type": "bytes32"
        },
        {
          "internalType": "address",
          "name": "to",
          "type": "address"
        },
        {
          "internalType": "uint256",
          "name": "amount",
          "type": "uint256"
        }
      ],
      "name": "mint",
      "outputs": [],
      "stateMutability": "nonpayable",
      "type": "function"
    },
    {
      "inputs": [
        {
          "internalType": "address",
          "name": "user",
          "type": "address"
        },
        {
          "internalType": "uint256",
          "name": "amount",
          "type": "uint256"
        }
      ],
      "name": "faucet",
      "outputs": [],
      "stateMutability": "nonpayable",
      "type": "function"
    },
    {
      "inputs": [
        {
          "internalType": "uint256",
          "name": "amount",
          "type": "uint256"
        }
      ],
      "name": "burn",
      "outputs": [],
      "stateMutability": "nonpayable",
      "type": "function"
    },
    {
      "inputs": [
        {
          "internalType": "string",
          "name": "_treasureKind",
          "type": "string"
        },
        {
          "internalType": "uint256",
          "name": "tokens",
          "type": "uint256"
        }
      ],
      "name": "burn",
      "outputs": [],
      "stateMutability": "nonpayable",
      "type": "function"
    },
    {
      "inputs": [],
      "name": "pause",
      "outputs": [],
      "stateMutability": "nonpayable",
      "type": "function"
    },
    {
      "inputs": [],
      "name": "unpause",
      "outputs": [],
      "stateMutability": "nonpayable",
      "type": "function"
    },
    {
      "inputs": [
        {
          "internalType": "address",
          "name": "account",
          "type": "address"
        },
        {
          "internalType": "uint256",
          "name": "_amount",
          "type": "uint256"
        }
      ],
      "name": "stake",
      "outputs": [],
      "stateMutability": "nonpayable",
      "type": "function"
    },
    {
      "inputs": [
        {
          "internalType": "address",
          "name": "account",
          "type": "address"
        },
        {
          "internalType": "uint256",
          "name": "_amount",
          "type": "uint256"
        }
      ],
      "name": "withdraw",
      "outputs": [],
      "stateMutability": "nonpayable",
      "type": "function"
    }
  ],
  "bytecode": "0x608060405234801561001057600080fd5b50611d58806100206000396000f3fe608060405234801561001057600080fd5b50600436106101c45760003560e01c806379cc6790116100f9578063a9059cbb11610097578063bf9befb111610071578063bf9befb1146103a0578063dd62ed3e146103a8578063f2fde38b146103bb578063f3fef3a3146103ce57600080fd5b8063a9059cbb14610367578063adc9772e1461037a578063b48272cc1461038d57600080fd5b806386989038116100d357806386989038146103285780638da5cb5b1461033157806395d89b411461034c578063a457c2d71461035457600080fd5b806379cc6790146102fa5780637b56c2b21461030d5780638456cb591461032057600080fd5b8063395093511161016657806342966c681161014057806342966c68146102ab5780635c975abb146102be57806370a08231146102c9578063715018a6146102f257600080fd5b806339509351146102665780633f4ba83a14610279578063426233601461028157600080fd5b806318160ddd116101a257806318160ddd1461021f5780631c2e469e1461023157806323b872dd14610244578063313ce5671461025757600080fd5b806306fdde03146101c9578063077f224a146101e7578063095ea7b3146101fc575b600080fd5b6101d16103e1565b6040516101de91906118ff565b60405180910390f35b6101fa6101f53660046119ca565b610473565b005b61020f61020a366004611a42565b6105c2565b60405190151581526020016101de565b6067545b6040519081526020016101de565b6101fa61023f366004611a6e565b6105da565b61020f610252366004611acf565b61071b565b604051601281526020016101de565b61020f610274366004611a42565b61073f565b6101fa610761565b61022361028f366004611b10565b6001600160a01b0316600090815261012e602052604090205490565b6101fa6102b9366004611b2d565b610773565b60975460ff1661020f565b6102236102d7366004611b10565b6001600160a01b031660009081526065602052604090205490565b6101fa610780565b6101fa610308366004611a42565b610792565b6101fa61031b366004611a42565b6107ab565b6101fa6107fa565b61012d54610223565b6033546040516001600160a01b0390911681526020016101de565b6101d161080a565b61020f610362366004611a42565b610819565b61020f610375366004611a42565b610894565b6101fa610388366004611a42565b6108a2565b6101fa61039b366004611b46565b61091a565b6102236109cf565b6102236103b6366004611b8b565b610a41565b6101fa6103c9366004611b10565b610a6c565b6101fa6103dc366004611a42565b610ae2565b6060606880546103f090611bc4565b80601f016020809104026020016040519081016040528092919081815260200182805461041c90611bc4565b80156104695780601f1061043e57610100808354040283529160200191610469565b820191906000526020600020905b81548152906001019060200180831161044c57829003601f168201915b5050505050905090565b600054610100900460ff16158080156104935750600054600160ff909116105b806104ad5750303b1580156104ad575060005460ff166001145b6105155760405162461bcd60e51b815260206004820152602e60248201527f496e697469616c697a61626c653a20636f6e747261637420697320616c72656160448201526d191e481a5b9a5d1a585b1a5e995960921b60648201526084015b60405180910390fd5b6000805460ff191660011790558015610538576000805461ff0019166101001790555b610540610b5b565b61054a8484610b8a565b610552610bbb565b61055a610be2565b61012f80546001600160a01b0319166001600160a01b03841617905580156105bc576000805461ff0019169055604051600181527f7f26b83ff96e1f2b6a682f133852f6798a09c465da95921460cefb38474024989060200160405180910390a15b50505050565b6000336105d0818585610c11565b5060019392505050565b61012f54604051639e145ebf60e01b815285916000916001600160a01b0390911690639e145ebf906106109085906004016118ff565b6040805180830381865afa15801561062c573d6000803e3d6000fd5b505050506040513d601f19601f820116820180604052508101906106509190611bf9565b915050336001600160a01b038216146106855760405162461bcd60e51b8152602060048201526000602482015260440161050c565b6001600160a01b0384166106ca5760405162461bcd60e51b815260206004820152600c60248201526b7a65726f206164647265737360a01b604482015260640161050c565b6106d48484610d36565b7fe26f2ddfe36635a9cf70ce4a8a1e622b404c54c78da20402528df7d94af8bf09868633878760405161070b959493929190611c28565b60405180910390a1505050505050565b600033610729858285610e21565b610734858585610e95565b506001949350505050565b6000336105d08185856107528383610a41565b61075c9190611c7c565b610c11565b61076961106e565b6107716110c8565b565b61077d338261111a565b50565b61078861106e565b6107716000611271565b61079d823383610e21565b6107a7828261111a565b5050565b6001600160a01b0382166107f05760405162461bcd60e51b815260206004820152600c60248201526b7a65726f206164647265737360a01b604482015260640161050c565b6107a78282610d36565b61080261106e565b6107716112c3565b6060606980546103f090611bc4565b600033816108278286610a41565b9050838110156108875760405162461bcd60e51b815260206004820152602560248201527f45524332303a2064656372656173656420616c6c6f77616e63652062656c6f77604482015264207a65726f60d81b606482015260840161050c565b6107348286868403610c11565b6000336105d0818585610e95565b806108c2836001600160a01b031660009081526065602052604090205490565b10156109105760405162461bcd60e51b815260206004820152601760248201527f7374616b65206d6f7265207468616e20796f75206f776e000000000000000000604482015260640161050c565b61079d8282611300565b61012f54604051639e145ebf60e01b815283916000916001600160a01b0390911690639e145ebf906109509085906004016118ff565b6040805180830381865afa15801561096c573d6000803e3d6000fd5b505050506040513d601f19601f820116820180604052508101906109909190611bf9565b915050336001600160a01b038216146109c55760405162461bcd60e51b8152602060048201526000602482015260440161050c565b6105bc338461111a565b600080805b61012d54811015610a3b57610a2761012e600061012d84815481106109fb576109fb611c94565b60009182526020808320909101546001600160a01b0316835282019290925260400190205483906113a7565b9150610a34600182611c7c565b90506109d4565b50919050565b6001600160a01b03918216600090815260666020908152604080832093909416825291909152205490565b610a7461106e565b6001600160a01b038116610ad95760405162461bcd60e51b815260206004820152602660248201527f4f776e61626c653a206e6577206f776e657220697320746865207a65726f206160448201526564647265737360d01b606482015260840161050c565b61077d81611271565b80610b03836001600160a01b0316600090815261012e602052604090205490565b1015610b515760405162461bcd60e51b815260206004820152601d60248201527f7769746864726177206d6f7265207468616e20796f75207374616b6564000000604482015260640161050c565b6107f082826113ba565b600054610100900460ff16610b825760405162461bcd60e51b815260040161050c90611caa565b6107716114ba565b600054610100900460ff16610bb15760405162461bcd60e51b815260040161050c90611caa565b6107a782826114ea565b600054610100900460ff166107715760405162461bcd60e51b815260040161050c90611caa565b600054610100900460ff16610c095760405162461bcd60e51b815260040161050c90611caa565b610771611538565b6001600160a01b038316610c735760405162461bcd60e51b8152602060048201526024808201527f45524332303a20617070726f76652066726f6d20746865207a65726f206164646044820152637265737360e01b606482015260840161050c565b6001600160a01b038216610cd45760405162461bcd60e51b815260206004820152602260248201527f45524332303a20617070726f766520746f20746865207a65726f206164647265604482015261737360f01b606482015260840161050c565b6001600160a01b0383811660008181526066602090815260408083209487168084529482529182902085905590518481527f8c5be1e5ebec7d5bd14f71427d1e84f3dd0314c0f7b2291e5b200ac8c7c3b92591015b60405180910390a3505050565b6001600160a01b038216610d8c5760405162461bcd60e51b815260206004820152601f60248201527f45524332303a206d696e7420746f20746865207a65726f206164647265737300604482015260640161050c565b610d986000838361156b565b8060676000828254610daa9190611c7c565b90915550506001600160a01b03821660009081526065602052604081208054839290610dd7908490611c7c565b90915550506040518181526001600160a01b038316906000907fddf252ad1be2c89b69c2b068fc378daa952ba7f163c4a11628f55a4df523b3ef9060200160405180910390a35050565b6000610e2d8484610a41565b905060001981146105bc5781811015610e885760405162461bcd60e51b815260206004820152601d60248201527f45524332303a20696e73756666696369656e7420616c6c6f77616e6365000000604482015260640161050c565b6105bc8484848403610c11565b6001600160a01b038316610ef95760405162461bcd60e51b815260206004820152602560248201527f45524332303a207472616e736665722066726f6d20746865207a65726f206164604482015264647265737360d81b606482015260840161050c565b6001600160a01b038216610f5b5760405162461bcd60e51b815260206004820152602360248201527f45524332303a207472616e7366657220746f20746865207a65726f206164647260448201526265737360e81b606482015260840161050c565b610f6683838361156b565b6001600160a01b03831660009081526065602052604090205481811015610fde5760405162461bcd60e51b815260206004820152602660248201527f45524332303a207472616e7366657220616d6f756e7420657863656564732062604482015265616c616e636560d01b606482015260840161050c565b6001600160a01b03808516600090815260656020526040808220858503905591851681529081208054849290611015908490611c7c565b92505081905550826001600160a01b0316846001600160a01b03167fddf252ad1be2c89b69c2b068fc378daa952ba7f163c4a11628f55a4df523b3ef8460405161106191815260200190565b60405180910390a36105bc565b6033546001600160a01b031633146107715760405162461bcd60e51b815260206004820181905260248201527f4f776e61626c653a2063616c6c6572206973206e6f7420746865206f776e6572604482015260640161050c565b6110d06115dc565b6097805460ff191690557f5db9ee0a495bf2e6ff9c91a7834c1ba4fdd244a5e8aa4e537bd38aeae4b073aa335b6040516001600160a01b03909116815260200160405180910390a1565b6001600160a01b03821661117a5760405162461bcd60e51b815260206004820152602160248201527f45524332303a206275726e2066726f6d20746865207a65726f206164647265736044820152607360f81b606482015260840161050c565b6111868260008361156b565b6001600160a01b038216600090815260656020526040902054818110156111fa5760405162461bcd60e51b815260206004820152602260248201527f45524332303a206275726e20616d6f756e7420657863656564732062616c616e604482015261636560f01b606482015260840161050c565b6001600160a01b0383166000908152606560205260408120838303905560678054849290611229908490611cf5565b90915550506040518281526000906001600160a01b038516907fddf252ad1be2c89b69c2b068fc378daa952ba7f163c4a11628f55a4df523b3ef90602001610d29565b505050565b603380546001600160a01b038381166001600160a01b0319831681179093556040519116919082907f8be0079c531659141344cd1fd0a4f28419497f9722a3daafe3b4186f6b6457e090600090a35050565b6112cb611625565b6097805460ff191660011790557f62e78cea01bee320cd4e420270b5ea74000d11b0c9f74754ebdbfc544b05a2586110fd3390565b6001600160a01b038216600090815261012e6020526040902054611327576113278261166b565b6001600160a01b038216600090815261012e602052604090205461134b90826113a7565b6001600160a01b038316600081815261012e60209081526040918290209390935580519182529181018390527febedb8b3c678666e7f36970bc8f57abf6d8fa2e828c0da91ea5b75bf68ed101a91015b60405180910390a15050565b60006113b38284611c7c565b9392505050565b6001600160a01b038216600090815261012e6020526040902054811061142e5760405162461bcd60e51b8152602060048201526024808201527f7769746864726177656420746f6b656e7320626967676572207468616e207374604482015263185ad95960e21b606482015260840161050c565b6001600160a01b038216600090815261012e602052604090205461145290826116d0565b6001600160a01b038316600090815261012e6020526040902081905561147b5761147b826116dc565b604080516001600160a01b0384168152602081018390527f884edad9ce6fa2440d8a54cc123490eb96d2768479d49ff9c7366125a9424364910161139b565b600054610100900460ff166114e15760405162461bcd60e51b815260040161050c90611caa565b61077133611271565b600054610100900460ff166115115760405162461bcd60e51b815260040161050c90611caa565b8151611524906068906020850190611819565b50805161126c906069906020840190611819565b600054610100900460ff1661155f5760405162461bcd60e51b815260040161050c90611caa565b6097805460ff19169055565b6115768383836117a7565b60975460ff161561126c5760405162461bcd60e51b815260206004820152602a60248201527f45524332305061757361626c653a20746f6b656e207472616e736665722077686044820152691a5b19481c185d5cd95960b21b606482015260840161050c565b60975460ff166107715760405162461bcd60e51b815260206004820152601460248201527314185d5cd8589b194e881b9bdd081c185d5cd95960621b604482015260640161050c565b60975460ff16156107715760405162461bcd60e51b815260206004820152601060248201526f14185d5cd8589b194e881c185d5cd95960821b604482015260640161050c565b6000611676826117ac565b509050806107a75761012d80546001810182556000919091527f193a3ae4da5049eb74cee39e4cf5827f7ce7b1d1d1775ef1c6311eb60558e6d50180546001600160a01b0384166001600160a01b03199091161790555050565b60006113b38284611cf5565b6000806116e8836117ac565b91509150811561126c5761012d805461170390600190611cf5565b8154811061171357611713611c94565b60009182526020909120015461012d80546001600160a01b03909216918390811061174057611740611c94565b9060005260206000200160006101000a8154816001600160a01b0302191690836001600160a01b0316021790555061012d80548061178057611780611d0c565b600082815260209020810160001990810180546001600160a01b0319169055019055505050565b611576565b60008060005b61012d5481101561180d5761012d81815481106117d1576117d1611c94565b6000918252602090912001546001600160a01b03858116911614156117fb57600194909350915050565b611806600182611c7c565b90506117b2565b50600093849350915050565b82805461182590611bc4565b90600052602060002090601f016020900481019282611847576000855561188d565b82601f1061186057805160ff191683800117855561188d565b8280016001018555821561188d579182015b8281111561188d578251825591602001919060010190611872565b5061189992915061189d565b5090565b5b80821115611899576000815560010161189e565b6000815180845260005b818110156118d8576020818501810151868301820152016118bc565b818111156118ea576000602083870101525b50601f01601f19169290920160200192915050565b6020815260006113b360208301846118b2565b634e487b7160e01b600052604160045260246000fd5b600082601f83011261193957600080fd5b813567ffffffffffffffff8082111561195457611954611912565b604051601f8301601f19908116603f0116810190828211818310171561197c5761197c611912565b8160405283815286602085880101111561199557600080fd5b836020870160208301376000602085830101528094505050505092915050565b6001600160a01b038116811461077d57600080fd5b6000806000606084860312156119df57600080fd5b833567ffffffffffffffff808211156119f757600080fd5b611a0387838801611928565b94506020860135915080821115611a1957600080fd5b50611a2686828701611928565b9250506040840135611a37816119b5565b809150509250925092565b60008060408385031215611a5557600080fd5b8235611a60816119b5565b946020939093013593505050565b60008060008060808587031215611a8457600080fd5b843567ffffffffffffffff811115611a9b57600080fd5b611aa787828801611928565b945050602085013592506040850135611abf816119b5565b9396929550929360600135925050565b600080600060608486031215611ae457600080fd5b8335611aef816119b5565b92506020840135611aff816119b5565b929592945050506040919091013590565b600060208284031215611b2257600080fd5b81356113b3816119b5565b600060208284031215611b3f57600080fd5b5035919050565b60008060408385031215611b5957600080fd5b823567ffffffffffffffff811115611b7057600080fd5b611b7c85828601611928565b95602094909401359450505050565b60008060408385031215611b9e57600080fd5b8235611ba9816119b5565b91506020830135611bb9816119b5565b809150509250929050565b600181811c90821680611bd857607f821691505b60208210811415610a3b57634e487b7160e01b600052602260045260246000fd5b60008060408385031215611c0c57600080fd5b8251611c17816119b5565b6020840151909250611bb9816119b5565b60a081526000611c3b60a08301886118b2565b6020830196909652506001600160a01b03938416604082015291909216606082015260800152919050565b634e487b7160e01b600052601160045260246000fd5b60008219821115611c8f57611c8f611c66565b500190565b634e487b7160e01b600052603260045260246000fd5b6020808252602b908201527f496e697469616c697a61626c653a20636f6e7472616374206973206e6f74206960408201526a6e697469616c697a696e6760a81b606082015260800190565b600082821015611d0757611d07611c66565b500390565b634e487b7160e01b600052603160045260246000fdfea26469706673582212203d888268e1a019eb107ef4a5dea56844da10eefc8ac1d4656e0387a2c44d87db64736f6c634300080a0033",
  "immutableReferences": {},
  "source": "// SPDX-License-Identifier: GPL-3.0\r\npragma solidity ^0.8.0;\r\n\r\nimport \"@openzeppelin/contracts-upgradeable/proxy/utils/Initializable.sol\";\r\nimport \"@openzeppelin/contracts-upgradeable/access/OwnableUpgradeable.sol\";\r\nimport \"@openzeppelin/contracts-upgradeable/token/ERC20/ERC20Upgradeable.sol\";\r\nimport \"@openzeppelin/contracts-upgradeable/token/ERC20/extensions/ERC20PausableUpgradeable.sol\";\r\nimport \"@openzeppelin/contracts-upgradeable/token/ERC20/extensions/ERC20BurnableUpgradeable.sol\";\r\nimport \"./Stakeable.sol\";\r\nimport \"../Governance/IGovernance.sol\";\r\n\r\n/**\r\n * @dev TATTreasureNet ERC20 Token:\r\n *    - ERC20,mint`production data contract`\r\n *    - Pausable\r\n *    - Burnable\r\n *    - Stake\r\n*/\r\ncontract TAT is\r\nInitializable,\r\nOwnableUpgradeable,\r\nERC20PausableUpgradeable,\r\nERC20BurnableUpgradeable,\r\nStakeable\r\n{\r\n    IGovernance private _governance;\r\n\r\n    /// @dev \r\n    /// @param _name Token\r\n    /// @param _symbol Token Symbol\r\n    /// @param _governanceContract TreasureNet\r\n    function initialize(\r\n        string memory _name,\r\n        string memory _symbol,\r\n        address _governanceContract\r\n    ) public initializer {\r\n        __Ownable_init();\r\n        __ERC20_init(_name, _symbol);\r\n        __ERC20Burnable_init();\r\n        __ERC20Pausable_init();\r\n        _governance = IGovernance(_governanceContract);\r\n    }\r\n\r\n    modifier onlyProductionDataContract(string memory _treasureKind) {\r\n        // check producer by group\r\n        (, address productionContract) = _governance.getTreasureByKind(_treasureKind);\r\n        require(_msgSender() == productionContract, \"\");\r\n        _;\r\n    }\r\n\r\n    //Hook that is called before any token transfer to ensure the token is not paused.\r\n    function _beforeTokenTransfer(\r\n        address from,\r\n        address to,\r\n        uint256 amount\r\n    ) internal virtual override(ERC20Upgradeable, ERC20PausableUpgradeable) {\r\n        super._beforeTokenTransfer(from, to, amount);\r\n        require(!paused(), \"ERC20Pausable: token transfer while paused\");\r\n    }\r\n\r\n    event TATHistory(string kind, bytes32 uniqueId, address from, address to, uint amount);\r\n    /// @dev mint TAT\r\n    /// @param _treasureKind treasure\r\n    /// @param to  tat\r\n    /// @param amount mintTAT\r\n    function mint(\r\n        string memory _treasureKind,\r\n        bytes32 _uniqueId,\r\n        address to,\r\n        uint256 amount\r\n    ) public onlyProductionDataContract(_treasureKind) {\r\n        require(to != address(0), \"zero address\");\r\n        _mint(to, amount);\r\n        emit TATHistory(_treasureKind, _uniqueId, msg.sender, to, amount);\r\n    }\r\n\r\n    /* temp faucet */\r\n    function faucet(address user, uint256 amount) public {\r\n        require(user != address(0), \"zero address\");\r\n        _mint(user, amount);\r\n    }\r\n\r\n    /// @dev burn TAT\r\n    /// @param _treasureKind treasure\r\n    /// @param tokens \r\n    function burn(string memory _treasureKind, uint256 tokens)\r\n    public\r\n    onlyProductionDataContract(_treasureKind)\r\n    {\r\n        _burn(_msgSender(), tokens);\r\n    }\r\n\r\n    /// @dev TAT\r\n    function pause() public onlyOwner {\r\n        _pause();\r\n    }\r\n\r\n    /// @dev TAT\r\n    function unpause() public onlyOwner {\r\n        _unpause();\r\n    }\r\n\r\n\r\n    /// @dev TAT\r\n    ///  - Event\r\n    ///        event Stake(address from,uint256 amount);\r\n    /// @param _amount TAT\r\n    function stake(address account, uint256 _amount) public override {\r\n        require(balanceOf(account) >= _amount, \"stake more than you own\");\r\n        _stake(account, _amount);\r\n        _burn(account, _amount);\r\n    }\r\n\r\n    /// @dev TAT\r\n    /// - Eventa\r\n    ///    event Withdraw(address from,uint256 amount);\r\n    /// @param _amount TAT\r\n    function withdraw(address account, uint256 _amount) public override {\r\n        require(stakeOf(account) >= _amount, \"withdraw more than you staked\");\r\n        _withdraw(account, _amount);\r\n        _mint(account, _amount);\r\n    }\r\n}\r\n",
  "sourcePath": "D:\\work\\Treasurenet-contracts\\fork\\treasurenet-contracts\\contracts\\TAT\\TAT.sol",
  "compiler": {
    "name": "solc",
    "version": "0.8.10+commit.fc410830.Emscripten.clang"
  },
  "schemaVersion": "3.4.16",
  "updatedAt": "2024-04-29T07:29:52.989Z",
  "devdoc": {
    "details": "TATTreasureNet ERC20 Token:    - ERC20,mint`production data contract`    - Pausable    - Burnable    - Stake",
    "kind": "dev",
    "methods": {
      "allowance(address,address)": {
        "details": "See {IERC20-allowance}."
      },
      "approve(address,uint256)": {
        "details": "See {IERC20-approve}. NOTE: If `amount` is the maximum `uint256`, the allowance is not updated on `transferFrom`. This is semantically equivalent to an infinite approval. Requirements: - `spender` cannot be the zero address."
      },
      "balanceOf(address)": {
        "details": "See {IERC20-balanceOf}."
      },
      "burn(string,uint256)": {
        "details": "burn TAT",
        "params": {
          "_treasureKind": "treasure",
          "tokens": ""
        }
      },
      "burn(uint256)": {
        "details": "Destroys `amount` tokens from the caller. See {ERC20-_burn}."
      },
      "burnFrom(address,uint256)": {
        "details": "Destroys `amount` tokens from `account`, deducting from the caller's allowance. See {ERC20-_burn} and {ERC20-allowance}. Requirements: - the caller must have allowance for ``accounts``'s tokens of at least `amount`."
      },
      "decimals()": {
        "details": "Returns the number of decimals used to get its user representation. For example, if `decimals` equals `2`, a balance of `505` tokens should be displayed to a user as `5.05` (`505 / 10 ** 2`). Tokens usually opt for a value of 18, imitating the relationship between Ether and Wei. This is the value {ERC20} uses, unless this function is overridden; NOTE: This information is only used for _display_ purposes: it in no way affects any of the arithmetic of the contract, including {IERC20-balanceOf} and {IERC20-transfer}."
      },
      "decreaseAllowance(address,uint256)": {
        "details": "Atomically decreases the allowance granted to `spender` by the caller. This is an alternative to {approve} that can be used as a mitigation for problems described in {IERC20-approve}. Emits an {Approval} event indicating the updated allowance. Requirements: - `spender` cannot be the zero address. - `spender` must have allowance for the caller of at least `subtractedValue`."
      },
      "increaseAllowance(address,uint256)": {
        "details": "Atomically increases the allowance granted to `spender` by the caller. This is an alternative to {approve} that can be used as a mitigation for problems described in {IERC20-approve}. Emits an {Approval} event indicating the updated allowance. Requirements: - `spender` cannot be the zero address."
      },
      "initialize(string,string,address)": {
        "details": "",
        "params": {
          "_governanceContract": "TreasureNet",
          "_name": "Token",
          "_symbol": "Token Symbol"
        }
      },
      "mint(string,bytes32,address,uint256)": {
        "details": "mint TAT",
        "params": {
          "_treasureKind": "treasure",
          "amount": "mintTAT",
          "to": "tat"
        }
      },
      "name()": {
        "details": "Returns the name of the token."
      },
      "owner()": {
        "details": "Returns the address of the current owner."
      },
      "pause()": {
        "details": "TAT"
      },
      "paused()": {
        "details": "Returns true if the contract is paused, and false otherwise."
      },
      "renounceOwnership()": {
        "details": "Leaves the contract without owner. It will not be possible to call `onlyOwner` functions anymore. Can only be called by the current owner. NOTE: Renouncing ownership will leave the contract without an owner, thereby removing any functionality that is only available to the owner."
      },
      "stake(address,uint256)": {
        "details": "TAT  - Event        event Stake(address from,uint256 amount);",
        "params": {
          "_amount": "TAT"
        }
      },
      "symbol()": {
        "details": "Returns the symbol of the token, usually a shorter version of the name."
      },
      "totalSupply()": {
        "details": "See {IERC20-totalSupply}."
      },
      "transfer(address,uint256)": {
        "details": "See {IERC20-transfer}. Requirements: - `to` cannot be the zero address. - the caller must have a balance of at least `amount`."
      },
      "transferFrom(address,address,uint256)": {
        "details": "See {IERC20-transferFrom}. Emits an {Approval} event indicating the updated allowance. This is not required by the EIP. See the note at the beginning of {ERC20}. NOTE: Does not update the allowance if the current allowance is the maximum `uint256`. Requirements: - `from` and `to` cannot be the zero address. - `from` must have a balance of at least `amount`. - the caller must have allowance for ``from``'s tokens of at least `amount`."
      },
      "transferOwnership(address)": {
        "details": "Transfers ownership of the contract to a new account (`newOwner`). Can only be called by the current owner."
      },
      "unpause()": {
        "details": "TAT"
      },
      "withdraw(address,uint256)": {
        "details": "TAT - Eventa    event Withdraw(address from,uint256 amount);",
        "params": {
          "_amount": "TAT"
        }
      }
    },
    "version": 1
  },
  "userdoc": {
    "kind": "user",
    "methods": {},
    "version": 1
  }
}