{
  "contractName": "USTN",
  "abi": [
    {
      "anonymous": false,
      "inputs": [
        {
          "indexed": true,
          "internalType": "address",
          "name": "owner",
          "type": "address"
        },
        {
          "indexed": true,
          "internalType": "address",
          "name": "spender",
          "type": "address"
        },
        {
          "indexed": false,
          "internalType": "uint256",
          "name": "tokens",
          "type": "uint256"
        }
      ],
      "name": "Approval",
      "type": "event"
    },
    {
      "anonymous": false,
      "inputs": [
        {
          "indexed": false,
          "internalType": "uint8",
          "name": "version",
          "type": "uint8"
        }
      ],
      "name": "Initialized",
      "type": "event"
    },
    {
      "anonymous": false,
      "inputs": [
        {
          "indexed": true,
          "internalType": "address",
          "name": "previousOwner",
          "type": "address"
        },
        {
          "indexed": true,
          "internalType": "address",
          "name": "newOwner",
          "type": "address"
        }
      ],
      "name": "OwnershipTransferred",
      "type": "event"
    },
    {
      "anonymous": false,
      "inputs": [
        {
          "indexed": true,
          "internalType": "address",
          "name": "from",
          "type": "address"
        },
        {
          "indexed": true,
          "internalType": "address",
          "name": "to",
          "type": "address"
        },
        {
          "indexed": false,
          "internalType": "uint256",
          "name": "tokens",
          "type": "uint256"
        }
      ],
      "name": "Transfer",
      "type": "event"
    },
    {
      "anonymous": false,
      "inputs": [
        {
          "indexed": false,
          "internalType": "uint256",
          "name": "_time",
          "type": "uint256"
        },
        {
          "indexed": false,
          "internalType": "address",
          "name": "_user",
          "type": "address"
        },
        {
          "indexed": false,
          "internalType": "uint256",
          "name": "_unitValueTotal",
          "type": "uint256"
        },
        {
          "indexed": false,
          "internalType": "uint256",
          "name": "_USTNAmount",
          "type": "uint256"
        },
        {
          "indexed": false,
          "internalType": "string",
          "name": "_type",
          "type": "string"
        }
      ],
      "name": "convert",
      "type": "event"
    },
    {
      "inputs": [],
      "name": "AUCTION_MANAGER",
      "outputs": [
        {
          "internalType": "bytes32",
          "name": "",
          "type": "bytes32"
        }
      ],
      "stateMutability": "view",
      "type": "function"
    },
    {
      "inputs": [],
      "name": "_totalSupply",
      "outputs": [
        {
          "internalType": "uint256",
          "name": "",
          "type": "uint256"
        }
      ],
      "stateMutability": "view",
      "type": "function"
    },
    {
      "inputs": [],
      "name": "decimals",
      "outputs": [
        {
          "internalType": "uint8",
          "name": "",
          "type": "uint8"
        }
      ],
      "stateMutability": "view",
      "type": "function"
    },
    {
      "inputs": [],
      "name": "name",
      "outputs": [
        {
          "internalType": "string",
          "name": "",
          "type": "string"
        }
      ],
      "stateMutability": "view",
      "type": "function"
    },
    {
      "inputs": [],
      "name": "owner",
      "outputs": [
        {
          "internalType": "address",
          "name": "",
          "type": "address"
        }
      ],
      "stateMutability": "view",
      "type": "function"
    },
    {
      "inputs": [],
      "name": "renounceOwnership",
      "outputs": [],
      "stateMutability": "nonpayable",
      "type": "function"
    },
    {
      "inputs": [],
      "name": "symbol",
      "outputs": [
        {
          "internalType": "string",
          "name": "",
          "type": "string"
        }
      ],
      "stateMutability": "view",
      "type": "function"
    },
    {
      "inputs": [
        {
          "internalType": "address",
          "name": "newOwner",
          "type": "address"
        }
      ],
      "name": "transferOwnership",
      "outputs": [],
      "stateMutability": "nonpayable",
      "type": "function"
    },
    {
      "inputs": [],
      "name": "unit",
      "outputs": [
        {
          "internalType": "bytes32",
          "name": "",
          "type": "bytes32"
        }
      ],
      "stateMutability": "view",
      "type": "function"
    },
    {
      "inputs": [],
      "name": "ustn",
      "outputs": [
        {
          "internalType": "bytes32",
          "name": "",
          "type": "bytes32"
        }
      ],
      "stateMutability": "view",
      "type": "function"
    },
    {
      "stateMutability": "payable",
      "type": "receive"
    },
    {
      "inputs": [
        {
          "internalType": "address",
          "name": "_rolesContract",
          "type": "address"
        },
        {
          "internalType": "address",
          "name": "_oracleContract",
          "type": "address"
        },
        {
          "internalType": "address",
          "name": "_ustnAuctionContract",
          "type": "address"
        },
        {
          "internalType": "address",
          "name": "_ustnFinanceContract",
          "type": "address"
        }
      ],
      "name": "initialize",
      "outputs": [],
      "stateMutability": "nonpayable",
      "type": "function"
    },
    {
      "inputs": [],
      "name": "totalSupply",
      "outputs": [
        {
          "internalType": "uint256",
          "name": "",
          "type": "uint256"
        }
      ],
      "stateMutability": "view",
      "type": "function"
    },
    {
      "inputs": [
        {
          "internalType": "address",
          "name": "tokenOwner",
          "type": "address"
        }
      ],
      "name": "balanceOf",
      "outputs": [
        {
          "internalType": "uint256",
          "name": "balance",
          "type": "uint256"
        }
      ],
      "stateMutability": "view",
      "type": "function"
    },
    {
      "inputs": [
        {
          "internalType": "address",
          "name": "to",
          "type": "address"
        },
        {
          "internalType": "uint256",
          "name": "tokens",
          "type": "uint256"
        }
      ],
      "name": "transfer",
      "outputs": [
        {
          "internalType": "bool",
          "name": "result",
          "type": "bool"
        }
      ],
      "stateMutability": "nonpayable",
      "type": "function"
    },
    {
      "inputs": [
        {
          "internalType": "address",
          "name": "tokenOwner",
          "type": "address"
        },
        {
          "internalType": "address",
          "name": "spender",
          "type": "address"
        }
      ],
      "name": "allowance",
      "outputs": [
        {
          "internalType": "uint256",
          "name": "remaining",
          "type": "uint256"
        }
      ],
      "stateMutability": "view",
      "type": "function"
    },
    {
      "inputs": [
        {
          "internalType": "address",
          "name": "spender",
          "type": "address"
        },
        {
          "internalType": "uint256",
          "name": "tokens",
          "type": "uint256"
        }
      ],
      "name": "approve",
      "outputs": [
        {
          "internalType": "bool",
          "name": "success",
          "type": "bool"
        }
      ],
      "stateMutability": "nonpayable",
      "type": "function"
    },
    {
      "inputs": [
        {
          "internalType": "address",
          "name": "from",
          "type": "address"
        },
        {
          "internalType": "address",
          "name": "to",
          "type": "address"
        },
        {
          "internalType": "uint256",
          "name": "tokens",
          "type": "uint256"
        }
      ],
      "name": "transferFrom",
      "outputs": [
        {
          "internalType": "bool",
          "name": "success",
          "type": "bool"
        }
      ],
      "stateMutability": "nonpayable",
      "type": "function"
    },
    {
      "inputs": [
        {
          "internalType": "address",
          "name": "bider",
          "type": "address"
        },
        {
          "internalType": "uint256",
          "name": "amount",
          "type": "uint256"
        }
      ],
      "name": "bidCost",
      "outputs": [
        {
          "internalType": "bool",
          "name": "",
          "type": "bool"
        }
      ],
      "stateMutability": "nonpayable",
      "type": "function"
    },
    {
      "inputs": [
        {
          "internalType": "address",
          "name": "bider",
          "type": "address"
        },
        {
          "internalType": "uint256",
          "name": "amount",
          "type": "uint256"
        }
      ],
      "name": "bidBack",
      "outputs": [
        {
          "internalType": "bool",
          "name": "",
          "type": "bool"
        }
      ],
      "stateMutability": "nonpayable",
      "type": "function"
    },
    {
      "inputs": [],
      "name": "queryAuctionManager",
      "outputs": [
        {
          "internalType": "address",
          "name": "",
          "type": "address"
        }
      ],
      "stateMutability": "view",
      "type": "function"
    },
    {
      "inputs": [
        {
          "internalType": "uint256",
          "name": "amount",
          "type": "uint256"
        }
      ],
      "name": "reduceTotalSupply",
      "outputs": [
        {
          "internalType": "bool",
          "name": "",
          "type": "bool"
        }
      ],
      "stateMutability": "nonpayable",
      "type": "function"
    },
    {
      "inputs": [
        {
          "internalType": "uint256",
          "name": "amount",
          "type": "uint256"
        }
      ],
      "name": "addTotalSupply",
      "outputs": [
        {
          "internalType": "bool",
          "name": "",
          "type": "bool"
        }
      ],
      "stateMutability": "nonpayable",
      "type": "function"
    },
    {
      "inputs": [
        {
          "internalType": "address",
          "name": "add",
          "type": "address"
        },
        {
          "internalType": "uint256",
          "name": "amount",
          "type": "uint256"
        }
      ],
      "name": "addBalance",
      "outputs": [
        {
          "internalType": "bool",
          "name": "",
          "type": "bool"
        }
      ],
      "stateMutability": "nonpayable",
      "type": "function"
    },
    {
      "inputs": [
        {
          "internalType": "address",
          "name": "add",
          "type": "address"
        },
        {
          "internalType": "uint256",
          "name": "amount",
          "type": "uint256"
        }
      ],
      "name": "reduceBalance",
      "outputs": [
        {
          "internalType": "bool",
          "name": "",
          "type": "bool"
        }
      ],
      "stateMutability": "nonpayable",
      "type": "function"
    },
    {
      "inputs": [
        {
          "internalType": "uint256",
          "name": "amount",
          "type": "uint256"
        }
      ],
      "name": "mintRate",
      "outputs": [
        {
          "internalType": "uint256",
          "name": "",
          "type": "uint256"
        }
      ],
      "stateMutability": "view",
      "type": "function"
    },
    {
      "inputs": [
        {
          "internalType": "uint256",
          "name": "amount",
          "type": "uint256"
        }
      ],
      "name": "mintBackRate",
      "outputs": [
        {
          "internalType": "uint256",
          "name": "",
          "type": "uint256"
        }
      ],
      "stateMutability": "view",
      "type": "function"
    },
    {
      "inputs": [],
      "name": "mint",
      "outputs": [
        {
          "internalType": "bool",
          "name": "result",
          "type": "bool"
        }
      ],
      "stateMutability": "payable",
      "type": "function"
    },
    {
      "inputs": [
        {
          "internalType": "uint256",
          "name": "tokens",
          "type": "uint256"
        }
      ],
      "name": "mintBack",
      "outputs": [
        {
          "internalType": "bool",
          "name": "",
          "type": "bool"
        }
      ],
      "stateMutability": "payable",
      "type": "function"
    },
    {
      "inputs": [
        {
          "internalType": "address",
          "name": "account",
          "type": "address"
        },
        {
          "internalType": "uint256",
          "name": "tokens",
          "type": "uint256"
        }
      ],
      "name": "burn",
      "outputs": [
        {
          "internalType": "bool",
          "name": "",
          "type": "bool"
        }
      ],
      "stateMutability": "nonpayable",
      "type": "function"
    }
  ],
  "bytecode": "0x608060405234801561001057600080fd5b506119a1806100206000396000f3fe6080604052600436106101c65760003560e01c80638da5cb5b116100f7578063ca3555e011610095578063f0ce15b311610064578063f0ce15b314610565578063f2fde38b14610587578063f8c8765e146105a7578063ff2559bb146105c757600080fd5b8063ca3555e0146104bf578063d0664e24146104df578063dd62ed3e146104ff578063e468688e1461054557600080fd5b80639dc29fac116100d15780639dc29fac1461044a578063a9059cbb1461046a578063ac295ae81461048a578063b47279061461049f57600080fd5b80638da5cb5b146103c6578063907af6c0146103f857806395d89b411461041a57600080fd5b8063313ce5671161016457806339fb284e1161013e57806339fb284e1461032f5780633eaaf86b1461036357806370a0823114610379578063715018a6146103af57600080fd5b8063313ce567146102c85780633510b66c146102ef578063358a2c4d1461030f57600080fd5b806318160ddd116101a057806318160ddd1461025657806321e5383a1461027557806323b872dd146102955780632ba0f2b5146102b557600080fd5b806306fdde03146101d2578063095ea7b31461021e5780631249c58b1461024e57600080fd5b366101cd57005b600080fd5b3480156101de57600080fd5b506102086040518060400160405280600a8152602001693ab9ba37103a37b5b2b760b11b81525081565b60405161021591906115ab565b60405180910390f35b34801561022a57600080fd5b5061023e610239366004611615565b6105e7565b6040519015158152602001610215565b61023e610653565b34801561026257600080fd5b506069545b604051908152602001610215565b34801561028157600080fd5b5061023e610290366004611615565b610783565b3480156102a157600080fd5b5061023e6102b0366004611641565b6107e6565b61023e6102c3366004611682565b6108c1565b3480156102d457600080fd5b506102dd601281565b60405160ff9091168152602001610215565b3480156102fb57600080fd5b5061023e61030a366004611682565b610a71565b34801561031b57600080fd5b5061023e61032a366004611615565b610abd565b34801561033b57600080fd5b506102677fc55a74c743a5d6aff6a82963adf054e2367242c4a636870f26b8ee90910968d081565b34801561036f57600080fd5b5061026760695481565b34801561038557600080fd5b5061026761039436600461169b565b6001600160a01b03166000908152606a602052604090205490565b3480156103bb57600080fd5b506103c4610bab565b005b3480156103d257600080fd5b506033546001600160a01b03165b6040516001600160a01b039091168152602001610215565b34801561040457600080fd5b5061026760008051602061190c83398151915281565b34801561042657600080fd5b50610208604051806040016040528060048152602001632aa9aa2760e11b81525081565b34801561045657600080fd5b5061023e610465366004611615565b610bbf565b34801561047657600080fd5b5061023e610485366004611615565b610cc4565b34801561049657600080fd5b506103e0610d9a565b3480156104ab57600080fd5b5061023e6104ba366004611615565b610e8f565b3480156104cb57600080fd5b506102676104da366004611682565b610ee4565b3480156104eb57600080fd5b506102676104fa366004611682565b610f2f565b34801561050b57600080fd5b5061026761051a3660046116bf565b6001600160a01b039182166000908152606b6020908152604080832093909416825291909152205490565b34801561055157600080fd5b5061023e610560366004611682565b610f60565b34801561057157600080fd5b5061026760008051602061192c83398151915281565b34801561059357600080fd5b506103c46105a236600461169b565b610f9f565b3480156105b357600080fd5b506103c46105c23660046116f8565b611018565b3480156105d357600080fd5b5061023e6105e2366004611615565b6112ac565b336000818152606b602090815260408083206001600160a01b038716808552925280832085905551919290917f8c5be1e5ebec7d5bd14f71427d1e84f3dd0314c0f7b2291e5b200ac8c7c3b925906106429086815260200190565b60405180910390a350600192915050565b60008061065f34610f2f565b90506a295be96e640669720000006069548261067b919061176a565b11156106b95760405162461bcd60e51b81526020600482015260086024820152676f766572666c6f7760c01b60448201526064015b60405180910390fd5b80606960008282546106cb919061176a565b9091555050336000908152606a6020526040812080548392906106ef90849061176a565b90915550506040805142815233602082015234818301526060810183905260a060808201819052600490820152631b5a5b9d60e21b60c082015290517fe16e5d8a3b623d8bafc82205c0ea1c04151f7f55a20fb050cc3baa13ad70fdb69181900360e00190a1604051818152339060009060008051602061194c8339815191529060200160405180910390a3600191505090565b6068546000906001600160a01b031633146107b05760405162461bcd60e51b81526004016106b090611782565b6001600160a01b0383166000908152606a6020526040812080548492906107d890849061176a565b909155506001949350505050565b6001600160a01b0383166000908152606b6020908152604080832033845290915281208054839190839061081b9084906117c4565b90915550506001600160a01b0384166000908152606a6020526040812080548492906108489084906117c4565b90915550506001600160a01b0383166000908152606a60205260408120805484929061087590849061176a565b92505081905550826001600160a01b0316846001600160a01b031660008051602061194c833981519152846040516108af91815260200190565b60405180910390a35060019392505050565b60006a295be96e64066972000000606954116108dc57600080fd5b816108f460008051602061192c8339815191526113d7565b61090b60008051602061190c8339815191526113d7565b6a295be96e6406697200000060695461092491906117c4565b61092e91906117db565b61093891906117fa565b10156109865760405162461bcd60e51b815260206004820152601e60248201527f6f766572666c6f7720746865206d696e7462616b207468726573686f6c64000060448201526064016106b0565b600061099183610ee4565b336000908152606a60205260408120805492935085929091906109b59084906117c4565b9250508190555082606960008282546109ce91906117c4565b9091555050604051339082156108fc029083906000818181858888f19350505050158015610a00573d6000803e3d6000fd5b50604080514281523360208201529081018490526060810182905260a060808201819052600890820152676d696e744261636b60c01b60c08201527fe16e5d8a3b623d8bafc82205c0ea1c04151f7f55a20fb050cc3baa13ad70fdb69060e00160405180910390a150600192915050565b6068546000906001600160a01b03163314610a9e5760405162461bcd60e51b81526004016106b090611782565b8160696000828254610ab091906117c4565b9091555060019392505050565b6067546000906001600160a01b03163314610aea5760405162461bcd60e51b81526004016106b09061181c565b6001600160a01b038316610b105760405162461bcd60e51b81526004016106b09061185e565b6000610b1a610d9a565b6001600160a01b03161415610b415760405162461bcd60e51b81526004016106b09061185e565b6001600160a01b0383166000908152606a602052604081208054849290610b6990849061176a565b90915550829050606a6000610b7c610d9a565b6001600160a01b03166001600160a01b0316815260200190815260200160002060008282546107d891906117c4565b610bb36114a5565b610bbd60006114ff565b565b6067546000906001600160a01b03163314610bec5760405162461bcd60e51b81526004016106b09061181c565b6001600160a01b0383166000908152606a6020526040902054821115610c545760405162461bcd60e51b815260206004820152601860248201527f5553544e3a2062616c616e6365206e6f7420656e6f756768000000000000000060448201526064016106b0565b8160696000828254610c6691906117c4565b90915550506001600160a01b0383166000908152606a602052604081208054849290610c939084906117c4565b90915550506040518281526000906001600160a01b0385169060008051602061194c83398151915290602001610642565b336000908152606a60205260408120548210610d1e5760405162461bcd60e51b81526020600482015260196024820152780aaa6a89c7440c4c2d8c2dcc6cae640dcdee840cadcdeeaced603b1b60448201526064016106b0565b336000908152606a602052604081208054849290610d3d9084906117c4565b90915550506001600160a01b0383166000908152606a602052604081208054849290610d6a90849061176a565b90915550506040518281526001600160a01b03841690339060008051602061194c83398151915290602001610642565b606554604051632404341f60e21b81527fc55a74c743a5d6aff6a82963adf054e2367242c4a636870f26b8ee90910968d060048201526000602482018190529182916001600160a01b0390911690639010d07c90604401602060405180830381865afa158015610e0e573d6000803e3d6000fd5b505050506040513d601f19601f82011682018060405250810190610e32919061188a565b90506001600160a01b038116610e8a5760405162461bcd60e51b815260206004820152601a60248201527f6e6f2061756374696f6e206d616e61676572207365742079657400000000000060448201526064016106b0565b919050565b6068546000906001600160a01b03163314610ebc5760405162461bcd60e51b81526004016106b090611782565b6001600160a01b0383166000908152606a6020526040812080548492906107d89084906117c4565b6000610efd60008051602061190c8339815191526113d7565b82610f1560008051602061192c8339815191526113d7565b610f1f91906117db565b610f2991906117fa565b92915050565b6000610f4860008051602061192c8339815191526113d7565b82610f1560008051602061190c8339815191526113d7565b6068546000906001600160a01b03163314610f8d5760405162461bcd60e51b81526004016106b090611782565b8160696000828254610ab0919061176a565b610fa76114a5565b6001600160a01b03811661100c5760405162461bcd60e51b815260206004820152602660248201527f4f776e61626c653a206e6577206f776e657220697320746865207a65726f206160448201526564647265737360d01b60648201526084016106b0565b611015816114ff565b50565b600054610100900460ff16158080156110385750600054600160ff909116105b806110525750303b158015611052575060005460ff166001145b6110b55760405162461bcd60e51b815260206004820152602e60248201527f496e697469616c697a61626c653a20636f6e747261637420697320616c72656160448201526d191e481a5b9a5d1a585b1a5e995960921b60648201526084016106b0565b6000805460ff1916600117905580156110d8576000805461ff0019166101001790555b6001600160a01b0385166111245760405162461bcd60e51b81526020600482015260136024820152721e995c9bc81c9bdb195cc818dbdb9d1c9858dd606a1b60448201526064016106b0565b6001600160a01b0384166111715760405162461bcd60e51b81526020600482015260146024820152731e995c9bc81bdc9858db194818dbdb9d1c9858dd60621b60448201526064016106b0565b6001600160a01b0383166111bf5760405162461bcd60e51b81526020600482015260156024820152741e995c9bc8185d58dd1a5bdb8818dbdb9d1c9858dd605a1b60448201526064016106b0565b6001600160a01b03821661120d5760405162461bcd60e51b81526020600482015260156024820152741e995c9bc8199a5b985b98d94818dbdb9d1c9858dd605a1b60448201526064016106b0565b611215611551565b606580546001600160a01b038088166001600160a01b0319928316179092556066805487841690831617905560678054868416908316179055606880549285169290911691909117905580156112a5576000805461ff0019169055604051600181527f7f26b83ff96e1f2b6a682f133852f6798a09c465da95921460cefb38474024989060200160405180910390a15b5050505050565b6067546000906001600160a01b031633146112d95760405162461bcd60e51b81526004016106b09061181c565b6001600160a01b0383166000908152606a6020526040902054821061133c5760405162461bcd60e51b81526020600482015260196024820152780aaa6a89c7440c4c2d8c2dcc6cae640dcdee840cadcdeeaced603b1b60448201526064016106b0565b6000611346610d9a565b6001600160a01b0316141561136d5760405162461bcd60e51b81526004016106b09061185e565b6001600160a01b0383166000908152606a6020526040812080548492906113959084906117c4565b90915550829050606a60006113a8610d9a565b6001600160a01b03166001600160a01b0316815260200190815260200160002060008282546107d8919061176a565b6066546040516366ba954f60e01b81526004810183905260009182916001600160a01b03909116906366ba954f90602401602060405180830381865afa158015611425573d6000803e3d6000fd5b505050506040513d601f19601f8201168201806040525081019061144991906118a7565b905060008111610f295760405162461bcd60e51b815260206004820152602160248201527f5553544e3a2076616c7565206d75737420626967676572207468616e207a65726044820152606f60f81b60648201526084016106b0565b6033546001600160a01b03163314610bbd5760405162461bcd60e51b815260206004820181905260248201527f4f776e61626c653a2063616c6c6572206973206e6f7420746865206f776e657260448201526064016106b0565b603380546001600160a01b038381166001600160a01b0319831681179093556040519116919082907f8be0079c531659141344cd1fd0a4f28419497f9722a3daafe3b4186f6b6457e090600090a35050565b600054610100900460ff166115785760405162461bcd60e51b81526004016106b0906118c0565b610bbd600054610100900460ff166115a25760405162461bcd60e51b81526004016106b0906118c0565b610bbd336114ff565b600060208083528351808285015260005b818110156115d8578581018301518582016040015282016115bc565b818111156115ea576000604083870101525b50601f01601f1916929092016040019392505050565b6001600160a01b038116811461101557600080fd5b6000806040838503121561162857600080fd5b823561163381611600565b946020939093013593505050565b60008060006060848603121561165657600080fd5b833561166181611600565b9250602084013561167181611600565b929592945050506040919091013590565b60006020828403121561169457600080fd5b5035919050565b6000602082840312156116ad57600080fd5b81356116b881611600565b9392505050565b600080604083850312156116d257600080fd5b82356116dd81611600565b915060208301356116ed81611600565b809150509250929050565b6000806000806080858703121561170e57600080fd5b843561171981611600565b9350602085013561172981611600565b9250604085013561173981611600565b9150606085013561174981611600565b939692955090935050565b634e487b7160e01b600052601160045260246000fd5b6000821982111561177d5761177d611754565b500190565b60208082526022908201527f6f6e6c79205553544e2046696e616e636520636f6e747261637420616c6c6f77604082015261195960f21b606082015260800190565b6000828210156117d6576117d6611754565b500390565b60008160001904831182151516156117f5576117f5611754565b500290565b60008261181757634e487b7160e01b600052601260045260246000fd5b500490565b60208082526022908201527f6f6e6c79205553544e2041756374696f6e20636f6e747261637420616c6c6f77604082015261195960f21b606082015260800190565b6020808252601290820152715553544e3a207a65726f206164647265737360701b604082015260600190565b60006020828403121561189c57600080fd5b81516116b881611600565b6000602082840312156118b957600080fd5b5051919050565b6020808252602b908201527f496e697469616c697a61626c653a20636f6e7472616374206973206e6f74206960408201526a6e697469616c697a696e6760a81b60608201526080019056fe08c17eca0e87ee0a14268fdd7a46d674b41ae71d220d9794f7605ab1776c18216b2eaf239744cd4b778792605555999cd30bc7cf612ac1235d92c5a818fb4623ddf252ad1be2c89b69c2b068fc378daa952ba7f163c4a11628f55a4df523b3efa2646970667358221220b2eb8408accd7825b99ed6f81920bcac0a01d332f00c99f77ccedc3d0191b28a64736f6c634300080a0033",
  "immutableReferences": {},
  "source": "// SPDX-License-Identifier: GPL-3.0\r\nimport \"@openzeppelin/contracts-upgradeable/proxy/utils/Initializable.sol\";\r\nimport \"@openzeppelin/contracts-upgradeable/access/OwnableUpgradeable.sol\";\r\nimport \"./IERC20.sol\";\r\nimport \"../Governance/IRoles.sol\";\r\nimport \"../Oracle/IOracle.sol\";\r\n\r\npragma solidity ^0.8.0;\r\n\r\ncontract USTN is IERC20, Initializable, OwnableUpgradeable {\r\n\r\n    event convert(uint _time, address _user, uint _unitValueTotal, uint _USTNAmount, string _type);\r\n\r\n    string public constant name = \"ustn token\";\r\n    uint8 public constant decimals = 18;\r\n    string public constant symbol = \"USTN\";\r\n    \r\n    bytes32 public constant unit = keccak256(\"UNIT\");\r\n    bytes32 public constant ustn = keccak256(\"USTN\");\r\n    bytes32 public constant AUCTION_MANAGER = keccak256(\"AUCTION_MANAGER\");\r\n\r\n    IRoles private _roles;\r\n    IOracle private _oracle;\r\n\r\n    address private _ustnAuction;\r\n    address private _ustnFinance;\r\n\r\n    uint256 public _totalSupply;\r\n    mapping(address => uint256) _balance;\r\n    mapping(address => mapping(address => uint256)) _approve;\r\n    address private governance;\r\n    \r\n\r\n    function initialize(\r\n        address _rolesContract,\r\n        address _oracleContract,\r\n        address _ustnAuctionContract,\r\n        address _ustnFinanceContract\r\n    ) public initializer {\r\n        require(_rolesContract != address(0),\"zero roles contract\");\r\n        require(_oracleContract != address(0),\"zero oracle contract\");\r\n        require(_ustnAuctionContract != address(0),\"zero auction contract\");\r\n        require(_ustnFinanceContract != address(0),\"zero finance contract\");\r\n\r\n        __Ownable_init();\r\n\r\n        _roles = IRoles(_rolesContract);\r\n        _oracle = IOracle(_oracleContract);\r\n\r\n        _ustnAuction = _ustnAuctionContract;\r\n        _ustnFinance = _ustnFinanceContract;\r\n    }\r\n\r\n    modifier onlyUSTNAuction() {\r\n        require(msg.sender == _ustnAuction,\"only USTN Auction contract allowed\");\r\n        _;\r\n    }\r\n\r\n    modifier onlyUSTNFinance() {\r\n        require(msg.sender == _ustnFinance,\"only USTN Finance contract allowed\");\r\n        _;\r\n    }\r\n\r\n\r\n    receive () external payable{}\r\n\r\n    //Get the total circulation of USTN\r\n    function totalSupply() external view override returns (uint256) {\r\n        return _totalSupply;\r\n    }\r\n    \r\n    //Query the USTN balance of the specified tokenOwner account\r\n    function balanceOf(address tokenOwner) external view override returns (uint256 balance) {\r\n        return _balance[tokenOwner];\r\n    }\r\n    \r\n    //Give to address, the USTN of the number of tokens\r\n    function transfer(address to, uint256 tokens) external override returns (bool result) {\r\n\t    require(_balance[msg.sender] > tokens, \"USTN: balances not enough\");\r\n        _balance[msg.sender] -= tokens;\r\n        _balance[to] += tokens;\r\n        emit Transfer(msg.sender, to, tokens);\r\n        \r\n        return true;\r\n    }\r\n    \r\n    // The remaining number of tokens authorized to spender by the tokenowner\r\n    function allowance(address tokenOwner, address spender) external view override returns (uint256 remaining) {\r\n        return _approve[tokenOwner][spender];\r\n    }\r\n  \r\n    // tokenOwner delegate spender use tokens\r\n    function approve(address spender, uint256 tokens) external override returns (bool success) {\r\n        _approve[msg.sender][spender] = tokens;\r\n        emit Approval(msg.sender, spender, tokens);\r\n        return true;\r\n    }\r\n\r\n    // transfer tokens from >> to\r\n    function transferFrom(address from, address to, uint256 tokens) external override returns (bool success) {\r\n        _approve[from][msg.sender] -= tokens;\r\n        _balance[from] -= tokens;\r\n        _balance[to] += tokens;\r\n        emit Transfer(from, to, tokens);\r\n        return true;\r\n    }\r\n\r\n    //Only allow USTNAuction contract to use\r\n    //require to get the account address of AuctionManager\r\n    //bider to AuctionManager, amount of USTN\r\n    function bidCost(address bider, uint amount) public onlyUSTNAuction() returns(bool){\r\n        require(_balance[bider] > amount, \"USTN: balances not enough\");\r\n        require(queryAuctionManager() != address(0), \"USTN: zero address\");\r\n        _balance[bider] -= amount;\r\n        _balance[queryAuctionManager()] += amount;\r\n   \r\n        return true;\r\n    }\r\n\r\n    //Only allow USTNAuction contract to use\r\n    //require to get the account address of AuctionManager\r\n    //AuctionManager returns to bider, the amount of USTN\r\n    function bidBack(address bider, uint amount) public onlyUSTNAuction() returns(bool){\r\n        require(bider != address(0), \"USTN: zero address\");\r\n        require(queryAuctionManager() != address(0), \"USTN: zero address\");\r\n        _balance[bider] += amount;\r\n        _balance[queryAuctionManager()] -= amount;\r\n        return true;\r\n    }\r\n\r\n    //Query the address of AuctionManager\r\n    function queryAuctionManager() public view returns(address){\r\n        address manager = _roles.getRoleMember(AUCTION_MANAGER, 0);\r\n        require(manager != address(0),\"no auction manager set yet\");\r\n        return manager;\r\n    }\r\n\r\n    //Only allow USTNFinance to use\r\n    //Reduce the total amount issued by the amount\r\n    //Repay the loan to reduce the bank's additional issuance\r\n    function reduceTotalSupply(uint amount) public onlyUSTNFinance() returns(bool){\r\n        _totalSupply -= amount;\r\n\r\n        return true;\r\n    }\r\n\r\n    //Only allow USTNFinance to use\r\n    //Increase the total amount issued by the amount\r\n    //The loan interest causes the total issuance to increase\r\n    function addTotalSupply(uint amount) public onlyUSTNFinance() returns(bool){\r\n        _totalSupply += amount;\r\n\r\n        return true;\r\n    }\r\n\r\n    // Only allow USTNFinance to use\r\n    //Increase the add address, the amount of USTN\r\n    function addBalance(address add, uint amount) public onlyUSTNFinance() returns(bool){\r\n        _balance[add] += amount;\r\n\r\n        return true;\r\n    }\r\n\r\n    // Only allow USTNFinance to use\r\n    //Reduce add address, amount of USTN\r\n    function reduceBalance(address add, uint amount) public onlyUSTNFinance() returns(bool){\r\n        _balance[add] -= amount;\r\n\r\n        return true;\r\n    }\r\n    \r\n    //Based on the currency price of OSM, get the ratio of USTN to UNIT\r\n    function mintRate(uint256 amount) public view returns(uint256){\r\n        return getOSMValue(unit) * amount / getOSMValue(ustn);\r\n    }\r\n\r\n    //Based on the currency price of OSM, get the proportion of UNIT repurchasing USTN\r\n    function mintBackRate(uint256 amount) public view returns(uint256){\r\n        return getOSMValue(ustn) * amount / getOSMValue(unit);\r\n    }\r\n\r\n    //Based on the OSM ratio, exchange the USTN of the msg.value value\r\n    function mint() public payable returns(bool result){\r\n        uint exchange_tokens = mintRate(msg.value);\r\n        require(exchange_tokens + _totalSupply <= 5*10**25, \"overflow\");\r\n        _totalSupply += exchange_tokens;\r\n        _balance[msg.sender] += exchange_tokens;\r\n\r\n        emit convert(block.timestamp, msg.sender, msg.value, exchange_tokens, \"mint\");\r\n        emit Transfer(address(0), msg.sender, exchange_tokens);\r\n        return true;\r\n    }\r\n\r\n    //Based on the proportion of OSM, repurchase the UNIT of the token value\r\n    function mintBack(uint256 tokens) public payable returns(bool){\r\n        require(_totalSupply > 5*10**25);\r\n        require((_totalSupply - 5*10**25) *getOSMValue(unit) /getOSMValue(ustn) >= tokens, \"overflow the mintbak threshold\");\r\n        uint exchange_tokens = mintBackRate(tokens);\r\n        _balance[msg.sender] -= tokens;\r\n        _totalSupply -= tokens;\r\n        payable(msg.sender).transfer(exchange_tokens);\r\n\r\n        emit convert(block.timestamp, msg.sender, tokens, exchange_tokens, \"mintBack\");\r\n        return true;\r\n    }\r\n    \r\n    //only allowed for USTNAuction\r\n    //Triggered when receiving the auction item, burns the number of tokens of AuctionManager\r\n    function burn(address account, uint256 tokens) public onlyUSTNAuction() returns (bool) {\r\n        require(tokens <= _balance[account], \"USTN: balance not enough\" );\r\n        _totalSupply -= tokens;\r\n        _balance[account] -= tokens;\r\n        \r\n        emit Transfer(account, address(0), tokens);\r\n        return true;\r\n    }\r\n\r\n    //query OSM value internal function \r\n    function getOSMValue(bytes32 currencyName) internal view returns(uint){\r\n        uint256 value = _oracle.getCurrencyValue(currencyName);\r\n        require(value>0, \"USTN: value must bigger than zero\");\r\n        return value;\r\n    }   \r\n}\r\n",
  "sourcePath": "D:\\work\\Treasurenet-contracts\\fork\\treasurenet-contracts\\contracts\\USTN\\USTN.sol",
  "compiler": {
    "name": "solc",
    "version": "0.8.10+commit.fc410830.Emscripten.clang"
  },
  "schemaVersion": "3.4.16",
  "updatedAt": "2024-04-29T07:29:53.125Z",
  "devdoc": {
    "kind": "dev",
    "methods": {
      "owner()": {
        "details": "Returns the address of the current owner."
      },
      "renounceOwnership()": {
        "details": "Leaves the contract without owner. It will not be possible to call `onlyOwner` functions anymore. Can only be called by the current owner. NOTE: Renouncing ownership will leave the contract without an owner, thereby removing any functionality that is only available to the owner."
      },
      "transferOwnership(address)": {
        "details": "Transfers ownership of the contract to a new account (`newOwner`). Can only be called by the current owner."
      }
    },
    "version": 1
  },
  "userdoc": {
    "kind": "user",
    "methods": {},
    "version": 1
  }
}