{
  "contractName": "USTNAuction",
  "abi": [
    {
      "anonymous": false,
      "inputs": [
        {
          "indexed": false,
          "internalType": "uint8",
          "name": "version",
          "type": "uint8"
        }
      ],
      "name": "Initialized",
      "type": "event"
    },
    {
      "anonymous": false,
      "inputs": [
        {
          "indexed": true,
          "internalType": "address",
          "name": "previousOwner",
          "type": "address"
        },
        {
          "indexed": true,
          "internalType": "address",
          "name": "newOwner",
          "type": "address"
        }
      ],
      "name": "OwnershipTransferred",
      "type": "event"
    },
    {
      "anonymous": false,
      "inputs": [
        {
          "indexed": false,
          "internalType": "uint256",
          "name": "n",
          "type": "uint256"
        },
        {
          "indexed": false,
          "internalType": "uint256",
          "name": "_time",
          "type": "uint256"
        },
        {
          "indexed": false,
          "internalType": "address",
          "name": "bider",
          "type": "address"
        },
        {
          "indexed": false,
          "internalType": "uint256",
          "name": "_highValue",
          "type": "uint256"
        },
        {
          "indexed": false,
          "internalType": "uint256",
          "name": "_extractStatus",
          "type": "uint256"
        }
      ],
      "name": "auctionDetail",
      "type": "event"
    },
    {
      "anonymous": false,
      "inputs": [
        {
          "indexed": false,
          "internalType": "uint256",
          "name": "n",
          "type": "uint256"
        },
        {
          "indexed": false,
          "internalType": "uint256",
          "name": "_time",
          "type": "uint256"
        },
        {
          "indexed": false,
          "internalType": "uint256",
          "name": "_auction",
          "type": "uint256"
        },
        {
          "indexed": false,
          "internalType": "uint256",
          "name": "_startValue",
          "type": "uint256"
        },
        {
          "indexed": false,
          "internalType": "uint256",
          "name": "_highValue",
          "type": "uint256"
        },
        {
          "indexed": false,
          "internalType": "uint256",
          "name": "_overTime",
          "type": "uint256"
        },
        {
          "indexed": false,
          "internalType": "uint256",
          "name": "_status",
          "type": "uint256"
        }
      ],
      "name": "auctionStatus",
      "type": "event"
    },
    {
      "anonymous": false,
      "inputs": [
        {
          "indexed": false,
          "internalType": "address",
          "name": "_user",
          "type": "address"
        },
        {
          "indexed": false,
          "internalType": "uint256",
          "name": "n",
          "type": "uint256"
        },
        {
          "indexed": false,
          "internalType": "uint256",
          "name": "_sales",
          "type": "uint256"
        }
      ],
      "name": "personalAuction",
      "type": "event"
    },
    {
      "inputs": [],
      "name": "AUCTION_MANAGER",
      "outputs": [
        {
          "internalType": "bytes32",
          "name": "",
          "type": "bytes32"
        }
      ],
      "stateMutability": "view",
      "type": "function"
    },
    {
      "inputs": [],
      "name": "FOUNDATION_MANAGER",
      "outputs": [
        {
          "internalType": "bytes32",
          "name": "",
          "type": "bytes32"
        }
      ],
      "stateMutability": "view",
      "type": "function"
    },
    {
      "inputs": [],
      "name": "owner",
      "outputs": [
        {
          "internalType": "address",
          "name": "",
          "type": "address"
        }
      ],
      "stateMutability": "view",
      "type": "function"
    },
    {
      "inputs": [],
      "name": "renounceOwnership",
      "outputs": [],
      "stateMutability": "nonpayable",
      "type": "function"
    },
    {
      "inputs": [
        {
          "internalType": "address",
          "name": "newOwner",
          "type": "address"
        }
      ],
      "name": "transferOwnership",
      "outputs": [],
      "stateMutability": "nonpayable",
      "type": "function"
    },
    {
      "inputs": [
        {
          "internalType": "address",
          "name": "_rolesContract",
          "type": "address"
        },
        {
          "internalType": "address",
          "name": "_ustn",
          "type": "address"
        },
        {
          "internalType": "address",
          "name": "_ustnf",
          "type": "address"
        }
      ],
      "name": "initialize",
      "outputs": [],
      "stateMutability": "nonpayable",
      "type": "function"
    },
    {
      "inputs": [],
      "name": "queryAuctionManager",
      "outputs": [
        {
          "internalType": "address",
          "name": "",
          "type": "address"
        }
      ],
      "stateMutability": "view",
      "type": "function"
    },
    {
      "inputs": [
        {
          "internalType": "uint256",
          "name": "mortgage",
          "type": "uint256"
        },
        {
          "internalType": "uint256",
          "name": "debt",
          "type": "uint256"
        },
        {
          "internalType": "uint256",
          "name": "_debt",
          "type": "uint256"
        }
      ],
      "name": "auctionStart",
      "outputs": [
        {
          "components": [
            {
              "internalType": "uint256",
              "name": "sales",
              "type": "uint256"
            },
            {
              "internalType": "uint256",
              "name": "startValue",
              "type": "uint256"
            },
            {
              "internalType": "uint256",
              "name": "nowValue",
              "type": "uint256"
            },
            {
              "internalType": "uint256",
              "name": "timeOver",
              "type": "uint256"
            },
            {
              "internalType": "uint256",
              "name": "state",
              "type": "uint256"
            },
            {
              "internalType": "uint256",
              "name": "debt",
              "type": "uint256"
            }
          ],
          "internalType": "struct USTNAuction.auctions",
          "name": "",
          "type": "tuple"
        }
      ],
      "stateMutability": "nonpayable",
      "type": "function"
    },
    {
      "inputs": [],
      "name": "queryAuctions",
      "outputs": [
        {
          "components": [
            {
              "internalType": "uint256",
              "name": "sales",
              "type": "uint256"
            },
            {
              "internalType": "uint256",
              "name": "startValue",
              "type": "uint256"
            },
            {
              "internalType": "uint256",
              "name": "nowValue",
              "type": "uint256"
            },
            {
              "internalType": "uint256",
              "name": "timeOver",
              "type": "uint256"
            },
            {
              "internalType": "uint256",
              "name": "state",
              "type": "uint256"
            },
            {
              "internalType": "uint256",
              "name": "debt",
              "type": "uint256"
            }
          ],
          "internalType": "struct USTNAuction.auctions[]",
          "name": "",
          "type": "tuple[]"
        }
      ],
      "stateMutability": "view",
      "type": "function"
    },
    {
      "inputs": [
        {
          "internalType": "uint256",
          "name": "n",
          "type": "uint256"
        }
      ],
      "name": "queryBider",
      "outputs": [
        {
          "internalType": "address",
          "name": "",
          "type": "address"
        },
        {
          "internalType": "uint256",
          "name": "",
          "type": "uint256"
        }
      ],
      "stateMutability": "view",
      "type": "function"
    },
    {
      "inputs": [
        {
          "internalType": "uint256",
          "name": "n",
          "type": "uint256"
        },
        {
          "internalType": "uint256",
          "name": "bidAmount",
          "type": "uint256"
        }
      ],
      "name": "bid",
      "outputs": [
        {
          "internalType": "bool",
          "name": "",
          "type": "bool"
        }
      ],
      "stateMutability": "nonpayable",
      "type": "function"
    },
    {
      "inputs": [
        {
          "internalType": "uint256",
          "name": "n",
          "type": "uint256"
        }
      ],
      "name": "bidWithdrawal",
      "outputs": [
        {
          "internalType": "bool",
          "name": "",
          "type": "bool"
        }
      ],
      "stateMutability": "nonpayable",
      "type": "function"
    },
    {
      "inputs": [
        {
          "internalType": "uint256",
          "name": "n",
          "type": "uint256"
        }
      ],
      "name": "getAuction",
      "outputs": [
        {
          "internalType": "bool",
          "name": "",
          "type": "bool"
        }
      ],
      "stateMutability": "nonpayable",
      "type": "function"
    },
    {
      "inputs": [
        {
          "internalType": "uint256",
          "name": "n",
          "type": "uint256"
        }
      ],
      "name": "getAuctionBider",
      "outputs": [
        {
          "components": [
            {
              "internalType": "uint256",
              "name": "time",
              "type": "uint256"
            },
            {
              "internalType": "address",
              "name": "bider",
              "type": "address"
            },
            {
              "internalType": "uint256",
              "name": "value",
              "type": "uint256"
            }
          ],
          "internalType": "struct USTNAuction.auctionbider[]",
          "name": "",
          "type": "tuple[]"
        }
      ],
      "stateMutability": "view",
      "type": "function"
    },
    {
      "inputs": [],
      "name": "upgradeState",
      "outputs": [
        {
          "internalType": "bool",
          "name": "",
          "type": "bool"
        }
      ],
      "stateMutability": "nonpayable",
      "type": "function"
    }
  ],
  "bytecode": "0x608060405234801561001057600080fd5b50611bde806100206000396000f3fe608060405234801561001057600080fd5b50600436106100f55760003560e01c80638da5cb5b11610097578063bba1471a11610066578063bba1471a14610229578063c0c53b8b14610287578063ce369c611461029a578063f2fde38b146102ad57600080fd5b80638da5cb5b146101d4578063a1a6db51146101f9578063ab16687914610219578063ac295ae81461022157600080fd5b80636aec5287116100d35780636aec5287146101705780636d8bc0a914610190578063715018a6146101b757806378bd7935146101c157600080fd5b80631ee3effe146100fa57806339fb284e14610118578063598647f81461014d575b600080fd5b6101026102c0565b60405161010f9190611845565b60405180910390f35b61013f7fc55a74c743a5d6aff6a82963adf054e2367242c4a636870f26b8ee90910968d081565b60405190815260200161010f565b61016061015b3660046118c8565b61035b565b604051901515815260200161010f565b61018361017e3660046118ea565b6107b0565b60405161010f9190611916565b61013f7fd8e00efd67a9b34b6da7b941bb2d92f1c529ce28e67d637c0b137058422e066981565b6101bf610a10565b005b6101606101cf366004611959565b610a24565b6033546001600160a01b03165b6040516001600160a01b03909116815260200161010f565b61020c610207366004611959565b610ec8565b60405161010f9190611972565b610160610f5d565b6101e161116e565b610268610237366004611959565b600090815260666020908152604080832054606783528184206001600160a01b039091168085529252909120549091565b604080516001600160a01b03909316835260208301919091520161010f565b6101bf6102953660046119e9565b611263565b6101606102a8366004611959565b6114a8565b6101bf6102bb366004611a34565b6116c6565b60606065805480602002602001604051908101604052809291908181526020016000905b8282101561035257838290600052602060002090600602016040518060c00160405290816000820154815260200160018201548152602001600282015481526020016003820154815260200160048201548152602001600582015481525050815260200190600101906102e4565b50505050905090565b6000426065848154811061037157610371611a58565b906000526020600020906006020160030154116103d55760405162461bcd60e51b815260206004820152601c60248201527f5553544e41756374696f6e3a2061756374696f6e206973206f7665720000000060448201526064015b60405180910390fd5b60008381526067602090815260408083203384529091529020546103fa908390611a84565b6065848154811061040d5761040d611a58565b9060005260206000209060060201600201541061046c5760405162461bcd60e51b815260206004820152601e60248201527f5553544e41756374696f6e3a20626964206973206e6f7420656e6f756768000060448201526064016103cc565b606b54604051600162daa64560e01b03198152336004820152602481018490526001600160a01b039091169063ff2559bb906044016020604051808303816000875af11580156104c0573d6000803e3d6000fd5b505050506040513d601f19601f820116820180604052508101906104e49190611a9c565b6105305760405162461bcd60e51b815260206004820152601f60248201527f5553544e41756374696f6e3a205553544e206973206e6f7420656e6f7567680060448201526064016103cc565b600083815260696020908152604080832033845290915290205460ff166105e157600083815260696020908152604080832033808552908352818420805460ff191660019081179091558251606081018452428152808501928352808401888152898752606886529386208054808401825590875294909520945160039094029094019283555192820180546001600160a01b0319166001600160a01b039094169390931790925590516002909101555b600083815260666020908152604080832080546001600160a01b0319163390811790915560678352818420908452909152902054610620908390611a84565b6065848154811061063357610633611a58565b60009182526020808320600260069093020191909101929092558481526067825260408082203383529092529081208054849290610672908490611a84565b9091555050600083815260676020908152604080832033808552908352928190205481518781524293810193909352908201929092526060810191909152600160808201527ff5b11202cf0f6340500c9315b209b2821a25b76d8eed0b9ad801b2b137f36e769060a00160405180910390a1600080516020611b8983398151915283426065868154811061070857610708611a58565b9060005260206000209060060201600001546065878154811061072d5761072d611a58565b9060005260206000209060060201600101546065888154811061075257610752611a58565b9060005260206000209060060201600201546065898154811061077757610777611a58565b906000526020600020906006020160030154600260405161079e9796959493929190611abe565b60405180910390a15060015b92915050565b6107e96040518060c001604052806000815260200160008152602001600081526020016000815260200160008152602001600081525090565b606c546001600160a01b0316331461084e5760405162461bcd60e51b815260206004820152602260248201527f6f6e6c79205553544e2046696e616e636520636f6e747261637420616c6c6f77604482015261195960f21b60648201526084016103cc565b6108876040518060c001604052806000815260200160008152602001600081526020016000815260200160008152602001600081525090565b8481526020810184905260408101849052606a546108a59042611a84565b6060820190815260016080830181815260a08401868152606580548085018255600082905286517f8ff97419363ffd7000167f130ef7168fbea05faf9251824ca5043f113cc6a7c760069092029182015560208701517f8ff97419363ffd7000167f130ef7168fbea05faf9251824ca5043f113cc6a7c882015560408701517f8ff97419363ffd7000167f130ef7168fbea05faf9251824ca5043f113cc6a7c982015594517f8ff97419363ffd7000167f130ef7168fbea05faf9251824ca5043f113cc6a7ca86015591517f8ff97419363ffd7000167f130ef7168fbea05faf9251824ca5043f113cc6a7cb850155517f8ff97419363ffd7000167f130ef7168fbea05faf9251824ca5043f113cc6a7cc909301929092559054600080516020611b89833981519152916109d891611aee565b4287876000606a54426109eb9190611a84565b6001604051610a009796959493929190611abe565b60405180910390a1949350505050565b610a1861173f565b610a226000611799565b565b600060658281548110610a3957610a39611a58565b90600052602060002090600602016004015460021415610a9b5760405162461bcd60e51b815260206004820181905260248201527f5553544e41756374696f6e3a2061756374696f6e206973206e6f74206f76657260448201526064016103cc565b4260658381548110610aaf57610aaf611a58565b90600052602060002090600602016003015410610b0e5760405162461bcd60e51b815260206004820181905260248201527f5553544e41756374696f6e3a2061756374696f6e206973206e6f74206f76657260448201526064016103cc565b6000828152606660205260409020546001600160a01b03163314610b825760405162461bcd60e51b815260206004820152602560248201527f5553544e41756374696f6e3a20796f7520617265206e6f74206f776e6572206f6044820152641988189a5960da1b60648201526084016103cc565b606d54606580546001600160a01b0390921691634e18ce9291339186908110610bad57610bad611a58565b90600052602060002090600602016000015460658681548110610bd257610bd2611a58565b90600052602060002090600602016005015460658781548110610bf757610bf7611a58565b90600052602060002090600602016005015460658881548110610c1c57610c1c611a58565b906000526020600020906006020160010154610c389190611aee565b6040516001600160e01b031960e087901b1681526001600160a01b0390941660048501526024840192909252604483015260648201526084016020604051808303816000875af1158015610c90573d6000803e3d6000fd5b505050506040513d601f19601f82011682018060405250810190610cb49190611a9c565b50606b546001600160a01b0316639dc29fac610cce61116e565b60658581548110610ce157610ce1611a58565b60009182526020909120600160069092020101546040516001600160e01b031960e085901b1681526001600160a01b03909216600483015260248201526044016020604051808303816000875af1158015610d40573d6000803e3d6000fd5b505050506040513d601f19601f82011682018060405250810190610d649190611a9c565b50600260658381548110610d7a57610d7a611a58565b906000526020600020906006020160040181905550600080516020611b89833981519152824260658581548110610db357610db3611a58565b90600052602060002090600602016000015460658681548110610dd857610dd8611a58565b90600052602060002090600602016001015460658781548110610dfd57610dfd611a58565b90600052602060002090600602016002015460658881548110610e2257610e22611a58565b9060005260206000209060060201600301546003604051610e499796959493929190611abe565b60405180910390a17f3e4461fc305b43e853327778a75e6799ca60f65ba9dd1b208a86431835918b6f338360658581548110610e8757610e87611a58565b600091825260209182902060069091020154604080516001600160a01b039095168552918401929092528201526060015b60405180910390a1506001919050565b606060686000838152602001908152602001600020805480602002602001604051908101604052809291908181526020016000905b82821015610f525760008481526020908190206040805160608101825260038602909201805483526001808201546001600160a01b031684860152600290910154918301919091529083529092019101610efd565b505050509050919050565b606e54604051632474521560e21b81527fd8e00efd67a9b34b6da7b941bb2d92f1c529ce28e67d637c0b137058422e066960048201523360248201526000916001600160a01b0316906391d1485490604401602060405180830381865afa158015610fcc573d6000803e3d6000fd5b505050506040513d601f19601f82011682018060405250810190610ff09190611a9c565b61103c5760405162461bcd60e51b815260206004820152601e60248201527f6f6e6c7920466f756e646174696f6e4d616e6167657220616c6c6f776564000060448201526064016103cc565b60005b60655481101561116657426065828154811061105d5761105d611a58565b90600052602060002090600602016003015410801561109157506000818152606660205260409020546001600160a01b0316155b1561115457606a546110a39042611a84565b606582815481106110b6576110b6611a58565b906000526020600020906006020160030181905550600080516020611b898339815191528142606584815481106110ef576110ef611a58565b9060005260206000209060060201600001546065858154811061111457611114611a58565b9060005260206000209060060201600101546000606a54426111369190611a84565b600160405161114b9796959493929190611abe565b60405180910390a15b8061115e81611b05565b91505061103f565b506001905090565b606e54604051632404341f60e21b81527fc55a74c743a5d6aff6a82963adf054e2367242c4a636870f26b8ee90910968d060048201526000602482018190529182916001600160a01b0390911690639010d07c90604401602060405180830381865afa1580156111e2573d6000803e3d6000fd5b505050506040513d601f19601f820116820180604052508101906112069190611b20565b90506001600160a01b03811661125e5760405162461bcd60e51b815260206004820152601a60248201527f6e6f2061756374696f6e206d616e61676572207365742079657400000000000060448201526064016103cc565b919050565b600054610100900460ff16158080156112835750600054600160ff909116105b8061129d5750303b15801561129d575060005460ff166001145b6113005760405162461bcd60e51b815260206004820152602e60248201527f496e697469616c697a61626c653a20636f6e747261637420697320616c72656160448201526d191e481a5b9a5d1a585b1a5e995960921b60648201526084016103cc565b6000805460ff191660011790558015611323576000805461ff0019166101001790555b61132b6117eb565b6001600160a01b0384166113775760405162461bcd60e51b81526020600482015260136024820152721e995c9bc81c9bdb195cc818dbdb9d1c9858dd606a1b60448201526064016103cc565b6001600160a01b0383166113c25760405162461bcd60e51b81526020600482015260126024820152711e995c9bc81d5cdd1b8818dbdb9d1c9858dd60721b60448201526064016103cc565b6001600160a01b0382166114105760405162461bcd60e51b81526020600482015260156024820152741e995c9bc8199a5b985b98d94818dbdb9d1c9858dd605a1b60448201526064016103cc565b606e80546001600160a01b038087166001600160a01b031992831617909255606b8054868416908316179055606d805492851692821683179055606c80549091169091179055610258606a5580156114a2576000805461ff0019169055604051600181527f7f26b83ff96e1f2b6a682f133852f6798a09c465da95921460cefb38474024989060200160405180910390a15b50505050565b6000818152606660205260408120546001600160a01b03163314156115195760405162461bcd60e51b815260206004820152602160248201527f5553544e41756374696f6e3a20796f7520617265206f776e6572206f662062696044820152601960fa1b60648201526084016103cc565b600082815260676020908152604080832033845290915290205461157f5760405162461bcd60e51b815260206004820152601b60248201527f5553544e41756374696f6e3a206e6f205553544e206f6e20626964000000000060448201526064016103cc565b606b5460008381526067602090815260408083203380855292529182902054915163358a2c4d60e01b8152600481019190915260248101919091526001600160a01b039091169063358a2c4d906044016020604051808303816000875af11580156115ee573d6000803e3d6000fd5b505050506040513d601f19601f820116820180604052508101906116129190611a9c565b61165e5760405162461bcd60e51b815260206004820152601b60248201527f5553544e41756374696f6e3a206269644261636b206661696c6564000000000060448201526064016103cc565b60008281526067602090815260408083203380855290835281842084905581518681524293810193909352908201526060810191909152600260808201527ff5b11202cf0f6340500c9315b209b2821a25b76d8eed0b9ad801b2b137f36e769060a001610eb8565b6116ce61173f565b6001600160a01b0381166117335760405162461bcd60e51b815260206004820152602660248201527f4f776e61626c653a206e6577206f776e657220697320746865207a65726f206160448201526564647265737360d01b60648201526084016103cc565b61173c81611799565b50565b6033546001600160a01b03163314610a225760405162461bcd60e51b815260206004820181905260248201527f4f776e61626c653a2063616c6c6572206973206e6f7420746865206f776e657260448201526064016103cc565b603380546001600160a01b038381166001600160a01b0319831681179093556040519116919082907f8be0079c531659141344cd1fd0a4f28419497f9722a3daafe3b4186f6b6457e090600090a35050565b600054610100900460ff166118125760405162461bcd60e51b81526004016103cc90611b3d565b610a22600054610100900460ff1661183c5760405162461bcd60e51b81526004016103cc90611b3d565b610a2233611799565b6020808252825182820181905260009190848201906040850190845b818110156118bc576118a9838551805182526020810151602083015260408101516040830152606081015160608301526080810151608083015260a081015160a08301525050565b9284019260c09290920191600101611861565b50909695505050505050565b600080604083850312156118db57600080fd5b50508035926020909101359150565b6000806000606084860312156118ff57600080fd5b505081359360208301359350604090920135919050565b60c081016107aa8284805182526020810151602083015260408101516040830152606081015160608301526080810151608083015260a081015160a08301525050565b60006020828403121561196b57600080fd5b5035919050565b602080825282518282018190526000919060409081850190868401855b828110156119c757815180518552868101516001600160a01b031687860152850151858501526060909301929085019060010161198f565b5091979650505050505050565b6001600160a01b038116811461173c57600080fd5b6000806000606084860312156119fe57600080fd5b8335611a09816119d4565b92506020840135611a19816119d4565b91506040840135611a29816119d4565b809150509250925092565b600060208284031215611a4657600080fd5b8135611a51816119d4565b9392505050565b634e487b7160e01b600052603260045260246000fd5b634e487b7160e01b600052601160045260246000fd5b60008219821115611a9757611a97611a6e565b500190565b600060208284031215611aae57600080fd5b81518015158114611a5157600080fd5b968752602087019590955260408601939093526060850191909152608084015260a083015260c082015260e00190565b600082821015611b0057611b00611a6e565b500390565b6000600019821415611b1957611b19611a6e565b5060010190565b600060208284031215611b3257600080fd5b8151611a51816119d4565b6020808252602b908201527f496e697469616c697a61626c653a20636f6e7472616374206973206e6f74206960408201526a6e697469616c697a696e6760a81b60608201526080019056fe2949594d8e9da50179f8d3d496d7810a8e9202d1f07f3698933ebf9ce3c5fba2a26469706673582212206c2a1584a8a90c66847d8da238512ef00f3660e9a2025a6c1d9d51c231909f8264736f6c634300080a0033",
  "immutableReferences": {},
  "source": "// SPDX-License-Identifier: GPL-3.0\r\nimport \"@openzeppelin/contracts-upgradeable/proxy/utils/Initializable.sol\";\r\nimport \"@openzeppelin/contracts-upgradeable/access/OwnableUpgradeable.sol\";\r\nimport \"./USTNInterface.sol\";\r\nimport \"../Governance/IRoles.sol\";\r\n\r\npragma solidity ^0.8.0;\r\n\r\ninterface USTNFInterface{\r\n    function auctionOver(address bider, uint tokens, uint a, uint b)external returns(bool);\r\n}\r\n\r\ncontract USTNAuction is Initializable, OwnableUpgradeable{\r\n    //_extractStatus 1: not extracted 2: extracted\r\n    event auctionDetail(uint n, uint _time, address bider, uint _highValue, uint _extractStatus);\r\n    //_status 1:start 2:ing 3:over\r\n    event auctionStatus(uint n, uint _time, uint _auction, uint _startValue, uint _highValue, uint _overTime, uint _status);\r\n    event personalAuction(address _user, uint n, uint _sales);\r\n\r\n    struct auctions{\r\n        uint sales;\r\n        uint startValue;\r\n        uint nowValue;\r\n        uint timeOver;\r\n        uint state;\r\n        uint debt;\r\n    }\r\n    \r\n    auctions[] auctionList;\r\n    \r\n    struct auctionbider{\r\n        uint time;\r\n        address bider;\r\n        uint value;\r\n    }\r\n\r\n    bytes32 public constant FOUNDATION_MANAGER = keccak256(\"FOUNDATION_MANAGER\");\r\n    bytes32 public constant AUCTION_MANAGER = keccak256(\"AUCTION_MANAGER\");\r\n\r\n    mapping(uint => address) private bider;\r\n    mapping(uint => mapping(address => uint)) private bidValue;\r\n    mapping(uint => auctionbider[]) private bidUsers;\r\n    mapping(uint => mapping(address => bool))private  _bider;\r\n    uint private bidDuration;\r\n\r\n    USTNInterface private USTNget;\r\n\r\n    address private _ustnFinanceContract;\r\n    USTNFInterface private USTNFget;\r\n\r\n    IRoles private _roles;\r\n\r\n    //Set the related governance contract address\r\n    function initialize(address _rolesContract, address _ustn, address _ustnf) public initializer {\r\n        __Ownable_init();\r\n        \r\n        require(_rolesContract != address(0),\"zero roles contract\");\r\n        require(_ustn != address(0),\"zero ustn contract\");\r\n        require(_ustnf != address(0),\"zero finance contract\");\r\n\r\n        _roles = IRoles(_rolesContract);\r\n        \r\n        USTNget = USTNInterface(_ustn);\r\n        USTNFget = USTNFInterface(_ustnf);\r\n        _ustnFinanceContract = _ustnf;\r\n\r\n        bidDuration = 10 minutes;\r\n    }\r\n\r\n    modifier onlyUSTNFinance() {\r\n        require(msg.sender == _ustnFinanceContract,\"only USTN Finance contract allowed\");\r\n        _;\r\n    }\r\n\r\n    modifier onlyFoundationManager() {\r\n        require(_roles.hasRole(FOUNDATION_MANAGER, msg.sender),\"only FoundationManager allowed\");\r\n        _;\r\n    }\r\n\r\n    function queryAuctionManager()public view returns(address){\r\n        address manager = _roles.getRoleMember(AUCTION_MANAGER, 0);\r\n        require(manager != address(0),\"no auction manager set yet\");\r\n        return manager;\r\n    }\r\n\r\n    //Auction listing operation, triggered by USTNFinance contract\r\n    //mortgage is the number of UNITs in the auction, debt is the starting auction price, and _debt is the interest generated by the loan\r\n    function auctionStart(uint mortgage, uint debt, uint _debt)public onlyUSTNFinance() returns(auctions memory){\r\n        auctions memory auction;\r\n        auction.sales = mortgage;\r\n        auction.startValue = debt;\r\n        auction.nowValue = debt;\r\n        auction.timeOver = block.timestamp + bidDuration;\r\n        auction.state = 1;\r\n        auction.debt = _debt;\r\n        auctionList.push(auction);\r\n        \r\n        emit auctionStatus(auctionList.length - 1, block.timestamp, mortgage, debt, 0, block.timestamp + bidDuration, 1);\r\n        return auction;\r\n    }\r\n\r\n    //Query the information of all auction items\r\n    function queryAuctions()public view returns(auctions[] memory){\r\n        return auctionList;\r\n    }\r\n\r\n    //The winner of the n th auction item and the auction price of the winner\r\n    function queryBider(uint n)public view returns(address, uint){\r\n        return (bider[n], bidValue[n][bider[n]]);\r\n    }\r\n\r\n    function isbider(uint n, address pAddr)internal view returns(bool){\r\n        return _bider[n][pAddr];\r\n    }\r\n\r\n    //Bidding function, the n th auction item, the USTN of the bidAmount amount\r\n    function bid(uint n, uint bidAmount)public returns(bool){\r\n        require(auctionList[n].timeOver > block.timestamp, \"USTNAuction: auction is over\");\r\n        require(auctionList[n].nowValue < (bidValue[n][msg.sender] + bidAmount), \"USTNAuction: bid is not enough\");\r\n        require(USTNget.bidCost(msg.sender, bidAmount), \"USTNAuction: USTN is not enough\");\r\n        if(!isbider(n, msg.sender)){\r\n            _bider[n][msg.sender]=true;\r\n\r\n            auctionbider memory bi;\r\n            bi.time = block.timestamp;\r\n            bi.bider = msg.sender;\r\n            bi.value = bidAmount;\r\n            bidUsers[n].push(bi);\r\n        }\r\n\r\n        bider[n] = msg.sender;\r\n        auctionList[n].nowValue = bidValue[n][msg.sender] + bidAmount;\r\n        bidValue[n][msg.sender] += bidAmount;  \r\n        \r\n        emit auctionDetail(n, block.timestamp, msg.sender, bidValue[n][msg.sender], 1);\r\n        emit auctionStatus(n, block.timestamp, auctionList[n].sales, auctionList[n].startValue , auctionList[n].nowValue, auctionList[n].timeOver, 2);\r\n        return true;\r\n    }\r\n\r\n    //Retrieve the USTN bid for the n th auction item, which can only be called when it is not currently the highest price\r\n    function bidWithdrawal(uint n)public returns(bool){\r\n        require(bider[n] != msg.sender,\"USTNAuction: you are owner of bid\");\r\n        require(bidValue[n][msg.sender] > 0,\"USTNAuction: no USTN on bid\");\r\n        require(USTNget.bidBack(msg.sender, bidValue[n][msg.sender]), \"USTNAuction: bidBack failed\");\r\n        bidValue[n][msg.sender] = 0;\r\n        \r\n        emit auctionDetail(n, block.timestamp, msg.sender, bidValue[n][msg.sender], 2);\r\n        return true;\r\n    }\r\n\r\n    //Get the n th auction item and update the corresponding status at the same time\r\n    function getAuction(uint n)public returns(bool){\r\n        require(auctionList[n].state != 2,\"USTNAuction: auction is not over\");\r\n        require(auctionList[n].timeOver < block.timestamp, \"USTNAuction: auction is not over\");\r\n        require(bider[n] == msg.sender, \"USTNAuction: you are not owner of bid\");\r\n        USTNFget.auctionOver(msg.sender, auctionList[n].sales, auctionList[n].debt, auctionList[n].startValue - auctionList[n].debt);\r\n        USTNget.burn(queryAuctionManager(), auctionList[n].startValue);\r\n        auctionList[n].state = 2;\r\n        \r\n        emit auctionStatus(n, block.timestamp, auctionList[n].sales, auctionList[n].startValue , auctionList[n].nowValue, auctionList[n].timeOver, 3);\r\n        emit personalAuction(msg.sender, n, auctionList[n].sales);\r\n        return true;\r\n    }\r\n\r\n    //Get the addresses of all users who have participated in the bidding of the n th auction item\r\n    function getAuctionBider(uint n)public view returns(auctionbider[] memory){\r\n        return bidUsers[n];\r\n    }\r\n\r\n    //Update the status, when the auction time ends and there is no bid\r\n    //FoundationManager can update the time of the auction item and restart the auction\r\n    function upgradeState()public onlyFoundationManager() returns(bool){\r\n        for(uint a=0; a < auctionList.length;a++){\r\n            if(auctionList[a].timeOver < block.timestamp && bider[a]==address(0)){\r\n                auctionList[a].timeOver = block.timestamp + bidDuration;\r\n                emit auctionStatus(a, block.timestamp, auctionList[a].sales, auctionList[a].startValue, 0, block.timestamp + bidDuration, 1);\r\n            }\r\n        }\r\n        return true;\r\n    }\r\n}\r\n",
  "sourcePath": "D:\\work\\Treasurenet-contracts\\fork\\treasurenet-contracts\\contracts\\USTN\\USTNAuction.sol",
  "compiler": {
    "name": "solc",
    "version": "0.8.10+commit.fc410830.Emscripten.clang"
  },
  "schemaVersion": "3.4.16",
  "updatedAt": "2024-04-29T07:29:53.133Z",
  "devdoc": {
    "kind": "dev",
    "methods": {
      "owner()": {
        "details": "Returns the address of the current owner."
      },
      "renounceOwnership()": {
        "details": "Leaves the contract without owner. It will not be possible to call `onlyOwner` functions anymore. Can only be called by the current owner. NOTE: Renouncing ownership will leave the contract without an owner, thereby removing any functionality that is only available to the owner."
      },
      "transferOwnership(address)": {
        "details": "Transfers ownership of the contract to a new account (`newOwner`). Can only be called by the current owner."
      }
    },
    "version": 1
  },
  "userdoc": {
    "kind": "user",
    "methods": {},
    "version": 1
  }
}