{
  "contractName": "USTNFinance",
  "abi": [
    {
      "anonymous": false,
      "inputs": [
        {
          "indexed": false,
          "internalType": "uint8",
          "name": "version",
          "type": "uint8"
        }
      ],
      "name": "Initialized",
      "type": "event"
    },
    {
      "anonymous": false,
      "inputs": [
        {
          "indexed": true,
          "internalType": "address",
          "name": "previousOwner",
          "type": "address"
        },
        {
          "indexed": true,
          "internalType": "address",
          "name": "newOwner",
          "type": "address"
        }
      ],
      "name": "OwnershipTransferred",
      "type": "event"
    },
    {
      "anonymous": false,
      "inputs": [
        {
          "indexed": false,
          "internalType": "uint256",
          "name": "_time",
          "type": "uint256"
        },
        {
          "indexed": false,
          "internalType": "uint256",
          "name": "_type",
          "type": "uint256"
        },
        {
          "indexed": false,
          "internalType": "address",
          "name": "_user",
          "type": "address"
        },
        {
          "indexed": false,
          "internalType": "uint256",
          "name": "amount",
          "type": "uint256"
        }
      ],
      "name": "dwDetail",
      "type": "event"
    },
    {
      "anonymous": false,
      "inputs": [
        {
          "indexed": false,
          "internalType": "address",
          "name": "_user",
          "type": "address"
        },
        {
          "indexed": false,
          "internalType": "uint256",
          "name": "n",
          "type": "uint256"
        },
        {
          "indexed": false,
          "internalType": "uint256",
          "name": "_unitAmount",
          "type": "uint256"
        },
        {
          "indexed": false,
          "internalType": "uint256",
          "name": "_totalDebt",
          "type": "uint256"
        },
        {
          "indexed": false,
          "internalType": "uint256",
          "name": "_pledgeRate",
          "type": "uint256"
        },
        {
          "indexed": false,
          "internalType": "uint256",
          "name": "_status",
          "type": "uint256"
        },
        {
          "indexed": false,
          "internalType": "uint256",
          "name": "_operationStatus",
          "type": "uint256"
        },
        {
          "indexed": false,
          "internalType": "uint256",
          "name": "_ustn",
          "type": "uint256"
        },
        {
          "indexed": false,
          "internalType": "uint256",
          "name": "_unit",
          "type": "uint256"
        },
        {
          "indexed": false,
          "internalType": "uint256",
          "name": "_unitValue",
          "type": "uint256"
        },
        {
          "indexed": false,
          "internalType": "uint256",
          "name": "_pledgeRateBefore",
          "type": "uint256"
        }
      ],
      "name": "loanRecord",
      "type": "event"
    },
    {
      "inputs": [],
      "name": "AUCTION_MANAGER",
      "outputs": [
        {
          "internalType": "bytes32",
          "name": "",
          "type": "bytes32"
        }
      ],
      "stateMutability": "view",
      "type": "function"
    },
    {
      "inputs": [],
      "name": "FOUNDATION_MANAGER",
      "outputs": [
        {
          "internalType": "bytes32",
          "name": "",
          "type": "bytes32"
        }
      ],
      "stateMutability": "view",
      "type": "function"
    },
    {
      "inputs": [],
      "name": "bankLoanLimit",
      "outputs": [
        {
          "internalType": "uint256",
          "name": "",
          "type": "uint256"
        }
      ],
      "stateMutability": "view",
      "type": "function"
    },
    {
      "inputs": [],
      "name": "owner",
      "outputs": [
        {
          "internalType": "address",
          "name": "",
          "type": "address"
        }
      ],
      "stateMutability": "view",
      "type": "function"
    },
    {
      "inputs": [],
      "name": "renounceOwnership",
      "outputs": [],
      "stateMutability": "nonpayable",
      "type": "function"
    },
    {
      "inputs": [
        {
          "internalType": "address",
          "name": "newOwner",
          "type": "address"
        }
      ],
      "name": "transferOwnership",
      "outputs": [],
      "stateMutability": "nonpayable",
      "type": "function"
    },
    {
      "inputs": [],
      "name": "unit",
      "outputs": [
        {
          "internalType": "bytes32",
          "name": "",
          "type": "bytes32"
        }
      ],
      "stateMutability": "view",
      "type": "function"
    },
    {
      "inputs": [],
      "name": "ustn",
      "outputs": [
        {
          "internalType": "bytes32",
          "name": "",
          "type": "bytes32"
        }
      ],
      "stateMutability": "view",
      "type": "function"
    },
    {
      "inputs": [
        {
          "internalType": "uint256",
          "name": "tokens",
          "type": "uint256"
        }
      ],
      "name": "deposit",
      "outputs": [
        {
          "internalType": "bool",
          "name": "result",
          "type": "bool"
        }
      ],
      "stateMutability": "nonpayable",
      "type": "function"
    },
    {
      "inputs": [
        {
          "internalType": "uint256",
          "name": "tokens",
          "type": "uint256"
        }
      ],
      "name": "withdrawal",
      "outputs": [
        {
          "internalType": "bool",
          "name": "",
          "type": "bool"
        }
      ],
      "stateMutability": "nonpayable",
      "type": "function"
    },
    {
      "inputs": [],
      "name": "distributeDepositInterest",
      "outputs": [
        {
          "internalType": "bool",
          "name": "result",
          "type": "bool"
        }
      ],
      "stateMutability": "nonpayable",
      "type": "function"
    },
    {
      "inputs": [],
      "name": "queryDepositBalance",
      "outputs": [
        {
          "internalType": "uint256",
          "name": "balance",
          "type": "uint256"
        }
      ],
      "stateMutability": "view",
      "type": "function"
    },
    {
      "inputs": [
        {
          "internalType": "uint256",
          "name": "tokens",
          "type": "uint256"
        }
      ],
      "name": "loansRate",
      "outputs": [
        {
          "internalType": "uint256",
          "name": "",
          "type": "uint256"
        }
      ],
      "stateMutability": "view",
      "type": "function"
    },
    {
      "inputs": [],
      "name": "loans",
      "outputs": [
        {
          "internalType": "bool",
          "name": "",
          "type": "bool"
        }
      ],
      "stateMutability": "payable",
      "type": "function"
    },
    {
      "inputs": [
        {
          "internalType": "uint256",
          "name": "number",
          "type": "uint256"
        }
      ],
      "name": "addLoans",
      "outputs": [
        {
          "internalType": "bool",
          "name": "result",
          "type": "bool"
        }
      ],
      "stateMutability": "payable",
      "type": "function"
    },
    {
      "inputs": [
        {
          "internalType": "uint256",
          "name": "number",
          "type": "uint256"
        },
        {
          "internalType": "uint256",
          "name": "tokens",
          "type": "uint256"
        }
      ],
      "name": "loansBack",
      "outputs": [
        {
          "internalType": "bool",
          "name": "result",
          "type": "bool"
        }
      ],
      "stateMutability": "payable",
      "type": "function"
    },
    {
      "inputs": [],
      "name": "loanPossible",
      "outputs": [
        {
          "internalType": "uint256",
          "name": "",
          "type": "uint256"
        }
      ],
      "stateMutability": "view",
      "type": "function"
    },
    {
      "inputs": [],
      "name": "liquidation",
      "outputs": [
        {
          "internalType": "bool",
          "name": "result",
          "type": "bool"
        }
      ],
      "stateMutability": "nonpayable",
      "type": "function"
    },
    {
      "inputs": [
        {
          "internalType": "address",
          "name": "bider",
          "type": "address"
        },
        {
          "internalType": "uint256",
          "name": "tokens",
          "type": "uint256"
        },
        {
          "internalType": "uint256",
          "name": "a",
          "type": "uint256"
        },
        {
          "internalType": "uint256",
          "name": "b",
          "type": "uint256"
        }
      ],
      "name": "auctionOver",
      "outputs": [
        {
          "internalType": "bool",
          "name": "",
          "type": "bool"
        }
      ],
      "stateMutability": "nonpayable",
      "type": "function"
    },
    {
      "inputs": [],
      "name": "queryLoan",
      "outputs": [
        {
          "components": [
            {
              "internalType": "uint256",
              "name": "timestamp",
              "type": "uint256"
            },
            {
              "internalType": "uint256",
              "name": "initialDebt",
              "type": "uint256"
            },
            {
              "internalType": "uint256",
              "name": "mortgage",
              "type": "uint256"
            },
            {
              "internalType": "uint256",
              "name": "debt",
              "type": "uint256"
            },
            {
              "internalType": "uint256",
              "name": "interest",
              "type": "uint256"
            },
            {
              "internalType": "uint256",
              "name": "liquidationState",
              "type": "uint256"
            }
          ],
          "internalType": "struct USTNFinance.loanList[]",
          "name": "",
          "type": "tuple[]"
        }
      ],
      "stateMutability": "view",
      "type": "function"
    },
    {
      "inputs": [
        {
          "internalType": "address",
          "name": "_rolesContract",
          "type": "address"
        },
        {
          "internalType": "address",
          "name": "_parameterInfoContract",
          "type": "address"
        },
        {
          "internalType": "address",
          "name": "_oracleContract",
          "type": "address"
        },
        {
          "internalType": "address",
          "name": "_ustn",
          "type": "address"
        },
        {
          "internalType": "address",
          "name": "_ustna",
          "type": "address"
        }
      ],
      "name": "initialize",
      "outputs": [],
      "stateMutability": "nonpayable",
      "type": "function"
    },
    {
      "inputs": [],
      "name": "initialize",
      "outputs": [],
      "stateMutability": "nonpayable",
      "type": "function"
    },
    {
      "inputs": [],
      "name": "GetInitializeData",
      "outputs": [
        {
          "internalType": "bytes",
          "name": "",
          "type": "bytes"
        }
      ],
      "stateMutability": "pure",
      "type": "function"
    }
  ],
  "bytecode": "0x608060405234801561001057600080fd5b506137dd806100206000396000f3fe60806040526004361061013f5760003560e01c8063835fc6ca116100b6578063e0c9fe141161006f578063e0c9fe14146103a9578063e9946b20146103bf578063f0ce15b3146103c7578063f2dfbf66146103fb578063f2fde38b14610410578063f97ae0f31461043057600080fd5b8063835fc6ca146102b65780638da5cb5b146102d6578063907af6c0146102fe578063b6b55f2514610320578063c943002714610340578063d3d655f81461036057600080fd5b806339fb284e1161010857806339fb284e146101ef5780634e18ce921461022357806358aa0aa5146102435780636d8bc0a914610258578063715018a61461028c5780638129fc1c146102a157600080fd5b8062b37af614610144578063023a75c81461016c5780630960b0db1461017f5780631459457a146101a157806339536ccd146101c3575b600080fd5b610157610152366004613311565b610445565b60405190151581526020015b60405180910390f35b61015761017a36600461332a565b6107c4565b34801561018b57600080fd5b5061019461109f565b604051610163919061334c565b3480156101ad57600080fd5b506101c16101bc3660046133e0565b611145565b005b3480156101cf57600080fd5b50336000908152606960205260409020545b604051908152602001610163565b3480156101fb57600080fd5b506101e17fc55a74c743a5d6aff6a82963adf054e2367242c4a636870f26b8ee90910968d081565b34801561022f57600080fd5b5061015761023e366004613445565b611272565b34801561024f57600080fd5b506101576112fe565b34801561026457600080fd5b506101e17fd8e00efd67a9b34b6da7b941bb2d92f1c529ce28e67d637c0b137058422e066981565b34801561029857600080fd5b506101c1611768565b3480156102ad57600080fd5b506101c161177c565b3480156102c257600080fd5b506101576102d1366004613311565b611846565b3480156102e257600080fd5b506033546040516001600160a01b039091168152602001610163565b34801561030a57600080fd5b506101e160008051602061378883398151915281565b34801561032c57600080fd5b5061015761033b366004613311565b6119b2565b34801561034c57600080fd5b506101e161035b366004613311565b611bf3565b34801561036c57600080fd5b5061039c6040805160048152602481019091526020810180516001600160e01b031663204a7f0760e21b17905290565b604051610163919061347e565b3480156103b557600080fd5b506101e160655481565b610157611cf5565b3480156103d357600080fd5b506101e17f6b2eaf239744cd4b778792605555999cd30bc7cf612ac1235d92c5a818fb462381565b34801561040757600080fd5b50610157612148565b34801561041c57600080fd5b506101c161042b3660046134d3565b613009565b34801561043c57600080fd5b506065546101e1565b336000908152607160205260408120805483908110610466576104666134ee565b906000526020600020906006020160050154600214156104ba5760405162461bcd60e51b815260206004820152600a6024820152691b1a5c5d5a59185d195960b21b60448201526064015b60405180910390fd5b336000908152607160205260408120805461053f9190859081106104e0576104e06134ee565b90600052602060002090600602016002015460716000336001600160a01b03166001600160a01b031681526020019081526020016000208581548110610528576105286134ee565b90600052602060002090600602016003015461307f565b3360009081526071602052604090208054919250349185908110610565576105656134ee565b90600052602060002090600602016002016000828254610585919061351a565b909155505033600090815260716020526040812080546105f89190869081106105b0576105b06134ee565b90600052602060002090600602016002015460716000336001600160a01b03166001600160a01b031681526020019081526020016000208681548110610528576105286134ee565b9050607860009054906101000a90046001600160a01b03166001600160a01b0316633190afd36040518163ffffffff1660e01b8152600401602060405180830381865afa15801561064d573d6000803e3d6000fd5b505050506040513d601f19601f820116820180604052508101906106719190613532565b81106106b257336000908152607160205260408120805486908110610698576106986134ee565b9060005260206000209060060201600501819055506106ed565b336000908152607160205260409020805460019190869081106106d7576106d76134ee565b9060005260206000209060060201600501819055505b33600081815260716020526040902080546000805160206137688339815191529291879182908110610721576107216134ee565b90600052602060002090600602016002015460716000336001600160a01b03166001600160a01b031681526020019081526020016000208881548110610769576107696134ee565b906000526020600020906006020160030154856001600260003461079a6000805160206137888339815191526130e2565b8c6040516107b29b9a9998979695949392919061354b565b60405180910390a15060019392505050565b6075546040516370a0823160e01b815233600482015260009183916001600160a01b03909116906370a0823190602401602060405180830381865afa158015610811573d6000803e3d6000fd5b505050506040513d601f19601f820116820180604052508101906108359190613532565b101561084057600080fd5b336000908152607160205260409020805484908110610861576108616134ee565b906000526020600020906006020160050154600214156108b05760405162461bcd60e51b815260206004820152600a6024820152691b1a5c5d5a59185d195960b21b60448201526064016104b1565b3360009081526071602052604081208054859081106108d1576108d16134ee565b9060005260206000209060060201600301548310610b095760755433600081815260716020526040902080546001600160a01b039093169263b472790692919088908110610921576109216134ee565b60009182526020909120600360069092020101546040516001600160e01b031960e085901b1681526001600160a01b03909216600483015260248201526044016020604051808303816000875af1158015610980573d6000803e3d6000fd5b505050506040513d601f19601f820116820180604052508101906109a491906135a4565b503360009081526071602052604090208054859081106109c6576109c66134ee565b90600052602060002090600602016004015460716000336001600160a01b03166001600160a01b031681526020019081526020016000208581548110610a0e57610a0e6134ee565b906000526020600020906006020160030154610a2a91906135c6565b60656000828254610a3b919061351a565b9091555050336000908152607160205260408120805486908110610a6157610a616134ee565b6000918252602080832060036006909302019190910192909255338152607190915260408120805486908110610a9957610a996134ee565b906000526020600020906006020160040181905550600260716000336001600160a01b03166001600160a01b031681526020019081526020016000208581548110610ae657610ae66134ee565b600091825260209091206005600690920201015550670de0b6b3a7640000610ef9565b607554604051635a393c8360e11b8152336004820152602481018590526001600160a01b039091169063b4727906906044016020604051808303816000875af1158015610b5a573d6000803e3d6000fd5b505050506040513d601f19601f82011682018060405250810190610b7e91906135a4565b50336000908152607160205260408120805486908110610ba057610ba06134ee565b9060005260206000209060060201600401541115610e4557336000908152607160205260409020805484919086908110610bdc57610bdc6134ee565b90600052602060002090600602016004015411610d6c57336000908152607160205260409020805485908110610c1457610c146134ee565b906000526020600020906006020160030154670de0b6b3a764000084610c3a91906135dd565b610c4491906135fc565b33600090815260716020526040902080549192509085908110610c6957610c696134ee565b90600052602060002090600602016004015483610c8691906135c6565b60656000828254610c97919061351a565b9091555050336000908152607160205260408120805486908110610cbd57610cbd6134ee565b6000918252602080832060046006909302019190910192909255338152607190915260409020805485908110610cf557610cf56134ee565b906000526020600020906006020160040154606e6000828254610d1891906135c6565b9091555050336000908152607160205260409020805484919086908110610d4157610d416134ee565b90600052602060002090600602016003016000828254610d6191906135c6565b90915550610ef99050565b336000908152607160205260409020805484919086908110610d9057610d906134ee565b90600052602060002090600602016004016000828254610db091906135c6565b9250508190555082606e6000828254610dc991906135c6565b9091555050336000908152607160205260409020805485908110610def57610def6134ee565b906000526020600020906006020160030154670de0b6b3a764000084610e1591906135dd565b610e1f91906135fc565b3360009081526071602052604090208054919250849186908110610d4157610d416134ee565b8260656000828254610e57919061351a565b9091555050336000908152607160205260409020805485908110610e7d57610e7d6134ee565b906000526020600020906006020160030154670de0b6b3a764000084610ea391906135dd565b610ead91906135fc565b3360009081526071602052604090208054919250849186908110610ed357610ed36134ee565b90600052602060002090600602016003016000828254610ef391906135c6565b90915550505b3360009081526071602052604081208054670de0b6b3a764000091849188908110610f2657610f266134ee565b906000526020600020906006020160020154610f4291906135dd565b610f4c91906135fc565b604051909150339082156108fc029083906000818181858888f19350505050158015610f7c573d6000803e3d6000fd5b50336000908152607160205260409020805482919087908110610fa157610fa16134ee565b90600052602060002090600602016002016000828254610fc191906135c6565b909155505033600081815260716020526040902080546000805160206137688339815191529291889182908110610ffa57610ffa6134ee565b90600052602060002090600602016002015460716000336001600160a01b03166001600160a01b031681526020019081526020016000208981548110611042576110426134ee565b9060005260206000209060060201600301546000600160038b896110736000805160206137888339815191526130e2565b600060405161108c9b9a9998979695949392919061354b565b60405180910390a1506001949350505050565b336000908152607160209081526040808320805482518185028101850190935280835260609492939192909184015b8282101561113c57838290600052602060002090600602016040518060c00160405290816000820154815260200160018201548152602001600282015481526020016003820154815260200160048201548152602001600582015481525050815260200190600101906110ce565b50505050905090565b600054610100900460ff16158080156111655750600054600160ff909116105b8061117f5750303b15801561117f575060005460ff166001145b61119b5760405162461bcd60e51b81526004016104b19061361e565b6000805460ff1916600117905580156111be576000805461ff0019166101001790555b607780546001600160a01b038089166001600160a01b0319928316179092556078805488841690831617905560748054878416908316179055607580548684169083161790556076805492851692821683179055607380549091169091179055610258607255801561126a576000805461ff0019169055604051600181527f7f26b83ff96e1f2b6a682f133852f6798a09c465da95921460cefb38474024989060200160405180910390a15b505050505050565b6073546000906001600160a01b0316331461128c57600080fd5b6040516001600160a01b0386169085156108fc029086906000818181858888f193505050501580156112c2573d6000803e3d6000fd5b5082606e60008282546112d591906135c6565b9250508190555081606560008282546112ee919061351a565b9091555060019695505050505050565b607754604051632474521560e21b81527fd8e00efd67a9b34b6da7b941bb2d92f1c529ce28e67d637c0b137058422e06696004820181905233602483015260009290916001600160a01b03909116906391d1485490604401602060405180830381865afa158015611373573d6000803e3d6000fd5b505050506040513d601f19601f8201168201806040525081019061139791906135a4565b6113d35760405162461bcd60e51b815260206004820152600d60248201526c3737903832b936b4b9b9b4b7b760991b60448201526064016104b1565b6000805b60675481101561154b57426066819055506000607254606a600060678581548110611404576114046134ee565b60009182526020808320909101546001600160a01b0316835282019290925260400190205460665461143691906135c6565b61144091906135fc565b905080606960006067858154811061145a5761145a6134ee565b60009182526020808320909101546001600160a01b0316835282019290925260400190205461148991906135dd565b606b6000606785815481106114a0576114a06134ee565b60009182526020808320909101546001600160a01b03168352820192909252604001812080549091906114d490849061351a565b90915550506072546114e690826135dd565b606a6000606785815481106114fd576114fd6134ee565b60009182526020808320909101546001600160a01b031683528201929092526040018120805490919061153190849061351a565b9091555082915061154390508161366c565b9150506113d7565b5060005b6067548110156115b357606b600060678381548110611570576115706134ee565b60009182526020808320909101546001600160a01b0316835282019290925260400190205461159f908361351a565b9150806115ab8161366c565b91505061154f565b5060005b6067548110156117595781606b6000606784815481106115d9576115d96134ee565b60009182526020808320909101546001600160a01b03168352820192909252604001902054606d5461160b91906135dd565b61161591906135fc565b606960006067848154811061162c5761162c6134ee565b60009182526020808320909101546001600160a01b031683528201929092526040018120805490919061166090849061351a565b925050819055507f6016572e100109b5b9c443cc14076058c842973f4d86ddba91813774f2d355054260036067848154811061169e5761169e6134ee565b9060005260206000200160009054906101000a90046001600160a01b031685606b6000606788815481106116d4576116d46134ee565b60009182526020808320909101546001600160a01b03168352820192909252604001902054606d5461170691906135dd565b61171091906135fc565b60405161173f949392919093845260208401929092526001600160a01b03166040830152606082015260800190565b60405180910390a1806117518161366c565b9150506115b7565b50506000606d55600191505090565b611770613156565b61177a60006131b0565b565b600054610100900460ff161580801561179c5750600054600160ff909116105b806117b65750303b1580156117b6575060005460ff166001145b6117d25760405162461bcd60e51b81526004016104b19061361e565b6000805460ff1916600117905580156117f5576000805461ff0019166101001790555b6117fd613202565b8015611843576000805461ff0019169055604051600181527f7f26b83ff96e1f2b6a682f133852f6798a09c465da95921460cefb38474024989060200160405180910390a15b50565b336000908152606960205260408120548211156118a55760405162461bcd60e51b815260206004820152601a60248201527f6465706f7369742062616c616e6365206e6f7420656e6f75676800000000000060448201526064016104b1565b33600090815260696020526040812080548492906118c49084906135c6565b909155506118d3905082613231565b606560008282546118e491906135c6565b90915550506075546040516310f29c1d60e11b8152336004820152602481018490526001600160a01b03909116906321e5383a906044016020604051808303816000875af115801561193a573d6000803e3d6000fd5b505050506040513d601f19601f8201168201806040525081019061195e91906135a4565b5060408051428152600260208201523391810191909152606081018390527f6016572e100109b5b9c443cc14076058c842973f4d86ddba91813774f2d35505906080015b60405180910390a1506001919050565b6000633b9aca008210158015611a3357506075546040516370a0823160e01b81523360048201526001600160a01b03909116906370a0823190602401602060405180830381865afa158015611a0b573d6000803e3d6000fd5b505050506040513d601f19601f82011682018060405250810190611a2f9190613532565b8211155b611a745760405162461bcd60e51b81526020600482015260126024820152710c4c2d8c2dcc6ca40dcdee840cadcdeeaced60731b60448201526064016104b1565b3360009081526068602052604090205460ff16611af257336000818152606860209081526040808320805460ff191660019081179091556067805491820190557f9787eeb91fe3101235e4a76063c7023ecb40f923f97916639c598592fa30d6ae0180546001600160a01b03191685179055928252606a9052204290555b607554604051635a393c8360e11b8152336004820152602481018490526001600160a01b039091169063b4727906906044016020604051808303816000875af1158015611b43573d6000803e3d6000fd5b505050506040513d601f19601f82011682018060405250810190611b6791906135a4565b503360009081526069602052604081208054849290611b8790849061351a565b90915550611b96905082613231565b60656000828254611ba7919061351a565b909155505060408051428152600160208201523391810191909152606081018390527f6016572e100109b5b9c443cc14076058c842973f4d86ddba91813774f2d35505906080016119a2565b607854604051634629209360e01b815260206004820152600e60248201526d6c6f616e506c656467655261746560901b60448201526000918291612710916001600160a01b031690634629209390606401602060405180830381865afa158015611c61573d6000803e3d6000fd5b505050506040513d601f19601f82011682018060405250810190611c859190613532565b611cae7f6b2eaf239744cd4b778792605555999cd30bc7cf612ac1235d92c5a818fb46236130e2565b85611cc66000805160206137888339815191526130e2565b611cd091906135dd565b611cda91906135fc565b611ce491906135dd565b611cee91906135fc565b9392505050565b6000633b9aca003410158015611d155750606554611d1234611bf3565b11155b611d1e57600080fd5b3360009081526070602052604090205460ff16611d9257336000818152607060205260408120805460ff19166001908117909155606f805491820181559091527f39f2babe526038520877fc7c33d81accf578af4a06c5fa6b0d038cae36e127110180546001600160a01b03191690911790555b6000611d9d34611bf3565b607854604051634629209360e01b815260206004820152601060248201526f6c6f616e496e7465726573745261746560801b6044820152919250600091612710916001600160a01b031690634629209390606401602060405180830381865afa158015611e0e573d6000803e3d6000fd5b505050506040513d601f19601f82011682018060405250810190611e329190613532565b611e3c90846135dd565b611e4691906135fc565b9050611e816040518060c001604052806000815260200160008152602001600081526020016000815260200160008152602001600081525090565b4281526020810183905234604082015260808101829052611ea2828461351a565b60608201908152600060a0830181815233825260716020908152604080842080546001818101835591865283862088516006909202019081559287015190830155850151600282015592516003840155608084015160048401555160059092019190915560658054859290611f189084906135c6565b90915550506075546040516310f29c1d60e11b8152336004820152602481018590526001600160a01b03909116906321e5383a906044016020604051808303816000875af1158015611f6e573d6000803e3d6000fd5b505050506040513d601f19601f82011682018060405250810190611f9291906135a4565b5081606d6000828254611fa5919061351a565b90915550506075546001600160a01b031663e468688e611fc5848661351a565b6040518263ffffffff1660e01b8152600401611fe391815260200190565b6020604051808303816000875af1158015612002573d6000803e3d6000fd5b505050506040513d601f19601f8201168201806040525081019061202691906135a4565b5081606e6000828254612039919061351a565b909155505033600081815260716020526040902054600080516020613768833981519152919061206b906001906135c6565b34612076868861351a565b607854604051634629209360e01b815260206004820152600e60248201526d6c6f616e506c656467655261746560901b60448201526001600160a01b0390911690634629209390606401602060405180830381865afa1580156120dd573d6000803e3d6000fd5b505050506040513d601f19601f820116820180604052508101906121019190613532565b6001808a3461211d6000805160206137888339815191526130e2565b60006040516121369b9a9998979695949392919061354b565b60405180910390a16001935050505090565b607754604051632474521560e21b8152702337bab73230ba34b7b726b0b730b3b2b960791b6004820181905233602483015260009290916001600160a01b03909116906391d1485490604401602060405180830381865afa1580156121b1573d6000803e3d6000fd5b505050506040513d601f19601f820116820180604052508101906121d591906135a4565b6122115760405162461bcd60e51b815260206004820152600d60248201526c3737903832b936b4b9b9b4b7b760991b60448201526064016104b1565b42606c5560005b606f548110156128875760005b60716000606f848154811061223c5761223c6134ee565b60009182526020808320909101546001600160a01b0316835282019290925260400190205481101561287457600060725460716000606f8681548110612284576122846134ee565b60009182526020808320909101546001600160a01b0316835282019290925260400190208054849081106122ba576122ba6134ee565b906000526020600020906006020160000154606c546122d991906135c6565b6122e391906135fc565b9050607254816122f391906135dd565b60716000606f868154811061230a5761230a6134ee565b60009182526020808320909101546001600160a01b031683528201929092526040019020805484908110612340576123406134ee565b90600052602060002090600602016000016000828254612360919061351a565b92505081905550600060716000606f8681548110612380576123806134ee565b60009182526020808320909101546001600160a01b0316835282019290925260400190208054849081106123b6576123b66134ee565b90600052602060002090600602016005015460021461285f575b811561268757607854604051634629209360e01b815260206004820152601060248201526f6c6f616e496e7465726573745261746560801b6044820152600091612710916001600160a01b0390911690634629209390606401602060405180830381865afa158015612446573d6000803e3d6000fd5b505050506040513d601f19601f8201168201806040525081019061246a9190613532565b60716000606f8981548110612481576124816134ee565b60009182526020808320909101546001600160a01b0316835282019290925260400190208054879081106124b7576124b76134ee565b9060005260206000209060060201600301546124d391906135dd565b6124dd91906135fc565b905080606d60008282546124f1919061351a565b9250508190555080606e600082825461250a919061351a565b9091555050607554604051637234344760e11b8152600481018390526001600160a01b039091169063e468688e906024016020604051808303816000875af115801561255a573d6000803e3d6000fd5b505050506040513d601f19601f8201168201806040525081019061257e91906135a4565b508060716000606f8881548110612597576125976134ee565b60009182526020808320909101546001600160a01b0316835282019290925260400190208054869081106125cd576125cd6134ee565b906000526020600020906006020160040160008282546125ed919061351a565b925050819055508060716000606f888154811061260c5761260c6134ee565b60009182526020808320909101546001600160a01b031683528201929092526040019020805486908110612642576126426134ee565b90600052602060002090600602016003016000828254612662919061351a565b909155506126729050818361351a565b91508261267e81613687565b935050506123d0565b600080516020613768833981519152606f85815481106126a9576126a96134ee565b9060005260206000200160009054906101000a90046001600160a01b03168460716000606f89815481106126df576126df6134ee565b60009182526020808320909101546001600160a01b031683528201929092526040019020805487908110612715576127156134ee565b90600052602060002090600602016002015460716000606f8a8154811061273e5761273e6134ee565b60009182526020808320909101546001600160a01b031683528201929092526040019020805488908110612774576127746134ee565b90600052602060002090600602016003015461283560716000606f8c815481106127a0576127a06134ee565b60009182526020808320909101546001600160a01b03168352820192909252604001902080548a9081106127d6576127d66134ee565b90600052602060002090600602016002015460716000606f8d815481106127ff576127ff6134ee565b60009182526020808320909101546001600160a01b03168352820192909252604001902080548b908110610528576105286134ee565b600160048860008060006040516128569b9a9998979695949392919061354b565b60405180910390a15b5050808061286c9061366c565b915050612225565b508061287f8161366c565b915050612218565b5060005b606f548110156130005760005b60716000606f84815481106128af576128af6134ee565b60009182526020808320909101546001600160a01b03168352820192909252604001902054811015612fed5760716000606f84815481106128f2576128f26134ee565b60009182526020808320909101546001600160a01b031683528201929092526040019020805482908110612928576129286134ee565b906000526020600020906006020160050154600214612fdb5760006129f260716000606f868154811061295d5761295d6134ee565b60009182526020808320909101546001600160a01b031683528201929092526040019020805484908110612993576129936134ee565b90600052602060002090600602016002015460716000606f87815481106129bc576129bc6134ee565b60009182526020808320909101546001600160a01b031683528201929092526040019020805485908110610528576105286134ee565b9050607860009054906101000a90046001600160a01b03166001600160a01b0316633190afd36040518163ffffffff1660e01b8152600401602060405180830381865afa158015612a47573d6000803e3d6000fd5b505050506040513d601f19601f82011682018060405250810190612a6b9190613532565b8111612f7457607860009054906101000a90046001600160a01b03166001600160a01b031663be6f2d6e6040518163ffffffff1660e01b8152600401602060405180830381865afa158015612ac4573d6000803e3d6000fd5b505050506040513d601f19601f82011682018060405250810190612ae89190613532565b8110612b5357600160716000606f8681548110612b0757612b076134ee565b60009182526020808320909101546001600160a01b031683528201929092526040019020805484908110612b3d57612b3d6134ee565b9060005260206000209060060201600501819055505b607860009054906101000a90046001600160a01b03166001600160a01b031663be6f2d6e6040518163ffffffff1660e01b8152600401602060405180830381865afa158015612ba6573d6000803e3d6000fd5b505050506040513d601f19601f82011682018060405250810190612bca9190613532565b811015612ddd57600260716000606f8681548110612bea57612bea6134ee565b60009182526020808320909101546001600160a01b031683528201929092526040019020805484908110612c2057612c206134ee565b60009182526020822060056006909202010191909155607654606f80546001600160a01b0390921692636aec5287926071929088908110612c6357612c636134ee565b60009182526020808320909101546001600160a01b031683528201929092526040019020805485908110612c9957612c996134ee565b90600052602060002090600602016002015460716000606f8881548110612cc257612cc26134ee565b60009182526020808320909101546001600160a01b031683528201929092526040019020805486908110612cf857612cf86134ee565b90600052602060002090600602016003015460716000606f8981548110612d2157612d216134ee565b60009182526020808320909101546001600160a01b031683528201929092526040019020805487908110612d5757612d576134ee565b9060005260206000209060060201600401546040518463ffffffff1660e01b8152600401612d98939291909283526020830191909152604082015260600190565b60a0604051808303816000875af1158015612db7573d6000803e3d6000fd5b505050506040513d601f19601f82011682018060405250810190612ddb919061369e565b505b600080516020613768833981519152606f8481548110612dff57612dff6134ee565b9060005260206000200160009054906101000a90046001600160a01b03168360716000606f8881548110612e3557612e356134ee565b60009182526020808320909101546001600160a01b031683528201929092526040019020805486908110612e6b57612e6b6134ee565b90600052602060002090600602016002015460716000606f8981548110612e9457612e946134ee565b60009182526020808320909101546001600160a01b031683528201929092526040019020805487908110612eca57612eca6134ee565b9060005260206000209060060201600301548560716000606f8b81548110612ef457612ef46134ee565b60009182526020808320909101546001600160a01b031683528201929092526040019020805489908110612f2a57612f2a6134ee565b9060005260206000209060060201600501546001612f48919061351a565b6005600080600080604051612f679b9a9998979695949392919061354b565b60405180910390a1612fd9565b600060716000606f8681548110612f8d57612f8d6134ee565b60009182526020808320909101546001600160a01b031683528201929092526040019020805484908110612fc357612fc36134ee565b9060005260206000209060060201600501819055505b505b80612fe58161366c565b915050612898565b5080612ff88161366c565b91505061288b565b50600191505090565b613011613156565b6001600160a01b0381166130765760405162461bcd60e51b815260206004820152602660248201527f4f776e61626c653a206e6577206f776e657220697320746865207a65726f206160448201526564647265737360d01b60648201526084016104b1565b611843816131b0565b60006130aa7f6b2eaf239744cd4b778792605555999cd30bc7cf612ac1235d92c5a818fb46236130e2565b826130c26000805160206137888339815191526130e2565b6130cc90866135dd565b6130d8906127106135dd565b611ce491906135fc565b6074546040516366ba954f60e01b8152600481018390526000916001600160a01b0316906366ba954f90602401602060405180830381865afa15801561312c573d6000803e3d6000fd5b505050506040513d601f19601f820116820180604052508101906131509190613532565b92915050565b6033546001600160a01b0316331461177a5760405162461bcd60e51b815260206004820181905260248201527f4f776e61626c653a2063616c6c6572206973206e6f7420746865206f776e657260448201526064016104b1565b603380546001600160a01b038381166001600160a01b0319831681179093556040519116919082907f8be0079c531659141344cd1fd0a4f28419497f9722a3daafe3b4186f6b6457e090600090a35050565b600054610100900460ff166132295760405162461bcd60e51b81526004016104b19061371c565b61177a6132e1565b607854604051634629209360e01b815260206004820152600c60248201526b72657365727665526174696f60a01b6044820152600091612710916001600160a01b0390911690634629209390606401602060405180830381865afa15801561329d573d6000803e3d6000fd5b505050506040513d601f19601f820116820180604052508101906132c19190613532565b6132cd906127106135c6565b6132d790846135dd565b61315091906135fc565b600054610100900460ff166133085760405162461bcd60e51b81526004016104b19061371c565b61177a336131b0565b60006020828403121561332357600080fd5b5035919050565b6000806040838503121561333d57600080fd5b50508035926020909101359150565b602080825282518282018190526000919060409081850190868401855b828110156133b75781518051855286810151878601528581015186860152606080820151908601526080808201519086015260a0908101519085015260c09093019290850190600101613369565b5091979650505050505050565b80356001600160a01b03811681146133db57600080fd5b919050565b600080600080600060a086880312156133f857600080fd5b613401866133c4565b945061340f602087016133c4565b935061341d604087016133c4565b925061342b606087016133c4565b9150613439608087016133c4565b90509295509295909350565b6000806000806080858703121561345b57600080fd5b613464856133c4565b966020860135965060408601359560600135945092505050565b600060208083528351808285015260005b818110156134ab5785810183015185820160400152820161348f565b818111156134bd576000604083870101525b50601f01601f1916929092016040019392505050565b6000602082840312156134e557600080fd5b611cee826133c4565b634e487b7160e01b600052603260045260246000fd5b634e487b7160e01b600052601160045260246000fd5b6000821982111561352d5761352d613504565b500190565b60006020828403121561354457600080fd5b5051919050565b6001600160a01b039b909b168b5260208b019990995260408a01979097526060890195909552608088019390935260a087019190915260c086015260e08501526101008401526101208301526101408201526101600190565b6000602082840312156135b657600080fd5b81518015158114611cee57600080fd5b6000828210156135d8576135d8613504565b500390565b60008160001904831182151516156135f7576135f7613504565b500290565b60008261361957634e487b7160e01b600052601260045260246000fd5b500490565b6020808252602e908201527f496e697469616c697a61626c653a20636f6e747261637420697320616c72656160408201526d191e481a5b9a5d1a585b1a5e995960921b606082015260800190565b600060001982141561368057613680613504565b5060010190565b60008161369657613696613504565b506000190190565b600060a082840312156136b057600080fd5b60405160a0810181811067ffffffffffffffff821117156136e157634e487b7160e01b600052604160045260246000fd5b806040525082518152602083015160208201526040830151604082015260608301516060820152608083015160808201528091505092915050565b6020808252602b908201527f496e697469616c697a61626c653a20636f6e7472616374206973206e6f74206960408201526a6e697469616c697a696e6760a81b60608201526080019056fec442c23b1ed634ed765f4d7648b5678def4df5486c8e0154880bb7bdb959776808c17eca0e87ee0a14268fdd7a46d674b41ae71d220d9794f7605ab1776c1821a26469706673582212208ec4d4ec85968fa4b6d9a440b06313d3407e6c8df5abe49362f9aeb274a48bab64736f6c634300080a0033",
  "immutableReferences": {},
  "source": "// SPDX-License-Identifier: GPL-3.0\r\nimport \"@openzeppelin/contracts-upgradeable/proxy/utils/Initializable.sol\";\r\nimport \"@openzeppelin/contracts-upgradeable/access/OwnableUpgradeable.sol\";\r\nimport \"./USTNInterface.sol\";\r\nimport \"../Oracle/IOracle.sol\";\r\nimport \"../Governance/IRoles.sol\";\r\nimport \"../Governance/IParameterInfo.sol\";\r\n\r\npragma solidity ^0.8.0;\r\n\r\ninterface USTNAInterface {\r\n    struct auctions {\r\n        uint sales;\r\n        uint startValue;\r\n        uint nowValue;\r\n        uint timeOver;\r\n        uint state;\r\n    }\r\n\r\n    function auctionStart(uint mortgage, uint debt, uint _debt) external returns (auctions memory);\r\n}\r\n\r\ncontract USTNFinance is Initializable, OwnableUpgradeable {\r\n    //_repaymentStatus:1:to be repaid 2:paid off\r\n    //_status: 1: Normal 2: Warning 3: Clearing\r\n    //_operationStatus: 1: Loan 2: Increase position 3: Repay loan 4: Interest calculation 5: Liquidation\r\n    event loanRecord(address _user, uint n, uint _unitAmount, uint _totalDebt, uint _pledgeRate, uint _status, uint _operationStatus, uint _ustn, uint _unit, uint _unitValue, uint _pledgeRateBefore);\r\n    //_type: deposit:1 withdrawal:2 interest:3\r\n    event dwDetail(uint _time, uint _type, address _user, uint amount);\r\n\r\n    struct loanList {\r\n        uint timestamp;\r\n        uint initialDebt;\r\n        uint mortgage;\r\n        uint debt;\r\n        uint interest;\r\n        uint liquidationState;\r\n    }\r\n\r\n    // currency\r\n    bytes32 public constant unit = keccak256(\"UNIT\");\r\n    bytes32 public constant ustn = keccak256(\"USTN\");\r\n\r\n    bytes32 public constant AUCTION_MANAGER = keccak256(\"AUCTION_MANAGER\");\r\n    bytes32 public constant FOUNDATION_MANAGER = keccak256(\"FOUNDATION_MANAGER\");\r\n\r\n    uint256 public bankLoanLimit;\r\n    uint256 private userCurrentTime;\r\n    address[] private depositUsers;\r\n    mapping(address => bool) depositers;\r\n    mapping(address => uint256) userDepositBalances;\r\n    mapping(address => uint256) userPastTime;\r\n    mapping(address => uint256) userDepositPoint;\r\n\r\n    uint256 userLoansCurrentTime;\r\n    uint256 loansTotalInterest;  //every loans provide total interest per day\r\n    uint256 interestMint;\r\n    address[] private loanUsers; //loan user list\r\n    mapping(address => bool) loaners;\r\n    mapping(address => loanList[]) loanAccount;\r\n    uint private liquidationTime;\r\n    uint constant multiple = 10 ** 18;\r\n    address private ustnAuction;\r\n\r\n    IOracle private getValue;\r\n    USTNInterface private USTNget;\r\n    USTNAInterface private USTNAget;\r\n\r\n    IRoles private _roles;\r\n    IParameterInfo private getRatio;\r\n\r\n    modifier onlyUser(bytes32 _name){\r\n        require(_roles.hasRole(_name, msg.sender), \"no permission\");\r\n        _;\r\n    }\r\n\r\n    function initialize(address _rolesContract, address _parameterInfoContract, address _oracleContract, address _ustn, address _ustna) public initializer {\r\n        _roles = IRoles(_rolesContract);\r\n        getRatio = IParameterInfo(_parameterInfoContract);\r\n        getValue = IOracle(_oracleContract);\r\n        USTNget = USTNInterface(_ustn);\r\n        USTNAget = USTNAInterface(_ustna);\r\n        ustnAuction = _ustna;\r\n\r\n        liquidationTime = 10 minutes;\r\n    }\r\n\r\n    function getOSMValue(bytes32 currencyName) internal view returns (uint){\r\n        return getValue.getCurrencyValue(currencyName);\r\n    }\r\n\r\n    function isDepositer(address pAddr) internal view returns (bool){\r\n        return depositers[pAddr];\r\n    }\r\n\r\n    //Storage function, msg.sender can store the number of tokens in USTN to the USTNFinance contract\r\n    function deposit(uint256 tokens) public returns (bool result){\r\n        require(tokens >= 1000000000 && tokens <= USTNget.balanceOf(msg.sender), \"balance not enough\");\r\n        if (!isDepositer(msg.sender)) {\r\n            depositers[msg.sender] = true;\r\n            depositUsers.push(msg.sender);\r\n            userPastTime[msg.sender] = block.timestamp;\r\n        }\r\n        USTNget.reduceBalance(msg.sender, tokens);\r\n        userDepositBalances[msg.sender] += tokens;\r\n        bankLoanLimit += _reserve(tokens);\r\n\r\n        emit dwDetail(block.timestamp, 1, msg.sender, tokens);\r\n        return true;\r\n    }\r\n\r\n    function _reserve(uint tokens) internal view returns (uint){\r\n        return tokens * (10000 - getRatio.getPlatformConfig(\"reserveRatio\")) / 10000;\r\n    }\r\n\r\n    //Users can withdraw USTN for the number of tokens from USTNFinance\r\n    function withdrawal(uint256 tokens) public returns (bool){\r\n        require(userDepositBalances[msg.sender] >= tokens, \"deposit balance not enough\");\r\n        userDepositBalances[msg.sender] -= tokens;\r\n        bankLoanLimit -= _reserve(tokens);\r\n        USTNget.addBalance(msg.sender, tokens);\r\n\r\n        emit dwDetail(block.timestamp, 2, msg.sender, tokens);\r\n        return true;\r\n    }\r\n\r\n    //Only used by FoundationManager\r\n    //Distribute the interest generated by the daily loan\r\n    function distributeDepositInterest() public onlyUser(FOUNDATION_MANAGER) returns (bool result){\r\n        //require(loansTotalInterest > 0 , \"no interest\");\r\n        uint point_total = 0;\r\n        //calculate everyone deposit point\r\n        for (uint c = 0; c < depositUsers.length; c++) {\r\n            userCurrentTime = block.timestamp;\r\n            uint o = (userCurrentTime - userPastTime[depositUsers[c]]) / liquidationTime;\r\n            userDepositPoint[depositUsers[c]] += userDepositBalances[depositUsers[c]] * o;\r\n            userPastTime[depositUsers[c]] += o * liquidationTime;\r\n        }\r\n\r\n        for (uint i = 0; i < depositUsers.length; i++) {\r\n            point_total += userDepositPoint[depositUsers[i]];\r\n        }\r\n        for (uint m = 0; m < depositUsers.length; m++) {\r\n            userDepositBalances[depositUsers[m]] += (loansTotalInterest * userDepositPoint[depositUsers[m]] / point_total);\r\n            emit dwDetail(block.timestamp, 3, depositUsers[m], loansTotalInterest * userDepositPoint[depositUsers[m]] / point_total);\r\n        }\r\n        loansTotalInterest = 0;\r\n        return true;\r\n    }\r\n\r\n    //Query the user's storage balance\r\n    function queryDepositBalance() public view returns (uint256 balance){\r\n        return userDepositBalances[msg.sender];\r\n    }\r\n\r\n    function isLoanuser(address pAddr) internal view returns (bool){\r\n        return loaners[pAddr];\r\n    }\r\n\r\n    //According to the interest rate of the OSM contract, obtain the exchange rate of the loan\r\n    function loansRate(uint256 tokens) public view returns (uint256){\r\n        uint exchange_amount = getOSMValue(unit) * tokens / getOSMValue(ustn) * getRatio.getPlatformConfig(\"loanPledgeRate\") / 10000;\r\n        return exchange_amount;\r\n    }\r\n\r\n    //Loan, used to lend USTN using msg.value amount of UNIT\r\n    function loans() public payable returns (bool){\r\n        require(msg.value >= 1000000000 && loansRate(msg.value) <= bankLoanLimit);\r\n        if (!isLoanuser(msg.sender)) {\r\n            loaners[msg.sender] = true;\r\n            loanUsers.push(msg.sender);\r\n        }\r\n        uint loanAmount = loansRate(msg.value);\r\n        uint _interest = loanAmount * getRatio.getPlatformConfig(\"loanInterestRate\") / 10000;\r\n        loanList memory acc;\r\n        acc.timestamp = block.timestamp;\r\n        acc.initialDebt = loanAmount;\r\n        acc.mortgage = msg.value;\r\n        acc.interest = _interest;\r\n        acc.debt = loanAmount + _interest;\r\n        acc.liquidationState = 0;\r\n        loanAccount[msg.sender].push(acc);\r\n        bankLoanLimit -= loanAmount;\r\n        USTNget.addBalance(msg.sender, loanAmount);\r\n        loansTotalInterest += _interest;\r\n        USTNget.addTotalSupply(loanAmount + _interest);\r\n        interestMint += _interest;\r\n\r\n        emit loanRecord(msg.sender, loanAccount[msg.sender].length - 1, msg.value, loanAmount + _interest, getRatio.getPlatformConfig(\"loanPledgeRate\"), 1, 1, loanAmount, msg.value, getOSMValue(unit), 0);\r\n        //emit loanRecord(msg.sender, loanAccount[msg.sender].length-1, msg.value, loanAmount + _interest, getRatio.getUSTNLoanPledgeRate(), 1, 4, _interest, 0, 0, 0);\r\n        return true;\r\n    }\r\n\r\n    //Add position operation, when the loan is lower than the warning line, the probability of being liquidated can be alleviated by adding positions\r\n    function addLoans(uint number) public payable returns (bool result){\r\n        require(loanAccount[msg.sender][number].liquidationState != 2, \"liquidated\");\r\n        uint a = pledge(loanAccount[msg.sender][number].mortgage, loanAccount[msg.sender][number].debt);\r\n        loanAccount[msg.sender][number].mortgage += msg.value;\r\n        uint _rate = pledge(loanAccount[msg.sender][number].mortgage, loanAccount[msg.sender][number].debt);\r\n        if (_rate >= getRatio.getUSTNLoanPledgeRateWarningValue()) {\r\n            loanAccount[msg.sender][number].liquidationState = 0;\r\n        } else {\r\n            loanAccount[msg.sender][number].liquidationState = 1;\r\n        }\r\n\r\n        emit loanRecord(msg.sender, number, loanAccount[msg.sender][number].mortgage, loanAccount[msg.sender][number].debt, _rate, 1, 2, 0, msg.value, getOSMValue(unit), a);\r\n        return true;\r\n    }\r\n\r\n    //Repay the loan, repay the USTN of the number of tokens, and get back the UNIT of the same value\r\n    function loansBack(uint number, uint tokens) public payable returns (bool result){\r\n        require(USTNget.balanceOf(msg.sender) >= tokens);\r\n        require(loanAccount[msg.sender][number].liquidationState != 2, \"liquidated\");\r\n        uint backPercent = 0;\r\n        if (tokens >= loanAccount[msg.sender][number].debt) {\r\n            USTNget.reduceBalance(msg.sender, loanAccount[msg.sender][number].debt);\r\n            bankLoanLimit += (loanAccount[msg.sender][number].debt - loanAccount[msg.sender][number].interest);\r\n            loanAccount[msg.sender][number].debt = 0;\r\n            loanAccount[msg.sender][number].interest = 0;\r\n            loanAccount[msg.sender][number].liquidationState = 2;\r\n            backPercent = multiple;\r\n        } else {\r\n            USTNget.reduceBalance(msg.sender, tokens);\r\n            if (loanAccount[msg.sender][number].interest > 0) {\r\n                if (loanAccount[msg.sender][number].interest <= tokens) {\r\n                    backPercent = tokens * multiple / loanAccount[msg.sender][number].debt;\r\n                    bankLoanLimit += (tokens - loanAccount[msg.sender][number].interest);\r\n                    loanAccount[msg.sender][number].interest = 0;\r\n                    interestMint -= loanAccount[msg.sender][number].interest;\r\n                    loanAccount[msg.sender][number].debt -= tokens;\r\n                } else {\r\n                    loanAccount[msg.sender][number].interest -= tokens;\r\n                    interestMint -= tokens;\r\n                    backPercent = tokens * multiple / loanAccount[msg.sender][number].debt;\r\n                    loanAccount[msg.sender][number].debt -= tokens;\r\n                }\r\n            } else {\r\n                bankLoanLimit += tokens;\r\n                backPercent = tokens * multiple / loanAccount[msg.sender][number].debt;\r\n                loanAccount[msg.sender][number].debt -= tokens;\r\n            }\r\n        }\r\n\r\n\r\n        uint _backUnit = loanAccount[msg.sender][number].mortgage * backPercent / multiple;\r\n        payable(msg.sender).transfer(_backUnit);\r\n        loanAccount[msg.sender][number].mortgage -= _backUnit;\r\n        emit loanRecord(msg.sender, number, loanAccount[msg.sender][number].mortgage, loanAccount[msg.sender][number].debt, 0, 1, 3, tokens, _backUnit, getOSMValue(unit), 0);\r\n        return true;\r\n    }\r\n\r\n    //The amount of USTN that the bank can leoan\r\n    function loanPossible() public view returns (uint){\r\n        return bankLoanLimit;\r\n    }\r\n\r\n    function pledge(uint a, uint b) internal view returns (uint){\r\n        return a * getOSMValue(unit) * 10000 / b / getOSMValue(ustn);\r\n    }\r\n\r\n    //based osm, liquidation by FoundationManager,state: 0:normal, 1:warning, 2:liquidated or complete the payment\r\n    function liquidation() public onlyUser(\"FoundationManager\") returns (bool result){\r\n        //calculate loan interest by Auditor\r\n        userLoansCurrentTime = block.timestamp;\r\n        for (uint a = 0; a < loanUsers.length; a++) {\r\n            for (uint b = 0; b < loanAccount[loanUsers[a]].length; b++) {\r\n                uint k = (userLoansCurrentTime - loanAccount[loanUsers[a]][b].timestamp) / liquidationTime;\r\n                loanAccount[loanUsers[a]][b].timestamp += k * liquidationTime;\r\n                uint interestBear = 0;\r\n                if (loanAccount[loanUsers[a]][b].liquidationState != 2) {\r\n                    while (k > 0) {\r\n                        uint _interest = loanAccount[loanUsers[a]][b].debt * getRatio.getPlatformConfig(\"loanInterestRate\") / 10000;\r\n                        loansTotalInterest += _interest;\r\n                        interestMint += _interest;\r\n                        USTNget.addTotalSupply(_interest);\r\n                        loanAccount[loanUsers[a]][b].interest += _interest;\r\n                        loanAccount[loanUsers[a]][b].debt += _interest;\r\n                        interestBear += _interest;\r\n                        k--;\r\n                    }\r\n                    emit loanRecord(loanUsers[a], b, loanAccount[loanUsers[a]][b].mortgage, loanAccount[loanUsers[a]][b].debt, pledge(loanAccount[loanUsers[a]][b].mortgage, loanAccount[loanUsers[a]][b].debt), 1, 4, interestBear, 0, 0, 0);\r\n                }\r\n            }\r\n        }\r\n\r\n        //check every account liquidation state\r\n        for (uint m = 0; m < loanUsers.length; m++) {\r\n            for (uint n = 0; n < loanAccount[loanUsers[m]].length; n++) {\r\n                if ((loanAccount[loanUsers[m]][n]).liquidationState != 2) {\r\n                    uint _x = pledge(loanAccount[loanUsers[m]][n].mortgage, loanAccount[loanUsers[m]][n].debt);\r\n                    if (_x <= getRatio.getUSTNLoanPledgeRateWarningValue()) {\r\n                        if (_x >= getRatio.getUSTNLoanLiquidationRate()) {\r\n                            loanAccount[loanUsers[m]][n].liquidationState = 1;\r\n                        }\r\n                        if (_x < getRatio.getUSTNLoanLiquidationRate()) {\r\n                            loanAccount[loanUsers[m]][n].liquidationState = 2;\r\n                            USTNAget.auctionStart(loanAccount[loanUsers[m]][n].mortgage, loanAccount[loanUsers[m]][n].debt, (loanAccount[loanUsers[m]][n].interest));\r\n                        }\r\n                        emit loanRecord(loanUsers[m], n, loanAccount[loanUsers[m]][n].mortgage, loanAccount[loanUsers[m]][n].debt, _x, loanAccount[loanUsers[m]][n].liquidationState + 1, 5, 0, 0, 0, 0);\r\n                    } else {\r\n                        loanAccount[loanUsers[m]][n].liquidationState = 0;\r\n                    }\r\n                }\r\n            }\r\n        }\r\n\r\n        return true;\r\n    }\r\n\r\n    // USTNAuction use only\r\n    // Triggered when the auction ends and the user gets the auction item\r\n    function auctionOver(address bider, uint tokens, uint a, uint b) public returns (bool){\r\n        require(msg.sender == ustnAuction);\r\n        payable(bider).transfer(tokens);\r\n        interestMint -= a;\r\n        bankLoanLimit += b;\r\n        return true;\r\n    }\r\n\r\n    //Users query all their loan information\r\n    function queryLoan() public view returns (loanList[] memory){\r\n        return loanAccount[msg.sender];\r\n    }\r\n\r\n    function initialize() public initializer {\r\n        __Ownable_init();\r\n    }\r\n\r\n    function GetInitializeData() public pure returns (bytes memory){\r\n        return abi.encodeWithSignature(\"initialize()\");\r\n    }\r\n}\r\n",
  "sourcePath": "D:\\work\\Treasurenet-contracts\\fork\\treasurenet-contracts\\contracts\\USTN\\USTNFinance.sol",
  "compiler": {
    "name": "solc",
    "version": "0.8.10+commit.fc410830.Emscripten.clang"
  },
  "schemaVersion": "3.4.16",
  "updatedAt": "2024-04-29T07:29:53.160Z",
  "devdoc": {
    "kind": "dev",
    "methods": {
      "owner()": {
        "details": "Returns the address of the current owner."
      },
      "renounceOwnership()": {
        "details": "Leaves the contract without owner. It will not be possible to call `onlyOwner` functions anymore. Can only be called by the current owner. NOTE: Renouncing ownership will leave the contract without an owner, thereby removing any functionality that is only available to the owner."
      },
      "transferOwnership(address)": {
        "details": "Transfers ownership of the contract to a new account (`newOwner`). Can only be called by the current owner."
      }
    },
    "version": 1
  },
  "userdoc": {
    "kind": "user",
    "methods": {},
    "version": 1
  }
}